{
	"contracts/YieldFarm.sol": {
		"YieldFarm": {
			"abi": [
				{
					"inputs": [],
					"name": "InvalidInitialization",
					"type": "error"
				},
				{
					"inputs": [],
					"name": "NotInitializing",
					"type": "error"
				},
				{
					"inputs": [
						{
							"internalType": "address",
							"name": "owner",
							"type": "address"
						}
					],
					"name": "OwnableInvalidOwner",
					"type": "error"
				},
				{
					"inputs": [
						{
							"internalType": "address",
							"name": "account",
							"type": "address"
						}
					],
					"name": "OwnableUnauthorizedAccount",
					"type": "error"
				},
				{
					"anonymous": false,
					"inputs": [
						{
							"indexed": true,
							"internalType": "address",
							"name": "user",
							"type": "address"
						},
						{
							"indexed": true,
							"internalType": "uint256",
							"name": "pid",
							"type": "uint256"
						},
						{
							"indexed": false,
							"internalType": "uint256",
							"name": "amount",
							"type": "uint256"
						}
					],
					"name": "EmergencyWithdraw",
					"type": "event"
				},
				{
					"anonymous": false,
					"inputs": [
						{
							"indexed": false,
							"internalType": "uint64",
							"name": "version",
							"type": "uint64"
						}
					],
					"name": "Initialized",
					"type": "event"
				},
				{
					"anonymous": false,
					"inputs": [
						{
							"indexed": true,
							"internalType": "address",
							"name": "previousOwner",
							"type": "address"
						},
						{
							"indexed": true,
							"internalType": "address",
							"name": "newOwner",
							"type": "address"
						}
					],
					"name": "OwnershipTransferred",
					"type": "event"
				},
				{
					"anonymous": false,
					"inputs": [
						{
							"indexed": true,
							"internalType": "uint256",
							"name": "pid",
							"type": "uint256"
						},
						{
							"indexed": false,
							"internalType": "address",
							"name": "stakingToken",
							"type": "address"
						},
						{
							"indexed": false,
							"internalType": "address",
							"name": "rewardToken",
							"type": "address"
						},
						{
							"indexed": false,
							"internalType": "uint256",
							"name": "rewardRate",
							"type": "uint256"
						},
						{
							"indexed": false,
							"internalType": "uint256",
							"name": "lockDuration",
							"type": "uint256"
						}
					],
					"name": "PoolAdded",
					"type": "event"
				},
				{
					"anonymous": false,
					"inputs": [
						{
							"indexed": true,
							"internalType": "address",
							"name": "user",
							"type": "address"
						},
						{
							"indexed": true,
							"internalType": "address",
							"name": "referrer",
							"type": "address"
						}
					],
					"name": "ReferrerSet",
					"type": "event"
				},
				{
					"anonymous": false,
					"inputs": [
						{
							"indexed": true,
							"internalType": "address",
							"name": "user",
							"type": "address"
						},
						{
							"indexed": true,
							"internalType": "uint256",
							"name": "pid",
							"type": "uint256"
						},
						{
							"indexed": false,
							"internalType": "uint256",
							"name": "reward",
							"type": "uint256"
						}
					],
					"name": "RewardPaid",
					"type": "event"
				},
				{
					"anonymous": false,
					"inputs": [
						{
							"indexed": true,
							"internalType": "address",
							"name": "user",
							"type": "address"
						},
						{
							"indexed": true,
							"internalType": "uint256",
							"name": "pid",
							"type": "uint256"
						},
						{
							"indexed": false,
							"internalType": "uint256",
							"name": "amount",
							"type": "uint256"
						},
						{
							"indexed": false,
							"internalType": "uint256",
							"name": "lockUntil",
							"type": "uint256"
						}
					],
					"name": "Staked",
					"type": "event"
				},
				{
					"anonymous": false,
					"inputs": [
						{
							"indexed": true,
							"internalType": "address",
							"name": "user",
							"type": "address"
						},
						{
							"indexed": true,
							"internalType": "uint256",
							"name": "pid",
							"type": "uint256"
						},
						{
							"indexed": false,
							"internalType": "uint256",
							"name": "amount",
							"type": "uint256"
						}
					],
					"name": "Unstaked",
					"type": "event"
				},
				{
					"inputs": [
						{
							"internalType": "contract IERC20Upgradeable",
							"name": "_stakingToken",
							"type": "address"
						},
						{
							"internalType": "contract IERC20Upgradeable",
							"name": "_rewardToken",
							"type": "address"
						},
						{
							"internalType": "uint256",
							"name": "_rewardRate",
							"type": "uint256"
						},
						{
							"internalType": "uint256",
							"name": "_lockDuration",
							"type": "uint256"
						}
					],
					"name": "addPool",
					"outputs": [],
					"stateMutability": "nonpayable",
					"type": "function"
				},
				{
					"inputs": [],
					"name": "baseRewardRate",
					"outputs": [
						{
							"internalType": "uint256",
							"name": "",
							"type": "uint256"
						}
					],
					"stateMutability": "view",
					"type": "function"
				},
				{
					"inputs": [
						{
							"internalType": "uint256",
							"name": "_pid",
							"type": "uint256"
						}
					],
					"name": "claimReward",
					"outputs": [],
					"stateMutability": "nonpayable",
					"type": "function"
				},
				{
					"inputs": [
						{
							"internalType": "address",
							"name": "_user",
							"type": "address"
						},
						{
							"internalType": "uint256",
							"name": "_amount",
							"type": "uint256"
						}
					],
					"name": "distributeGovernanceTokens",
					"outputs": [],
					"stateMutability": "nonpayable",
					"type": "function"
				},
				{
					"inputs": [
						{
							"internalType": "uint256",
							"name": "_pid",
							"type": "uint256"
						}
					],
					"name": "emergencyWithdraw",
					"outputs": [],
					"stateMutability": "nonpayable",
					"type": "function"
				},
				{
					"inputs": [],
					"name": "governanceToken",
					"outputs": [
						{
							"internalType": "contract IERC20Upgradeable",
							"name": "",
							"type": "address"
						}
					],
					"stateMutability": "view",
					"type": "function"
				},
				{
					"inputs": [
						{
							"internalType": "contract IERC20Upgradeable",
							"name": "_governanceToken",
							"type": "address"
						},
						{
							"internalType": "contract IERC721Upgradeable",
							"name": "_nftToken",
							"type": "address"
						},
						{
							"internalType": "uint256",
							"name": "_baseRewardRate",
							"type": "uint256"
						},
						{
							"internalType": "uint256",
							"name": "_maxMultiplier",
							"type": "uint256"
						},
						{
							"internalType": "uint256",
							"name": "_multiplierDuration",
							"type": "uint256"
						},
						{
							"internalType": "uint256",
							"name": "_nftBoostRate",
							"type": "uint256"
						},
						{
							"internalType": "uint256",
							"name": "_referralBonus",
							"type": "uint256"
						},
						{
							"internalType": "uint256",
							"name": "_refereeBonus",
							"type": "uint256"
						}
					],
					"name": "initialize",
					"outputs": [],
					"stateMutability": "nonpayable",
					"type": "function"
				},
				{
					"inputs": [],
					"name": "maxMultiplier",
					"outputs": [
						{
							"internalType": "uint256",
							"name": "",
							"type": "uint256"
						}
					],
					"stateMutability": "view",
					"type": "function"
				},
				{
					"inputs": [],
					"name": "multiplierDuration",
					"outputs": [
						{
							"internalType": "uint256",
							"name": "",
							"type": "uint256"
						}
					],
					"stateMutability": "view",
					"type": "function"
				},
				{
					"inputs": [],
					"name": "nftBoostRate",
					"outputs": [
						{
							"internalType": "uint256",
							"name": "",
							"type": "uint256"
						}
					],
					"stateMutability": "view",
					"type": "function"
				},
				{
					"inputs": [],
					"name": "nftToken",
					"outputs": [
						{
							"internalType": "contract IERC721Upgradeable",
							"name": "",
							"type": "address"
						}
					],
					"stateMutability": "view",
					"type": "function"
				},
				{
					"inputs": [],
					"name": "owner",
					"outputs": [
						{
							"internalType": "address",
							"name": "",
							"type": "address"
						}
					],
					"stateMutability": "view",
					"type": "function"
				},
				{
					"inputs": [],
					"name": "pause",
					"outputs": [],
					"stateMutability": "nonpayable",
					"type": "function"
				},
				{
					"inputs": [],
					"name": "paused",
					"outputs": [
						{
							"internalType": "bool",
							"name": "",
							"type": "bool"
						}
					],
					"stateMutability": "view",
					"type": "function"
				},
				{
					"inputs": [
						{
							"internalType": "uint256",
							"name": "",
							"type": "uint256"
						}
					],
					"name": "poolInfo",
					"outputs": [
						{
							"internalType": "contract IERC20Upgradeable",
							"name": "stakingToken",
							"type": "address"
						},
						{
							"internalType": "contract IERC20Upgradeable",
							"name": "rewardToken",
							"type": "address"
						},
						{
							"internalType": "uint256",
							"name": "rewardRate",
							"type": "uint256"
						},
						{
							"internalType": "uint256",
							"name": "lockDuration",
							"type": "uint256"
						},
						{
							"internalType": "uint256",
							"name": "totalStaked",
							"type": "uint256"
						},
						{
							"internalType": "uint256",
							"name": "accRewardPerShare",
							"type": "uint256"
						},
						{
							"internalType": "uint256",
							"name": "lastRewardTime",
							"type": "uint256"
						}
					],
					"stateMutability": "view",
					"type": "function"
				},
				{
					"inputs": [
						{
							"internalType": "uint256",
							"name": "",
							"type": "uint256"
						},
						{
							"internalType": "address",
							"name": "",
							"type": "address"
						}
					],
					"name": "poolStakes",
					"outputs": [
						{
							"internalType": "uint256",
							"name": "amount",
							"type": "uint256"
						},
						{
							"internalType": "uint256",
							"name": "rewardDebt",
							"type": "uint256"
						},
						{
							"internalType": "uint256",
							"name": "lockUntil",
							"type": "uint256"
						}
					],
					"stateMutability": "view",
					"type": "function"
				},
				{
					"inputs": [],
					"name": "refereeBonus",
					"outputs": [
						{
							"internalType": "uint256",
							"name": "",
							"type": "uint256"
						}
					],
					"stateMutability": "view",
					"type": "function"
				},
				{
					"inputs": [],
					"name": "referralBonus",
					"outputs": [
						{
							"internalType": "uint256",
							"name": "",
							"type": "uint256"
						}
					],
					"stateMutability": "view",
					"type": "function"
				},
				{
					"inputs": [
						{
							"internalType": "address",
							"name": "",
							"type": "address"
						}
					],
					"name": "referralRewards",
					"outputs": [
						{
							"internalType": "uint256",
							"name": "",
							"type": "uint256"
						}
					],
					"stateMutability": "view",
					"type": "function"
				},
				{
					"inputs": [
						{
							"internalType": "address",
							"name": "",
							"type": "address"
						}
					],
					"name": "referrers",
					"outputs": [
						{
							"internalType": "address",
							"name": "",
							"type": "address"
						}
					],
					"stateMutability": "view",
					"type": "function"
				},
				{
					"inputs": [],
					"name": "renounceOwnership",
					"outputs": [],
					"stateMutability": "nonpayable",
					"type": "function"
				},
				{
					"inputs": [
						{
							"internalType": "uint256",
							"name": "_pid",
							"type": "uint256"
						},
						{
							"internalType": "uint256",
							"name": "_lockDuration",
							"type": "uint256"
						}
					],
					"name": "setLockDuration",
					"outputs": [],
					"stateMutability": "nonpayable",
					"type": "function"
				},
				{
					"inputs": [
						{
							"internalType": "uint256",
							"name": "_nftBoostRate",
							"type": "uint256"
						}
					],
					"name": "setNftBoostRate",
					"outputs": [],
					"stateMutability": "nonpayable",
					"type": "function"
				},
				{
					"inputs": [
						{
							"internalType": "address",
							"name": "_referrer",
							"type": "address"
						}
					],
					"name": "setReferrer",
					"outputs": [],
					"stateMutability": "nonpayable",
					"type": "function"
				},
				{
					"inputs": [
						{
							"internalType": "uint256",
							"name": "_pid",
							"type": "uint256"
						},
						{
							"internalType": "uint256",
							"name": "_rewardRate",
							"type": "uint256"
						}
					],
					"name": "setRewardRate",
					"outputs": [],
					"stateMutability": "nonpayable",
					"type": "function"
				},
				{
					"inputs": [
						{
							"internalType": "uint256",
							"name": "_pid",
							"type": "uint256"
						},
						{
							"internalType": "uint256",
							"name": "_amount",
							"type": "uint256"
						}
					],
					"name": "stake",
					"outputs": [],
					"stateMutability": "nonpayable",
					"type": "function"
				},
				{
					"inputs": [
						{
							"internalType": "address",
							"name": "newOwner",
							"type": "address"
						}
					],
					"name": "transferOwnership",
					"outputs": [],
					"stateMutability": "nonpayable",
					"type": "function"
				},
				{
					"inputs": [],
					"name": "unpause",
					"outputs": [],
					"stateMutability": "nonpayable",
					"type": "function"
				},
				{
					"inputs": [
						{
							"internalType": "uint256",
							"name": "_pid",
							"type": "uint256"
						},
						{
							"internalType": "uint256",
							"name": "_amount",
							"type": "uint256"
						}
					],
					"name": "unstake",
					"outputs": [],
					"stateMutability": "nonpayable",
					"type": "function"
				}
			],
			"devdoc": {
				"details": "A yield farming contract where users can stake ERC-20 tokens to earn rewards. It includes support for boosting rewards with NFTs and a referral system.",
				"errors": {
					"InvalidInitialization()": [
						{
							"details": "The contract is already initialized."
						}
					],
					"NotInitializing()": [
						{
							"details": "The contract is not initializing."
						}
					],
					"OwnableInvalidOwner(address)": [
						{
							"details": "The owner is not a valid owner account. (eg. `address(0)`)"
						}
					],
					"OwnableUnauthorizedAccount(address)": [
						{
							"details": "The caller account is not authorized to perform an operation."
						}
					]
				},
				"events": {
					"Initialized(uint64)": {
						"details": "Triggered when the contract has been initialized or reinitialized."
					}
				},
				"kind": "dev",
				"methods": {
					"addPool(address,address,uint256,uint256)": {
						"details": "Adds a new staking pool",
						"params": {
							"_lockDuration": "Duration for which stakes are locked",
							"_rewardRate": "Rate at which rewards are distributed",
							"_rewardToken": "Address of the token given as reward",
							"_stakingToken": "Address of the token to be staked"
						}
					},
					"claimReward(uint256)": {
						"details": "Allows a user to claim their rewards from a specific pool",
						"params": {
							"_pid": "Pool ID"
						}
					},
					"distributeGovernanceTokens(address,uint256)": {
						"details": "Allows the owner to distribute governance tokens",
						"params": {
							"_amount": "Amount of tokens to distribute",
							"_user": "Address of the user to receive tokens"
						}
					},
					"emergencyWithdraw(uint256)": {
						"details": "Allows a user to emergency withdraw their stake without caring about rewards",
						"params": {
							"_pid": "Pool ID"
						}
					},
					"initialize(address,address,uint256,uint256,uint256,uint256,uint256,uint256)": {
						"details": "Initializes the contract with initial values",
						"params": {
							"_baseRewardRate": "Base rate for reward calculation",
							"_governanceToken": "Address of the governance token",
							"_maxMultiplier": "Maximum multiplier for rewards",
							"_multiplierDuration": "Duration over which the multiplier increases",
							"_nftBoostRate": "Boost rate for holding NFTs",
							"_nftToken": "Address of the NFT token for boost mechanism",
							"_refereeBonus": "Bonus for being referred",
							"_referralBonus": "Bonus for referring new users"
						}
					},
					"owner()": {
						"details": "Returns the address of the current owner."
					},
					"pause()": {
						"details": "Allows the owner to pause the contract"
					},
					"renounceOwnership()": {
						"details": "Leaves the contract without owner. It will not be possible to call `onlyOwner` functions. Can only be called by the current owner. NOTE: Renouncing ownership will leave the contract without an owner, thereby disabling any functionality that is only available to the owner."
					},
					"setLockDuration(uint256,uint256)": {
						"details": "Allows the owner to set the lock duration for a specific pool",
						"params": {
							"_lockDuration": "New lock duration",
							"_pid": "Pool ID"
						}
					},
					"setNftBoostRate(uint256)": {
						"details": "Allows the owner to set the NFT boost rate",
						"params": {
							"_nftBoostRate": "New NFT boost rate"
						}
					},
					"setReferrer(address)": {
						"details": "Allows a user to set their referrer",
						"params": {
							"_referrer": "Address of the referrer"
						}
					},
					"setRewardRate(uint256,uint256)": {
						"details": "Allows the owner to set the reward rate for a specific pool",
						"params": {
							"_pid": "Pool ID",
							"_rewardRate": "New reward rate"
						}
					},
					"stake(uint256,uint256)": {
						"details": "Allows a user to stake tokens in a specific pool",
						"params": {
							"_amount": "Amount of tokens to stake",
							"_pid": "Pool ID"
						}
					},
					"transferOwnership(address)": {
						"details": "Transfers ownership of the contract to a new account (`newOwner`). Can only be called by the current owner."
					},
					"unpause()": {
						"details": "Allows the owner to unpause the contract"
					},
					"unstake(uint256,uint256)": {
						"details": "Allows a user to unstake tokens from a specific pool",
						"params": {
							"_amount": "Amount of tokens to unstake",
							"_pid": "Pool ID"
						}
					}
				},
				"title": "YieldFarm",
				"version": 1
			},
			"evm": {
				"assembly": "    /* \"contracts/YieldFarm.sol\":739:12457  contract YieldFarm is Initializable, ReentrancyGuardUpgradeable, OwnableUpgradeable {... */\n  mstore(0x40, 0x80)\n  callvalue\n  dup1\n  iszero\n  tag_1\n  jumpi\n  0x00\n  dup1\n  revert\ntag_1:\n  pop\n  dataSize(sub_0)\n  dup1\n  dataOffset(sub_0)\n  0x00\n  codecopy\n  0x00\n  return\nstop\n\nsub_0: assembly {\n        /* \"contracts/YieldFarm.sol\":739:12457  contract YieldFarm is Initializable, ReentrancyGuardUpgradeable, OwnableUpgradeable {... */\n      mstore(0x40, 0x80)\n      callvalue\n      dup1\n      iszero\n      tag_1\n      jumpi\n      0x00\n      dup1\n      revert\n    tag_1:\n      pop\n      jumpi(tag_2, lt(calldatasize, 0x04))\n      shr(0xe0, calldataload(0x00))\n      dup1\n      0x8456cb59\n      gt\n      tag_32\n      jumpi\n      dup1\n      0xc20632ba\n      gt\n      tag_33\n      jumpi\n      dup1\n      0xdfaae412\n      gt\n      tag_34\n      jumpi\n      dup1\n      0xdfaae412\n      eq\n      tag_28\n      jumpi\n      dup1\n      0xe0283faf\n      eq\n      tag_29\n      jumpi\n      dup1\n      0xf2fde38b\n      eq\n      tag_30\n      jumpi\n      dup1\n      0xf96dae0a\n      eq\n      tag_31\n      jumpi\n      jump(tag_2)\n    tag_34:\n      dup1\n      0xc20632ba\n      eq\n      tag_24\n      jumpi\n      dup1\n      0xce7842f5\n      eq\n      tag_25\n      jumpi\n      dup1\n      0xce98f049\n      eq\n      tag_26\n      jumpi\n      dup1\n      0xd06fcba8\n      eq\n      tag_27\n      jumpi\n      jump(tag_2)\n    tag_33:\n      dup1\n      0x9e2c8a5b\n      gt\n      tag_35\n      jumpi\n      dup1\n      0x9e2c8a5b\n      eq\n      tag_20\n      jumpi\n      dup1\n      0xa18a7bfc\n      eq\n      tag_21\n      jumpi\n      dup1\n      0xae169a50\n      eq\n      tag_22\n      jumpi\n      dup1\n      0xafbf3440\n      eq\n      tag_23\n      jumpi\n      jump(tag_2)\n    tag_35:\n      dup1\n      0x8456cb59\n      eq\n      tag_17\n      jumpi\n      dup1\n      0x8ba796af\n      eq\n      tag_18\n      jumpi\n      dup1\n      0x8da5cb5b\n      eq\n      tag_19\n      jumpi\n      jump(tag_2)\n    tag_32:\n      dup1\n      0x3f4ba83a\n      gt\n      tag_36\n      jumpi\n      dup1\n      0x53aaa63b\n      gt\n      tag_37\n      jumpi\n      dup1\n      0x53aaa63b\n      eq\n      tag_13\n      jumpi\n      dup1\n      0x5c975abb\n      eq\n      tag_14\n      jumpi\n      dup1\n      0x715018a6\n      eq\n      tag_15\n      jumpi\n      dup1\n      0x7b0472f0\n      eq\n      tag_16\n      jumpi\n      jump(tag_2)\n    tag_37:\n      dup1\n      0x3f4ba83a\n      eq\n      tag_10\n      jumpi\n      dup1\n      0x4a3b68cc\n      eq\n      tag_11\n      jumpi\n      dup1\n      0x5312ea8e\n      eq\n      tag_12\n      jumpi\n      jump(tag_2)\n    tag_36:\n      dup1\n      0x1526fe27\n      gt\n      tag_38\n      jumpi\n      dup1\n      0x1526fe27\n      eq\n      tag_6\n      jumpi\n      dup1\n      0x3462e0a8\n      eq\n      tag_7\n      jumpi\n      dup1\n      0x381e75eb\n      eq\n      tag_8\n      jumpi\n      dup1\n      0x3b1e3eb8\n      eq\n      tag_9\n      jumpi\n      jump(tag_2)\n    tag_38:\n      dup1\n      0x0187aea0\n      eq\n      tag_3\n      jumpi\n      dup1\n      0x085cde2d\n      eq\n      tag_4\n      jumpi\n      dup1\n      0x126796dd\n      eq\n      tag_5\n      jumpi\n    tag_2:\n      0x00\n      dup1\n      revert\n        /* \"contracts/YieldFarm.sol\":2302:2330  uint256 public maxMultiplier */\n    tag_3:\n      tag_39\n      tag_40\n      jump\t// in\n    tag_39:\n      mload(0x40)\n      tag_41\n      swap2\n      swap1\n      tag_42\n      jump\t// in\n    tag_41:\n      mload(0x40)\n      dup1\n      swap2\n      sub\n      swap1\n      return\n        /* \"contracts/YieldFarm.sol\":2374:2407  uint256 public multiplierDuration */\n    tag_4:\n      tag_43\n      tag_44\n      jump\t// in\n    tag_43:\n      mload(0x40)\n      tag_45\n      swap2\n      swap1\n      tag_42\n      jump\t// in\n    tag_45:\n      mload(0x40)\n      dup1\n      swap2\n      sub\n      swap1\n      return\n        /* \"contracts/YieldFarm.sol\":9557:9698  function setLockDuration(uint256 _pid, uint256 _lockDuration) external onlyOwner {... */\n    tag_5:\n      tag_46\n      0x04\n      dup1\n      calldatasize\n      sub\n      dup2\n      add\n      swap1\n      tag_47\n      swap2\n      swap1\n      tag_48\n      jump\t// in\n    tag_47:\n      tag_49\n      jump\t// in\n    tag_46:\n      stop\n        /* \"contracts/YieldFarm.sol\":1813:1839  PoolInfo[] public poolInfo */\n    tag_6:\n      tag_50\n      0x04\n      dup1\n      calldatasize\n      sub\n      dup2\n      add\n      swap1\n      tag_51\n      swap2\n      swap1\n      tag_52\n      jump\t// in\n    tag_51:\n      tag_53\n      jump\t// in\n    tag_50:\n      mload(0x40)\n      tag_54\n      swap8\n      swap7\n      swap6\n      swap5\n      swap4\n      swap3\n      swap2\n      swap1\n      tag_55\n      jump\t// in\n    tag_54:\n      mload(0x40)\n      dup1\n      swap2\n      sub\n      swap1\n      return\n        /* \"contracts/YieldFarm.sol\":9255:9388  function setRewardRate(uint256 _pid, uint256 _rewardRate) external onlyOwner {... */\n    tag_7:\n      tag_56\n      0x04\n      dup1\n      calldatasize\n      sub\n      dup2\n      add\n      swap1\n      tag_57\n      swap2\n      swap1\n      tag_48\n      jump\t// in\n    tag_57:\n      tag_58\n      jump\t// in\n    tag_56:\n      stop\n        /* \"contracts/YieldFarm.sol\":1885:1952  mapping(uint256 => mapping(address => StakeInfo)) public poolStakes */\n    tag_8:\n      tag_59\n      0x04\n      dup1\n      calldatasize\n      sub\n      dup2\n      add\n      swap1\n      tag_60\n      swap2\n      swap1\n      tag_61\n      jump\t// in\n    tag_60:\n      tag_62\n      jump\t// in\n    tag_59:\n      mload(0x40)\n      tag_63\n      swap4\n      swap3\n      swap2\n      swap1\n      tag_64\n      jump\t// in\n    tag_63:\n      mload(0x40)\n      dup1\n      swap2\n      sub\n      swap1\n      return\n        /* \"contracts/YieldFarm.sol\":9822:9934  function setNftBoostRate(uint256 _nftBoostRate) external onlyOwner {... */\n    tag_9:\n      tag_65\n      0x04\n      dup1\n      calldatasize\n      sub\n      dup2\n      add\n      swap1\n      tag_66\n      swap2\n      swap1\n      tag_52\n      jump\t// in\n    tag_66:\n      tag_67\n      jump\t// in\n    tag_65:\n      stop\n        /* \"contracts/YieldFarm.sol\":10490:10559  function unpause() external onlyOwner {... */\n    tag_10:\n      tag_68\n      tag_69\n      jump\t// in\n    tag_68:\n      stop\n        /* \"contracts/YieldFarm.sol\":2011:2055  mapping(address => address) public referrers */\n    tag_11:\n      tag_70\n      0x04\n      dup1\n      calldatasize\n      sub\n      dup2\n      add\n      swap1\n      tag_71\n      swap2\n      swap1\n      tag_72\n      jump\t// in\n    tag_71:\n      tag_73\n      jump\t// in\n    tag_70:\n      mload(0x40)\n      tag_74\n      swap2\n      swap1\n      tag_75\n      jump\t// in\n    tag_74:\n      mload(0x40)\n      dup1\n      swap2\n      sub\n      swap1\n      return\n        /* \"contracts/YieldFarm.sol\":8066:8575  function emergencyWithdraw(uint256 _pid) external nonReentrant {... */\n    tag_12:\n      tag_76\n      0x04\n      dup1\n      calldatasize\n      sub\n      dup2\n      add\n      swap1\n      tag_77\n      swap2\n      swap1\n      tag_52\n      jump\t// in\n    tag_77:\n      tag_78\n      jump\t// in\n    tag_76:\n      stop\n        /* \"contracts/YieldFarm.sol\":2117:2167  mapping(address => uint256) public referralRewards */\n    tag_13:\n      tag_79\n      0x04\n      dup1\n      calldatasize\n      sub\n      dup2\n      add\n      swap1\n      tag_80\n      swap2\n      swap1\n      tag_72\n      jump\t// in\n    tag_80:\n      tag_81\n      jump\t// in\n    tag_79:\n      mload(0x40)\n      tag_82\n      swap2\n      swap1\n      tag_42\n      jump\t// in\n    tag_82:\n      mload(0x40)\n      dup1\n      swap2\n      sub\n      swap1\n      return\n        /* \"contracts/YieldFarm.sol\":2668:2686  bool public paused */\n    tag_14:\n      tag_83\n      tag_84\n      jump\t// in\n    tag_83:\n      mload(0x40)\n      tag_85\n      swap2\n      swap1\n      tag_86\n      jump\t// in\n    tag_85:\n      mload(0x40)\n      dup1\n      swap2\n      sub\n      swap1\n      return\n        /* \"@openzeppelin/contracts-upgradeable/access/OwnableUpgradeable.sol\":3155:3256  function renounceOwnership() public virtual onlyOwner {... */\n    tag_15:\n      tag_87\n      tag_88\n      jump\t// in\n    tag_87:\n      stop\n        /* \"contracts/YieldFarm.sol\":6046:6662  function stake(uint256 _pid, uint256 _amount) external nonReentrant whenNotPaused {... */\n    tag_16:\n      tag_89\n      0x04\n      dup1\n      calldatasize\n      sub\n      dup2\n      add\n      swap1\n      tag_90\n      swap2\n      swap1\n      tag_48\n      jump\t// in\n    tag_90:\n      tag_91\n      jump\t// in\n    tag_89:\n      stop\n        /* \"contracts/YieldFarm.sol\":10349:10415  function pause() external onlyOwner {... */\n    tag_17:\n      tag_92\n      tag_93\n      jump\t// in\n    tag_92:\n      stop\n        /* \"contracts/YieldFarm.sol\":4231:4955  function initialize(... */\n    tag_18:\n      tag_94\n      0x04\n      dup1\n      calldatasize\n      sub\n      dup2\n      add\n      swap1\n      tag_95\n      swap2\n      swap1\n      tag_96\n      jump\t// in\n    tag_95:\n      tag_97\n      jump\t// in\n    tag_94:\n      stop\n        /* \"@openzeppelin/contracts-upgradeable/access/OwnableUpgradeable.sol\":2441:2585  function owner() public view virtual returns (address) {... */\n    tag_19:\n      tag_98\n      tag_99\n      jump\t// in\n    tag_98:\n      mload(0x40)\n      tag_100\n      swap2\n      swap1\n      tag_75\n      jump\t// in\n    tag_100:\n      mload(0x40)\n      dup1\n      swap2\n      sub\n      swap1\n      return\n        /* \"contracts/YieldFarm.sol\":6826:7435  function unstake(uint256 _pid, uint256 _amount) external nonReentrant {... */\n    tag_20:\n      tag_101\n      0x04\n      dup1\n      calldatasize\n      sub\n      dup2\n      add\n      swap1\n      tag_102\n      swap2\n      swap1\n      tag_48\n      jump\t// in\n    tag_102:\n      tag_103\n      jump\t// in\n    tag_101:\n      stop\n        /* \"contracts/YieldFarm.sol\":8693:9092  function setReferrer(address _referrer) external {... */\n    tag_21:\n      tag_104\n      0x04\n      dup1\n      calldatasize\n      sub\n      dup2\n      add\n      swap1\n      tag_105\n      swap2\n      swap1\n      tag_72\n      jump\t// in\n    tag_105:\n      tag_106\n      jump\t// in\n    tag_104:\n      stop\n        /* \"contracts/YieldFarm.sol\":7554:7928  function claimReward(uint256 _pid) external nonReentrant {... */\n    tag_22:\n      tag_107\n      0x04\n      dup1\n      calldatasize\n      sub\n      dup2\n      add\n      swap1\n      tag_108\n      swap2\n      swap1\n      tag_52\n      jump\t// in\n    tag_108:\n      tag_109\n      jump\t// in\n    tag_107:\n      stop\n        /* \"contracts/YieldFarm.sol\":2228:2257  uint256 public baseRewardRate */\n    tag_23:\n      tag_110\n      tag_111\n      jump\t// in\n    tag_110:\n      mload(0x40)\n      tag_112\n      swap2\n      swap1\n      tag_42\n      jump\t// in\n    tag_112:\n      mload(0x40)\n      dup1\n      swap2\n      sub\n      swap1\n      return\n        /* \"contracts/YieldFarm.sol\":5268:5888  function addPool(... */\n    tag_24:\n      tag_113\n      0x04\n      dup1\n      calldatasize\n      sub\n      dup2\n      add\n      swap1\n      tag_114\n      swap2\n      swap1\n      tag_115\n      jump\t// in\n    tag_114:\n      tag_116\n      jump\t// in\n    tag_113:\n      stop\n        /* \"contracts/YieldFarm.sol\":2531:2559  uint256 public referralBonus */\n    tag_25:\n      tag_117\n      tag_118\n      jump\t// in\n    tag_117:\n      mload(0x40)\n      tag_119\n      swap2\n      swap1\n      tag_42\n      jump\t// in\n    tag_119:\n      mload(0x40)\n      dup1\n      swap2\n      sub\n      swap1\n      return\n        /* \"contracts/YieldFarm.sol\":2602:2629  uint256 public refereeBonus */\n    tag_26:\n      tag_120\n      tag_121\n      jump\t// in\n    tag_120:\n      mload(0x40)\n      tag_122\n      swap2\n      swap1\n      tag_42\n      jump\t// in\n    tag_122:\n      mload(0x40)\n      dup1\n      swap2\n      sub\n      swap1\n      return\n        /* \"contracts/YieldFarm.sol\":2760:2794  IERC721Upgradeable public nftToken */\n    tag_27:\n      tag_123\n      tag_124\n      jump\t// in\n    tag_123:\n      mload(0x40)\n      tag_125\n      swap2\n      swap1\n      tag_126\n      jump\t// in\n    tag_125:\n      mload(0x40)\n      dup1\n      swap2\n      sub\n      swap1\n      return\n        /* \"contracts/YieldFarm.sol\":10128:10276  function distributeGovernanceTokens(address _user, uint256 _amount) external onlyOwner {... */\n    tag_28:\n      tag_127\n      0x04\n      dup1\n      calldatasize\n      sub\n      dup2\n      add\n      swap1\n      tag_128\n      swap2\n      swap1\n      tag_129\n      jump\t// in\n    tag_128:\n      tag_130\n      jump\t// in\n    tag_127:\n      stop\n        /* \"contracts/YieldFarm.sol\":2462:2489  uint256 public nftBoostRate */\n    tag_29:\n      tag_131\n      tag_132\n      jump\t// in\n    tag_131:\n      mload(0x40)\n      tag_133\n      swap2\n      swap1\n      tag_42\n      jump\t// in\n    tag_133:\n      mload(0x40)\n      dup1\n      swap2\n      sub\n      swap1\n      return\n        /* \"@openzeppelin/contracts-upgradeable/access/OwnableUpgradeable.sol\":3405:3620  function transferOwnership(address newOwner) public virtual onlyOwner {... */\n    tag_30:\n      tag_134\n      0x04\n      dup1\n      calldatasize\n      sub\n      dup2\n      add\n      swap1\n      tag_135\n      swap2\n      swap1\n      tag_72\n      jump\t// in\n    tag_135:\n      tag_136\n      jump\t// in\n    tag_134:\n      stop\n        /* \"contracts/YieldFarm.sol\":2834:2874  IERC20Upgradeable public governanceToken */\n    tag_31:\n      tag_137\n      tag_138\n      jump\t// in\n    tag_137:\n      mload(0x40)\n      tag_139\n      swap2\n      swap1\n      tag_140\n      jump\t// in\n    tag_139:\n      mload(0x40)\n      dup1\n      swap2\n      sub\n      swap1\n      return\n        /* \"contracts/YieldFarm.sol\":2302:2330  uint256 public maxMultiplier */\n    tag_40:\n      sload(0x37)\n      dup2\n      jump\t// out\n        /* \"contracts/YieldFarm.sol\":2374:2407  uint256 public multiplierDuration */\n    tag_44:\n      sload(0x38)\n      dup2\n      jump\t// out\n        /* \"contracts/YieldFarm.sol\":9557:9698  function setLockDuration(uint256 _pid, uint256 _lockDuration) external onlyOwner {... */\n    tag_49:\n        /* \"@openzeppelin/contracts-upgradeable/access/OwnableUpgradeable.sol\":2334:2347  _checkOwner() */\n      tag_142\n        /* \"@openzeppelin/contracts-upgradeable/access/OwnableUpgradeable.sol\":2334:2345  _checkOwner */\n      tag_143\n        /* \"@openzeppelin/contracts-upgradeable/access/OwnableUpgradeable.sol\":2334:2347  _checkOwner() */\n      jump\t// in\n    tag_142:\n        /* \"contracts/YieldFarm.sol\":9678:9691  _lockDuration */\n      dup1\n        /* \"contracts/YieldFarm.sol\":9648:9656  poolInfo */\n      0x32\n        /* \"contracts/YieldFarm.sol\":9657:9661  _pid */\n      dup4\n        /* \"contracts/YieldFarm.sol\":9648:9662  poolInfo[_pid] */\n      dup2\n      sload\n      dup2\n      lt\n      tag_145\n      jumpi\n      tag_146\n      tag_147\n      jump\t// in\n    tag_146:\n    tag_145:\n      swap1\n      0x00\n      mstore\n      keccak256(0x00, 0x20)\n      swap1\n      0x07\n      mul\n      add\n        /* \"contracts/YieldFarm.sol\":9648:9675  poolInfo[_pid].lockDuration */\n      0x03\n      add\n        /* \"contracts/YieldFarm.sol\":9648:9691  poolInfo[_pid].lockDuration = _lockDuration */\n      dup2\n      swap1\n      sstore\n      pop\n        /* \"contracts/YieldFarm.sol\":9557:9698  function setLockDuration(uint256 _pid, uint256 _lockDuration) external onlyOwner {... */\n      pop\n      pop\n      jump\t// out\n        /* \"contracts/YieldFarm.sol\":1813:1839  PoolInfo[] public poolInfo */\n    tag_53:\n      0x32\n      dup2\n      dup2\n      sload\n      dup2\n      lt\n      tag_149\n      jumpi\n      0x00\n      dup1\n      revert\n    tag_149:\n      swap1\n      0x00\n      mstore\n      keccak256(0x00, 0x20)\n      swap1\n      0x07\n      mul\n      add\n      0x00\n      swap2\n      pop\n      swap1\n      pop\n      dup1\n      0x00\n      add\n      0x00\n      swap1\n      sload\n      swap1\n      0x0100\n      exp\n      swap1\n      div\n      0xffffffffffffffffffffffffffffffffffffffff\n      and\n      swap1\n      dup1\n      0x01\n      add\n      0x00\n      swap1\n      sload\n      swap1\n      0x0100\n      exp\n      swap1\n      div\n      0xffffffffffffffffffffffffffffffffffffffff\n      and\n      swap1\n      dup1\n      0x02\n      add\n      sload\n      swap1\n      dup1\n      0x03\n      add\n      sload\n      swap1\n      dup1\n      0x04\n      add\n      sload\n      swap1\n      dup1\n      0x05\n      add\n      sload\n      swap1\n      dup1\n      0x06\n      add\n      sload\n      swap1\n      pop\n      dup8\n      jump\t// out\n        /* \"contracts/YieldFarm.sol\":9255:9388  function setRewardRate(uint256 _pid, uint256 _rewardRate) external onlyOwner {... */\n    tag_58:\n        /* \"@openzeppelin/contracts-upgradeable/access/OwnableUpgradeable.sol\":2334:2347  _checkOwner() */\n      tag_152\n        /* \"@openzeppelin/contracts-upgradeable/access/OwnableUpgradeable.sol\":2334:2345  _checkOwner */\n      tag_143\n        /* \"@openzeppelin/contracts-upgradeable/access/OwnableUpgradeable.sol\":2334:2347  _checkOwner() */\n      jump\t// in\n    tag_152:\n        /* \"contracts/YieldFarm.sol\":9370:9381  _rewardRate */\n      dup1\n        /* \"contracts/YieldFarm.sol\":9342:9350  poolInfo */\n      0x32\n        /* \"contracts/YieldFarm.sol\":9351:9355  _pid */\n      dup4\n        /* \"contracts/YieldFarm.sol\":9342:9356  poolInfo[_pid] */\n      dup2\n      sload\n      dup2\n      lt\n      tag_154\n      jumpi\n      tag_155\n      tag_147\n      jump\t// in\n    tag_155:\n    tag_154:\n      swap1\n      0x00\n      mstore\n      keccak256(0x00, 0x20)\n      swap1\n      0x07\n      mul\n      add\n        /* \"contracts/YieldFarm.sol\":9342:9367  poolInfo[_pid].rewardRate */\n      0x02\n      add\n        /* \"contracts/YieldFarm.sol\":9342:9381  poolInfo[_pid].rewardRate = _rewardRate */\n      dup2\n      swap1\n      sstore\n      pop\n        /* \"contracts/YieldFarm.sol\":9255:9388  function setRewardRate(uint256 _pid, uint256 _rewardRate) external onlyOwner {... */\n      pop\n      pop\n      jump\t// out\n        /* \"contracts/YieldFarm.sol\":1885:1952  mapping(uint256 => mapping(address => StakeInfo)) public poolStakes */\n    tag_62:\n      mstore(0x20, 0x33)\n      dup2\n      0x00\n      mstore\n      mstore(0x20, keccak256(0x00, 0x40))\n      dup1\n      0x00\n      mstore\n      keccak256(0x00, 0x40)\n      0x00\n      swap2\n      pop\n      swap2\n      pop\n      pop\n      dup1\n      0x00\n      add\n      sload\n      swap1\n      dup1\n      0x01\n      add\n      sload\n      swap1\n      dup1\n      0x02\n      add\n      sload\n      swap1\n      pop\n      dup4\n      jump\t// out\n        /* \"contracts/YieldFarm.sol\":9822:9934  function setNftBoostRate(uint256 _nftBoostRate) external onlyOwner {... */\n    tag_67:\n        /* \"@openzeppelin/contracts-upgradeable/access/OwnableUpgradeable.sol\":2334:2347  _checkOwner() */\n      tag_158\n        /* \"@openzeppelin/contracts-upgradeable/access/OwnableUpgradeable.sol\":2334:2345  _checkOwner */\n      tag_143\n        /* \"@openzeppelin/contracts-upgradeable/access/OwnableUpgradeable.sol\":2334:2347  _checkOwner() */\n      jump\t// in\n    tag_158:\n        /* \"contracts/YieldFarm.sol\":9914:9927  _nftBoostRate */\n      dup1\n        /* \"contracts/YieldFarm.sol\":9899:9911  nftBoostRate */\n      0x39\n        /* \"contracts/YieldFarm.sol\":9899:9927  nftBoostRate = _nftBoostRate */\n      dup2\n      swap1\n      sstore\n      pop\n        /* \"contracts/YieldFarm.sol\":9822:9934  function setNftBoostRate(uint256 _nftBoostRate) external onlyOwner {... */\n      pop\n      jump\t// out\n        /* \"contracts/YieldFarm.sol\":10490:10559  function unpause() external onlyOwner {... */\n    tag_69:\n        /* \"@openzeppelin/contracts-upgradeable/access/OwnableUpgradeable.sol\":2334:2347  _checkOwner() */\n      tag_161\n        /* \"@openzeppelin/contracts-upgradeable/access/OwnableUpgradeable.sol\":2334:2345  _checkOwner */\n      tag_143\n        /* \"@openzeppelin/contracts-upgradeable/access/OwnableUpgradeable.sol\":2334:2347  _checkOwner() */\n      jump\t// in\n    tag_161:\n        /* \"contracts/YieldFarm.sol\":10547:10552  false */\n      0x00\n        /* \"contracts/YieldFarm.sol\":10538:10544  paused */\n      0x3c\n      0x00\n        /* \"contracts/YieldFarm.sol\":10538:10552  paused = false */\n      0x0100\n      exp\n      dup2\n      sload\n      dup2\n      0xff\n      mul\n      not\n      and\n      swap1\n      dup4\n      iszero\n      iszero\n      mul\n      or\n      swap1\n      sstore\n      pop\n        /* \"contracts/YieldFarm.sol\":10490:10559  function unpause() external onlyOwner {... */\n      jump\t// out\n        /* \"contracts/YieldFarm.sol\":2011:2055  mapping(address => address) public referrers */\n    tag_73:\n      mstore(0x20, 0x34)\n      dup1\n      0x00\n      mstore\n      keccak256(0x00, 0x40)\n      0x00\n      swap2\n      pop\n      sload\n      swap1\n      0x0100\n      exp\n      swap1\n      div\n      0xffffffffffffffffffffffffffffffffffffffff\n      and\n      dup2\n      jump\t// out\n        /* \"contracts/YieldFarm.sol\":8066:8575  function emergencyWithdraw(uint256 _pid) external nonReentrant {... */\n    tag_78:\n        /* \"@openzeppelin/contracts-upgradeable/security/ReentrancyGuardUpgradeable.sol\":2526:2547  _nonReentrantBefore() */\n      tag_164\n        /* \"@openzeppelin/contracts-upgradeable/security/ReentrancyGuardUpgradeable.sol\":2526:2545  _nonReentrantBefore */\n      tag_165\n        /* \"@openzeppelin/contracts-upgradeable/security/ReentrancyGuardUpgradeable.sol\":2526:2547  _nonReentrantBefore() */\n      jump\t// in\n    tag_164:\n        /* \"contracts/YieldFarm.sol\":8139:8160  PoolInfo storage pool */\n      0x00\n        /* \"contracts/YieldFarm.sol\":8163:8171  poolInfo */\n      0x32\n        /* \"contracts/YieldFarm.sol\":8172:8176  _pid */\n      dup3\n        /* \"contracts/YieldFarm.sol\":8163:8177  poolInfo[_pid] */\n      dup2\n      sload\n      dup2\n      lt\n      tag_167\n      jumpi\n      tag_168\n      tag_147\n      jump\t// in\n    tag_168:\n    tag_167:\n      swap1\n      0x00\n      mstore\n      keccak256(0x00, 0x20)\n      swap1\n      0x07\n      mul\n      add\n        /* \"contracts/YieldFarm.sol\":8139:8177  PoolInfo storage pool = poolInfo[_pid] */\n      swap1\n      pop\n        /* \"contracts/YieldFarm.sol\":8187:8214  StakeInfo storage userStake */\n      0x00\n        /* \"contracts/YieldFarm.sol\":8217:8227  poolStakes */\n      0x33\n        /* \"contracts/YieldFarm.sol\":8217:8233  poolStakes[_pid] */\n      0x00\n        /* \"contracts/YieldFarm.sol\":8228:8232  _pid */\n      dup5\n        /* \"contracts/YieldFarm.sol\":8217:8233  poolStakes[_pid] */\n      dup2\n      mstore\n      0x20\n      add\n      swap1\n      dup2\n      mstore\n      0x20\n      add\n      0x00\n      keccak256\n        /* \"contracts/YieldFarm.sol\":8217:8245  poolStakes[_pid][msg.sender] */\n      0x00\n        /* \"contracts/YieldFarm.sol\":8234:8244  msg.sender */\n      caller\n        /* \"contracts/YieldFarm.sol\":8217:8245  poolStakes[_pid][msg.sender] */\n      0xffffffffffffffffffffffffffffffffffffffff\n      and\n      0xffffffffffffffffffffffffffffffffffffffff\n      and\n      dup2\n      mstore\n      0x20\n      add\n      swap1\n      dup2\n      mstore\n      0x20\n      add\n      0x00\n      keccak256\n        /* \"contracts/YieldFarm.sol\":8187:8245  StakeInfo storage userStake = poolStakes[_pid][msg.sender] */\n      swap1\n      pop\n        /* \"contracts/YieldFarm.sol\":8282:8283  0 */\n      0x00\n        /* \"contracts/YieldFarm.sol\":8263:8272  userStake */\n      dup2\n        /* \"contracts/YieldFarm.sol\":8263:8279  userStake.amount */\n      0x00\n      add\n      sload\n        /* \"contracts/YieldFarm.sol\":8263:8283  userStake.amount > 0 */\n      gt\n        /* \"contracts/YieldFarm.sol\":8255:8304  require(userStake.amount > 0, \"No staked amount\") */\n      tag_170\n      jumpi\n      mload(0x40)\n      0x08c379a000000000000000000000000000000000000000000000000000000000\n      dup2\n      mstore\n      0x04\n      add\n      tag_171\n      swap1\n      tag_172\n      jump\t// in\n    tag_171:\n      mload(0x40)\n      dup1\n      swap2\n      sub\n      swap1\n      revert\n    tag_170:\n        /* \"contracts/YieldFarm.sol\":8315:8329  uint256 amount */\n      0x00\n        /* \"contracts/YieldFarm.sol\":8332:8341  userStake */\n      dup2\n        /* \"contracts/YieldFarm.sol\":8332:8348  userStake.amount */\n      0x00\n      add\n      sload\n        /* \"contracts/YieldFarm.sol\":8315:8348  uint256 amount = userStake.amount */\n      swap1\n      pop\n        /* \"contracts/YieldFarm.sol\":8377:8378  0 */\n      0x00\n        /* \"contracts/YieldFarm.sol\":8358:8367  userStake */\n      dup3\n        /* \"contracts/YieldFarm.sol\":8358:8374  userStake.amount */\n      0x00\n      add\n        /* \"contracts/YieldFarm.sol\":8358:8378  userStake.amount = 0 */\n      dup2\n      swap1\n      sstore\n      pop\n        /* \"contracts/YieldFarm.sol\":8411:8412  0 */\n      0x00\n        /* \"contracts/YieldFarm.sol\":8388:8397  userStake */\n      dup3\n        /* \"contracts/YieldFarm.sol\":8388:8408  userStake.rewardDebt */\n      0x01\n      add\n        /* \"contracts/YieldFarm.sol\":8388:8412  userStake.rewardDebt = 0 */\n      dup2\n      swap1\n      sstore\n      pop\n        /* \"contracts/YieldFarm.sol\":8443:8449  amount */\n      dup1\n        /* \"contracts/YieldFarm.sol\":8423:8427  pool */\n      dup4\n        /* \"contracts/YieldFarm.sol\":8423:8439  pool.totalStaked */\n      0x04\n      add\n      0x00\n        /* \"contracts/YieldFarm.sol\":8423:8449  pool.totalStaked -= amount */\n      dup3\n      dup3\n      sload\n      tag_173\n      swap2\n      swap1\n      tag_174\n      jump\t// in\n    tag_173:\n      swap3\n      pop\n      pop\n      dup2\n      swap1\n      sstore\n      pop\n        /* \"contracts/YieldFarm.sol\":8459:8509  pool.stakingToken.safeTransfer(msg.sender, amount) */\n      tag_175\n        /* \"contracts/YieldFarm.sol\":8490:8500  msg.sender */\n      caller\n        /* \"contracts/YieldFarm.sol\":8502:8508  amount */\n      dup3\n        /* \"contracts/YieldFarm.sol\":8459:8463  pool */\n      dup6\n        /* \"contracts/YieldFarm.sol\":8459:8476  pool.stakingToken */\n      0x00\n      add\n      0x00\n      swap1\n      sload\n      swap1\n      0x0100\n      exp\n      swap1\n      div\n      0xffffffffffffffffffffffffffffffffffffffff\n      and\n        /* \"contracts/YieldFarm.sol\":8459:8489  pool.stakingToken.safeTransfer */\n      0xffffffffffffffffffffffffffffffffffffffff\n      and\n      tag_176\n      swap1\n        /* \"contracts/YieldFarm.sol\":8459:8509  pool.stakingToken.safeTransfer(msg.sender, amount) */\n      swap3\n      swap2\n      swap1\n      0xffffffff\n      and\n      jump\t// in\n    tag_175:\n        /* \"contracts/YieldFarm.sol\":8555:8559  _pid */\n      dup4\n        /* \"contracts/YieldFarm.sol\":8543:8553  msg.sender */\n      caller\n        /* \"contracts/YieldFarm.sol\":8525:8568  EmergencyWithdraw(msg.sender, _pid, amount) */\n      0xffffffffffffffffffffffffffffffffffffffff\n      and\n      0xbb757047c2b5f3974fe26b7c10f732e7bce710b0952a71082702781e62ae0595\n        /* \"contracts/YieldFarm.sol\":8561:8567  amount */\n      dup4\n        /* \"contracts/YieldFarm.sol\":8525:8568  EmergencyWithdraw(msg.sender, _pid, amount) */\n      mload(0x40)\n      tag_177\n      swap2\n      swap1\n      tag_42\n      jump\t// in\n    tag_177:\n      mload(0x40)\n      dup1\n      swap2\n      sub\n      swap1\n      log3\n        /* \"contracts/YieldFarm.sol\":8129:8575  {... */\n      pop\n      pop\n      pop\n        /* \"@openzeppelin/contracts-upgradeable/security/ReentrancyGuardUpgradeable.sol\":2568:2588  _nonReentrantAfter() */\n      tag_178\n        /* \"@openzeppelin/contracts-upgradeable/security/ReentrancyGuardUpgradeable.sol\":2568:2586  _nonReentrantAfter */\n      tag_179\n        /* \"@openzeppelin/contracts-upgradeable/security/ReentrancyGuardUpgradeable.sol\":2568:2588  _nonReentrantAfter() */\n      jump\t// in\n    tag_178:\n        /* \"contracts/YieldFarm.sol\":8066:8575  function emergencyWithdraw(uint256 _pid) external nonReentrant {... */\n      pop\n      jump\t// out\n        /* \"contracts/YieldFarm.sol\":2117:2167  mapping(address => uint256) public referralRewards */\n    tag_81:\n      mstore(0x20, 0x35)\n      dup1\n      0x00\n      mstore\n      keccak256(0x00, 0x40)\n      0x00\n      swap2\n      pop\n      swap1\n      pop\n      sload\n      dup2\n      jump\t// out\n        /* \"contracts/YieldFarm.sol\":2668:2686  bool public paused */\n    tag_84:\n      0x3c\n      0x00\n      swap1\n      sload\n      swap1\n      0x0100\n      exp\n      swap1\n      div\n      0xff\n      and\n      dup2\n      jump\t// out\n        /* \"@openzeppelin/contracts-upgradeable/access/OwnableUpgradeable.sol\":3155:3256  function renounceOwnership() public virtual onlyOwner {... */\n    tag_88:\n        /* \"@openzeppelin/contracts-upgradeable/access/OwnableUpgradeable.sol\":2334:2347  _checkOwner() */\n      tag_181\n        /* \"@openzeppelin/contracts-upgradeable/access/OwnableUpgradeable.sol\":2334:2345  _checkOwner */\n      tag_143\n        /* \"@openzeppelin/contracts-upgradeable/access/OwnableUpgradeable.sol\":2334:2347  _checkOwner() */\n      jump\t// in\n    tag_181:\n        /* \"@openzeppelin/contracts-upgradeable/access/OwnableUpgradeable.sol\":3219:3249  _transferOwnership(address(0)) */\n      tag_183\n        /* \"@openzeppelin/contracts-upgradeable/access/OwnableUpgradeable.sol\":3246:3247  0 */\n      0x00\n        /* \"@openzeppelin/contracts-upgradeable/access/OwnableUpgradeable.sol\":3219:3237  _transferOwnership */\n      tag_184\n        /* \"@openzeppelin/contracts-upgradeable/access/OwnableUpgradeable.sol\":3219:3249  _transferOwnership(address(0)) */\n      jump\t// in\n    tag_183:\n        /* \"@openzeppelin/contracts-upgradeable/access/OwnableUpgradeable.sol\":3155:3256  function renounceOwnership() public virtual onlyOwner {... */\n      jump\t// out\n        /* \"contracts/YieldFarm.sol\":6046:6662  function stake(uint256 _pid, uint256 _amount) external nonReentrant whenNotPaused {... */\n    tag_91:\n        /* \"@openzeppelin/contracts-upgradeable/security/ReentrancyGuardUpgradeable.sol\":2526:2547  _nonReentrantBefore() */\n      tag_186\n        /* \"@openzeppelin/contracts-upgradeable/security/ReentrancyGuardUpgradeable.sol\":2526:2545  _nonReentrantBefore */\n      tag_165\n        /* \"@openzeppelin/contracts-upgradeable/security/ReentrancyGuardUpgradeable.sol\":2526:2547  _nonReentrantBefore() */\n      jump\t// in\n    tag_186:\n        /* \"contracts/YieldFarm.sol\":3603:3609  paused */\n      0x3c\n      0x00\n      swap1\n      sload\n      swap1\n      0x0100\n      exp\n      swap1\n      div\n      0xff\n      and\n        /* \"contracts/YieldFarm.sol\":3602:3609  !paused */\n      iszero\n        /* \"contracts/YieldFarm.sol\":3594:3632  require(!paused, \"Contract is paused\") */\n      tag_188\n      jumpi\n      mload(0x40)\n      0x08c379a000000000000000000000000000000000000000000000000000000000\n      dup2\n      mstore\n      0x04\n      add\n      tag_189\n      swap1\n      tag_190\n      jump\t// in\n    tag_189:\n      mload(0x40)\n      dup1\n      swap2\n      sub\n      swap1\n      revert\n    tag_188:\n        /* \"contracts/YieldFarm.sol\":6156:6157  0 */\n      0x00\n        /* \"contracts/YieldFarm.sol\":6146:6153  _amount */\n      dup2\n        /* \"contracts/YieldFarm.sol\":6146:6157  _amount > 0 */\n      gt\n        /* \"contracts/YieldFarm.sol\":6138:6176  require(_amount > 0, \"Cannot stake 0\") */\n      tag_192\n      jumpi\n      mload(0x40)\n      0x08c379a000000000000000000000000000000000000000000000000000000000\n      dup2\n      mstore\n      0x04\n      add\n      tag_193\n      swap1\n      tag_194\n      jump\t// in\n    tag_193:\n      mload(0x40)\n      dup1\n      swap2\n      sub\n      swap1\n      revert\n    tag_192:\n        /* \"contracts/YieldFarm.sol\":6187:6208  PoolInfo storage pool */\n      0x00\n        /* \"contracts/YieldFarm.sol\":6211:6219  poolInfo */\n      0x32\n        /* \"contracts/YieldFarm.sol\":6220:6224  _pid */\n      dup4\n        /* \"contracts/YieldFarm.sol\":6211:6225  poolInfo[_pid] */\n      dup2\n      sload\n      dup2\n      lt\n      tag_195\n      jumpi\n      tag_196\n      tag_147\n      jump\t// in\n    tag_196:\n    tag_195:\n      swap1\n      0x00\n      mstore\n      keccak256(0x00, 0x20)\n      swap1\n      0x07\n      mul\n      add\n        /* \"contracts/YieldFarm.sol\":6187:6225  PoolInfo storage pool = poolInfo[_pid] */\n      swap1\n      pop\n        /* \"contracts/YieldFarm.sol\":6235:6262  StakeInfo storage userStake */\n      0x00\n        /* \"contracts/YieldFarm.sol\":6265:6275  poolStakes */\n      0x33\n        /* \"contracts/YieldFarm.sol\":6265:6281  poolStakes[_pid] */\n      0x00\n        /* \"contracts/YieldFarm.sol\":6276:6280  _pid */\n      dup6\n        /* \"contracts/YieldFarm.sol\":6265:6281  poolStakes[_pid] */\n      dup2\n      mstore\n      0x20\n      add\n      swap1\n      dup2\n      mstore\n      0x20\n      add\n      0x00\n      keccak256\n        /* \"contracts/YieldFarm.sol\":6265:6293  poolStakes[_pid][msg.sender] */\n      0x00\n        /* \"contracts/YieldFarm.sol\":6282:6292  msg.sender */\n      caller\n        /* \"contracts/YieldFarm.sol\":6265:6293  poolStakes[_pid][msg.sender] */\n      0xffffffffffffffffffffffffffffffffffffffff\n      and\n      0xffffffffffffffffffffffffffffffffffffffff\n      and\n      dup2\n      mstore\n      0x20\n      add\n      swap1\n      dup2\n      mstore\n      0x20\n      add\n      0x00\n      keccak256\n        /* \"contracts/YieldFarm.sol\":6235:6293  StakeInfo storage userStake = poolStakes[_pid][msg.sender] */\n      swap1\n      pop\n        /* \"contracts/YieldFarm.sol\":6303:6320  _updatePool(_pid) */\n      tag_198\n        /* \"contracts/YieldFarm.sol\":6315:6319  _pid */\n      dup5\n        /* \"contracts/YieldFarm.sol\":6303:6314  _updatePool */\n      tag_199\n        /* \"contracts/YieldFarm.sol\":6303:6320  _updatePool(_pid) */\n      jump\t// in\n    tag_198:\n        /* \"contracts/YieldFarm.sol\":6330:6362  _updateRewards(_pid, msg.sender) */\n      tag_200\n        /* \"contracts/YieldFarm.sol\":6345:6349  _pid */\n      dup5\n        /* \"contracts/YieldFarm.sol\":6351:6361  msg.sender */\n      caller\n        /* \"contracts/YieldFarm.sol\":6330:6344  _updateRewards */\n      tag_201\n        /* \"contracts/YieldFarm.sol\":6330:6362  _updateRewards(_pid, msg.sender) */\n      jump\t// in\n    tag_200:\n        /* \"contracts/YieldFarm.sol\":6373:6443  pool.stakingToken.safeTransferFrom(msg.sender, address(this), _amount) */\n      tag_202\n        /* \"contracts/YieldFarm.sol\":6408:6418  msg.sender */\n      caller\n        /* \"contracts/YieldFarm.sol\":6428:6432  this */\n      address\n        /* \"contracts/YieldFarm.sol\":6435:6442  _amount */\n      dup6\n        /* \"contracts/YieldFarm.sol\":6373:6377  pool */\n      dup6\n        /* \"contracts/YieldFarm.sol\":6373:6390  pool.stakingToken */\n      0x00\n      add\n      0x00\n      swap1\n      sload\n      swap1\n      0x0100\n      exp\n      swap1\n      div\n      0xffffffffffffffffffffffffffffffffffffffff\n      and\n        /* \"contracts/YieldFarm.sol\":6373:6407  pool.stakingToken.safeTransferFrom */\n      0xffffffffffffffffffffffffffffffffffffffff\n      and\n      tag_203\n      swap1\n        /* \"contracts/YieldFarm.sol\":6373:6443  pool.stakingToken.safeTransferFrom(msg.sender, address(this), _amount) */\n      swap4\n      swap3\n      swap2\n      swap1\n      0xffffffff\n      and\n      jump\t// in\n    tag_202:\n        /* \"contracts/YieldFarm.sol\":6474:6481  _amount */\n      dup3\n        /* \"contracts/YieldFarm.sol\":6454:6463  userStake */\n      dup2\n        /* \"contracts/YieldFarm.sol\":6454:6470  userStake.amount */\n      0x00\n      add\n      0x00\n        /* \"contracts/YieldFarm.sol\":6454:6481  userStake.amount += _amount */\n      dup3\n      dup3\n      sload\n      tag_204\n      swap2\n      swap1\n      tag_205\n      jump\t// in\n    tag_204:\n      swap3\n      pop\n      pop\n      dup2\n      swap1\n      sstore\n      pop\n        /* \"contracts/YieldFarm.sol\":6531:6535  pool */\n      dup2\n        /* \"contracts/YieldFarm.sol\":6531:6548  pool.lockDuration */\n      0x03\n      add\n      sload\n        /* \"contracts/YieldFarm.sol\":6513:6528  block.timestamp */\n      timestamp\n        /* \"contracts/YieldFarm.sol\":6513:6548  block.timestamp + pool.lockDuration */\n      tag_206\n      swap2\n      swap1\n      tag_205\n      jump\t// in\n    tag_206:\n        /* \"contracts/YieldFarm.sol\":6491:6500  userStake */\n      dup2\n        /* \"contracts/YieldFarm.sol\":6491:6510  userStake.lockUntil */\n      0x02\n      add\n        /* \"contracts/YieldFarm.sol\":6491:6548  userStake.lockUntil = block.timestamp + pool.lockDuration */\n      dup2\n      swap1\n      sstore\n      pop\n        /* \"contracts/YieldFarm.sol\":6578:6585  _amount */\n      dup3\n        /* \"contracts/YieldFarm.sol\":6558:6562  pool */\n      dup3\n        /* \"contracts/YieldFarm.sol\":6558:6574  pool.totalStaked */\n      0x04\n      add\n      0x00\n        /* \"contracts/YieldFarm.sol\":6558:6585  pool.totalStaked += _amount */\n      dup3\n      dup3\n      sload\n      tag_207\n      swap2\n      swap1\n      tag_205\n      jump\t// in\n    tag_207:\n      swap3\n      pop\n      pop\n      dup2\n      swap1\n      sstore\n      pop\n        /* \"contracts/YieldFarm.sol\":6620:6624  _pid */\n      dup4\n        /* \"contracts/YieldFarm.sol\":6608:6618  msg.sender */\n      caller\n        /* \"contracts/YieldFarm.sol\":6601:6655  Staked(msg.sender, _pid, _amount, userStake.lockUntil) */\n      0xffffffffffffffffffffffffffffffffffffffff\n      and\n      0xb4caaf29adda3eefee3ad552a8e85058589bf834c7466cae4ee58787f70589ed\n        /* \"contracts/YieldFarm.sol\":6626:6633  _amount */\n      dup6\n        /* \"contracts/YieldFarm.sol\":6635:6644  userStake */\n      dup5\n        /* \"contracts/YieldFarm.sol\":6635:6654  userStake.lockUntil */\n      0x02\n      add\n      sload\n        /* \"contracts/YieldFarm.sol\":6601:6655  Staked(msg.sender, _pid, _amount, userStake.lockUntil) */\n      mload(0x40)\n      tag_208\n      swap3\n      swap2\n      swap1\n      tag_209\n      jump\t// in\n    tag_208:\n      mload(0x40)\n      dup1\n      swap2\n      sub\n      swap1\n      log3\n        /* \"contracts/YieldFarm.sol\":6128:6662  {... */\n      pop\n      pop\n        /* \"@openzeppelin/contracts-upgradeable/security/ReentrancyGuardUpgradeable.sol\":2568:2588  _nonReentrantAfter() */\n      tag_210\n        /* \"@openzeppelin/contracts-upgradeable/security/ReentrancyGuardUpgradeable.sol\":2568:2586  _nonReentrantAfter */\n      tag_179\n        /* \"@openzeppelin/contracts-upgradeable/security/ReentrancyGuardUpgradeable.sol\":2568:2588  _nonReentrantAfter() */\n      jump\t// in\n    tag_210:\n        /* \"contracts/YieldFarm.sol\":6046:6662  function stake(uint256 _pid, uint256 _amount) external nonReentrant whenNotPaused {... */\n      pop\n      pop\n      jump\t// out\n        /* \"contracts/YieldFarm.sol\":10349:10415  function pause() external onlyOwner {... */\n    tag_93:\n        /* \"@openzeppelin/contracts-upgradeable/access/OwnableUpgradeable.sol\":2334:2347  _checkOwner() */\n      tag_212\n        /* \"@openzeppelin/contracts-upgradeable/access/OwnableUpgradeable.sol\":2334:2345  _checkOwner */\n      tag_143\n        /* \"@openzeppelin/contracts-upgradeable/access/OwnableUpgradeable.sol\":2334:2347  _checkOwner() */\n      jump\t// in\n    tag_212:\n        /* \"contracts/YieldFarm.sol\":10404:10408  true */\n      0x01\n        /* \"contracts/YieldFarm.sol\":10395:10401  paused */\n      0x3c\n      0x00\n        /* \"contracts/YieldFarm.sol\":10395:10408  paused = true */\n      0x0100\n      exp\n      dup2\n      sload\n      dup2\n      0xff\n      mul\n      not\n      and\n      swap1\n      dup4\n      iszero\n      iszero\n      mul\n      or\n      swap1\n      sstore\n      pop\n        /* \"contracts/YieldFarm.sol\":10349:10415  function pause() external onlyOwner {... */\n      jump\t// out\n        /* \"contracts/YieldFarm.sol\":4231:4955  function initialize(... */\n    tag_97:\n        /* \"@openzeppelin/contracts-upgradeable/proxy/utils/Initializable.sol\":4158:4188  InitializableStorage storage $ */\n      0x00\n        /* \"@openzeppelin/contracts-upgradeable/proxy/utils/Initializable.sol\":4191:4217  _getInitializableStorage() */\n      tag_215\n        /* \"@openzeppelin/contracts-upgradeable/proxy/utils/Initializable.sol\":4191:4215  _getInitializableStorage */\n      tag_216\n        /* \"@openzeppelin/contracts-upgradeable/proxy/utils/Initializable.sol\":4191:4217  _getInitializableStorage() */\n      jump\t// in\n    tag_215:\n        /* \"@openzeppelin/contracts-upgradeable/proxy/utils/Initializable.sol\":4158:4217  InitializableStorage storage $ = _getInitializableStorage() */\n      swap1\n      pop\n        /* \"@openzeppelin/contracts-upgradeable/proxy/utils/Initializable.sol\":4279:4298  bool isTopLevelCall */\n      0x00\n        /* \"@openzeppelin/contracts-upgradeable/proxy/utils/Initializable.sol\":4302:4303  $ */\n      dup2\n        /* \"@openzeppelin/contracts-upgradeable/proxy/utils/Initializable.sol\":4302:4317  $._initializing */\n      0x00\n      add\n      0x08\n      swap1\n      sload\n      swap1\n      0x0100\n      exp\n      swap1\n      div\n      0xff\n      and\n        /* \"@openzeppelin/contracts-upgradeable/proxy/utils/Initializable.sol\":4301:4317  !$._initializing */\n      iszero\n        /* \"@openzeppelin/contracts-upgradeable/proxy/utils/Initializable.sol\":4279:4317  bool isTopLevelCall = !$._initializing */\n      swap1\n      pop\n        /* \"@openzeppelin/contracts-upgradeable/proxy/utils/Initializable.sol\":4327:4345  uint64 initialized */\n      0x00\n        /* \"@openzeppelin/contracts-upgradeable/proxy/utils/Initializable.sol\":4348:4349  $ */\n      dup3\n        /* \"@openzeppelin/contracts-upgradeable/proxy/utils/Initializable.sol\":4348:4362  $._initialized */\n      0x00\n      add\n      0x00\n      swap1\n      sload\n      swap1\n      0x0100\n      exp\n      swap1\n      div\n      0xffffffffffffffff\n      and\n        /* \"@openzeppelin/contracts-upgradeable/proxy/utils/Initializable.sol\":4327:4362  uint64 initialized = $._initialized */\n      swap1\n      pop\n        /* \"@openzeppelin/contracts-upgradeable/proxy/utils/Initializable.sol\":4706:4723  bool initialSetup */\n      0x00\n        /* \"@openzeppelin/contracts-upgradeable/proxy/utils/Initializable.sol\":4741:4742  0 */\n      dup1\n        /* \"@openzeppelin/contracts-upgradeable/proxy/utils/Initializable.sol\":4726:4737  initialized */\n      dup3\n        /* \"@openzeppelin/contracts-upgradeable/proxy/utils/Initializable.sol\":4726:4742  initialized == 0 */\n      0xffffffffffffffff\n      and\n      eq\n        /* \"@openzeppelin/contracts-upgradeable/proxy/utils/Initializable.sol\":4726:4760  initialized == 0 && isTopLevelCall */\n      dup1\n      iszero\n      tag_217\n      jumpi\n      pop\n        /* \"@openzeppelin/contracts-upgradeable/proxy/utils/Initializable.sol\":4746:4760  isTopLevelCall */\n      dup3\n        /* \"@openzeppelin/contracts-upgradeable/proxy/utils/Initializable.sol\":4726:4760  initialized == 0 && isTopLevelCall */\n    tag_217:\n        /* \"@openzeppelin/contracts-upgradeable/proxy/utils/Initializable.sol\":4706:4760  bool initialSetup = initialized == 0 && isTopLevelCall */\n      swap1\n      pop\n        /* \"@openzeppelin/contracts-upgradeable/proxy/utils/Initializable.sol\":4770:4787  bool construction */\n      0x00\n        /* \"@openzeppelin/contracts-upgradeable/proxy/utils/Initializable.sol\":4805:4806  1 */\n      0x01\n        /* \"@openzeppelin/contracts-upgradeable/proxy/utils/Initializable.sol\":4790:4801  initialized */\n      dup4\n        /* \"@openzeppelin/contracts-upgradeable/proxy/utils/Initializable.sol\":4790:4806  initialized == 1 */\n      0xffffffffffffffff\n      and\n      eq\n        /* \"@openzeppelin/contracts-upgradeable/proxy/utils/Initializable.sol\":4790:4840  initialized == 1 && address(this).code.length == 0 */\n      dup1\n      iszero\n      tag_218\n      jumpi\n      pop\n        /* \"@openzeppelin/contracts-upgradeable/proxy/utils/Initializable.sol\":4839:4840  0 */\n      0x00\n        /* \"@openzeppelin/contracts-upgradeable/proxy/utils/Initializable.sol\":4818:4822  this */\n      address\n        /* \"@openzeppelin/contracts-upgradeable/proxy/utils/Initializable.sol\":4810:4835  address(this).code.length */\n      0xffffffffffffffffffffffffffffffffffffffff\n      and\n      extcodesize\n        /* \"@openzeppelin/contracts-upgradeable/proxy/utils/Initializable.sol\":4810:4840  address(this).code.length == 0 */\n      eq\n        /* \"@openzeppelin/contracts-upgradeable/proxy/utils/Initializable.sol\":4790:4840  initialized == 1 && address(this).code.length == 0 */\n    tag_218:\n        /* \"@openzeppelin/contracts-upgradeable/proxy/utils/Initializable.sol\":4770:4840  bool construction = initialized == 1 && address(this).code.length == 0 */\n      swap1\n      pop\n        /* \"@openzeppelin/contracts-upgradeable/proxy/utils/Initializable.sol\":4856:4868  initialSetup */\n      dup2\n        /* \"@openzeppelin/contracts-upgradeable/proxy/utils/Initializable.sol\":4855:4868  !initialSetup */\n      iszero\n        /* \"@openzeppelin/contracts-upgradeable/proxy/utils/Initializable.sol\":4855:4885  !initialSetup && !construction */\n      dup1\n      iszero\n      tag_219\n      jumpi\n      pop\n        /* \"@openzeppelin/contracts-upgradeable/proxy/utils/Initializable.sol\":4873:4885  construction */\n      dup1\n        /* \"@openzeppelin/contracts-upgradeable/proxy/utils/Initializable.sol\":4872:4885  !construction */\n      iszero\n        /* \"@openzeppelin/contracts-upgradeable/proxy/utils/Initializable.sol\":4855:4885  !initialSetup && !construction */\n    tag_219:\n        /* \"@openzeppelin/contracts-upgradeable/proxy/utils/Initializable.sol\":4851:4942  if (!initialSetup && !construction) {... */\n      iszero\n      tag_220\n      jumpi\n        /* \"@openzeppelin/contracts-upgradeable/proxy/utils/Initializable.sol\":4908:4931  InvalidInitialization() */\n      mload(0x40)\n      0xf92ee8a900000000000000000000000000000000000000000000000000000000\n      dup2\n      mstore\n      0x04\n      add\n      mload(0x40)\n      dup1\n      swap2\n      sub\n      swap1\n      revert\n        /* \"@openzeppelin/contracts-upgradeable/proxy/utils/Initializable.sol\":4851:4942  if (!initialSetup && !construction) {... */\n    tag_220:\n        /* \"@openzeppelin/contracts-upgradeable/proxy/utils/Initializable.sol\":4968:4969  1 */\n      0x01\n        /* \"@openzeppelin/contracts-upgradeable/proxy/utils/Initializable.sol\":4951:4952  $ */\n      dup6\n        /* \"@openzeppelin/contracts-upgradeable/proxy/utils/Initializable.sol\":4951:4965  $._initialized */\n      0x00\n      add\n      0x00\n        /* \"@openzeppelin/contracts-upgradeable/proxy/utils/Initializable.sol\":4951:4969  $._initialized = 1 */\n      0x0100\n      exp\n      dup2\n      sload\n      dup2\n      0xffffffffffffffff\n      mul\n      not\n      and\n      swap1\n      dup4\n      0xffffffffffffffff\n      and\n      mul\n      or\n      swap1\n      sstore\n      pop\n        /* \"@openzeppelin/contracts-upgradeable/proxy/utils/Initializable.sol\":4983:4997  isTopLevelCall */\n      dup4\n        /* \"@openzeppelin/contracts-upgradeable/proxy/utils/Initializable.sol\":4979:5046  if (isTopLevelCall) {... */\n      iszero\n      tag_221\n      jumpi\n        /* \"@openzeppelin/contracts-upgradeable/proxy/utils/Initializable.sol\":5031:5035  true */\n      0x01\n        /* \"@openzeppelin/contracts-upgradeable/proxy/utils/Initializable.sol\":5013:5014  $ */\n      dup6\n        /* \"@openzeppelin/contracts-upgradeable/proxy/utils/Initializable.sol\":5013:5028  $._initializing */\n      0x00\n      add\n      0x08\n        /* \"@openzeppelin/contracts-upgradeable/proxy/utils/Initializable.sol\":5013:5035  $._initializing = true */\n      0x0100\n      exp\n      dup2\n      sload\n      dup2\n      0xff\n      mul\n      not\n      and\n      swap1\n      dup4\n      iszero\n      iszero\n      mul\n      or\n      swap1\n      sstore\n      pop\n        /* \"@openzeppelin/contracts-upgradeable/proxy/utils/Initializable.sol\":4979:5046  if (isTopLevelCall) {... */\n    tag_221:\n        /* \"contracts/YieldFarm.sol\":4566:4592  __Ownable_init(msg.sender) */\n      tag_223\n        /* \"contracts/YieldFarm.sol\":4581:4591  msg.sender */\n      caller\n        /* \"contracts/YieldFarm.sol\":4566:4580  __Ownable_init */\n      tag_224\n        /* \"contracts/YieldFarm.sol\":4566:4592  __Ownable_init(msg.sender) */\n      jump\t// in\n    tag_223:\n        /* \"contracts/YieldFarm.sol\":4602:4626  __ReentrancyGuard_init() */\n      tag_225\n        /* \"contracts/YieldFarm.sol\":4602:4624  __ReentrancyGuard_init */\n      tag_226\n        /* \"contracts/YieldFarm.sol\":4602:4626  __ReentrancyGuard_init() */\n      jump\t// in\n    tag_225:\n        /* \"contracts/YieldFarm.sol\":4654:4670  _governanceToken */\n      dup13\n        /* \"contracts/YieldFarm.sol\":4636:4651  governanceToken */\n      0x3d\n      0x00\n        /* \"contracts/YieldFarm.sol\":4636:4670  governanceToken = _governanceToken */\n      0x0100\n      exp\n      dup2\n      sload\n      dup2\n      0xffffffffffffffffffffffffffffffffffffffff\n      mul\n      not\n      and\n      swap1\n      dup4\n      0xffffffffffffffffffffffffffffffffffffffff\n      and\n      mul\n      or\n      swap1\n      sstore\n      pop\n        /* \"contracts/YieldFarm.sol\":4691:4700  _nftToken */\n      dup12\n        /* \"contracts/YieldFarm.sol\":4680:4688  nftToken */\n      0x3c\n      0x01\n        /* \"contracts/YieldFarm.sol\":4680:4700  nftToken = _nftToken */\n      0x0100\n      exp\n      dup2\n      sload\n      dup2\n      0xffffffffffffffffffffffffffffffffffffffff\n      mul\n      not\n      and\n      swap1\n      dup4\n      0xffffffffffffffffffffffffffffffffffffffff\n      and\n      mul\n      or\n      swap1\n      sstore\n      pop\n        /* \"contracts/YieldFarm.sol\":4727:4742  _baseRewardRate */\n      dup11\n        /* \"contracts/YieldFarm.sol\":4710:4724  baseRewardRate */\n      0x36\n        /* \"contracts/YieldFarm.sol\":4710:4742  baseRewardRate = _baseRewardRate */\n      dup2\n      swap1\n      sstore\n      pop\n        /* \"contracts/YieldFarm.sol\":4768:4782  _maxMultiplier */\n      dup10\n        /* \"contracts/YieldFarm.sol\":4752:4765  maxMultiplier */\n      0x37\n        /* \"contracts/YieldFarm.sol\":4752:4782  maxMultiplier = _maxMultiplier */\n      dup2\n      swap1\n      sstore\n      pop\n        /* \"contracts/YieldFarm.sol\":4813:4832  _multiplierDuration */\n      dup9\n        /* \"contracts/YieldFarm.sol\":4792:4810  multiplierDuration */\n      0x38\n        /* \"contracts/YieldFarm.sol\":4792:4832  multiplierDuration = _multiplierDuration */\n      dup2\n      swap1\n      sstore\n      pop\n        /* \"contracts/YieldFarm.sol\":4857:4870  _nftBoostRate */\n      dup8\n        /* \"contracts/YieldFarm.sol\":4842:4854  nftBoostRate */\n      0x39\n        /* \"contracts/YieldFarm.sol\":4842:4870  nftBoostRate = _nftBoostRate */\n      dup2\n      swap1\n      sstore\n      pop\n        /* \"contracts/YieldFarm.sol\":4896:4910  _referralBonus */\n      dup7\n        /* \"contracts/YieldFarm.sol\":4880:4893  referralBonus */\n      0x3a\n        /* \"contracts/YieldFarm.sol\":4880:4910  referralBonus = _referralBonus */\n      dup2\n      swap1\n      sstore\n      pop\n        /* \"contracts/YieldFarm.sol\":4935:4948  _refereeBonus */\n      dup6\n        /* \"contracts/YieldFarm.sol\":4920:4932  refereeBonus */\n      0x3b\n        /* \"contracts/YieldFarm.sol\":4920:4948  refereeBonus = _refereeBonus */\n      dup2\n      swap1\n      sstore\n      pop\n        /* \"@openzeppelin/contracts-upgradeable/proxy/utils/Initializable.sol\":5070:5084  isTopLevelCall */\n      dup4\n        /* \"@openzeppelin/contracts-upgradeable/proxy/utils/Initializable.sol\":5066:5167  if (isTopLevelCall) {... */\n      iszero\n      tag_227\n      jumpi\n        /* \"@openzeppelin/contracts-upgradeable/proxy/utils/Initializable.sol\":5118:5123  false */\n      0x00\n        /* \"@openzeppelin/contracts-upgradeable/proxy/utils/Initializable.sol\":5100:5101  $ */\n      dup6\n        /* \"@openzeppelin/contracts-upgradeable/proxy/utils/Initializable.sol\":5100:5115  $._initializing */\n      0x00\n      add\n      0x08\n        /* \"@openzeppelin/contracts-upgradeable/proxy/utils/Initializable.sol\":5100:5123  $._initializing = false */\n      0x0100\n      exp\n      dup2\n      sload\n      dup2\n      0xff\n      mul\n      not\n      and\n      swap1\n      dup4\n      iszero\n      iszero\n      mul\n      or\n      swap1\n      sstore\n      pop\n        /* \"@openzeppelin/contracts-upgradeable/proxy/utils/Initializable.sol\":5142:5156  Initialized(1) */\n      0xc7f505b2f371ae2175ee4913f4499e1f2633a7b5936321eed1cdaeb6115181d2\n        /* \"@openzeppelin/contracts-upgradeable/proxy/utils/Initializable.sol\":5154:5155  1 */\n      0x01\n        /* \"@openzeppelin/contracts-upgradeable/proxy/utils/Initializable.sol\":5142:5156  Initialized(1) */\n      mload(0x40)\n      tag_228\n      swap2\n      swap1\n      tag_229\n      jump\t// in\n    tag_228:\n      mload(0x40)\n      dup1\n      swap2\n      sub\n      swap1\n      log1\n        /* \"@openzeppelin/contracts-upgradeable/proxy/utils/Initializable.sol\":5066:5167  if (isTopLevelCall) {... */\n    tag_227:\n        /* \"@openzeppelin/contracts-upgradeable/proxy/utils/Initializable.sol\":4092:5173  {... */\n      pop\n      pop\n      pop\n      pop\n      pop\n        /* \"contracts/YieldFarm.sol\":4231:4955  function initialize(... */\n      pop\n      pop\n      pop\n      pop\n      pop\n      pop\n      pop\n      pop\n      jump\t// out\n        /* \"@openzeppelin/contracts-upgradeable/access/OwnableUpgradeable.sol\":2441:2585  function owner() public view virtual returns (address) {... */\n    tag_99:\n        /* \"@openzeppelin/contracts-upgradeable/access/OwnableUpgradeable.sol\":2487:2494  address */\n      0x00\n        /* \"@openzeppelin/contracts-upgradeable/access/OwnableUpgradeable.sol\":2506:2530  OwnableStorage storage $ */\n      dup1\n        /* \"@openzeppelin/contracts-upgradeable/access/OwnableUpgradeable.sol\":2533:2553  _getOwnableStorage() */\n      tag_231\n        /* \"@openzeppelin/contracts-upgradeable/access/OwnableUpgradeable.sol\":2533:2551  _getOwnableStorage */\n      tag_232\n        /* \"@openzeppelin/contracts-upgradeable/access/OwnableUpgradeable.sol\":2533:2553  _getOwnableStorage() */\n      jump\t// in\n    tag_231:\n        /* \"@openzeppelin/contracts-upgradeable/access/OwnableUpgradeable.sol\":2506:2553  OwnableStorage storage $ = _getOwnableStorage() */\n      swap1\n      pop\n        /* \"@openzeppelin/contracts-upgradeable/access/OwnableUpgradeable.sol\":2570:2571  $ */\n      dup1\n        /* \"@openzeppelin/contracts-upgradeable/access/OwnableUpgradeable.sol\":2570:2578  $._owner */\n      0x00\n      add\n      0x00\n      swap1\n      sload\n      swap1\n      0x0100\n      exp\n      swap1\n      div\n      0xffffffffffffffffffffffffffffffffffffffff\n      and\n        /* \"@openzeppelin/contracts-upgradeable/access/OwnableUpgradeable.sol\":2563:2578  return $._owner */\n      swap2\n      pop\n      pop\n        /* \"@openzeppelin/contracts-upgradeable/access/OwnableUpgradeable.sol\":2441:2585  function owner() public view virtual returns (address) {... */\n      swap1\n      jump\t// out\n        /* \"contracts/YieldFarm.sol\":6826:7435  function unstake(uint256 _pid, uint256 _amount) external nonReentrant {... */\n    tag_103:\n        /* \"@openzeppelin/contracts-upgradeable/security/ReentrancyGuardUpgradeable.sol\":2526:2547  _nonReentrantBefore() */\n      tag_234\n        /* \"@openzeppelin/contracts-upgradeable/security/ReentrancyGuardUpgradeable.sol\":2526:2545  _nonReentrantBefore */\n      tag_165\n        /* \"@openzeppelin/contracts-upgradeable/security/ReentrancyGuardUpgradeable.sol\":2526:2547  _nonReentrantBefore() */\n      jump\t// in\n    tag_234:\n        /* \"contracts/YieldFarm.sol\":6906:6927  PoolInfo storage pool */\n      0x00\n        /* \"contracts/YieldFarm.sol\":6930:6938  poolInfo */\n      0x32\n        /* \"contracts/YieldFarm.sol\":6939:6943  _pid */\n      dup4\n        /* \"contracts/YieldFarm.sol\":6930:6944  poolInfo[_pid] */\n      dup2\n      sload\n      dup2\n      lt\n      tag_236\n      jumpi\n      tag_237\n      tag_147\n      jump\t// in\n    tag_237:\n    tag_236:\n      swap1\n      0x00\n      mstore\n      keccak256(0x00, 0x20)\n      swap1\n      0x07\n      mul\n      add\n        /* \"contracts/YieldFarm.sol\":6906:6944  PoolInfo storage pool = poolInfo[_pid] */\n      swap1\n      pop\n        /* \"contracts/YieldFarm.sol\":6954:6981  StakeInfo storage userStake */\n      0x00\n        /* \"contracts/YieldFarm.sol\":6984:6994  poolStakes */\n      0x33\n        /* \"contracts/YieldFarm.sol\":6984:7000  poolStakes[_pid] */\n      0x00\n        /* \"contracts/YieldFarm.sol\":6995:6999  _pid */\n      dup6\n        /* \"contracts/YieldFarm.sol\":6984:7000  poolStakes[_pid] */\n      dup2\n      mstore\n      0x20\n      add\n      swap1\n      dup2\n      mstore\n      0x20\n      add\n      0x00\n      keccak256\n        /* \"contracts/YieldFarm.sol\":6984:7012  poolStakes[_pid][msg.sender] */\n      0x00\n        /* \"contracts/YieldFarm.sol\":7001:7011  msg.sender */\n      caller\n        /* \"contracts/YieldFarm.sol\":6984:7012  poolStakes[_pid][msg.sender] */\n      0xffffffffffffffffffffffffffffffffffffffff\n      and\n      0xffffffffffffffffffffffffffffffffffffffff\n      and\n      dup2\n      mstore\n      0x20\n      add\n      swap1\n      dup2\n      mstore\n      0x20\n      add\n      0x00\n      keccak256\n        /* \"contracts/YieldFarm.sol\":6954:7012  StakeInfo storage userStake = poolStakes[_pid][msg.sender] */\n      swap1\n      pop\n        /* \"contracts/YieldFarm.sol\":7050:7057  _amount */\n      dup3\n        /* \"contracts/YieldFarm.sol\":7030:7039  userStake */\n      dup2\n        /* \"contracts/YieldFarm.sol\":7030:7046  userStake.amount */\n      0x00\n      add\n      sload\n        /* \"contracts/YieldFarm.sol\":7030:7057  userStake.amount >= _amount */\n      lt\n      iszero\n        /* \"contracts/YieldFarm.sol\":7022:7088  require(userStake.amount >= _amount, \"Insufficient staked amount\") */\n      tag_239\n      jumpi\n      mload(0x40)\n      0x08c379a000000000000000000000000000000000000000000000000000000000\n      dup2\n      mstore\n      0x04\n      add\n      tag_240\n      swap1\n      tag_241\n      jump\t// in\n    tag_240:\n      mload(0x40)\n      dup1\n      swap2\n      sub\n      swap1\n      revert\n    tag_239:\n        /* \"contracts/YieldFarm.sol\":7125:7134  userStake */\n      dup1\n        /* \"contracts/YieldFarm.sol\":7125:7144  userStake.lockUntil */\n      0x02\n      add\n      sload\n        /* \"contracts/YieldFarm.sol\":7106:7121  block.timestamp */\n      timestamp\n        /* \"contracts/YieldFarm.sol\":7106:7144  block.timestamp >= userStake.lockUntil */\n      lt\n      iszero\n        /* \"contracts/YieldFarm.sol\":7098:7170  require(block.timestamp >= userStake.lockUntil, \"Stake is still locked\") */\n      tag_242\n      jumpi\n      mload(0x40)\n      0x08c379a000000000000000000000000000000000000000000000000000000000\n      dup2\n      mstore\n      0x04\n      add\n      tag_243\n      swap1\n      tag_244\n      jump\t// in\n    tag_243:\n      mload(0x40)\n      dup1\n      swap2\n      sub\n      swap1\n      revert\n    tag_242:\n        /* \"contracts/YieldFarm.sol\":7181:7198  _updatePool(_pid) */\n      tag_245\n        /* \"contracts/YieldFarm.sol\":7193:7197  _pid */\n      dup5\n        /* \"contracts/YieldFarm.sol\":7181:7192  _updatePool */\n      tag_199\n        /* \"contracts/YieldFarm.sol\":7181:7198  _updatePool(_pid) */\n      jump\t// in\n    tag_245:\n        /* \"contracts/YieldFarm.sol\":7208:7240  _updateRewards(_pid, msg.sender) */\n      tag_246\n        /* \"contracts/YieldFarm.sol\":7223:7227  _pid */\n      dup5\n        /* \"contracts/YieldFarm.sol\":7229:7239  msg.sender */\n      caller\n        /* \"contracts/YieldFarm.sol\":7208:7222  _updateRewards */\n      tag_201\n        /* \"contracts/YieldFarm.sol\":7208:7240  _updateRewards(_pid, msg.sender) */\n      jump\t// in\n    tag_246:\n        /* \"contracts/YieldFarm.sol\":7271:7278  _amount */\n      dup3\n        /* \"contracts/YieldFarm.sol\":7251:7260  userStake */\n      dup2\n        /* \"contracts/YieldFarm.sol\":7251:7267  userStake.amount */\n      0x00\n      add\n      0x00\n        /* \"contracts/YieldFarm.sol\":7251:7278  userStake.amount -= _amount */\n      dup3\n      dup3\n      sload\n      tag_247\n      swap2\n      swap1\n      tag_174\n      jump\t// in\n    tag_247:\n      swap3\n      pop\n      pop\n      dup2\n      swap1\n      sstore\n      pop\n        /* \"contracts/YieldFarm.sol\":7308:7315  _amount */\n      dup3\n        /* \"contracts/YieldFarm.sol\":7288:7292  pool */\n      dup3\n        /* \"contracts/YieldFarm.sol\":7288:7304  pool.totalStaked */\n      0x04\n      add\n      0x00\n        /* \"contracts/YieldFarm.sol\":7288:7315  pool.totalStaked -= _amount */\n      dup3\n      dup3\n      sload\n      tag_248\n      swap2\n      swap1\n      tag_174\n      jump\t// in\n    tag_248:\n      swap3\n      pop\n      pop\n      dup2\n      swap1\n      sstore\n      pop\n        /* \"contracts/YieldFarm.sol\":7326:7377  pool.stakingToken.safeTransfer(msg.sender, _amount) */\n      tag_249\n        /* \"contracts/YieldFarm.sol\":7357:7367  msg.sender */\n      caller\n        /* \"contracts/YieldFarm.sol\":7369:7376  _amount */\n      dup5\n        /* \"contracts/YieldFarm.sol\":7326:7330  pool */\n      dup5\n        /* \"contracts/YieldFarm.sol\":7326:7343  pool.stakingToken */\n      0x00\n      add\n      0x00\n      swap1\n      sload\n      swap1\n      0x0100\n      exp\n      swap1\n      div\n      0xffffffffffffffffffffffffffffffffffffffff\n      and\n        /* \"contracts/YieldFarm.sol\":7326:7356  pool.stakingToken.safeTransfer */\n      0xffffffffffffffffffffffffffffffffffffffff\n      and\n      tag_176\n      swap1\n        /* \"contracts/YieldFarm.sol\":7326:7377  pool.stakingToken.safeTransfer(msg.sender, _amount) */\n      swap3\n      swap2\n      swap1\n      0xffffffff\n      and\n      jump\t// in\n    tag_249:\n        /* \"contracts/YieldFarm.sol\":7414:7418  _pid */\n      dup4\n        /* \"contracts/YieldFarm.sol\":7402:7412  msg.sender */\n      caller\n        /* \"contracts/YieldFarm.sol\":7393:7428  Unstaked(msg.sender, _pid, _amount) */\n      0xffffffffffffffffffffffffffffffffffffffff\n      and\n      0x7fc4727e062e336010f2c282598ef5f14facb3de68cf8195c2f23e1454b2b74e\n        /* \"contracts/YieldFarm.sol\":7420:7427  _amount */\n      dup6\n        /* \"contracts/YieldFarm.sol\":7393:7428  Unstaked(msg.sender, _pid, _amount) */\n      mload(0x40)\n      tag_250\n      swap2\n      swap1\n      tag_42\n      jump\t// in\n    tag_250:\n      mload(0x40)\n      dup1\n      swap2\n      sub\n      swap1\n      log3\n        /* \"contracts/YieldFarm.sol\":6896:7435  {... */\n      pop\n      pop\n        /* \"@openzeppelin/contracts-upgradeable/security/ReentrancyGuardUpgradeable.sol\":2568:2588  _nonReentrantAfter() */\n      tag_251\n        /* \"@openzeppelin/contracts-upgradeable/security/ReentrancyGuardUpgradeable.sol\":2568:2586  _nonReentrantAfter */\n      tag_179\n        /* \"@openzeppelin/contracts-upgradeable/security/ReentrancyGuardUpgradeable.sol\":2568:2588  _nonReentrantAfter() */\n      jump\t// in\n    tag_251:\n        /* \"contracts/YieldFarm.sol\":6826:7435  function unstake(uint256 _pid, uint256 _amount) external nonReentrant {... */\n      pop\n      pop\n      jump\t// out\n        /* \"contracts/YieldFarm.sol\":8693:9092  function setReferrer(address _referrer) external {... */\n    tag_106:\n        /* \"contracts/YieldFarm.sol\":8793:8794  0 */\n      0x00\n        /* \"contracts/YieldFarm.sol\":8760:8795  referrers[msg.sender] == address(0) */\n      0xffffffffffffffffffffffffffffffffffffffff\n      and\n        /* \"contracts/YieldFarm.sol\":8760:8769  referrers */\n      0x34\n        /* \"contracts/YieldFarm.sol\":8760:8781  referrers[msg.sender] */\n      0x00\n        /* \"contracts/YieldFarm.sol\":8770:8780  msg.sender */\n      caller\n        /* \"contracts/YieldFarm.sol\":8760:8781  referrers[msg.sender] */\n      0xffffffffffffffffffffffffffffffffffffffff\n      and\n      0xffffffffffffffffffffffffffffffffffffffff\n      and\n      dup2\n      mstore\n      0x20\n      add\n      swap1\n      dup2\n      mstore\n      0x20\n      add\n      0x00\n      keccak256\n      0x00\n      swap1\n      sload\n      swap1\n      0x0100\n      exp\n      swap1\n      div\n      0xffffffffffffffffffffffffffffffffffffffff\n      and\n        /* \"contracts/YieldFarm.sol\":8760:8795  referrers[msg.sender] == address(0) */\n      0xffffffffffffffffffffffffffffffffffffffff\n      and\n      eq\n        /* \"contracts/YieldFarm.sol\":8752:8820  require(referrers[msg.sender] == address(0), \"Referrer already set\") */\n      tag_253\n      jumpi\n      mload(0x40)\n      0x08c379a000000000000000000000000000000000000000000000000000000000\n      dup2\n      mstore\n      0x04\n      add\n      tag_254\n      swap1\n      tag_255\n      jump\t// in\n    tag_254:\n      mload(0x40)\n      dup1\n      swap2\n      sub\n      swap1\n      revert\n    tag_253:\n        /* \"contracts/YieldFarm.sol\":8851:8861  msg.sender */\n      caller\n        /* \"contracts/YieldFarm.sol\":8838:8861  _referrer != msg.sender */\n      0xffffffffffffffffffffffffffffffffffffffff\n      and\n        /* \"contracts/YieldFarm.sol\":8838:8847  _referrer */\n      dup2\n        /* \"contracts/YieldFarm.sol\":8838:8861  _referrer != msg.sender */\n      0xffffffffffffffffffffffffffffffffffffffff\n      and\n      sub\n        /* \"contracts/YieldFarm.sol\":8830:8887  require(_referrer != msg.sender, \"Cannot refer yourself\") */\n      tag_256\n      jumpi\n      mload(0x40)\n      0x08c379a000000000000000000000000000000000000000000000000000000000\n      dup2\n      mstore\n      0x04\n      add\n      tag_257\n      swap1\n      tag_258\n      jump\t// in\n    tag_257:\n      mload(0x40)\n      dup1\n      swap2\n      sub\n      swap1\n      revert\n    tag_256:\n        /* \"contracts/YieldFarm.sol\":8921:8930  _referrer */\n      dup1\n        /* \"contracts/YieldFarm.sol\":8897:8906  referrers */\n      0x34\n        /* \"contracts/YieldFarm.sol\":8897:8918  referrers[msg.sender] */\n      0x00\n        /* \"contracts/YieldFarm.sol\":8907:8917  msg.sender */\n      caller\n        /* \"contracts/YieldFarm.sol\":8897:8918  referrers[msg.sender] */\n      0xffffffffffffffffffffffffffffffffffffffff\n      and\n      0xffffffffffffffffffffffffffffffffffffffff\n      and\n      dup2\n      mstore\n      0x20\n      add\n      swap1\n      dup2\n      mstore\n      0x20\n      add\n      0x00\n      keccak256\n      0x00\n        /* \"contracts/YieldFarm.sol\":8897:8930  referrers[msg.sender] = _referrer */\n      0x0100\n      exp\n      dup2\n      sload\n      dup2\n      0xffffffffffffffffffffffffffffffffffffffff\n      mul\n      not\n      and\n      swap1\n      dup4\n      0xffffffffffffffffffffffffffffffffffffffff\n      and\n      mul\n      or\n      swap1\n      sstore\n      pop\n        /* \"contracts/YieldFarm.sol\":8970:8983  referralBonus */\n      sload(0x3a)\n        /* \"contracts/YieldFarm.sol\":8940:8955  referralRewards */\n      0x35\n        /* \"contracts/YieldFarm.sol\":8940:8966  referralRewards[_referrer] */\n      0x00\n        /* \"contracts/YieldFarm.sol\":8956:8965  _referrer */\n      dup4\n        /* \"contracts/YieldFarm.sol\":8940:8966  referralRewards[_referrer] */\n      0xffffffffffffffffffffffffffffffffffffffff\n      and\n      0xffffffffffffffffffffffffffffffffffffffff\n      and\n      dup2\n      mstore\n      0x20\n      add\n      swap1\n      dup2\n      mstore\n      0x20\n      add\n      0x00\n      keccak256\n      0x00\n        /* \"contracts/YieldFarm.sol\":8940:8983  referralRewards[_referrer] += referralBonus */\n      dup3\n      dup3\n      sload\n      tag_259\n      swap2\n      swap1\n      tag_205\n      jump\t// in\n    tag_259:\n      swap3\n      pop\n      pop\n      dup2\n      swap1\n      sstore\n      pop\n        /* \"contracts/YieldFarm.sol\":9024:9036  refereeBonus */\n      sload(0x3b)\n        /* \"contracts/YieldFarm.sol\":8993:9008  referralRewards */\n      0x35\n        /* \"contracts/YieldFarm.sol\":8993:9020  referralRewards[msg.sender] */\n      0x00\n        /* \"contracts/YieldFarm.sol\":9009:9019  msg.sender */\n      caller\n        /* \"contracts/YieldFarm.sol\":8993:9020  referralRewards[msg.sender] */\n      0xffffffffffffffffffffffffffffffffffffffff\n      and\n      0xffffffffffffffffffffffffffffffffffffffff\n      and\n      dup2\n      mstore\n      0x20\n      add\n      swap1\n      dup2\n      mstore\n      0x20\n      add\n      0x00\n      keccak256\n      0x00\n        /* \"contracts/YieldFarm.sol\":8993:9036  referralRewards[msg.sender] += refereeBonus */\n      dup3\n      dup3\n      sload\n      tag_260\n      swap2\n      swap1\n      tag_205\n      jump\t// in\n    tag_260:\n      swap3\n      pop\n      pop\n      dup2\n      swap1\n      sstore\n      pop\n        /* \"contracts/YieldFarm.sol\":9075:9084  _referrer */\n      dup1\n        /* \"contracts/YieldFarm.sol\":9051:9085  ReferrerSet(msg.sender, _referrer) */\n      0xffffffffffffffffffffffffffffffffffffffff\n      and\n        /* \"contracts/YieldFarm.sol\":9063:9073  msg.sender */\n      caller\n        /* \"contracts/YieldFarm.sol\":9051:9085  ReferrerSet(msg.sender, _referrer) */\n      0xffffffffffffffffffffffffffffffffffffffff\n      and\n      0x5f7165288eef601591cf549e15ff19ef9060b7f71b9c115be946fa1fe7ebf68a\n      mload(0x40)\n      mload(0x40)\n      dup1\n      swap2\n      sub\n      swap1\n      log3\n        /* \"contracts/YieldFarm.sol\":8693:9092  function setReferrer(address _referrer) external {... */\n      pop\n      jump\t// out\n        /* \"contracts/YieldFarm.sol\":7554:7928  function claimReward(uint256 _pid) external nonReentrant {... */\n    tag_109:\n        /* \"@openzeppelin/contracts-upgradeable/security/ReentrancyGuardUpgradeable.sol\":2526:2547  _nonReentrantBefore() */\n      tag_262\n        /* \"@openzeppelin/contracts-upgradeable/security/ReentrancyGuardUpgradeable.sol\":2526:2545  _nonReentrantBefore */\n      tag_165\n        /* \"@openzeppelin/contracts-upgradeable/security/ReentrancyGuardUpgradeable.sol\":2526:2547  _nonReentrantBefore() */\n      jump\t// in\n    tag_262:\n        /* \"contracts/YieldFarm.sol\":7621:7638  _updatePool(_pid) */\n      tag_264\n        /* \"contracts/YieldFarm.sol\":7633:7637  _pid */\n      dup2\n        /* \"contracts/YieldFarm.sol\":7621:7632  _updatePool */\n      tag_199\n        /* \"contracts/YieldFarm.sol\":7621:7638  _updatePool(_pid) */\n      jump\t// in\n    tag_264:\n        /* \"contracts/YieldFarm.sol\":7648:7680  _updateRewards(_pid, msg.sender) */\n      tag_265\n        /* \"contracts/YieldFarm.sol\":7663:7667  _pid */\n      dup2\n        /* \"contracts/YieldFarm.sol\":7669:7679  msg.sender */\n      caller\n        /* \"contracts/YieldFarm.sol\":7648:7662  _updateRewards */\n      tag_201\n        /* \"contracts/YieldFarm.sol\":7648:7680  _updateRewards(_pid, msg.sender) */\n      jump\t// in\n    tag_265:\n        /* \"contracts/YieldFarm.sol\":7690:7704  uint256 reward */\n      0x00\n        /* \"contracts/YieldFarm.sol\":7707:7717  poolStakes */\n      0x33\n        /* \"contracts/YieldFarm.sol\":7707:7723  poolStakes[_pid] */\n      0x00\n        /* \"contracts/YieldFarm.sol\":7718:7722  _pid */\n      dup4\n        /* \"contracts/YieldFarm.sol\":7707:7723  poolStakes[_pid] */\n      dup2\n      mstore\n      0x20\n      add\n      swap1\n      dup2\n      mstore\n      0x20\n      add\n      0x00\n      keccak256\n        /* \"contracts/YieldFarm.sol\":7707:7735  poolStakes[_pid][msg.sender] */\n      0x00\n        /* \"contracts/YieldFarm.sol\":7724:7734  msg.sender */\n      caller\n        /* \"contracts/YieldFarm.sol\":7707:7735  poolStakes[_pid][msg.sender] */\n      0xffffffffffffffffffffffffffffffffffffffff\n      and\n      0xffffffffffffffffffffffffffffffffffffffff\n      and\n      dup2\n      mstore\n      0x20\n      add\n      swap1\n      dup2\n      mstore\n      0x20\n      add\n      0x00\n      keccak256\n        /* \"contracts/YieldFarm.sol\":7707:7746  poolStakes[_pid][msg.sender].rewardDebt */\n      0x01\n      add\n      sload\n        /* \"contracts/YieldFarm.sol\":7690:7746  uint256 reward = poolStakes[_pid][msg.sender].rewardDebt */\n      swap1\n      pop\n        /* \"contracts/YieldFarm.sol\":7798:7799  0 */\n      0x00\n        /* \"contracts/YieldFarm.sol\":7756:7766  poolStakes */\n      0x33\n        /* \"contracts/YieldFarm.sol\":7756:7772  poolStakes[_pid] */\n      0x00\n        /* \"contracts/YieldFarm.sol\":7767:7771  _pid */\n      dup5\n        /* \"contracts/YieldFarm.sol\":7756:7772  poolStakes[_pid] */\n      dup2\n      mstore\n      0x20\n      add\n      swap1\n      dup2\n      mstore\n      0x20\n      add\n      0x00\n      keccak256\n        /* \"contracts/YieldFarm.sol\":7756:7784  poolStakes[_pid][msg.sender] */\n      0x00\n        /* \"contracts/YieldFarm.sol\":7773:7783  msg.sender */\n      caller\n        /* \"contracts/YieldFarm.sol\":7756:7784  poolStakes[_pid][msg.sender] */\n      0xffffffffffffffffffffffffffffffffffffffff\n      and\n      0xffffffffffffffffffffffffffffffffffffffff\n      and\n      dup2\n      mstore\n      0x20\n      add\n      swap1\n      dup2\n      mstore\n      0x20\n      add\n      0x00\n      keccak256\n        /* \"contracts/YieldFarm.sol\":7756:7795  poolStakes[_pid][msg.sender].rewardDebt */\n      0x01\n      add\n        /* \"contracts/YieldFarm.sol\":7756:7799  poolStakes[_pid][msg.sender].rewardDebt = 0 */\n      dup2\n      swap1\n      sstore\n      pop\n        /* \"contracts/YieldFarm.sol\":7810:7869  poolInfo[_pid].rewardToken.safeTransfer(msg.sender, reward) */\n      tag_266\n        /* \"contracts/YieldFarm.sol\":7850:7860  msg.sender */\n      caller\n        /* \"contracts/YieldFarm.sol\":7862:7868  reward */\n      dup3\n        /* \"contracts/YieldFarm.sol\":7810:7818  poolInfo */\n      0x32\n        /* \"contracts/YieldFarm.sol\":7819:7823  _pid */\n      dup6\n        /* \"contracts/YieldFarm.sol\":7810:7824  poolInfo[_pid] */\n      dup2\n      sload\n      dup2\n      lt\n      tag_267\n      jumpi\n      tag_268\n      tag_147\n      jump\t// in\n    tag_268:\n    tag_267:\n      swap1\n      0x00\n      mstore\n      keccak256(0x00, 0x20)\n      swap1\n      0x07\n      mul\n      add\n        /* \"contracts/YieldFarm.sol\":7810:7836  poolInfo[_pid].rewardToken */\n      0x01\n      add\n      0x00\n      swap1\n      sload\n      swap1\n      0x0100\n      exp\n      swap1\n      div\n      0xffffffffffffffffffffffffffffffffffffffff\n      and\n        /* \"contracts/YieldFarm.sol\":7810:7849  poolInfo[_pid].rewardToken.safeTransfer */\n      0xffffffffffffffffffffffffffffffffffffffff\n      and\n      tag_176\n      swap1\n        /* \"contracts/YieldFarm.sol\":7810:7869  poolInfo[_pid].rewardToken.safeTransfer(msg.sender, reward) */\n      swap3\n      swap2\n      swap1\n      0xffffffff\n      and\n      jump\t// in\n    tag_266:\n        /* \"contracts/YieldFarm.sol\":7908:7912  _pid */\n      dup2\n        /* \"contracts/YieldFarm.sol\":7896:7906  msg.sender */\n      caller\n        /* \"contracts/YieldFarm.sol\":7885:7921  RewardPaid(msg.sender, _pid, reward) */\n      0xffffffffffffffffffffffffffffffffffffffff\n      and\n      0xd6f2c8500df5b44f11e9e48b91ff9f1b9d81bc496d55570c2b1b75bf65243f51\n        /* \"contracts/YieldFarm.sol\":7914:7920  reward */\n      dup4\n        /* \"contracts/YieldFarm.sol\":7885:7921  RewardPaid(msg.sender, _pid, reward) */\n      mload(0x40)\n      tag_270\n      swap2\n      swap1\n      tag_42\n      jump\t// in\n    tag_270:\n      mload(0x40)\n      dup1\n      swap2\n      sub\n      swap1\n      log3\n        /* \"contracts/YieldFarm.sol\":7611:7928  {... */\n      pop\n        /* \"@openzeppelin/contracts-upgradeable/security/ReentrancyGuardUpgradeable.sol\":2568:2588  _nonReentrantAfter() */\n      tag_271\n        /* \"@openzeppelin/contracts-upgradeable/security/ReentrancyGuardUpgradeable.sol\":2568:2586  _nonReentrantAfter */\n      tag_179\n        /* \"@openzeppelin/contracts-upgradeable/security/ReentrancyGuardUpgradeable.sol\":2568:2588  _nonReentrantAfter() */\n      jump\t// in\n    tag_271:\n        /* \"contracts/YieldFarm.sol\":7554:7928  function claimReward(uint256 _pid) external nonReentrant {... */\n      pop\n      jump\t// out\n        /* \"contracts/YieldFarm.sol\":2228:2257  uint256 public baseRewardRate */\n    tag_111:\n      sload(0x36)\n      dup2\n      jump\t// out\n        /* \"contracts/YieldFarm.sol\":5268:5888  function addPool(... */\n    tag_116:\n        /* \"@openzeppelin/contracts-upgradeable/access/OwnableUpgradeable.sol\":2334:2347  _checkOwner() */\n      tag_273\n        /* \"@openzeppelin/contracts-upgradeable/access/OwnableUpgradeable.sol\":2334:2345  _checkOwner */\n      tag_143\n        /* \"@openzeppelin/contracts-upgradeable/access/OwnableUpgradeable.sol\":2334:2347  _checkOwner() */\n      jump\t// in\n    tag_273:\n        /* \"contracts/YieldFarm.sol\":5461:5469  poolInfo */\n      0x32\n        /* \"contracts/YieldFarm.sol\":5475:5760  PoolInfo({... */\n      mload(0x40)\n      dup1\n      0xe0\n      add\n      0x40\n      mstore\n      dup1\n        /* \"contracts/YieldFarm.sol\":5512:5525  _stakingToken */\n      dup7\n        /* \"contracts/YieldFarm.sol\":5475:5760  PoolInfo({... */\n      0xffffffffffffffffffffffffffffffffffffffff\n      and\n      dup2\n      mstore\n      0x20\n      add\n        /* \"contracts/YieldFarm.sol\":5552:5564  _rewardToken */\n      dup6\n        /* \"contracts/YieldFarm.sol\":5475:5760  PoolInfo({... */\n      0xffffffffffffffffffffffffffffffffffffffff\n      and\n      dup2\n      mstore\n      0x20\n      add\n        /* \"contracts/YieldFarm.sol\":5590:5601  _rewardRate */\n      dup5\n        /* \"contracts/YieldFarm.sol\":5475:5760  PoolInfo({... */\n      dup2\n      mstore\n      0x20\n      add\n        /* \"contracts/YieldFarm.sol\":5629:5642  _lockDuration */\n      dup4\n        /* \"contracts/YieldFarm.sol\":5475:5760  PoolInfo({... */\n      dup2\n      mstore\n      0x20\n      add\n        /* \"contracts/YieldFarm.sol\":5669:5670  0 */\n      0x00\n        /* \"contracts/YieldFarm.sol\":5475:5760  PoolInfo({... */\n      dup2\n      mstore\n      0x20\n      add\n        /* \"contracts/YieldFarm.sol\":5703:5704  0 */\n      0x00\n        /* \"contracts/YieldFarm.sol\":5475:5760  PoolInfo({... */\n      dup2\n      mstore\n      0x20\n      add\n        /* \"contracts/YieldFarm.sol\":5734:5749  block.timestamp */\n      timestamp\n        /* \"contracts/YieldFarm.sol\":5475:5760  PoolInfo({... */\n      dup2\n      mstore\n      pop\n        /* \"contracts/YieldFarm.sol\":5461:5761  poolInfo.push(PoolInfo({... */\n      swap1\n      dup1\n      0x01\n      dup2\n      sload\n      add\n      dup1\n      dup3\n      sstore\n      dup1\n      swap2\n      pop\n      pop\n      0x01\n      swap1\n      sub\n      swap1\n      0x00\n      mstore\n      keccak256(0x00, 0x20)\n      swap1\n      0x07\n      mul\n      add\n      0x00\n      swap1\n      swap2\n      swap1\n      swap2\n      swap1\n      swap2\n      pop\n      0x00\n      dup3\n      add\n      mload\n      dup2\n      0x00\n      add\n      exp(0x0100, 0x00)\n      dup2\n      sload\n      dup2\n      0xffffffffffffffffffffffffffffffffffffffff\n      mul\n      not\n      and\n      swap1\n      dup4\n      0xffffffffffffffffffffffffffffffffffffffff\n      and\n      mul\n      or\n      swap1\n      sstore\n      pop\n      0x20\n      dup3\n      add\n      mload\n      dup2\n      0x01\n      add\n      exp(0x0100, 0x00)\n      dup2\n      sload\n      dup2\n      0xffffffffffffffffffffffffffffffffffffffff\n      mul\n      not\n      and\n      swap1\n      dup4\n      0xffffffffffffffffffffffffffffffffffffffff\n      and\n      mul\n      or\n      swap1\n      sstore\n      pop\n      0x40\n      dup3\n      add\n      mload\n      dup2\n      0x02\n      add\n      sstore\n      0x60\n      dup3\n      add\n      mload\n      dup2\n      0x03\n      add\n      sstore\n      0x80\n      dup3\n      add\n      mload\n      dup2\n      0x04\n      add\n      sstore\n      0xa0\n      dup3\n      add\n      mload\n      dup2\n      0x05\n      add\n      sstore\n      0xc0\n      dup3\n      add\n      mload\n      dup2\n      0x06\n      add\n      sstore\n      pop\n      pop\n        /* \"contracts/YieldFarm.sol\":5804:5805  1 */\n      0x01\n        /* \"contracts/YieldFarm.sol\":5786:5794  poolInfo */\n      0x32\n        /* \"contracts/YieldFarm.sol\":5786:5801  poolInfo.length */\n      dup1\n      sload\n      swap1\n      pop\n        /* \"contracts/YieldFarm.sol\":5786:5805  poolInfo.length - 1 */\n      tag_276\n      swap2\n      swap1\n      tag_174\n      jump\t// in\n    tag_276:\n        /* \"contracts/YieldFarm.sol\":5776:5881  PoolAdded(poolInfo.length - 1, address(_stakingToken), address(_rewardToken), _rewardRate, _lockDuration) */\n      0xe1111ad6e2ccaf57d3d9aa458493b64bcf6a66c2028304b95772fe72e1fc3612\n        /* \"contracts/YieldFarm.sol\":5815:5828  _stakingToken */\n      dup6\n        /* \"contracts/YieldFarm.sol\":5839:5851  _rewardToken */\n      dup6\n        /* \"contracts/YieldFarm.sol\":5854:5865  _rewardRate */\n      dup6\n        /* \"contracts/YieldFarm.sol\":5867:5880  _lockDuration */\n      dup6\n        /* \"contracts/YieldFarm.sol\":5776:5881  PoolAdded(poolInfo.length - 1, address(_stakingToken), address(_rewardToken), _rewardRate, _lockDuration) */\n      mload(0x40)\n      tag_277\n      swap5\n      swap4\n      swap3\n      swap2\n      swap1\n      tag_278\n      jump\t// in\n    tag_277:\n      mload(0x40)\n      dup1\n      swap2\n      sub\n      swap1\n      log2\n        /* \"contracts/YieldFarm.sol\":5268:5888  function addPool(... */\n      pop\n      pop\n      pop\n      pop\n      jump\t// out\n        /* \"contracts/YieldFarm.sol\":2531:2559  uint256 public referralBonus */\n    tag_118:\n      sload(0x3a)\n      dup2\n      jump\t// out\n        /* \"contracts/YieldFarm.sol\":2602:2629  uint256 public refereeBonus */\n    tag_121:\n      sload(0x3b)\n      dup2\n      jump\t// out\n        /* \"contracts/YieldFarm.sol\":2760:2794  IERC721Upgradeable public nftToken */\n    tag_124:\n      0x3c\n      0x01\n      swap1\n      sload\n      swap1\n      0x0100\n      exp\n      swap1\n      div\n      0xffffffffffffffffffffffffffffffffffffffff\n      and\n      dup2\n      jump\t// out\n        /* \"contracts/YieldFarm.sol\":10128:10276  function distributeGovernanceTokens(address _user, uint256 _amount) external onlyOwner {... */\n    tag_130:\n        /* \"@openzeppelin/contracts-upgradeable/access/OwnableUpgradeable.sol\":2334:2347  _checkOwner() */\n      tag_280\n        /* \"@openzeppelin/contracts-upgradeable/access/OwnableUpgradeable.sol\":2334:2345  _checkOwner */\n      tag_143\n        /* \"@openzeppelin/contracts-upgradeable/access/OwnableUpgradeable.sol\":2334:2347  _checkOwner() */\n      jump\t// in\n    tag_280:\n        /* \"contracts/YieldFarm.sol\":10225:10269  governanceToken.safeTransfer(_user, _amount) */\n      tag_282\n        /* \"contracts/YieldFarm.sol\":10254:10259  _user */\n      dup3\n        /* \"contracts/YieldFarm.sol\":10261:10268  _amount */\n      dup3\n        /* \"contracts/YieldFarm.sol\":10225:10240  governanceToken */\n      0x3d\n      0x00\n      swap1\n      sload\n      swap1\n      0x0100\n      exp\n      swap1\n      div\n      0xffffffffffffffffffffffffffffffffffffffff\n      and\n        /* \"contracts/YieldFarm.sol\":10225:10253  governanceToken.safeTransfer */\n      0xffffffffffffffffffffffffffffffffffffffff\n      and\n      tag_176\n      swap1\n        /* \"contracts/YieldFarm.sol\":10225:10269  governanceToken.safeTransfer(_user, _amount) */\n      swap3\n      swap2\n      swap1\n      0xffffffff\n      and\n      jump\t// in\n    tag_282:\n        /* \"contracts/YieldFarm.sol\":10128:10276  function distributeGovernanceTokens(address _user, uint256 _amount) external onlyOwner {... */\n      pop\n      pop\n      jump\t// out\n        /* \"contracts/YieldFarm.sol\":2462:2489  uint256 public nftBoostRate */\n    tag_132:\n      sload(0x39)\n      dup2\n      jump\t// out\n        /* \"@openzeppelin/contracts-upgradeable/access/OwnableUpgradeable.sol\":3405:3620  function transferOwnership(address newOwner) public virtual onlyOwner {... */\n    tag_136:\n        /* \"@openzeppelin/contracts-upgradeable/access/OwnableUpgradeable.sol\":2334:2347  _checkOwner() */\n      tag_284\n        /* \"@openzeppelin/contracts-upgradeable/access/OwnableUpgradeable.sol\":2334:2345  _checkOwner */\n      tag_143\n        /* \"@openzeppelin/contracts-upgradeable/access/OwnableUpgradeable.sol\":2334:2347  _checkOwner() */\n      jump\t// in\n    tag_284:\n        /* \"@openzeppelin/contracts-upgradeable/access/OwnableUpgradeable.sol\":3509:3510  0 */\n      0x00\n        /* \"@openzeppelin/contracts-upgradeable/access/OwnableUpgradeable.sol\":3489:3511  newOwner == address(0) */\n      0xffffffffffffffffffffffffffffffffffffffff\n      and\n        /* \"@openzeppelin/contracts-upgradeable/access/OwnableUpgradeable.sol\":3489:3497  newOwner */\n      dup2\n        /* \"@openzeppelin/contracts-upgradeable/access/OwnableUpgradeable.sol\":3489:3511  newOwner == address(0) */\n      0xffffffffffffffffffffffffffffffffffffffff\n      and\n      sub\n        /* \"@openzeppelin/contracts-upgradeable/access/OwnableUpgradeable.sol\":3485:3576  if (newOwner == address(0)) {... */\n      tag_286\n      jumpi\n        /* \"@openzeppelin/contracts-upgradeable/access/OwnableUpgradeable.sol\":3562:3563  0 */\n      0x00\n        /* \"@openzeppelin/contracts-upgradeable/access/OwnableUpgradeable.sol\":3534:3565  OwnableInvalidOwner(address(0)) */\n      mload(0x40)\n      0x1e4fbdf700000000000000000000000000000000000000000000000000000000\n      dup2\n      mstore\n      0x04\n      add\n      tag_287\n      swap2\n      swap1\n      tag_75\n      jump\t// in\n    tag_287:\n      mload(0x40)\n      dup1\n      swap2\n      sub\n      swap1\n      revert\n        /* \"@openzeppelin/contracts-upgradeable/access/OwnableUpgradeable.sol\":3485:3576  if (newOwner == address(0)) {... */\n    tag_286:\n        /* \"@openzeppelin/contracts-upgradeable/access/OwnableUpgradeable.sol\":3585:3613  _transferOwnership(newOwner) */\n      tag_288\n        /* \"@openzeppelin/contracts-upgradeable/access/OwnableUpgradeable.sol\":3604:3612  newOwner */\n      dup2\n        /* \"@openzeppelin/contracts-upgradeable/access/OwnableUpgradeable.sol\":3585:3603  _transferOwnership */\n      tag_184\n        /* \"@openzeppelin/contracts-upgradeable/access/OwnableUpgradeable.sol\":3585:3613  _transferOwnership(newOwner) */\n      jump\t// in\n    tag_288:\n        /* \"@openzeppelin/contracts-upgradeable/access/OwnableUpgradeable.sol\":3405:3620  function transferOwnership(address newOwner) public virtual onlyOwner {... */\n      pop\n      jump\t// out\n        /* \"contracts/YieldFarm.sol\":2834:2874  IERC20Upgradeable public governanceToken */\n    tag_138:\n      0x3d\n      0x00\n      swap1\n      sload\n      swap1\n      0x0100\n      exp\n      swap1\n      div\n      0xffffffffffffffffffffffffffffffffffffffff\n      and\n      dup2\n      jump\t// out\n        /* \"@openzeppelin/contracts-upgradeable/access/OwnableUpgradeable.sol\":2658:2820  function _checkOwner() internal view virtual {... */\n    tag_143:\n        /* \"@openzeppelin/contracts-upgradeable/access/OwnableUpgradeable.sol\":2728:2740  _msgSender() */\n      tag_290\n        /* \"@openzeppelin/contracts-upgradeable/access/OwnableUpgradeable.sol\":2728:2738  _msgSender */\n      tag_291\n        /* \"@openzeppelin/contracts-upgradeable/access/OwnableUpgradeable.sol\":2728:2740  _msgSender() */\n      jump\t// in\n    tag_290:\n        /* \"@openzeppelin/contracts-upgradeable/access/OwnableUpgradeable.sol\":2717:2740  owner() != _msgSender() */\n      0xffffffffffffffffffffffffffffffffffffffff\n      and\n        /* \"@openzeppelin/contracts-upgradeable/access/OwnableUpgradeable.sol\":2717:2724  owner() */\n      tag_292\n        /* \"@openzeppelin/contracts-upgradeable/access/OwnableUpgradeable.sol\":2717:2722  owner */\n      tag_99\n        /* \"@openzeppelin/contracts-upgradeable/access/OwnableUpgradeable.sol\":2717:2724  owner() */\n      jump\t// in\n    tag_292:\n        /* \"@openzeppelin/contracts-upgradeable/access/OwnableUpgradeable.sol\":2717:2740  owner() != _msgSender() */\n      0xffffffffffffffffffffffffffffffffffffffff\n      and\n      eq\n        /* \"@openzeppelin/contracts-upgradeable/access/OwnableUpgradeable.sol\":2713:2814  if (owner() != _msgSender()) {... */\n      tag_293\n      jumpi\n        /* \"@openzeppelin/contracts-upgradeable/access/OwnableUpgradeable.sol\":2790:2802  _msgSender() */\n      tag_294\n        /* \"@openzeppelin/contracts-upgradeable/access/OwnableUpgradeable.sol\":2790:2800  _msgSender */\n      tag_291\n        /* \"@openzeppelin/contracts-upgradeable/access/OwnableUpgradeable.sol\":2790:2802  _msgSender() */\n      jump\t// in\n    tag_294:\n        /* \"@openzeppelin/contracts-upgradeable/access/OwnableUpgradeable.sol\":2763:2803  OwnableUnauthorizedAccount(_msgSender()) */\n      mload(0x40)\n      0x118cdaa700000000000000000000000000000000000000000000000000000000\n      dup2\n      mstore\n      0x04\n      add\n      tag_295\n      swap2\n      swap1\n      tag_75\n      jump\t// in\n    tag_295:\n      mload(0x40)\n      dup1\n      swap2\n      sub\n      swap1\n      revert\n        /* \"@openzeppelin/contracts-upgradeable/access/OwnableUpgradeable.sol\":2713:2814  if (owner() != _msgSender()) {... */\n    tag_293:\n        /* \"@openzeppelin/contracts-upgradeable/access/OwnableUpgradeable.sol\":2658:2820  function _checkOwner() internal view virtual {... */\n      jump\t// out\n        /* \"@openzeppelin/contracts-upgradeable/security/ReentrancyGuardUpgradeable.sol\":2601:2888  function _nonReentrantBefore() private {... */\n    tag_165:\n        /* \"@openzeppelin/contracts-upgradeable/security/ReentrancyGuardUpgradeable.sol\":1851:1852  2 */\n      0x02\n        /* \"@openzeppelin/contracts-upgradeable/security/ReentrancyGuardUpgradeable.sol\":2733:2740  _status */\n      sload(0x00)\n        /* \"@openzeppelin/contracts-upgradeable/security/ReentrancyGuardUpgradeable.sol\":2733:2752  _status != _ENTERED */\n      sub\n        /* \"@openzeppelin/contracts-upgradeable/security/ReentrancyGuardUpgradeable.sol\":2725:2788  require(_status != _ENTERED, \"ReentrancyGuard: reentrant call\") */\n      tag_297\n      jumpi\n      mload(0x40)\n      0x08c379a000000000000000000000000000000000000000000000000000000000\n      dup2\n      mstore\n      0x04\n      add\n      tag_298\n      swap1\n      tag_299\n      jump\t// in\n    tag_298:\n      mload(0x40)\n      dup1\n      swap2\n      sub\n      swap1\n      revert\n    tag_297:\n        /* \"@openzeppelin/contracts-upgradeable/security/ReentrancyGuardUpgradeable.sol\":1851:1852  2 */\n      0x02\n        /* \"@openzeppelin/contracts-upgradeable/security/ReentrancyGuardUpgradeable.sol\":2863:2870  _status */\n      0x00\n        /* \"@openzeppelin/contracts-upgradeable/security/ReentrancyGuardUpgradeable.sol\":2863:2881  _status = _ENTERED */\n      dup2\n      swap1\n      sstore\n      pop\n        /* \"@openzeppelin/contracts-upgradeable/security/ReentrancyGuardUpgradeable.sol\":2601:2888  function _nonReentrantBefore() private {... */\n      jump\t// out\n        /* \"@openzeppelin/contracts-upgradeable/token/ERC20/utils/SafeERC20Upgradeable.sol\":996:1182  function safeTransfer(IERC20Upgradeable token, address to, uint256 value) internal {... */\n    tag_176:\n        /* \"@openzeppelin/contracts-upgradeable/token/ERC20/utils/SafeERC20Upgradeable.sol\":1089:1175  _callOptionalReturn(token, abi.encodeWithSelector(token.transfer.selector, to, value)) */\n      tag_301\n        /* \"@openzeppelin/contracts-upgradeable/token/ERC20/utils/SafeERC20Upgradeable.sol\":1109:1114  token */\n      dup4\n        /* \"@openzeppelin/contracts-upgradeable/token/ERC20/utils/SafeERC20Upgradeable.sol\":1139:1162  token.transfer.selector */\n      shl(0xe0, 0xa9059cbb)\n        /* \"@openzeppelin/contracts-upgradeable/token/ERC20/utils/SafeERC20Upgradeable.sol\":1164:1166  to */\n      dup5\n        /* \"@openzeppelin/contracts-upgradeable/token/ERC20/utils/SafeERC20Upgradeable.sol\":1168:1173  value */\n      dup5\n        /* \"@openzeppelin/contracts-upgradeable/token/ERC20/utils/SafeERC20Upgradeable.sol\":1116:1174  abi.encodeWithSelector(token.transfer.selector, to, value) */\n      add(0x24, mload(0x40))\n      tag_302\n      swap3\n      swap2\n      swap1\n      tag_303\n      jump\t// in\n    tag_302:\n      mload(0x40)\n      0x20\n      dup2\n      dup4\n      sub\n      sub\n      dup2\n      mstore\n      swap1\n      0x40\n      mstore\n      swap1\n      not(0xffffffffffffffffffffffffffffffffffffffffffffffffffffffff)\n      and\n      0x20\n      dup3\n      add\n      dup1\n      mload\n      0xffffffffffffffffffffffffffffffffffffffffffffffffffffffff\n      dup4\n      dup2\n      dup4\n      and\n      or\n      dup4\n      mstore\n      pop\n      pop\n      pop\n      pop\n        /* \"@openzeppelin/contracts-upgradeable/token/ERC20/utils/SafeERC20Upgradeable.sol\":1089:1108  _callOptionalReturn */\n      tag_304\n        /* \"@openzeppelin/contracts-upgradeable/token/ERC20/utils/SafeERC20Upgradeable.sol\":1089:1175  _callOptionalReturn(token, abi.encodeWithSelector(token.transfer.selector, to, value)) */\n      jump\t// in\n    tag_301:\n        /* \"@openzeppelin/contracts-upgradeable/token/ERC20/utils/SafeERC20Upgradeable.sol\":996:1182  function safeTransfer(IERC20Upgradeable token, address to, uint256 value) internal {... */\n      pop\n      pop\n      pop\n      jump\t// out\n        /* \"@openzeppelin/contracts-upgradeable/security/ReentrancyGuardUpgradeable.sol\":2894:3103  function _nonReentrantAfter() private {... */\n    tag_179:\n        /* \"@openzeppelin/contracts-upgradeable/security/ReentrancyGuardUpgradeable.sol\":1808:1809  1 */\n      0x01\n        /* \"@openzeppelin/contracts-upgradeable/security/ReentrancyGuardUpgradeable.sol\":3074:3081  _status */\n      0x00\n        /* \"@openzeppelin/contracts-upgradeable/security/ReentrancyGuardUpgradeable.sol\":3074:3096  _status = _NOT_ENTERED */\n      dup2\n      swap1\n      sstore\n      pop\n        /* \"@openzeppelin/contracts-upgradeable/security/ReentrancyGuardUpgradeable.sol\":2894:3103  function _nonReentrantAfter() private {... */\n      jump\t// out\n        /* \"@openzeppelin/contracts-upgradeable/access/OwnableUpgradeable.sol\":3774:4022  function _transferOwnership(address newOwner) internal virtual {... */\n    tag_184:\n        /* \"@openzeppelin/contracts-upgradeable/access/OwnableUpgradeable.sol\":3847:3871  OwnableStorage storage $ */\n      0x00\n        /* \"@openzeppelin/contracts-upgradeable/access/OwnableUpgradeable.sol\":3874:3894  _getOwnableStorage() */\n      tag_307\n        /* \"@openzeppelin/contracts-upgradeable/access/OwnableUpgradeable.sol\":3874:3892  _getOwnableStorage */\n      tag_232\n        /* \"@openzeppelin/contracts-upgradeable/access/OwnableUpgradeable.sol\":3874:3894  _getOwnableStorage() */\n      jump\t// in\n    tag_307:\n        /* \"@openzeppelin/contracts-upgradeable/access/OwnableUpgradeable.sol\":3847:3894  OwnableStorage storage $ = _getOwnableStorage() */\n      swap1\n      pop\n        /* \"@openzeppelin/contracts-upgradeable/access/OwnableUpgradeable.sol\":3904:3920  address oldOwner */\n      0x00\n        /* \"@openzeppelin/contracts-upgradeable/access/OwnableUpgradeable.sol\":3923:3924  $ */\n      dup2\n        /* \"@openzeppelin/contracts-upgradeable/access/OwnableUpgradeable.sol\":3923:3931  $._owner */\n      0x00\n      add\n      0x00\n      swap1\n      sload\n      swap1\n      0x0100\n      exp\n      swap1\n      div\n      0xffffffffffffffffffffffffffffffffffffffff\n      and\n        /* \"@openzeppelin/contracts-upgradeable/access/OwnableUpgradeable.sol\":3904:3931  address oldOwner = $._owner */\n      swap1\n      pop\n        /* \"@openzeppelin/contracts-upgradeable/access/OwnableUpgradeable.sol\":3952:3960  newOwner */\n      dup3\n        /* \"@openzeppelin/contracts-upgradeable/access/OwnableUpgradeable.sol\":3941:3942  $ */\n      dup3\n        /* \"@openzeppelin/contracts-upgradeable/access/OwnableUpgradeable.sol\":3941:3949  $._owner */\n      0x00\n      add\n      0x00\n        /* \"@openzeppelin/contracts-upgradeable/access/OwnableUpgradeable.sol\":3941:3960  $._owner = newOwner */\n      0x0100\n      exp\n      dup2\n      sload\n      dup2\n      0xffffffffffffffffffffffffffffffffffffffff\n      mul\n      not\n      and\n      swap1\n      dup4\n      0xffffffffffffffffffffffffffffffffffffffff\n      and\n      mul\n      or\n      swap1\n      sstore\n      pop\n        /* \"@openzeppelin/contracts-upgradeable/access/OwnableUpgradeable.sol\":4006:4014  newOwner */\n      dup3\n        /* \"@openzeppelin/contracts-upgradeable/access/OwnableUpgradeable.sol\":3975:4015  OwnershipTransferred(oldOwner, newOwner) */\n      0xffffffffffffffffffffffffffffffffffffffff\n      and\n        /* \"@openzeppelin/contracts-upgradeable/access/OwnableUpgradeable.sol\":3996:4004  oldOwner */\n      dup2\n        /* \"@openzeppelin/contracts-upgradeable/access/OwnableUpgradeable.sol\":3975:4015  OwnershipTransferred(oldOwner, newOwner) */\n      0xffffffffffffffffffffffffffffffffffffffff\n      and\n      0x8be0079c531659141344cd1fd0a4f28419497f9722a3daafe3b4186f6b6457e0\n      mload(0x40)\n      mload(0x40)\n      dup1\n      swap2\n      sub\n      swap1\n      log3\n        /* \"@openzeppelin/contracts-upgradeable/access/OwnableUpgradeable.sol\":3837:4022  {... */\n      pop\n      pop\n        /* \"@openzeppelin/contracts-upgradeable/access/OwnableUpgradeable.sol\":3774:4022  function _transferOwnership(address newOwner) internal virtual {... */\n      pop\n      jump\t// out\n        /* \"contracts/YieldFarm.sol\":11106:11503  function _updatePool(uint256 _pid) internal {... */\n    tag_199:\n        /* \"contracts/YieldFarm.sol\":11160:11181  PoolInfo storage pool */\n      0x00\n        /* \"contracts/YieldFarm.sol\":11184:11192  poolInfo */\n      0x32\n        /* \"contracts/YieldFarm.sol\":11193:11197  _pid */\n      dup3\n        /* \"contracts/YieldFarm.sol\":11184:11198  poolInfo[_pid] */\n      dup2\n      sload\n      dup2\n      lt\n      tag_309\n      jumpi\n      tag_310\n      tag_147\n      jump\t// in\n    tag_310:\n    tag_309:\n      swap1\n      0x00\n      mstore\n      keccak256(0x00, 0x20)\n      swap1\n      0x07\n      mul\n      add\n        /* \"contracts/YieldFarm.sol\":11160:11198  PoolInfo storage pool = poolInfo[_pid] */\n      swap1\n      pop\n        /* \"contracts/YieldFarm.sol\":11231:11232  0 */\n      0x00\n        /* \"contracts/YieldFarm.sol\":11212:11216  pool */\n      dup2\n        /* \"contracts/YieldFarm.sol\":11212:11228  pool.totalStaked */\n      0x04\n      add\n      sload\n        /* \"contracts/YieldFarm.sol\":11212:11232  pool.totalStaked > 0 */\n      gt\n        /* \"contracts/YieldFarm.sol\":11208:11450  if (pool.totalStaked > 0) {... */\n      iszero\n      tag_312\n      jumpi\n        /* \"contracts/YieldFarm.sol\":11248:11266  uint256 multiplier */\n      0x00\n        /* \"contracts/YieldFarm.sol\":11287:11291  pool */\n      dup2\n        /* \"contracts/YieldFarm.sol\":11287:11306  pool.lastRewardTime */\n      0x06\n      add\n      sload\n        /* \"contracts/YieldFarm.sol\":11269:11284  block.timestamp */\n      timestamp\n        /* \"contracts/YieldFarm.sol\":11269:11306  block.timestamp - pool.lastRewardTime */\n      tag_313\n      swap2\n      swap1\n      tag_174\n      jump\t// in\n    tag_313:\n        /* \"contracts/YieldFarm.sol\":11248:11306  uint256 multiplier = block.timestamp - pool.lastRewardTime */\n      swap1\n      pop\n        /* \"contracts/YieldFarm.sol\":11320:11334  uint256 reward */\n      0x00\n        /* \"contracts/YieldFarm.sol\":11350:11354  pool */\n      dup3\n        /* \"contracts/YieldFarm.sol\":11350:11365  pool.rewardRate */\n      0x02\n      add\n      sload\n        /* \"contracts/YieldFarm.sol\":11337:11347  multiplier */\n      dup3\n        /* \"contracts/YieldFarm.sol\":11337:11365  multiplier * pool.rewardRate */\n      tag_314\n      swap2\n      swap1\n      tag_315\n      jump\t// in\n    tag_314:\n        /* \"contracts/YieldFarm.sol\":11320:11365  uint256 reward = multiplier * pool.rewardRate */\n      swap1\n      pop\n        /* \"contracts/YieldFarm.sol\":11423:11427  pool */\n      dup3\n        /* \"contracts/YieldFarm.sol\":11423:11439  pool.totalStaked */\n      0x04\n      add\n      sload\n        /* \"contracts/YieldFarm.sol\":11415:11419  1e12 */\n      0xe8d4a51000\n        /* \"contracts/YieldFarm.sol\":11406:11412  reward */\n      dup3\n        /* \"contracts/YieldFarm.sol\":11406:11419  reward * 1e12 */\n      tag_316\n      swap2\n      swap1\n      tag_315\n      jump\t// in\n    tag_316:\n        /* \"contracts/YieldFarm.sol\":11405:11439  (reward * 1e12) / pool.totalStaked */\n      tag_317\n      swap2\n      swap1\n      tag_318\n      jump\t// in\n    tag_317:\n        /* \"contracts/YieldFarm.sol\":11379:11383  pool */\n      dup4\n        /* \"contracts/YieldFarm.sol\":11379:11401  pool.accRewardPerShare */\n      0x05\n      add\n      0x00\n        /* \"contracts/YieldFarm.sol\":11379:11439  pool.accRewardPerShare += (reward * 1e12) / pool.totalStaked */\n      dup3\n      dup3\n      sload\n      tag_319\n      swap2\n      swap1\n      tag_205\n      jump\t// in\n    tag_319:\n      swap3\n      pop\n      pop\n      dup2\n      swap1\n      sstore\n      pop\n        /* \"contracts/YieldFarm.sol\":11234:11450  {... */\n      pop\n      pop\n        /* \"contracts/YieldFarm.sol\":11208:11450  if (pool.totalStaked > 0) {... */\n    tag_312:\n        /* \"contracts/YieldFarm.sol\":11481:11496  block.timestamp */\n      timestamp\n        /* \"contracts/YieldFarm.sol\":11459:11463  pool */\n      dup2\n        /* \"contracts/YieldFarm.sol\":11459:11478  pool.lastRewardTime */\n      0x06\n      add\n        /* \"contracts/YieldFarm.sol\":11459:11496  pool.lastRewardTime = block.timestamp */\n      dup2\n      swap1\n      sstore\n      pop\n        /* \"contracts/YieldFarm.sol\":11150:11503  {... */\n      pop\n        /* \"contracts/YieldFarm.sol\":11106:11503  function _updatePool(uint256 _pid) internal {... */\n      pop\n      jump\t// out\n        /* \"contracts/YieldFarm.sol\":11662:12455  function _updateRewards(uint256 _pid, address _user) internal {... */\n    tag_201:\n        /* \"contracts/YieldFarm.sol\":11734:11755  PoolInfo storage pool */\n      0x00\n        /* \"contracts/YieldFarm.sol\":11758:11766  poolInfo */\n      0x32\n        /* \"contracts/YieldFarm.sol\":11767:11771  _pid */\n      dup4\n        /* \"contracts/YieldFarm.sol\":11758:11772  poolInfo[_pid] */\n      dup2\n      sload\n      dup2\n      lt\n      tag_321\n      jumpi\n      tag_322\n      tag_147\n      jump\t// in\n    tag_322:\n    tag_321:\n      swap1\n      0x00\n      mstore\n      keccak256(0x00, 0x20)\n      swap1\n      0x07\n      mul\n      add\n        /* \"contracts/YieldFarm.sol\":11734:11772  PoolInfo storage pool = poolInfo[_pid] */\n      swap1\n      pop\n        /* \"contracts/YieldFarm.sol\":11782:11809  StakeInfo storage userStake */\n      0x00\n        /* \"contracts/YieldFarm.sol\":11812:11822  poolStakes */\n      0x33\n        /* \"contracts/YieldFarm.sol\":11812:11828  poolStakes[_pid] */\n      0x00\n        /* \"contracts/YieldFarm.sol\":11823:11827  _pid */\n      dup6\n        /* \"contracts/YieldFarm.sol\":11812:11828  poolStakes[_pid] */\n      dup2\n      mstore\n      0x20\n      add\n      swap1\n      dup2\n      mstore\n      0x20\n      add\n      0x00\n      keccak256\n        /* \"contracts/YieldFarm.sol\":11812:11835  poolStakes[_pid][_user] */\n      0x00\n        /* \"contracts/YieldFarm.sol\":11829:11834  _user */\n      dup5\n        /* \"contracts/YieldFarm.sol\":11812:11835  poolStakes[_pid][_user] */\n      0xffffffffffffffffffffffffffffffffffffffff\n      and\n      0xffffffffffffffffffffffffffffffffffffffff\n      and\n      dup2\n      mstore\n      0x20\n      add\n      swap1\n      dup2\n      mstore\n      0x20\n      add\n      0x00\n      keccak256\n        /* \"contracts/YieldFarm.sol\":11782:11835  StakeInfo storage userStake = poolStakes[_pid][_user] */\n      swap1\n      pop\n        /* \"contracts/YieldFarm.sol\":11868:11869  0 */\n      0x00\n        /* \"contracts/YieldFarm.sol\":11849:11858  userStake */\n      dup2\n        /* \"contracts/YieldFarm.sol\":11849:11865  userStake.amount */\n      0x00\n      add\n      sload\n        /* \"contracts/YieldFarm.sol\":11849:11869  userStake.amount > 0 */\n      gt\n        /* \"contracts/YieldFarm.sol\":11845:12449  if (userStake.amount > 0) {... */\n      iszero\n      tag_324\n      jumpi\n        /* \"contracts/YieldFarm.sol\":11885:11906  uint256 pendingReward */\n      0x00\n        /* \"contracts/YieldFarm.sol\":11962:11971  userStake */\n      dup2\n        /* \"contracts/YieldFarm.sol\":11962:11982  userStake.rewardDebt */\n      0x01\n      add\n      sload\n        /* \"contracts/YieldFarm.sol\":11955:11959  1e12 */\n      0xe8d4a51000\n        /* \"contracts/YieldFarm.sol\":11929:11933  pool */\n      dup5\n        /* \"contracts/YieldFarm.sol\":11929:11951  pool.accRewardPerShare */\n      0x05\n      add\n      sload\n        /* \"contracts/YieldFarm.sol\":11910:11919  userStake */\n      dup5\n        /* \"contracts/YieldFarm.sol\":11910:11926  userStake.amount */\n      0x00\n      add\n      sload\n        /* \"contracts/YieldFarm.sol\":11910:11951  userStake.amount * pool.accRewardPerShare */\n      tag_325\n      swap2\n      swap1\n      tag_315\n      jump\t// in\n    tag_325:\n        /* \"contracts/YieldFarm.sol\":11909:11959  (userStake.amount * pool.accRewardPerShare) / 1e12 */\n      tag_326\n      swap2\n      swap1\n      tag_318\n      jump\t// in\n    tag_326:\n        /* \"contracts/YieldFarm.sol\":11909:11982  (userStake.amount * pool.accRewardPerShare) / 1e12 - userStake.rewardDebt */\n      tag_327\n      swap2\n      swap1\n      tag_174\n      jump\t// in\n    tag_327:\n        /* \"contracts/YieldFarm.sol\":11885:11982  uint256 pendingReward = (userStake.amount * pool.accRewardPerShare) / 1e12 - userStake.rewardDebt */\n      swap1\n      pop\n        /* \"contracts/YieldFarm.sol\":11996:12018  uint256 stakedDuration */\n      0x00\n        /* \"contracts/YieldFarm.sol\":12062:12066  pool */\n      dup4\n        /* \"contracts/YieldFarm.sol\":12062:12079  pool.lockDuration */\n      0x03\n      add\n      sload\n        /* \"contracts/YieldFarm.sol\":12040:12049  userStake */\n      dup4\n        /* \"contracts/YieldFarm.sol\":12040:12059  userStake.lockUntil */\n      0x02\n      add\n      sload\n        /* \"contracts/YieldFarm.sol\":12040:12079  userStake.lockUntil - pool.lockDuration */\n      tag_328\n      swap2\n      swap1\n      tag_174\n      jump\t// in\n    tag_328:\n        /* \"contracts/YieldFarm.sol\":12021:12036  block.timestamp */\n      timestamp\n        /* \"contracts/YieldFarm.sol\":12021:12080  block.timestamp - (userStake.lockUntil - pool.lockDuration) */\n      tag_329\n      swap2\n      swap1\n      tag_174\n      jump\t// in\n    tag_329:\n        /* \"contracts/YieldFarm.sol\":11996:12080  uint256 stakedDuration = block.timestamp - (userStake.lockUntil - pool.lockDuration) */\n      swap1\n      pop\n        /* \"contracts/YieldFarm.sol\":12094:12112  uint256 multiplier */\n      0x00\n        /* \"contracts/YieldFarm.sol\":12115:12157  _calculateRewardMultiplier(stakedDuration) */\n      tag_330\n        /* \"contracts/YieldFarm.sol\":12142:12156  stakedDuration */\n      dup3\n        /* \"contracts/YieldFarm.sol\":12115:12141  _calculateRewardMultiplier */\n      tag_331\n        /* \"contracts/YieldFarm.sol\":12115:12157  _calculateRewardMultiplier(stakedDuration) */\n      jump\t// in\n    tag_330:\n        /* \"contracts/YieldFarm.sol\":12094:12157  uint256 multiplier = _calculateRewardMultiplier(stakedDuration) */\n      swap1\n      pop\n        /* \"contracts/YieldFarm.sol\":12235:12249  baseRewardRate */\n      sload(0x36)\n        /* \"contracts/YieldFarm.sol\":12221:12231  multiplier */\n      dup2\n        /* \"contracts/YieldFarm.sol\":12204:12218  baseRewardRate */\n      sload(0x36)\n        /* \"contracts/YieldFarm.sol\":12204:12231  baseRewardRate + multiplier */\n      tag_332\n      swap2\n      swap1\n      tag_205\n      jump\t// in\n    tag_332:\n        /* \"contracts/YieldFarm.sol\":12187:12200  pendingReward */\n      dup5\n        /* \"contracts/YieldFarm.sol\":12187:12232  pendingReward * (baseRewardRate + multiplier) */\n      tag_333\n      swap2\n      swap1\n      tag_315\n      jump\t// in\n    tag_333:\n        /* \"contracts/YieldFarm.sol\":12187:12249  pendingReward * (baseRewardRate + multiplier) / baseRewardRate */\n      tag_334\n      swap2\n      swap1\n      tag_318\n      jump\t// in\n    tag_334:\n        /* \"contracts/YieldFarm.sol\":12171:12249  pendingReward = pendingReward * (baseRewardRate + multiplier) / baseRewardRate */\n      swap3\n      pop\n        /* \"contracts/YieldFarm.sol\":12286:12299  pendingReward */\n      dup3\n        /* \"contracts/YieldFarm.sol\":12263:12272  userStake */\n      dup5\n        /* \"contracts/YieldFarm.sol\":12263:12283  userStake.rewardDebt */\n      0x01\n      add\n        /* \"contracts/YieldFarm.sol\":12263:12299  userStake.rewardDebt = pendingReward */\n      dup2\n      swap1\n      sstore\n      pop\n        /* \"contracts/YieldFarm.sol\":12345:12346  0 */\n      0x00\n        /* \"contracts/YieldFarm.sol\":12317:12325  nftToken */\n      0x3c\n      0x01\n      swap1\n      sload\n      swap1\n      0x0100\n      exp\n      swap1\n      div\n      0xffffffffffffffffffffffffffffffffffffffff\n      and\n        /* \"contracts/YieldFarm.sol\":12317:12335  nftToken.balanceOf */\n      0xffffffffffffffffffffffffffffffffffffffff\n      and\n      0x70a08231\n        /* \"contracts/YieldFarm.sol\":12336:12341  _user */\n      dup9\n        /* \"contracts/YieldFarm.sol\":12317:12342  nftToken.balanceOf(_user) */\n      mload(0x40)\n      dup3\n      0xffffffff\n      and\n      0xe0\n      shl\n      dup2\n      mstore\n      0x04\n      add\n      tag_335\n      swap2\n      swap1\n      tag_75\n      jump\t// in\n    tag_335:\n      0x20\n      mload(0x40)\n      dup1\n      dup4\n      sub\n      dup2\n      dup7\n      gas\n      staticcall\n      iszero\n      dup1\n      iszero\n      tag_337\n      jumpi\n      returndatasize\n      0x00\n      dup1\n      returndatacopy\n      revert(0x00, returndatasize)\n    tag_337:\n      pop\n      pop\n      pop\n      pop\n      mload(0x40)\n      returndatasize\n      not(0x1f)\n      0x1f\n      dup3\n      add\n      and\n      dup3\n      add\n      dup1\n      0x40\n      mstore\n      pop\n      dup2\n      add\n      swap1\n      tag_338\n      swap2\n      swap1\n      tag_339\n      jump\t// in\n    tag_338:\n        /* \"contracts/YieldFarm.sol\":12317:12346  nftToken.balanceOf(_user) > 0 */\n      gt\n        /* \"contracts/YieldFarm.sol\":12313:12439  if (nftToken.balanceOf(_user) > 0) {... */\n      iszero\n      tag_340\n      jumpi\n        /* \"contracts/YieldFarm.sol\":12421:12424  100 */\n      0x64\n        /* \"contracts/YieldFarm.sol\":12406:12418  nftBoostRate */\n      sload(0x39)\n        /* \"contracts/YieldFarm.sol\":12390:12403  pendingReward */\n      dup5\n        /* \"contracts/YieldFarm.sol\":12390:12418  pendingReward * nftBoostRate */\n      tag_341\n      swap2\n      swap1\n      tag_315\n      jump\t// in\n    tag_341:\n        /* \"contracts/YieldFarm.sol\":12390:12424  pendingReward * nftBoostRate / 100 */\n      tag_342\n      swap2\n      swap1\n      tag_318\n      jump\t// in\n    tag_342:\n        /* \"contracts/YieldFarm.sol\":12366:12375  userStake */\n      dup5\n        /* \"contracts/YieldFarm.sol\":12366:12386  userStake.rewardDebt */\n      0x01\n      add\n      0x00\n        /* \"contracts/YieldFarm.sol\":12366:12424  userStake.rewardDebt += pendingReward * nftBoostRate / 100 */\n      dup3\n      dup3\n      sload\n      tag_343\n      swap2\n      swap1\n      tag_205\n      jump\t// in\n    tag_343:\n      swap3\n      pop\n      pop\n      dup2\n      swap1\n      sstore\n      pop\n        /* \"contracts/YieldFarm.sol\":12313:12439  if (nftToken.balanceOf(_user) > 0) {... */\n    tag_340:\n        /* \"contracts/YieldFarm.sol\":11871:12449  {... */\n      pop\n      pop\n      pop\n        /* \"contracts/YieldFarm.sol\":11845:12449  if (userStake.amount > 0) {... */\n    tag_324:\n        /* \"contracts/YieldFarm.sol\":11724:12455  {... */\n      pop\n      pop\n        /* \"contracts/YieldFarm.sol\":11662:12455  function _updateRewards(uint256 _pid, address _user) internal {... */\n      pop\n      pop\n      jump\t// out\n        /* \"@openzeppelin/contracts-upgradeable/token/ERC20/utils/SafeERC20Upgradeable.sol\":1421:1635  function safeTransferFrom(IERC20Upgradeable token, address from, address to, uint256 value) internal {... */\n    tag_203:\n        /* \"@openzeppelin/contracts-upgradeable/token/ERC20/utils/SafeERC20Upgradeable.sol\":1532:1628  _callOptionalReturn(token, abi.encodeWithSelector(token.transferFrom.selector, from, to, value)) */\n      tag_345\n        /* \"@openzeppelin/contracts-upgradeable/token/ERC20/utils/SafeERC20Upgradeable.sol\":1552:1557  token */\n      dup5\n        /* \"@openzeppelin/contracts-upgradeable/token/ERC20/utils/SafeERC20Upgradeable.sol\":1582:1609  token.transferFrom.selector */\n      shl(0xe0, 0x23b872dd)\n        /* \"@openzeppelin/contracts-upgradeable/token/ERC20/utils/SafeERC20Upgradeable.sol\":1611:1615  from */\n      dup6\n        /* \"@openzeppelin/contracts-upgradeable/token/ERC20/utils/SafeERC20Upgradeable.sol\":1617:1619  to */\n      dup6\n        /* \"@openzeppelin/contracts-upgradeable/token/ERC20/utils/SafeERC20Upgradeable.sol\":1621:1626  value */\n      dup6\n        /* \"@openzeppelin/contracts-upgradeable/token/ERC20/utils/SafeERC20Upgradeable.sol\":1559:1627  abi.encodeWithSelector(token.transferFrom.selector, from, to, value) */\n      add(0x24, mload(0x40))\n      tag_346\n      swap4\n      swap3\n      swap2\n      swap1\n      tag_347\n      jump\t// in\n    tag_346:\n      mload(0x40)\n      0x20\n      dup2\n      dup4\n      sub\n      sub\n      dup2\n      mstore\n      swap1\n      0x40\n      mstore\n      swap1\n      not(0xffffffffffffffffffffffffffffffffffffffffffffffffffffffff)\n      and\n      0x20\n      dup3\n      add\n      dup1\n      mload\n      0xffffffffffffffffffffffffffffffffffffffffffffffffffffffff\n      dup4\n      dup2\n      dup4\n      and\n      or\n      dup4\n      mstore\n      pop\n      pop\n      pop\n      pop\n        /* \"@openzeppelin/contracts-upgradeable/token/ERC20/utils/SafeERC20Upgradeable.sol\":1532:1551  _callOptionalReturn */\n      tag_304\n        /* \"@openzeppelin/contracts-upgradeable/token/ERC20/utils/SafeERC20Upgradeable.sol\":1532:1628  _callOptionalReturn(token, abi.encodeWithSelector(token.transferFrom.selector, from, to, value)) */\n      jump\t// in\n    tag_345:\n        /* \"@openzeppelin/contracts-upgradeable/token/ERC20/utils/SafeERC20Upgradeable.sol\":1421:1635  function safeTransferFrom(IERC20Upgradeable token, address from, address to, uint256 value) internal {... */\n      pop\n      pop\n      pop\n      pop\n      jump\t// out\n        /* \"@openzeppelin/contracts-upgradeable/proxy/utils/Initializable.sol\":8737:8907  function _getInitializableStorage() private pure returns (InitializableStorage storage $) {... */\n    tag_216:\n        /* \"@openzeppelin/contracts-upgradeable/proxy/utils/Initializable.sol\":8795:8825  InitializableStorage storage $ */\n      0x00\n        /* \"@openzeppelin/contracts-upgradeable/proxy/utils/Initializable.sol\":8870:8891  INITIALIZABLE_STORAGE */\n      0xf0c57e16840df040f15088dc2f81fe391c3923bec73e23a9662efc9c229c6a00\n        /* \"@openzeppelin/contracts-upgradeable/proxy/utils/Initializable.sol\":8860:8891  $.slot := INITIALIZABLE_STORAGE */\n      swap1\n      pop\n        /* \"@openzeppelin/contracts-upgradeable/proxy/utils/Initializable.sol\":8737:8907  function _getInitializableStorage() private pure returns (InitializableStorage storage $) {... */\n      swap1\n      jump\t// out\n        /* \"@openzeppelin/contracts-upgradeable/access/OwnableUpgradeable.sol\":1847:1974  function __Ownable_init(address initialOwner) internal onlyInitializing {... */\n    tag_224:\n        /* \"@openzeppelin/contracts-upgradeable/proxy/utils/Initializable.sol\":6931:6951  _checkInitializing() */\n      tag_350\n        /* \"@openzeppelin/contracts-upgradeable/proxy/utils/Initializable.sol\":6931:6949  _checkInitializing */\n      tag_351\n        /* \"@openzeppelin/contracts-upgradeable/proxy/utils/Initializable.sol\":6931:6951  _checkInitializing() */\n      jump\t// in\n    tag_350:\n        /* \"@openzeppelin/contracts-upgradeable/access/OwnableUpgradeable.sol\":1929:1967  __Ownable_init_unchained(initialOwner) */\n      tag_353\n        /* \"@openzeppelin/contracts-upgradeable/access/OwnableUpgradeable.sol\":1954:1966  initialOwner */\n      dup2\n        /* \"@openzeppelin/contracts-upgradeable/access/OwnableUpgradeable.sol\":1929:1953  __Ownable_init_unchained */\n      tag_354\n        /* \"@openzeppelin/contracts-upgradeable/access/OwnableUpgradeable.sol\":1929:1967  __Ownable_init_unchained(initialOwner) */\n      jump\t// in\n    tag_353:\n        /* \"@openzeppelin/contracts-upgradeable/access/OwnableUpgradeable.sol\":1847:1974  function __Ownable_init(address initialOwner) internal onlyInitializing {... */\n      pop\n      jump\t// out\n        /* \"@openzeppelin/contracts-upgradeable/security/ReentrancyGuardUpgradeable.sol\":1889:2000  function __ReentrancyGuard_init() internal onlyInitializing {... */\n    tag_226:\n        /* \"@openzeppelin/contracts-upgradeable/proxy/utils/Initializable.sol\":6931:6951  _checkInitializing() */\n      tag_356\n        /* \"@openzeppelin/contracts-upgradeable/proxy/utils/Initializable.sol\":6931:6949  _checkInitializing */\n      tag_351\n        /* \"@openzeppelin/contracts-upgradeable/proxy/utils/Initializable.sol\":6931:6951  _checkInitializing() */\n      jump\t// in\n    tag_356:\n        /* \"@openzeppelin/contracts-upgradeable/security/ReentrancyGuardUpgradeable.sol\":1959:1993  __ReentrancyGuard_init_unchained() */\n      tag_358\n        /* \"@openzeppelin/contracts-upgradeable/security/ReentrancyGuardUpgradeable.sol\":1959:1991  __ReentrancyGuard_init_unchained */\n      tag_359\n        /* \"@openzeppelin/contracts-upgradeable/security/ReentrancyGuardUpgradeable.sol\":1959:1993  __ReentrancyGuard_init_unchained() */\n      jump\t// in\n    tag_358:\n        /* \"@openzeppelin/contracts-upgradeable/security/ReentrancyGuardUpgradeable.sol\":1889:2000  function __ReentrancyGuard_init() internal onlyInitializing {... */\n      jump\t// out\n        /* \"@openzeppelin/contracts-upgradeable/access/OwnableUpgradeable.sol\":1192:1351  function _getOwnableStorage() private pure returns (OwnableStorage storage $) {... */\n    tag_232:\n        /* \"@openzeppelin/contracts-upgradeable/access/OwnableUpgradeable.sol\":1244:1268  OwnableStorage storage $ */\n      0x00\n        /* \"@openzeppelin/contracts-upgradeable/access/OwnableUpgradeable.sol\":1313:1335  OwnableStorageLocation */\n      0x9016d09d72d40fdae2fd8ceac6b6234c7706214fd39c1cd1e609a0528c199300\n        /* \"@openzeppelin/contracts-upgradeable/access/OwnableUpgradeable.sol\":1303:1335  $.slot := OwnableStorageLocation */\n      swap1\n      pop\n        /* \"@openzeppelin/contracts-upgradeable/access/OwnableUpgradeable.sol\":1192:1351  function _getOwnableStorage() private pure returns (OwnableStorage storage $) {... */\n      swap1\n      jump\t// out\n        /* \"@openzeppelin/contracts-upgradeable/utils/ContextUpgradeable.sol\":887:983  function _msgSender() internal view virtual returns (address) {... */\n    tag_291:\n        /* \"@openzeppelin/contracts-upgradeable/utils/ContextUpgradeable.sol\":940:947  address */\n      0x00\n        /* \"@openzeppelin/contracts-upgradeable/utils/ContextUpgradeable.sol\":966:976  msg.sender */\n      caller\n        /* \"@openzeppelin/contracts-upgradeable/utils/ContextUpgradeable.sol\":959:976  return msg.sender */\n      swap1\n      pop\n        /* \"@openzeppelin/contracts-upgradeable/utils/ContextUpgradeable.sol\":887:983  function _msgSender() internal view virtual returns (address) {... */\n      swap1\n      jump\t// out\n        /* \"@openzeppelin/contracts-upgradeable/token/ERC20/utils/SafeERC20Upgradeable.sol\":5328:5981  function _callOptionalReturn(IERC20Upgradeable token, bytes memory data) private {... */\n    tag_304:\n        /* \"@openzeppelin/contracts-upgradeable/token/ERC20/utils/SafeERC20Upgradeable.sol\":5758:5781  bytes memory returndata */\n      0x00\n        /* \"@openzeppelin/contracts-upgradeable/token/ERC20/utils/SafeERC20Upgradeable.sol\":5784:5853  address(token).functionCall(data, \"SafeERC20: low-level call failed\") */\n      tag_363\n        /* \"@openzeppelin/contracts-upgradeable/token/ERC20/utils/SafeERC20Upgradeable.sol\":5812:5816  data */\n      dup3\n        /* \"@openzeppelin/contracts-upgradeable/token/ERC20/utils/SafeERC20Upgradeable.sol\":5784:5853  address(token).functionCall(data, \"SafeERC20: low-level call failed\") */\n      mload(0x40)\n      dup1\n      0x40\n      add\n      0x40\n      mstore\n      dup1\n      0x20\n      dup2\n      mstore\n      0x20\n      add\n      0x5361666545524332303a206c6f772d6c6576656c2063616c6c206661696c6564\n      dup2\n      mstore\n      pop\n        /* \"@openzeppelin/contracts-upgradeable/token/ERC20/utils/SafeERC20Upgradeable.sol\":5792:5797  token */\n      dup6\n        /* \"@openzeppelin/contracts-upgradeable/token/ERC20/utils/SafeERC20Upgradeable.sol\":5784:5811  address(token).functionCall */\n      0xffffffffffffffffffffffffffffffffffffffff\n      and\n      tag_364\n      swap1\n        /* \"@openzeppelin/contracts-upgradeable/token/ERC20/utils/SafeERC20Upgradeable.sol\":5784:5853  address(token).functionCall(data, \"SafeERC20: low-level call failed\") */\n      swap3\n      swap2\n      swap1\n      0xffffffff\n      and\n      jump\t// in\n    tag_363:\n        /* \"@openzeppelin/contracts-upgradeable/token/ERC20/utils/SafeERC20Upgradeable.sol\":5758:5853  bytes memory returndata = address(token).functionCall(data, \"SafeERC20: low-level call failed\") */\n      swap1\n      pop\n        /* \"@openzeppelin/contracts-upgradeable/token/ERC20/utils/SafeERC20Upgradeable.sol\":5892:5893  0 */\n      0x00\n        /* \"@openzeppelin/contracts-upgradeable/token/ERC20/utils/SafeERC20Upgradeable.sol\":5871:5881  returndata */\n      dup2\n        /* \"@openzeppelin/contracts-upgradeable/token/ERC20/utils/SafeERC20Upgradeable.sol\":5871:5888  returndata.length */\n      mload\n        /* \"@openzeppelin/contracts-upgradeable/token/ERC20/utils/SafeERC20Upgradeable.sol\":5871:5893  returndata.length == 0 */\n      eq\n        /* \"@openzeppelin/contracts-upgradeable/token/ERC20/utils/SafeERC20Upgradeable.sol\":5871:5927  returndata.length == 0 || abi.decode(returndata, (bool)) */\n      dup1\n      tag_365\n      jumpi\n      pop\n        /* \"@openzeppelin/contracts-upgradeable/token/ERC20/utils/SafeERC20Upgradeable.sol\":5908:5918  returndata */\n      dup1\n        /* \"@openzeppelin/contracts-upgradeable/token/ERC20/utils/SafeERC20Upgradeable.sol\":5897:5927  abi.decode(returndata, (bool)) */\n      dup1\n      0x20\n      add\n      swap1\n      mload\n      dup2\n      add\n      swap1\n      tag_366\n      swap2\n      swap1\n      tag_367\n      jump\t// in\n    tag_366:\n        /* \"@openzeppelin/contracts-upgradeable/token/ERC20/utils/SafeERC20Upgradeable.sol\":5871:5927  returndata.length == 0 || abi.decode(returndata, (bool)) */\n    tag_365:\n        /* \"@openzeppelin/contracts-upgradeable/token/ERC20/utils/SafeERC20Upgradeable.sol\":5863:5974  require(returndata.length == 0 || abi.decode(returndata, (bool)), \"SafeERC20: ERC20 operation did not succeed\") */\n      tag_368\n      jumpi\n      mload(0x40)\n      0x08c379a000000000000000000000000000000000000000000000000000000000\n      dup2\n      mstore\n      0x04\n      add\n      tag_369\n      swap1\n      tag_370\n      jump\t// in\n    tag_369:\n      mload(0x40)\n      dup1\n      swap2\n      sub\n      swap1\n      revert\n    tag_368:\n        /* \"@openzeppelin/contracts-upgradeable/token/ERC20/utils/SafeERC20Upgradeable.sol\":5409:5981  {... */\n      pop\n        /* \"@openzeppelin/contracts-upgradeable/token/ERC20/utils/SafeERC20Upgradeable.sol\":5328:5981  function _callOptionalReturn(IERC20Upgradeable token, bytes memory data) private {... */\n      pop\n      pop\n      jump\t// out\n        /* \"contracts/YieldFarm.sol\":10761:10998  function _calculateRewardMultiplier(uint256 stakedDuration) internal view returns (uint256) {... */\n    tag_331:\n        /* \"contracts/YieldFarm.sol\":10844:10851  uint256 */\n      0x00\n        /* \"contracts/YieldFarm.sol\":10863:10881  uint256 multiplier */\n      dup1\n        /* \"contracts/YieldFarm.sol\":10901:10919  multiplierDuration */\n      sload(0x38)\n        /* \"contracts/YieldFarm.sol\":10884:10898  stakedDuration */\n      dup4\n        /* \"contracts/YieldFarm.sol\":10884:10919  stakedDuration / multiplierDuration */\n      tag_372\n      swap2\n      swap1\n      tag_318\n      jump\t// in\n    tag_372:\n        /* \"contracts/YieldFarm.sol\":10863:10919  uint256 multiplier = stakedDuration / multiplierDuration */\n      swap1\n      pop\n        /* \"contracts/YieldFarm.sol\":10949:10962  maxMultiplier */\n      sload(0x37)\n        /* \"contracts/YieldFarm.sol\":10936:10946  multiplier */\n      dup2\n        /* \"contracts/YieldFarm.sol\":10936:10962  multiplier > maxMultiplier */\n      gt\n        /* \"contracts/YieldFarm.sol\":10936:10991  multiplier > maxMultiplier ? maxMultiplier : multiplier */\n      tag_373\n      jumpi\n        /* \"contracts/YieldFarm.sol\":10981:10991  multiplier */\n      dup1\n        /* \"contracts/YieldFarm.sol\":10936:10991  multiplier > maxMultiplier ? maxMultiplier : multiplier */\n      jump(tag_374)\n    tag_373:\n        /* \"contracts/YieldFarm.sol\":10965:10978  maxMultiplier */\n      sload(0x37)\n        /* \"contracts/YieldFarm.sol\":10936:10991  multiplier > maxMultiplier ? maxMultiplier : multiplier */\n    tag_374:\n        /* \"contracts/YieldFarm.sol\":10929:10991  return multiplier > maxMultiplier ? maxMultiplier : multiplier */\n      swap2\n      pop\n      pop\n        /* \"contracts/YieldFarm.sol\":10761:10998  function _calculateRewardMultiplier(uint256 stakedDuration) internal view returns (uint256) {... */\n      swap2\n      swap1\n      pop\n      jump\t// out\n        /* \"@openzeppelin/contracts-upgradeable/proxy/utils/Initializable.sol\":7084:7225  function _checkInitializing() internal view virtual {... */\n    tag_351:\n        /* \"@openzeppelin/contracts-upgradeable/proxy/utils/Initializable.sol\":7151:7168  _isInitializing() */\n      tag_376\n        /* \"@openzeppelin/contracts-upgradeable/proxy/utils/Initializable.sol\":7151:7166  _isInitializing */\n      tag_377\n        /* \"@openzeppelin/contracts-upgradeable/proxy/utils/Initializable.sol\":7151:7168  _isInitializing() */\n      jump\t// in\n    tag_376:\n        /* \"@openzeppelin/contracts-upgradeable/proxy/utils/Initializable.sol\":7146:7219  if (!_isInitializing()) {... */\n      tag_378\n      jumpi\n        /* \"@openzeppelin/contracts-upgradeable/proxy/utils/Initializable.sol\":7191:7208  NotInitializing() */\n      mload(0x40)\n      0xd7e6bcf800000000000000000000000000000000000000000000000000000000\n      dup2\n      mstore\n      0x04\n      add\n      mload(0x40)\n      dup1\n      swap2\n      sub\n      swap1\n      revert\n        /* \"@openzeppelin/contracts-upgradeable/proxy/utils/Initializable.sol\":7146:7219  if (!_isInitializing()) {... */\n    tag_378:\n        /* \"@openzeppelin/contracts-upgradeable/proxy/utils/Initializable.sol\":7084:7225  function _checkInitializing() internal view virtual {... */\n      jump\t// out\n        /* \"@openzeppelin/contracts-upgradeable/access/OwnableUpgradeable.sol\":1980:2215  function __Ownable_init_unchained(address initialOwner) internal onlyInitializing {... */\n    tag_354:\n        /* \"@openzeppelin/contracts-upgradeable/proxy/utils/Initializable.sol\":6931:6951  _checkInitializing() */\n      tag_380\n        /* \"@openzeppelin/contracts-upgradeable/proxy/utils/Initializable.sol\":6931:6949  _checkInitializing */\n      tag_351\n        /* \"@openzeppelin/contracts-upgradeable/proxy/utils/Initializable.sol\":6931:6951  _checkInitializing() */\n      jump\t// in\n    tag_380:\n        /* \"@openzeppelin/contracts-upgradeable/access/OwnableUpgradeable.sol\":2100:2101  0 */\n      0x00\n        /* \"@openzeppelin/contracts-upgradeable/access/OwnableUpgradeable.sol\":2076:2102  initialOwner == address(0) */\n      0xffffffffffffffffffffffffffffffffffffffff\n      and\n        /* \"@openzeppelin/contracts-upgradeable/access/OwnableUpgradeable.sol\":2076:2088  initialOwner */\n      dup2\n        /* \"@openzeppelin/contracts-upgradeable/access/OwnableUpgradeable.sol\":2076:2102  initialOwner == address(0) */\n      0xffffffffffffffffffffffffffffffffffffffff\n      and\n      sub\n        /* \"@openzeppelin/contracts-upgradeable/access/OwnableUpgradeable.sol\":2072:2167  if (initialOwner == address(0)) {... */\n      tag_382\n      jumpi\n        /* \"@openzeppelin/contracts-upgradeable/access/OwnableUpgradeable.sol\":2153:2154  0 */\n      0x00\n        /* \"@openzeppelin/contracts-upgradeable/access/OwnableUpgradeable.sol\":2125:2156  OwnableInvalidOwner(address(0)) */\n      mload(0x40)\n      0x1e4fbdf700000000000000000000000000000000000000000000000000000000\n      dup2\n      mstore\n      0x04\n      add\n      tag_383\n      swap2\n      swap1\n      tag_75\n      jump\t// in\n    tag_383:\n      mload(0x40)\n      dup1\n      swap2\n      sub\n      swap1\n      revert\n        /* \"@openzeppelin/contracts-upgradeable/access/OwnableUpgradeable.sol\":2072:2167  if (initialOwner == address(0)) {... */\n    tag_382:\n        /* \"@openzeppelin/contracts-upgradeable/access/OwnableUpgradeable.sol\":2176:2208  _transferOwnership(initialOwner) */\n      tag_384\n        /* \"@openzeppelin/contracts-upgradeable/access/OwnableUpgradeable.sol\":2195:2207  initialOwner */\n      dup2\n        /* \"@openzeppelin/contracts-upgradeable/access/OwnableUpgradeable.sol\":2176:2194  _transferOwnership */\n      tag_184\n        /* \"@openzeppelin/contracts-upgradeable/access/OwnableUpgradeable.sol\":2176:2208  _transferOwnership(initialOwner) */\n      jump\t// in\n    tag_384:\n        /* \"@openzeppelin/contracts-upgradeable/access/OwnableUpgradeable.sol\":1980:2215  function __Ownable_init_unchained(address initialOwner) internal onlyInitializing {... */\n      pop\n      jump\t// out\n        /* \"@openzeppelin/contracts-upgradeable/security/ReentrancyGuardUpgradeable.sol\":2006:2115  function __ReentrancyGuard_init_unchained() internal onlyInitializing {... */\n    tag_359:\n        /* \"@openzeppelin/contracts-upgradeable/proxy/utils/Initializable.sol\":6931:6951  _checkInitializing() */\n      tag_386\n        /* \"@openzeppelin/contracts-upgradeable/proxy/utils/Initializable.sol\":6931:6949  _checkInitializing */\n      tag_351\n        /* \"@openzeppelin/contracts-upgradeable/proxy/utils/Initializable.sol\":6931:6951  _checkInitializing() */\n      jump\t// in\n    tag_386:\n        /* \"@openzeppelin/contracts-upgradeable/security/ReentrancyGuardUpgradeable.sol\":1808:1809  1 */\n      0x01\n        /* \"@openzeppelin/contracts-upgradeable/security/ReentrancyGuardUpgradeable.sol\":2086:2093  _status */\n      0x00\n        /* \"@openzeppelin/contracts-upgradeable/security/ReentrancyGuardUpgradeable.sol\":2086:2108  _status = _NOT_ENTERED */\n      dup2\n      swap1\n      sstore\n      pop\n        /* \"@openzeppelin/contracts-upgradeable/security/ReentrancyGuardUpgradeable.sol\":2006:2115  function __ReentrancyGuard_init_unchained() internal onlyInitializing {... */\n      jump\t// out\n        /* \"@openzeppelin/contracts-upgradeable/utils/AddressUpgradeable.sol\":4119:4342  function functionCall(... */\n    tag_364:\n        /* \"@openzeppelin/contracts-upgradeable/utils/AddressUpgradeable.sol\":4252:4264  bytes memory */\n      0x60\n        /* \"@openzeppelin/contracts-upgradeable/utils/AddressUpgradeable.sol\":4283:4335  functionCallWithValue(target, data, 0, errorMessage) */\n      tag_389\n        /* \"@openzeppelin/contracts-upgradeable/utils/AddressUpgradeable.sol\":4305:4311  target */\n      dup5\n        /* \"@openzeppelin/contracts-upgradeable/utils/AddressUpgradeable.sol\":4313:4317  data */\n      dup5\n        /* \"@openzeppelin/contracts-upgradeable/utils/AddressUpgradeable.sol\":4319:4320  0 */\n      0x00\n        /* \"@openzeppelin/contracts-upgradeable/utils/AddressUpgradeable.sol\":4322:4334  errorMessage */\n      dup6\n        /* \"@openzeppelin/contracts-upgradeable/utils/AddressUpgradeable.sol\":4283:4304  functionCallWithValue */\n      tag_390\n        /* \"@openzeppelin/contracts-upgradeable/utils/AddressUpgradeable.sol\":4283:4335  functionCallWithValue(target, data, 0, errorMessage) */\n      jump\t// in\n    tag_389:\n        /* \"@openzeppelin/contracts-upgradeable/utils/AddressUpgradeable.sol\":4276:4335  return functionCallWithValue(target, data, 0, errorMessage) */\n      swap1\n      pop\n        /* \"@openzeppelin/contracts-upgradeable/utils/AddressUpgradeable.sol\":4119:4342  function functionCall(... */\n      swap4\n      swap3\n      pop\n      pop\n      pop\n      jump\t// out\n        /* \"@openzeppelin/contracts-upgradeable/proxy/utils/Initializable.sol\":8487:8607  function _isInitializing() internal view returns (bool) {... */\n    tag_377:\n        /* \"@openzeppelin/contracts-upgradeable/proxy/utils/Initializable.sol\":8537:8541  bool */\n      0x00\n        /* \"@openzeppelin/contracts-upgradeable/proxy/utils/Initializable.sol\":8560:8586  _getInitializableStorage() */\n      tag_392\n        /* \"@openzeppelin/contracts-upgradeable/proxy/utils/Initializable.sol\":8560:8584  _getInitializableStorage */\n      tag_216\n        /* \"@openzeppelin/contracts-upgradeable/proxy/utils/Initializable.sol\":8560:8586  _getInitializableStorage() */\n      jump\t// in\n    tag_392:\n        /* \"@openzeppelin/contracts-upgradeable/proxy/utils/Initializable.sol\":8560:8600  _getInitializableStorage()._initializing */\n      0x00\n      add\n      0x08\n      swap1\n      sload\n      swap1\n      0x0100\n      exp\n      swap1\n      div\n      0xff\n      and\n        /* \"@openzeppelin/contracts-upgradeable/proxy/utils/Initializable.sol\":8553:8600  return _getInitializableStorage()._initializing */\n      swap1\n      pop\n        /* \"@openzeppelin/contracts-upgradeable/proxy/utils/Initializable.sol\":8487:8607  function _isInitializing() internal view returns (bool) {... */\n      swap1\n      jump\t// out\n        /* \"@openzeppelin/contracts-upgradeable/utils/AddressUpgradeable.sol\":5176:5622  function functionCallWithValue(... */\n    tag_390:\n        /* \"@openzeppelin/contracts-upgradeable/utils/AddressUpgradeable.sol\":5341:5353  bytes memory */\n      0x60\n        /* \"@openzeppelin/contracts-upgradeable/utils/AddressUpgradeable.sol\":5398:5403  value */\n      dup3\n        /* \"@openzeppelin/contracts-upgradeable/utils/AddressUpgradeable.sol\":5373:5394  address(this).balance */\n      selfbalance\n        /* \"@openzeppelin/contracts-upgradeable/utils/AddressUpgradeable.sol\":5373:5403  address(this).balance >= value */\n      lt\n      iszero\n        /* \"@openzeppelin/contracts-upgradeable/utils/AddressUpgradeable.sol\":5365:5446  require(address(this).balance >= value, \"Address: insufficient balance for call\") */\n      tag_394\n      jumpi\n      mload(0x40)\n      0x08c379a000000000000000000000000000000000000000000000000000000000\n      dup2\n      mstore\n      0x04\n      add\n      tag_395\n      swap1\n      tag_396\n      jump\t// in\n    tag_395:\n      mload(0x40)\n      dup1\n      swap2\n      sub\n      swap1\n      revert\n    tag_394:\n        /* \"@openzeppelin/contracts-upgradeable/utils/AddressUpgradeable.sol\":5457:5469  bool success */\n      0x00\n        /* \"@openzeppelin/contracts-upgradeable/utils/AddressUpgradeable.sol\":5471:5494  bytes memory returndata */\n      dup1\n        /* \"@openzeppelin/contracts-upgradeable/utils/AddressUpgradeable.sol\":5498:5504  target */\n      dup7\n        /* \"@openzeppelin/contracts-upgradeable/utils/AddressUpgradeable.sol\":5498:5509  target.call */\n      0xffffffffffffffffffffffffffffffffffffffff\n      and\n        /* \"@openzeppelin/contracts-upgradeable/utils/AddressUpgradeable.sol\":5517:5522  value */\n      dup6\n        /* \"@openzeppelin/contracts-upgradeable/utils/AddressUpgradeable.sol\":5524:5528  data */\n      dup8\n        /* \"@openzeppelin/contracts-upgradeable/utils/AddressUpgradeable.sol\":5498:5529  target.call{value: value}(data) */\n      mload(0x40)\n      tag_397\n      swap2\n      swap1\n      tag_398\n      jump\t// in\n    tag_397:\n      0x00\n      mload(0x40)\n      dup1\n      dup4\n      sub\n      dup2\n      dup6\n      dup8\n      gas\n      call\n      swap3\n      pop\n      pop\n      pop\n      returndatasize\n      dup1\n      0x00\n      dup2\n      eq\n      tag_401\n      jumpi\n      mload(0x40)\n      swap2\n      pop\n      and(add(returndatasize, 0x3f), not(0x1f))\n      dup3\n      add\n      0x40\n      mstore\n      returndatasize\n      dup3\n      mstore\n      returndatasize\n      0x00\n      0x20\n      dup5\n      add\n      returndatacopy\n      jump(tag_400)\n    tag_401:\n      0x60\n      swap2\n      pop\n    tag_400:\n      pop\n        /* \"@openzeppelin/contracts-upgradeable/utils/AddressUpgradeable.sol\":5456:5529  (bool success, bytes memory returndata) = target.call{value: value}(data) */\n      swap2\n      pop\n      swap2\n      pop\n        /* \"@openzeppelin/contracts-upgradeable/utils/AddressUpgradeable.sol\":5546:5615  verifyCallResultFromTarget(target, success, returndata, errorMessage) */\n      tag_402\n        /* \"@openzeppelin/contracts-upgradeable/utils/AddressUpgradeable.sol\":5573:5579  target */\n      dup8\n        /* \"@openzeppelin/contracts-upgradeable/utils/AddressUpgradeable.sol\":5581:5588  success */\n      dup4\n        /* \"@openzeppelin/contracts-upgradeable/utils/AddressUpgradeable.sol\":5590:5600  returndata */\n      dup4\n        /* \"@openzeppelin/contracts-upgradeable/utils/AddressUpgradeable.sol\":5602:5614  errorMessage */\n      dup8\n        /* \"@openzeppelin/contracts-upgradeable/utils/AddressUpgradeable.sol\":5546:5572  verifyCallResultFromTarget */\n      tag_403\n        /* \"@openzeppelin/contracts-upgradeable/utils/AddressUpgradeable.sol\":5546:5615  verifyCallResultFromTarget(target, success, returndata, errorMessage) */\n      jump\t// in\n    tag_402:\n        /* \"@openzeppelin/contracts-upgradeable/utils/AddressUpgradeable.sol\":5539:5615  return verifyCallResultFromTarget(target, success, returndata, errorMessage) */\n      swap3\n      pop\n      pop\n      pop\n        /* \"@openzeppelin/contracts-upgradeable/utils/AddressUpgradeable.sol\":5176:5622  function functionCallWithValue(... */\n      swap5\n      swap4\n      pop\n      pop\n      pop\n      pop\n      jump\t// out\n        /* \"@openzeppelin/contracts-upgradeable/utils/AddressUpgradeable.sol\":7682:8310  function verifyCallResultFromTarget(... */\n    tag_403:\n        /* \"@openzeppelin/contracts-upgradeable/utils/AddressUpgradeable.sol\":7862:7874  bytes memory */\n      0x60\n        /* \"@openzeppelin/contracts-upgradeable/utils/AddressUpgradeable.sol\":7890:7897  success */\n      dup4\n        /* \"@openzeppelin/contracts-upgradeable/utils/AddressUpgradeable.sol\":7886:8304  if (success) {... */\n      iszero\n      tag_405\n      jumpi\n        /* \"@openzeppelin/contracts-upgradeable/utils/AddressUpgradeable.sol\":7938:7939  0 */\n      0x00\n        /* \"@openzeppelin/contracts-upgradeable/utils/AddressUpgradeable.sol\":7917:7927  returndata */\n      dup4\n        /* \"@openzeppelin/contracts-upgradeable/utils/AddressUpgradeable.sol\":7917:7934  returndata.length */\n      mload\n        /* \"@openzeppelin/contracts-upgradeable/utils/AddressUpgradeable.sol\":7917:7939  returndata.length == 0 */\n      sub\n        /* \"@openzeppelin/contracts-upgradeable/utils/AddressUpgradeable.sol\":7913:8199  if (returndata.length == 0) {... */\n      tag_406\n      jumpi\n        /* \"@openzeppelin/contracts-upgradeable/utils/AddressUpgradeable.sol\":8132:8150  isContract(target) */\n      tag_407\n        /* \"@openzeppelin/contracts-upgradeable/utils/AddressUpgradeable.sol\":8143:8149  target */\n      dup6\n        /* \"@openzeppelin/contracts-upgradeable/utils/AddressUpgradeable.sol\":8132:8142  isContract */\n      tag_408\n        /* \"@openzeppelin/contracts-upgradeable/utils/AddressUpgradeable.sol\":8132:8150  isContract(target) */\n      jump\t// in\n    tag_407:\n        /* \"@openzeppelin/contracts-upgradeable/utils/AddressUpgradeable.sol\":8124:8184  require(isContract(target), \"Address: call to non-contract\") */\n      tag_409\n      jumpi\n      mload(0x40)\n      0x08c379a000000000000000000000000000000000000000000000000000000000\n      dup2\n      mstore\n      0x04\n      add\n      tag_410\n      swap1\n      tag_411\n      jump\t// in\n    tag_410:\n      mload(0x40)\n      dup1\n      swap2\n      sub\n      swap1\n      revert\n    tag_409:\n        /* \"@openzeppelin/contracts-upgradeable/utils/AddressUpgradeable.sol\":7913:8199  if (returndata.length == 0) {... */\n    tag_406:\n        /* \"@openzeppelin/contracts-upgradeable/utils/AddressUpgradeable.sol\":8219:8229  returndata */\n      dup3\n        /* \"@openzeppelin/contracts-upgradeable/utils/AddressUpgradeable.sol\":8212:8229  return returndata */\n      swap1\n      pop\n      jump(tag_404)\n        /* \"@openzeppelin/contracts-upgradeable/utils/AddressUpgradeable.sol\":7886:8304  if (success) {... */\n    tag_405:\n        /* \"@openzeppelin/contracts-upgradeable/utils/AddressUpgradeable.sol\":8260:8293  _revert(returndata, errorMessage) */\n      tag_413\n        /* \"@openzeppelin/contracts-upgradeable/utils/AddressUpgradeable.sol\":8268:8278  returndata */\n      dup4\n        /* \"@openzeppelin/contracts-upgradeable/utils/AddressUpgradeable.sol\":8280:8292  errorMessage */\n      dup4\n        /* \"@openzeppelin/contracts-upgradeable/utils/AddressUpgradeable.sol\":8260:8267  _revert */\n      tag_414\n        /* \"@openzeppelin/contracts-upgradeable/utils/AddressUpgradeable.sol\":8260:8293  _revert(returndata, errorMessage) */\n      jump\t// in\n    tag_413:\n        /* \"@openzeppelin/contracts-upgradeable/utils/AddressUpgradeable.sol\":7682:8310  function verifyCallResultFromTarget(... */\n    tag_404:\n      swap5\n      swap4\n      pop\n      pop\n      pop\n      pop\n      jump\t// out\n        /* \"@openzeppelin/contracts-upgradeable/utils/AddressUpgradeable.sol\":1423:1743  function isContract(address account) internal view returns (bool) {... */\n    tag_408:\n        /* \"@openzeppelin/contracts-upgradeable/utils/AddressUpgradeable.sol\":1483:1487  bool */\n      0x00\n        /* \"@openzeppelin/contracts-upgradeable/utils/AddressUpgradeable.sol\":1735:1736  0 */\n      dup1\n        /* \"@openzeppelin/contracts-upgradeable/utils/AddressUpgradeable.sol\":1713:1720  account */\n      dup3\n        /* \"@openzeppelin/contracts-upgradeable/utils/AddressUpgradeable.sol\":1713:1732  account.code.length */\n      0xffffffffffffffffffffffffffffffffffffffff\n      and\n      extcodesize\n        /* \"@openzeppelin/contracts-upgradeable/utils/AddressUpgradeable.sol\":1713:1736  account.code.length > 0 */\n      gt\n        /* \"@openzeppelin/contracts-upgradeable/utils/AddressUpgradeable.sol\":1706:1736  return account.code.length > 0 */\n      swap1\n      pop\n        /* \"@openzeppelin/contracts-upgradeable/utils/AddressUpgradeable.sol\":1423:1743  function isContract(address account) internal view returns (bool) {... */\n      swap2\n      swap1\n      pop\n      jump\t// out\n        /* \"@openzeppelin/contracts-upgradeable/utils/AddressUpgradeable.sol\":8832:9372  function _revert(bytes memory returndata, string memory errorMessage) private pure {... */\n    tag_414:\n        /* \"@openzeppelin/contracts-upgradeable/utils/AddressUpgradeable.sol\":9011:9012  0 */\n      0x00\n        /* \"@openzeppelin/contracts-upgradeable/utils/AddressUpgradeable.sol\":8991:9001  returndata */\n      dup3\n        /* \"@openzeppelin/contracts-upgradeable/utils/AddressUpgradeable.sol\":8991:9008  returndata.length */\n      mload\n        /* \"@openzeppelin/contracts-upgradeable/utils/AddressUpgradeable.sol\":8991:9012  returndata.length > 0 */\n      gt\n        /* \"@openzeppelin/contracts-upgradeable/utils/AddressUpgradeable.sol\":8987:9366  if (returndata.length > 0) {... */\n      iszero\n      tag_417\n      jumpi\n        /* \"@openzeppelin/contracts-upgradeable/utils/AddressUpgradeable.sol\":9219:9229  returndata */\n      dup2\n        /* \"@openzeppelin/contracts-upgradeable/utils/AddressUpgradeable.sol\":9213:9230  mload(returndata) */\n      mload\n        /* \"@openzeppelin/contracts-upgradeable/utils/AddressUpgradeable.sol\":9275:9290  returndata_size */\n      dup1\n        /* \"@openzeppelin/contracts-upgradeable/utils/AddressUpgradeable.sol\":9262:9272  returndata */\n      dup4\n        /* \"@openzeppelin/contracts-upgradeable/utils/AddressUpgradeable.sol\":9258:9260  32 */\n      0x20\n        /* \"@openzeppelin/contracts-upgradeable/utils/AddressUpgradeable.sol\":9254:9273  add(32, returndata) */\n      add\n        /* \"@openzeppelin/contracts-upgradeable/utils/AddressUpgradeable.sol\":9247:9291  revert(add(32, returndata), returndata_size) */\n      revert\n        /* \"@openzeppelin/contracts-upgradeable/utils/AddressUpgradeable.sol\":8987:9366  if (returndata.length > 0) {... */\n    tag_417:\n        /* \"@openzeppelin/contracts-upgradeable/utils/AddressUpgradeable.sol\":9342:9354  errorMessage */\n      dup1\n        /* \"@openzeppelin/contracts-upgradeable/utils/AddressUpgradeable.sol\":9335:9355  revert(errorMessage) */\n      mload(0x40)\n      0x08c379a000000000000000000000000000000000000000000000000000000000\n      dup2\n      mstore\n      0x04\n      add\n      tag_419\n      swap2\n      swap1\n      tag_420\n      jump\t// in\n    tag_419:\n      mload(0x40)\n      dup1\n      swap2\n      sub\n      swap1\n      revert\n        /* \"#utility.yul\":7:84   */\n    tag_421:\n        /* \"#utility.yul\":44:51   */\n      0x00\n        /* \"#utility.yul\":73:78   */\n      dup2\n        /* \"#utility.yul\":62:78   */\n      swap1\n      pop\n        /* \"#utility.yul\":7:84   */\n      swap2\n      swap1\n      pop\n      jump\t// out\n        /* \"#utility.yul\":90:208   */\n    tag_422:\n        /* \"#utility.yul\":177:201   */\n      tag_490\n        /* \"#utility.yul\":195:200   */\n      dup2\n        /* \"#utility.yul\":177:201   */\n      tag_421\n      jump\t// in\n    tag_490:\n        /* \"#utility.yul\":172:175   */\n      dup3\n        /* \"#utility.yul\":165:202   */\n      mstore\n        /* \"#utility.yul\":90:208   */\n      pop\n      pop\n      jump\t// out\n        /* \"#utility.yul\":214:436   */\n    tag_42:\n        /* \"#utility.yul\":307:311   */\n      0x00\n        /* \"#utility.yul\":345:347   */\n      0x20\n        /* \"#utility.yul\":334:343   */\n      dup3\n        /* \"#utility.yul\":330:348   */\n      add\n        /* \"#utility.yul\":322:348   */\n      swap1\n      pop\n        /* \"#utility.yul\":358:429   */\n      tag_492\n        /* \"#utility.yul\":426:427   */\n      0x00\n        /* \"#utility.yul\":415:424   */\n      dup4\n        /* \"#utility.yul\":411:428   */\n      add\n        /* \"#utility.yul\":402:408   */\n      dup5\n        /* \"#utility.yul\":358:429   */\n      tag_422\n      jump\t// in\n    tag_492:\n        /* \"#utility.yul\":214:436   */\n      swap3\n      swap2\n      pop\n      pop\n      jump\t// out\n        /* \"#utility.yul\":523:640   */\n    tag_424:\n        /* \"#utility.yul\":632:633   */\n      0x00\n        /* \"#utility.yul\":629:630   */\n      dup1\n        /* \"#utility.yul\":622:634   */\n      revert\n        /* \"#utility.yul\":769:891   */\n    tag_426:\n        /* \"#utility.yul\":842:866   */\n      tag_497\n        /* \"#utility.yul\":860:865   */\n      dup2\n        /* \"#utility.yul\":842:866   */\n      tag_421\n      jump\t// in\n    tag_497:\n        /* \"#utility.yul\":835:840   */\n      dup2\n        /* \"#utility.yul\":832:867   */\n      eq\n        /* \"#utility.yul\":822:885   */\n      tag_498\n      jumpi\n        /* \"#utility.yul\":881:882   */\n      0x00\n        /* \"#utility.yul\":878:879   */\n      dup1\n        /* \"#utility.yul\":871:883   */\n      revert\n        /* \"#utility.yul\":822:885   */\n    tag_498:\n        /* \"#utility.yul\":769:891   */\n      pop\n      jump\t// out\n        /* \"#utility.yul\":897:1036   */\n    tag_427:\n        /* \"#utility.yul\":943:948   */\n      0x00\n        /* \"#utility.yul\":981:987   */\n      dup2\n        /* \"#utility.yul\":968:988   */\n      calldataload\n        /* \"#utility.yul\":959:988   */\n      swap1\n      pop\n        /* \"#utility.yul\":997:1030   */\n      tag_500\n        /* \"#utility.yul\":1024:1029   */\n      dup2\n        /* \"#utility.yul\":997:1030   */\n      tag_426\n      jump\t// in\n    tag_500:\n        /* \"#utility.yul\":897:1036   */\n      swap3\n      swap2\n      pop\n      pop\n      jump\t// out\n        /* \"#utility.yul\":1042:1516   */\n    tag_48:\n        /* \"#utility.yul\":1110:1116   */\n      0x00\n        /* \"#utility.yul\":1118:1124   */\n      dup1\n        /* \"#utility.yul\":1167:1169   */\n      0x40\n        /* \"#utility.yul\":1155:1164   */\n      dup4\n        /* \"#utility.yul\":1146:1153   */\n      dup6\n        /* \"#utility.yul\":1142:1165   */\n      sub\n        /* \"#utility.yul\":1138:1170   */\n      slt\n        /* \"#utility.yul\":1135:1254   */\n      iszero\n      tag_502\n      jumpi\n        /* \"#utility.yul\":1173:1252   */\n      tag_503\n      tag_424\n      jump\t// in\n    tag_503:\n        /* \"#utility.yul\":1135:1254   */\n    tag_502:\n        /* \"#utility.yul\":1293:1294   */\n      0x00\n        /* \"#utility.yul\":1318:1371   */\n      tag_504\n        /* \"#utility.yul\":1363:1370   */\n      dup6\n        /* \"#utility.yul\":1354:1360   */\n      dup3\n        /* \"#utility.yul\":1343:1352   */\n      dup7\n        /* \"#utility.yul\":1339:1361   */\n      add\n        /* \"#utility.yul\":1318:1371   */\n      tag_427\n      jump\t// in\n    tag_504:\n        /* \"#utility.yul\":1308:1371   */\n      swap3\n      pop\n        /* \"#utility.yul\":1264:1381   */\n      pop\n        /* \"#utility.yul\":1420:1422   */\n      0x20\n        /* \"#utility.yul\":1446:1499   */\n      tag_505\n        /* \"#utility.yul\":1491:1498   */\n      dup6\n        /* \"#utility.yul\":1482:1488   */\n      dup3\n        /* \"#utility.yul\":1471:1480   */\n      dup7\n        /* \"#utility.yul\":1467:1489   */\n      add\n        /* \"#utility.yul\":1446:1499   */\n      tag_427\n      jump\t// in\n    tag_505:\n        /* \"#utility.yul\":1436:1499   */\n      swap2\n      pop\n        /* \"#utility.yul\":1391:1509   */\n      pop\n        /* \"#utility.yul\":1042:1516   */\n      swap3\n      pop\n      swap3\n      swap1\n      pop\n      jump\t// out\n        /* \"#utility.yul\":1522:1851   */\n    tag_52:\n        /* \"#utility.yul\":1581:1587   */\n      0x00\n        /* \"#utility.yul\":1630:1632   */\n      0x20\n        /* \"#utility.yul\":1618:1627   */\n      dup3\n        /* \"#utility.yul\":1609:1616   */\n      dup5\n        /* \"#utility.yul\":1605:1628   */\n      sub\n        /* \"#utility.yul\":1601:1633   */\n      slt\n        /* \"#utility.yul\":1598:1717   */\n      iszero\n      tag_507\n      jumpi\n        /* \"#utility.yul\":1636:1715   */\n      tag_508\n      tag_424\n      jump\t// in\n    tag_508:\n        /* \"#utility.yul\":1598:1717   */\n    tag_507:\n        /* \"#utility.yul\":1756:1757   */\n      0x00\n        /* \"#utility.yul\":1781:1834   */\n      tag_509\n        /* \"#utility.yul\":1826:1833   */\n      dup5\n        /* \"#utility.yul\":1817:1823   */\n      dup3\n        /* \"#utility.yul\":1806:1815   */\n      dup6\n        /* \"#utility.yul\":1802:1824   */\n      add\n        /* \"#utility.yul\":1781:1834   */\n      tag_427\n      jump\t// in\n    tag_509:\n        /* \"#utility.yul\":1771:1834   */\n      swap2\n      pop\n        /* \"#utility.yul\":1727:1844   */\n      pop\n        /* \"#utility.yul\":1522:1851   */\n      swap3\n      swap2\n      pop\n      pop\n      jump\t// out\n        /* \"#utility.yul\":1857:1983   */\n    tag_428:\n        /* \"#utility.yul\":1894:1901   */\n      0x00\n        /* \"#utility.yul\":1934:1976   */\n      0xffffffffffffffffffffffffffffffffffffffff\n        /* \"#utility.yul\":1927:1932   */\n      dup3\n        /* \"#utility.yul\":1923:1977   */\n      and\n        /* \"#utility.yul\":1912:1977   */\n      swap1\n      pop\n        /* \"#utility.yul\":1857:1983   */\n      swap2\n      swap1\n      pop\n      jump\t// out\n        /* \"#utility.yul\":1989:2049   */\n    tag_429:\n        /* \"#utility.yul\":2017:2020   */\n      0x00\n        /* \"#utility.yul\":2038:2043   */\n      dup2\n        /* \"#utility.yul\":2031:2043   */\n      swap1\n      pop\n        /* \"#utility.yul\":1989:2049   */\n      swap2\n      swap1\n      pop\n      jump\t// out\n        /* \"#utility.yul\":2055:2197   */\n    tag_430:\n        /* \"#utility.yul\":2105:2114   */\n      0x00\n        /* \"#utility.yul\":2138:2191   */\n      tag_513\n        /* \"#utility.yul\":2156:2190   */\n      tag_514\n        /* \"#utility.yul\":2165:2189   */\n      tag_515\n        /* \"#utility.yul\":2183:2188   */\n      dup5\n        /* \"#utility.yul\":2165:2189   */\n      tag_428\n      jump\t// in\n    tag_515:\n        /* \"#utility.yul\":2156:2190   */\n      tag_429\n      jump\t// in\n    tag_514:\n        /* \"#utility.yul\":2138:2191   */\n      tag_428\n      jump\t// in\n    tag_513:\n        /* \"#utility.yul\":2125:2191   */\n      swap1\n      pop\n        /* \"#utility.yul\":2055:2197   */\n      swap2\n      swap1\n      pop\n      jump\t// out\n        /* \"#utility.yul\":2203:2329   */\n    tag_431:\n        /* \"#utility.yul\":2253:2262   */\n      0x00\n        /* \"#utility.yul\":2286:2323   */\n      tag_517\n        /* \"#utility.yul\":2317:2322   */\n      dup3\n        /* \"#utility.yul\":2286:2323   */\n      tag_430\n      jump\t// in\n    tag_517:\n        /* \"#utility.yul\":2273:2323   */\n      swap1\n      pop\n        /* \"#utility.yul\":2203:2329   */\n      swap2\n      swap1\n      pop\n      jump\t// out\n        /* \"#utility.yul\":2335:2486   */\n    tag_432:\n        /* \"#utility.yul\":2410:2419   */\n      0x00\n        /* \"#utility.yul\":2443:2480   */\n      tag_519\n        /* \"#utility.yul\":2474:2479   */\n      dup3\n        /* \"#utility.yul\":2443:2480   */\n      tag_431\n      jump\t// in\n    tag_519:\n        /* \"#utility.yul\":2430:2480   */\n      swap1\n      pop\n        /* \"#utility.yul\":2335:2486   */\n      swap2\n      swap1\n      pop\n      jump\t// out\n        /* \"#utility.yul\":2492:2673   */\n    tag_433:\n        /* \"#utility.yul\":2604:2666   */\n      tag_521\n        /* \"#utility.yul\":2660:2665   */\n      dup2\n        /* \"#utility.yul\":2604:2666   */\n      tag_432\n      jump\t// in\n    tag_521:\n        /* \"#utility.yul\":2599:2602   */\n      dup3\n        /* \"#utility.yul\":2592:2667   */\n      mstore\n        /* \"#utility.yul\":2492:2673   */\n      pop\n      pop\n      jump\t// out\n        /* \"#utility.yul\":2679:3665   */\n    tag_55:\n        /* \"#utility.yul\":2990:2994   */\n      0x00\n        /* \"#utility.yul\":3028:3031   */\n      0xe0\n        /* \"#utility.yul\":3017:3026   */\n      dup3\n        /* \"#utility.yul\":3013:3032   */\n      add\n        /* \"#utility.yul\":3005:3032   */\n      swap1\n      pop\n        /* \"#utility.yul\":3042:3138   */\n      tag_523\n        /* \"#utility.yul\":3135:3136   */\n      0x00\n        /* \"#utility.yul\":3124:3133   */\n      dup4\n        /* \"#utility.yul\":3120:3137   */\n      add\n        /* \"#utility.yul\":3111:3117   */\n      dup11\n        /* \"#utility.yul\":3042:3138   */\n      tag_433\n      jump\t// in\n    tag_523:\n        /* \"#utility.yul\":3148:3245   */\n      tag_524\n        /* \"#utility.yul\":3241:3243   */\n      0x20\n        /* \"#utility.yul\":3230:3239   */\n      dup4\n        /* \"#utility.yul\":3226:3244   */\n      add\n        /* \"#utility.yul\":3217:3223   */\n      dup10\n        /* \"#utility.yul\":3148:3245   */\n      tag_433\n      jump\t// in\n    tag_524:\n        /* \"#utility.yul\":3255:3327   */\n      tag_525\n        /* \"#utility.yul\":3323:3325   */\n      0x40\n        /* \"#utility.yul\":3312:3321   */\n      dup4\n        /* \"#utility.yul\":3308:3326   */\n      add\n        /* \"#utility.yul\":3299:3305   */\n      dup9\n        /* \"#utility.yul\":3255:3327   */\n      tag_422\n      jump\t// in\n    tag_525:\n        /* \"#utility.yul\":3337:3409   */\n      tag_526\n        /* \"#utility.yul\":3405:3407   */\n      0x60\n        /* \"#utility.yul\":3394:3403   */\n      dup4\n        /* \"#utility.yul\":3390:3408   */\n      add\n        /* \"#utility.yul\":3381:3387   */\n      dup8\n        /* \"#utility.yul\":3337:3409   */\n      tag_422\n      jump\t// in\n    tag_526:\n        /* \"#utility.yul\":3419:3492   */\n      tag_527\n        /* \"#utility.yul\":3487:3490   */\n      0x80\n        /* \"#utility.yul\":3476:3485   */\n      dup4\n        /* \"#utility.yul\":3472:3491   */\n      add\n        /* \"#utility.yul\":3463:3469   */\n      dup7\n        /* \"#utility.yul\":3419:3492   */\n      tag_422\n      jump\t// in\n    tag_527:\n        /* \"#utility.yul\":3502:3575   */\n      tag_528\n        /* \"#utility.yul\":3570:3573   */\n      0xa0\n        /* \"#utility.yul\":3559:3568   */\n      dup4\n        /* \"#utility.yul\":3555:3574   */\n      add\n        /* \"#utility.yul\":3546:3552   */\n      dup6\n        /* \"#utility.yul\":3502:3575   */\n      tag_422\n      jump\t// in\n    tag_528:\n        /* \"#utility.yul\":3585:3658   */\n      tag_529\n        /* \"#utility.yul\":3653:3656   */\n      0xc0\n        /* \"#utility.yul\":3642:3651   */\n      dup4\n        /* \"#utility.yul\":3638:3657   */\n      add\n        /* \"#utility.yul\":3629:3635   */\n      dup5\n        /* \"#utility.yul\":3585:3658   */\n      tag_422\n      jump\t// in\n    tag_529:\n        /* \"#utility.yul\":2679:3665   */\n      swap9\n      swap8\n      pop\n      pop\n      pop\n      pop\n      pop\n      pop\n      pop\n      pop\n      jump\t// out\n        /* \"#utility.yul\":3671:3767   */\n    tag_434:\n        /* \"#utility.yul\":3708:3715   */\n      0x00\n        /* \"#utility.yul\":3737:3761   */\n      tag_531\n        /* \"#utility.yul\":3755:3760   */\n      dup3\n        /* \"#utility.yul\":3737:3761   */\n      tag_428\n      jump\t// in\n    tag_531:\n        /* \"#utility.yul\":3726:3761   */\n      swap1\n      pop\n        /* \"#utility.yul\":3671:3767   */\n      swap2\n      swap1\n      pop\n      jump\t// out\n        /* \"#utility.yul\":3773:3895   */\n    tag_435:\n        /* \"#utility.yul\":3846:3870   */\n      tag_533\n        /* \"#utility.yul\":3864:3869   */\n      dup2\n        /* \"#utility.yul\":3846:3870   */\n      tag_434\n      jump\t// in\n    tag_533:\n        /* \"#utility.yul\":3839:3844   */\n      dup2\n        /* \"#utility.yul\":3836:3871   */\n      eq\n        /* \"#utility.yul\":3826:3889   */\n      tag_534\n      jumpi\n        /* \"#utility.yul\":3885:3886   */\n      0x00\n        /* \"#utility.yul\":3882:3883   */\n      dup1\n        /* \"#utility.yul\":3875:3887   */\n      revert\n        /* \"#utility.yul\":3826:3889   */\n    tag_534:\n        /* \"#utility.yul\":3773:3895   */\n      pop\n      jump\t// out\n        /* \"#utility.yul\":3901:4040   */\n    tag_436:\n        /* \"#utility.yul\":3947:3952   */\n      0x00\n        /* \"#utility.yul\":3985:3991   */\n      dup2\n        /* \"#utility.yul\":3972:3992   */\n      calldataload\n        /* \"#utility.yul\":3963:3992   */\n      swap1\n      pop\n        /* \"#utility.yul\":4001:4034   */\n      tag_536\n        /* \"#utility.yul\":4028:4033   */\n      dup2\n        /* \"#utility.yul\":4001:4034   */\n      tag_435\n      jump\t// in\n    tag_536:\n        /* \"#utility.yul\":3901:4040   */\n      swap3\n      swap2\n      pop\n      pop\n      jump\t// out\n        /* \"#utility.yul\":4046:4520   */\n    tag_61:\n        /* \"#utility.yul\":4114:4120   */\n      0x00\n        /* \"#utility.yul\":4122:4128   */\n      dup1\n        /* \"#utility.yul\":4171:4173   */\n      0x40\n        /* \"#utility.yul\":4159:4168   */\n      dup4\n        /* \"#utility.yul\":4150:4157   */\n      dup6\n        /* \"#utility.yul\":4146:4169   */\n      sub\n        /* \"#utility.yul\":4142:4174   */\n      slt\n        /* \"#utility.yul\":4139:4258   */\n      iszero\n      tag_538\n      jumpi\n        /* \"#utility.yul\":4177:4256   */\n      tag_539\n      tag_424\n      jump\t// in\n    tag_539:\n        /* \"#utility.yul\":4139:4258   */\n    tag_538:\n        /* \"#utility.yul\":4297:4298   */\n      0x00\n        /* \"#utility.yul\":4322:4375   */\n      tag_540\n        /* \"#utility.yul\":4367:4374   */\n      dup6\n        /* \"#utility.yul\":4358:4364   */\n      dup3\n        /* \"#utility.yul\":4347:4356   */\n      dup7\n        /* \"#utility.yul\":4343:4365   */\n      add\n        /* \"#utility.yul\":4322:4375   */\n      tag_427\n      jump\t// in\n    tag_540:\n        /* \"#utility.yul\":4312:4375   */\n      swap3\n      pop\n        /* \"#utility.yul\":4268:4385   */\n      pop\n        /* \"#utility.yul\":4424:4426   */\n      0x20\n        /* \"#utility.yul\":4450:4503   */\n      tag_541\n        /* \"#utility.yul\":4495:4502   */\n      dup6\n        /* \"#utility.yul\":4486:4492   */\n      dup3\n        /* \"#utility.yul\":4475:4484   */\n      dup7\n        /* \"#utility.yul\":4471:4493   */\n      add\n        /* \"#utility.yul\":4450:4503   */\n      tag_436\n      jump\t// in\n    tag_541:\n        /* \"#utility.yul\":4440:4503   */\n      swap2\n      pop\n        /* \"#utility.yul\":4395:4513   */\n      pop\n        /* \"#utility.yul\":4046:4520   */\n      swap3\n      pop\n      swap3\n      swap1\n      pop\n      jump\t// out\n        /* \"#utility.yul\":4526:4968   */\n    tag_64:\n        /* \"#utility.yul\":4675:4679   */\n      0x00\n        /* \"#utility.yul\":4713:4715   */\n      0x60\n        /* \"#utility.yul\":4702:4711   */\n      dup3\n        /* \"#utility.yul\":4698:4716   */\n      add\n        /* \"#utility.yul\":4690:4716   */\n      swap1\n      pop\n        /* \"#utility.yul\":4726:4797   */\n      tag_543\n        /* \"#utility.yul\":4794:4795   */\n      0x00\n        /* \"#utility.yul\":4783:4792   */\n      dup4\n        /* \"#utility.yul\":4779:4796   */\n      add\n        /* \"#utility.yul\":4770:4776   */\n      dup7\n        /* \"#utility.yul\":4726:4797   */\n      tag_422\n      jump\t// in\n    tag_543:\n        /* \"#utility.yul\":4807:4879   */\n      tag_544\n        /* \"#utility.yul\":4875:4877   */\n      0x20\n        /* \"#utility.yul\":4864:4873   */\n      dup4\n        /* \"#utility.yul\":4860:4878   */\n      add\n        /* \"#utility.yul\":4851:4857   */\n      dup6\n        /* \"#utility.yul\":4807:4879   */\n      tag_422\n      jump\t// in\n    tag_544:\n        /* \"#utility.yul\":4889:4961   */\n      tag_545\n        /* \"#utility.yul\":4957:4959   */\n      0x40\n        /* \"#utility.yul\":4946:4955   */\n      dup4\n        /* \"#utility.yul\":4942:4960   */\n      add\n        /* \"#utility.yul\":4933:4939   */\n      dup5\n        /* \"#utility.yul\":4889:4961   */\n      tag_422\n      jump\t// in\n    tag_545:\n        /* \"#utility.yul\":4526:4968   */\n      swap5\n      swap4\n      pop\n      pop\n      pop\n      pop\n      jump\t// out\n        /* \"#utility.yul\":4974:5303   */\n    tag_72:\n        /* \"#utility.yul\":5033:5039   */\n      0x00\n        /* \"#utility.yul\":5082:5084   */\n      0x20\n        /* \"#utility.yul\":5070:5079   */\n      dup3\n        /* \"#utility.yul\":5061:5068   */\n      dup5\n        /* \"#utility.yul\":5057:5080   */\n      sub\n        /* \"#utility.yul\":5053:5085   */\n      slt\n        /* \"#utility.yul\":5050:5169   */\n      iszero\n      tag_547\n      jumpi\n        /* \"#utility.yul\":5088:5167   */\n      tag_548\n      tag_424\n      jump\t// in\n    tag_548:\n        /* \"#utility.yul\":5050:5169   */\n    tag_547:\n        /* \"#utility.yul\":5208:5209   */\n      0x00\n        /* \"#utility.yul\":5233:5286   */\n      tag_549\n        /* \"#utility.yul\":5278:5285   */\n      dup5\n        /* \"#utility.yul\":5269:5275   */\n      dup3\n        /* \"#utility.yul\":5258:5267   */\n      dup6\n        /* \"#utility.yul\":5254:5276   */\n      add\n        /* \"#utility.yul\":5233:5286   */\n      tag_436\n      jump\t// in\n    tag_549:\n        /* \"#utility.yul\":5223:5286   */\n      swap2\n      pop\n        /* \"#utility.yul\":5179:5296   */\n      pop\n        /* \"#utility.yul\":4974:5303   */\n      swap3\n      swap2\n      pop\n      pop\n      jump\t// out\n        /* \"#utility.yul\":5309:5427   */\n    tag_437:\n        /* \"#utility.yul\":5396:5420   */\n      tag_551\n        /* \"#utility.yul\":5414:5419   */\n      dup2\n        /* \"#utility.yul\":5396:5420   */\n      tag_434\n      jump\t// in\n    tag_551:\n        /* \"#utility.yul\":5391:5394   */\n      dup3\n        /* \"#utility.yul\":5384:5421   */\n      mstore\n        /* \"#utility.yul\":5309:5427   */\n      pop\n      pop\n      jump\t// out\n        /* \"#utility.yul\":5433:5655   */\n    tag_75:\n        /* \"#utility.yul\":5526:5530   */\n      0x00\n        /* \"#utility.yul\":5564:5566   */\n      0x20\n        /* \"#utility.yul\":5553:5562   */\n      dup3\n        /* \"#utility.yul\":5549:5567   */\n      add\n        /* \"#utility.yul\":5541:5567   */\n      swap1\n      pop\n        /* \"#utility.yul\":5577:5648   */\n      tag_553\n        /* \"#utility.yul\":5645:5646   */\n      0x00\n        /* \"#utility.yul\":5634:5643   */\n      dup4\n        /* \"#utility.yul\":5630:5647   */\n      add\n        /* \"#utility.yul\":5621:5627   */\n      dup5\n        /* \"#utility.yul\":5577:5648   */\n      tag_437\n      jump\t// in\n    tag_553:\n        /* \"#utility.yul\":5433:5655   */\n      swap3\n      swap2\n      pop\n      pop\n      jump\t// out\n        /* \"#utility.yul\":5661:5751   */\n    tag_438:\n        /* \"#utility.yul\":5695:5702   */\n      0x00\n        /* \"#utility.yul\":5738:5743   */\n      dup2\n        /* \"#utility.yul\":5731:5744   */\n      iszero\n        /* \"#utility.yul\":5724:5745   */\n      iszero\n        /* \"#utility.yul\":5713:5745   */\n      swap1\n      pop\n        /* \"#utility.yul\":5661:5751   */\n      swap2\n      swap1\n      pop\n      jump\t// out\n        /* \"#utility.yul\":5757:5866   */\n    tag_439:\n        /* \"#utility.yul\":5838:5859   */\n      tag_556\n        /* \"#utility.yul\":5853:5858   */\n      dup2\n        /* \"#utility.yul\":5838:5859   */\n      tag_438\n      jump\t// in\n    tag_556:\n        /* \"#utility.yul\":5833:5836   */\n      dup3\n        /* \"#utility.yul\":5826:5860   */\n      mstore\n        /* \"#utility.yul\":5757:5866   */\n      pop\n      pop\n      jump\t// out\n        /* \"#utility.yul\":5872:6082   */\n    tag_86:\n        /* \"#utility.yul\":5959:5963   */\n      0x00\n        /* \"#utility.yul\":5997:5999   */\n      0x20\n        /* \"#utility.yul\":5986:5995   */\n      dup3\n        /* \"#utility.yul\":5982:6000   */\n      add\n        /* \"#utility.yul\":5974:6000   */\n      swap1\n      pop\n        /* \"#utility.yul\":6010:6075   */\n      tag_558\n        /* \"#utility.yul\":6072:6073   */\n      0x00\n        /* \"#utility.yul\":6061:6070   */\n      dup4\n        /* \"#utility.yul\":6057:6074   */\n      add\n        /* \"#utility.yul\":6048:6054   */\n      dup5\n        /* \"#utility.yul\":6010:6075   */\n      tag_439\n      jump\t// in\n    tag_558:\n        /* \"#utility.yul\":5872:6082   */\n      swap3\n      swap2\n      pop\n      pop\n      jump\t// out\n        /* \"#utility.yul\":6088:6209   */\n    tag_440:\n        /* \"#utility.yul\":6150:6157   */\n      0x00\n        /* \"#utility.yul\":6179:6203   */\n      tag_560\n        /* \"#utility.yul\":6197:6202   */\n      dup3\n        /* \"#utility.yul\":6179:6203   */\n      tag_434\n      jump\t// in\n    tag_560:\n        /* \"#utility.yul\":6168:6203   */\n      swap1\n      pop\n        /* \"#utility.yul\":6088:6209   */\n      swap2\n      swap1\n      pop\n      jump\t// out\n        /* \"#utility.yul\":6215:6387   */\n    tag_441:\n        /* \"#utility.yul\":6313:6362   */\n      tag_562\n        /* \"#utility.yul\":6356:6361   */\n      dup2\n        /* \"#utility.yul\":6313:6362   */\n      tag_440\n      jump\t// in\n    tag_562:\n        /* \"#utility.yul\":6306:6311   */\n      dup2\n        /* \"#utility.yul\":6303:6363   */\n      eq\n        /* \"#utility.yul\":6293:6381   */\n      tag_563\n      jumpi\n        /* \"#utility.yul\":6377:6378   */\n      0x00\n        /* \"#utility.yul\":6374:6375   */\n      dup1\n        /* \"#utility.yul\":6367:6379   */\n      revert\n        /* \"#utility.yul\":6293:6381   */\n    tag_563:\n        /* \"#utility.yul\":6215:6387   */\n      pop\n      jump\t// out\n        /* \"#utility.yul\":6393:6582   */\n    tag_442:\n        /* \"#utility.yul\":6464:6469   */\n      0x00\n        /* \"#utility.yul\":6502:6508   */\n      dup2\n        /* \"#utility.yul\":6489:6509   */\n      calldataload\n        /* \"#utility.yul\":6480:6509   */\n      swap1\n      pop\n        /* \"#utility.yul\":6518:6576   */\n      tag_565\n        /* \"#utility.yul\":6570:6575   */\n      dup2\n        /* \"#utility.yul\":6518:6576   */\n      tag_441\n      jump\t// in\n    tag_565:\n        /* \"#utility.yul\":6393:6582   */\n      swap3\n      swap2\n      pop\n      pop\n      jump\t// out\n        /* \"#utility.yul\":6588:6711   */\n    tag_443:\n        /* \"#utility.yul\":6652:6659   */\n      0x00\n        /* \"#utility.yul\":6681:6705   */\n      tag_567\n        /* \"#utility.yul\":6699:6704   */\n      dup3\n        /* \"#utility.yul\":6681:6705   */\n      tag_434\n      jump\t// in\n    tag_567:\n        /* \"#utility.yul\":6670:6705   */\n      swap1\n      pop\n        /* \"#utility.yul\":6588:6711   */\n      swap2\n      swap1\n      pop\n      jump\t// out\n        /* \"#utility.yul\":6717:6893   */\n    tag_444:\n        /* \"#utility.yul\":6817:6868   */\n      tag_569\n        /* \"#utility.yul\":6862:6867   */\n      dup2\n        /* \"#utility.yul\":6817:6868   */\n      tag_443\n      jump\t// in\n    tag_569:\n        /* \"#utility.yul\":6810:6815   */\n      dup2\n        /* \"#utility.yul\":6807:6869   */\n      eq\n        /* \"#utility.yul\":6797:6887   */\n      tag_570\n      jumpi\n        /* \"#utility.yul\":6883:6884   */\n      0x00\n        /* \"#utility.yul\":6880:6881   */\n      dup1\n        /* \"#utility.yul\":6873:6885   */\n      revert\n        /* \"#utility.yul\":6797:6887   */\n    tag_570:\n        /* \"#utility.yul\":6717:6893   */\n      pop\n      jump\t// out\n        /* \"#utility.yul\":6899:7092   */\n    tag_445:\n        /* \"#utility.yul\":6972:6977   */\n      0x00\n        /* \"#utility.yul\":7010:7016   */\n      dup2\n        /* \"#utility.yul\":6997:7017   */\n      calldataload\n        /* \"#utility.yul\":6988:7017   */\n      swap1\n      pop\n        /* \"#utility.yul\":7026:7086   */\n      tag_572\n        /* \"#utility.yul\":7080:7085   */\n      dup2\n        /* \"#utility.yul\":7026:7086   */\n      tag_444\n      jump\t// in\n    tag_572:\n        /* \"#utility.yul\":6899:7092   */\n      swap3\n      swap2\n      pop\n      pop\n      jump\t// out\n        /* \"#utility.yul\":7098:8551   */\n    tag_96:\n        /* \"#utility.yul\":7272:7278   */\n      0x00\n        /* \"#utility.yul\":7280:7286   */\n      dup1\n        /* \"#utility.yul\":7288:7294   */\n      0x00\n        /* \"#utility.yul\":7296:7302   */\n      dup1\n        /* \"#utility.yul\":7304:7310   */\n      0x00\n        /* \"#utility.yul\":7312:7318   */\n      dup1\n        /* \"#utility.yul\":7320:7326   */\n      0x00\n        /* \"#utility.yul\":7328:7334   */\n      dup1\n        /* \"#utility.yul\":7377:7380   */\n      0x0100\n        /* \"#utility.yul\":7365:7374   */\n      dup10\n        /* \"#utility.yul\":7356:7363   */\n      dup12\n        /* \"#utility.yul\":7352:7375   */\n      sub\n        /* \"#utility.yul\":7348:7381   */\n      slt\n        /* \"#utility.yul\":7345:7465   */\n      iszero\n      tag_574\n      jumpi\n        /* \"#utility.yul\":7384:7463   */\n      tag_575\n      tag_424\n      jump\t// in\n    tag_575:\n        /* \"#utility.yul\":7345:7465   */\n    tag_574:\n        /* \"#utility.yul\":7504:7505   */\n      0x00\n        /* \"#utility.yul\":7529:7607   */\n      tag_576\n        /* \"#utility.yul\":7599:7606   */\n      dup12\n        /* \"#utility.yul\":7590:7596   */\n      dup3\n        /* \"#utility.yul\":7579:7588   */\n      dup13\n        /* \"#utility.yul\":7575:7597   */\n      add\n        /* \"#utility.yul\":7529:7607   */\n      tag_442\n      jump\t// in\n    tag_576:\n        /* \"#utility.yul\":7519:7607   */\n      swap9\n      pop\n        /* \"#utility.yul\":7475:7617   */\n      pop\n        /* \"#utility.yul\":7656:7658   */\n      0x20\n        /* \"#utility.yul\":7682:7762   */\n      tag_577\n        /* \"#utility.yul\":7754:7761   */\n      dup12\n        /* \"#utility.yul\":7745:7751   */\n      dup3\n        /* \"#utility.yul\":7734:7743   */\n      dup13\n        /* \"#utility.yul\":7730:7752   */\n      add\n        /* \"#utility.yul\":7682:7762   */\n      tag_445\n      jump\t// in\n    tag_577:\n        /* \"#utility.yul\":7672:7762   */\n      swap8\n      pop\n        /* \"#utility.yul\":7627:7772   */\n      pop\n        /* \"#utility.yul\":7811:7813   */\n      0x40\n        /* \"#utility.yul\":7837:7890   */\n      tag_578\n        /* \"#utility.yul\":7882:7889   */\n      dup12\n        /* \"#utility.yul\":7873:7879   */\n      dup3\n        /* \"#utility.yul\":7862:7871   */\n      dup13\n        /* \"#utility.yul\":7858:7880   */\n      add\n        /* \"#utility.yul\":7837:7890   */\n      tag_427\n      jump\t// in\n    tag_578:\n        /* \"#utility.yul\":7827:7890   */\n      swap7\n      pop\n        /* \"#utility.yul\":7782:7900   */\n      pop\n        /* \"#utility.yul\":7939:7941   */\n      0x60\n        /* \"#utility.yul\":7965:8018   */\n      tag_579\n        /* \"#utility.yul\":8010:8017   */\n      dup12\n        /* \"#utility.yul\":8001:8007   */\n      dup3\n        /* \"#utility.yul\":7990:7999   */\n      dup13\n        /* \"#utility.yul\":7986:8008   */\n      add\n        /* \"#utility.yul\":7965:8018   */\n      tag_427\n      jump\t// in\n    tag_579:\n        /* \"#utility.yul\":7955:8018   */\n      swap6\n      pop\n        /* \"#utility.yul\":7910:8028   */\n      pop\n        /* \"#utility.yul\":8067:8070   */\n      0x80\n        /* \"#utility.yul\":8094:8147   */\n      tag_580\n        /* \"#utility.yul\":8139:8146   */\n      dup12\n        /* \"#utility.yul\":8130:8136   */\n      dup3\n        /* \"#utility.yul\":8119:8128   */\n      dup13\n        /* \"#utility.yul\":8115:8137   */\n      add\n        /* \"#utility.yul\":8094:8147   */\n      tag_427\n      jump\t// in\n    tag_580:\n        /* \"#utility.yul\":8084:8147   */\n      swap5\n      pop\n        /* \"#utility.yul\":8038:8157   */\n      pop\n        /* \"#utility.yul\":8196:8199   */\n      0xa0\n        /* \"#utility.yul\":8223:8276   */\n      tag_581\n        /* \"#utility.yul\":8268:8275   */\n      dup12\n        /* \"#utility.yul\":8259:8265   */\n      dup3\n        /* \"#utility.yul\":8248:8257   */\n      dup13\n        /* \"#utility.yul\":8244:8266   */\n      add\n        /* \"#utility.yul\":8223:8276   */\n      tag_427\n      jump\t// in\n    tag_581:\n        /* \"#utility.yul\":8213:8276   */\n      swap4\n      pop\n        /* \"#utility.yul\":8167:8286   */\n      pop\n        /* \"#utility.yul\":8325:8328   */\n      0xc0\n        /* \"#utility.yul\":8352:8405   */\n      tag_582\n        /* \"#utility.yul\":8397:8404   */\n      dup12\n        /* \"#utility.yul\":8388:8394   */\n      dup3\n        /* \"#utility.yul\":8377:8386   */\n      dup13\n        /* \"#utility.yul\":8373:8395   */\n      add\n        /* \"#utility.yul\":8352:8405   */\n      tag_427\n      jump\t// in\n    tag_582:\n        /* \"#utility.yul\":8342:8405   */\n      swap3\n      pop\n        /* \"#utility.yul\":8296:8415   */\n      pop\n        /* \"#utility.yul\":8454:8457   */\n      0xe0\n        /* \"#utility.yul\":8481:8534   */\n      tag_583\n        /* \"#utility.yul\":8526:8533   */\n      dup12\n        /* \"#utility.yul\":8517:8523   */\n      dup3\n        /* \"#utility.yul\":8506:8515   */\n      dup13\n        /* \"#utility.yul\":8502:8524   */\n      add\n        /* \"#utility.yul\":8481:8534   */\n      tag_427\n      jump\t// in\n    tag_583:\n        /* \"#utility.yul\":8471:8534   */\n      swap2\n      pop\n        /* \"#utility.yul\":8425:8544   */\n      pop\n        /* \"#utility.yul\":7098:8551   */\n      swap3\n      swap6\n      swap9\n      pop\n      swap3\n      swap6\n      swap9\n      swap1\n      swap4\n      swap7\n      pop\n      jump\t// out\n        /* \"#utility.yul\":8557:9422   */\n    tag_115:\n        /* \"#utility.yul\":8693:8699   */\n      0x00\n        /* \"#utility.yul\":8701:8707   */\n      dup1\n        /* \"#utility.yul\":8709:8715   */\n      0x00\n        /* \"#utility.yul\":8717:8723   */\n      dup1\n        /* \"#utility.yul\":8766:8769   */\n      0x80\n        /* \"#utility.yul\":8754:8763   */\n      dup6\n        /* \"#utility.yul\":8745:8752   */\n      dup8\n        /* \"#utility.yul\":8741:8764   */\n      sub\n        /* \"#utility.yul\":8737:8770   */\n      slt\n        /* \"#utility.yul\":8734:8854   */\n      iszero\n      tag_585\n      jumpi\n        /* \"#utility.yul\":8773:8852   */\n      tag_586\n      tag_424\n      jump\t// in\n    tag_586:\n        /* \"#utility.yul\":8734:8854   */\n    tag_585:\n        /* \"#utility.yul\":8893:8894   */\n      0x00\n        /* \"#utility.yul\":8918:8996   */\n      tag_587\n        /* \"#utility.yul\":8988:8995   */\n      dup8\n        /* \"#utility.yul\":8979:8985   */\n      dup3\n        /* \"#utility.yul\":8968:8977   */\n      dup9\n        /* \"#utility.yul\":8964:8986   */\n      add\n        /* \"#utility.yul\":8918:8996   */\n      tag_442\n      jump\t// in\n    tag_587:\n        /* \"#utility.yul\":8908:8996   */\n      swap5\n      pop\n        /* \"#utility.yul\":8864:9006   */\n      pop\n        /* \"#utility.yul\":9045:9047   */\n      0x20\n        /* \"#utility.yul\":9071:9149   */\n      tag_588\n        /* \"#utility.yul\":9141:9148   */\n      dup8\n        /* \"#utility.yul\":9132:9138   */\n      dup3\n        /* \"#utility.yul\":9121:9130   */\n      dup9\n        /* \"#utility.yul\":9117:9139   */\n      add\n        /* \"#utility.yul\":9071:9149   */\n      tag_442\n      jump\t// in\n    tag_588:\n        /* \"#utility.yul\":9061:9149   */\n      swap4\n      pop\n        /* \"#utility.yul\":9016:9159   */\n      pop\n        /* \"#utility.yul\":9198:9200   */\n      0x40\n        /* \"#utility.yul\":9224:9277   */\n      tag_589\n        /* \"#utility.yul\":9269:9276   */\n      dup8\n        /* \"#utility.yul\":9260:9266   */\n      dup3\n        /* \"#utility.yul\":9249:9258   */\n      dup9\n        /* \"#utility.yul\":9245:9267   */\n      add\n        /* \"#utility.yul\":9224:9277   */\n      tag_427\n      jump\t// in\n    tag_589:\n        /* \"#utility.yul\":9214:9277   */\n      swap3\n      pop\n        /* \"#utility.yul\":9169:9287   */\n      pop\n        /* \"#utility.yul\":9326:9328   */\n      0x60\n        /* \"#utility.yul\":9352:9405   */\n      tag_590\n        /* \"#utility.yul\":9397:9404   */\n      dup8\n        /* \"#utility.yul\":9388:9394   */\n      dup3\n        /* \"#utility.yul\":9377:9386   */\n      dup9\n        /* \"#utility.yul\":9373:9395   */\n      add\n        /* \"#utility.yul\":9352:9405   */\n      tag_427\n      jump\t// in\n    tag_590:\n        /* \"#utility.yul\":9342:9405   */\n      swap2\n      pop\n        /* \"#utility.yul\":9297:9415   */\n      pop\n        /* \"#utility.yul\":8557:9422   */\n      swap3\n      swap6\n      swap2\n      swap5\n      pop\n      swap3\n      pop\n      jump\t// out\n        /* \"#utility.yul\":9428:9581   */\n    tag_446:\n        /* \"#utility.yul\":9505:9514   */\n      0x00\n        /* \"#utility.yul\":9538:9575   */\n      tag_592\n        /* \"#utility.yul\":9569:9574   */\n      dup3\n        /* \"#utility.yul\":9538:9575   */\n      tag_431\n      jump\t// in\n    tag_592:\n        /* \"#utility.yul\":9525:9575   */\n      swap1\n      pop\n        /* \"#utility.yul\":9428:9581   */\n      swap2\n      swap1\n      pop\n      jump\t// out\n        /* \"#utility.yul\":9587:9772   */\n    tag_447:\n        /* \"#utility.yul\":9701:9765   */\n      tag_594\n        /* \"#utility.yul\":9759:9764   */\n      dup2\n        /* \"#utility.yul\":9701:9765   */\n      tag_446\n      jump\t// in\n    tag_594:\n        /* \"#utility.yul\":9696:9699   */\n      dup3\n        /* \"#utility.yul\":9689:9766   */\n      mstore\n        /* \"#utility.yul\":9587:9772   */\n      pop\n      pop\n      jump\t// out\n        /* \"#utility.yul\":9778:10054   */\n    tag_126:\n        /* \"#utility.yul\":9898:9902   */\n      0x00\n        /* \"#utility.yul\":9936:9938   */\n      0x20\n        /* \"#utility.yul\":9925:9934   */\n      dup3\n        /* \"#utility.yul\":9921:9939   */\n      add\n        /* \"#utility.yul\":9913:9939   */\n      swap1\n      pop\n        /* \"#utility.yul\":9949:10047   */\n      tag_596\n        /* \"#utility.yul\":10044:10045   */\n      0x00\n        /* \"#utility.yul\":10033:10042   */\n      dup4\n        /* \"#utility.yul\":10029:10046   */\n      add\n        /* \"#utility.yul\":10020:10026   */\n      dup5\n        /* \"#utility.yul\":9949:10047   */\n      tag_447\n      jump\t// in\n    tag_596:\n        /* \"#utility.yul\":9778:10054   */\n      swap3\n      swap2\n      pop\n      pop\n      jump\t// out\n        /* \"#utility.yul\":10060:10534   */\n    tag_129:\n        /* \"#utility.yul\":10128:10134   */\n      0x00\n        /* \"#utility.yul\":10136:10142   */\n      dup1\n        /* \"#utility.yul\":10185:10187   */\n      0x40\n        /* \"#utility.yul\":10173:10182   */\n      dup4\n        /* \"#utility.yul\":10164:10171   */\n      dup6\n        /* \"#utility.yul\":10160:10183   */\n      sub\n        /* \"#utility.yul\":10156:10188   */\n      slt\n        /* \"#utility.yul\":10153:10272   */\n      iszero\n      tag_598\n      jumpi\n        /* \"#utility.yul\":10191:10270   */\n      tag_599\n      tag_424\n      jump\t// in\n    tag_599:\n        /* \"#utility.yul\":10153:10272   */\n    tag_598:\n        /* \"#utility.yul\":10311:10312   */\n      0x00\n        /* \"#utility.yul\":10336:10389   */\n      tag_600\n        /* \"#utility.yul\":10381:10388   */\n      dup6\n        /* \"#utility.yul\":10372:10378   */\n      dup3\n        /* \"#utility.yul\":10361:10370   */\n      dup7\n        /* \"#utility.yul\":10357:10379   */\n      add\n        /* \"#utility.yul\":10336:10389   */\n      tag_436\n      jump\t// in\n    tag_600:\n        /* \"#utility.yul\":10326:10389   */\n      swap3\n      pop\n        /* \"#utility.yul\":10282:10399   */\n      pop\n        /* \"#utility.yul\":10438:10440   */\n      0x20\n        /* \"#utility.yul\":10464:10517   */\n      tag_601\n        /* \"#utility.yul\":10509:10516   */\n      dup6\n        /* \"#utility.yul\":10500:10506   */\n      dup3\n        /* \"#utility.yul\":10489:10498   */\n      dup7\n        /* \"#utility.yul\":10485:10507   */\n      add\n        /* \"#utility.yul\":10464:10517   */\n      tag_427\n      jump\t// in\n    tag_601:\n        /* \"#utility.yul\":10454:10517   */\n      swap2\n      pop\n        /* \"#utility.yul\":10409:10527   */\n      pop\n        /* \"#utility.yul\":10060:10534   */\n      swap3\n      pop\n      swap3\n      swap1\n      pop\n      jump\t// out\n        /* \"#utility.yul\":10540:10812   */\n    tag_140:\n        /* \"#utility.yul\":10658:10662   */\n      0x00\n        /* \"#utility.yul\":10696:10698   */\n      0x20\n        /* \"#utility.yul\":10685:10694   */\n      dup3\n        /* \"#utility.yul\":10681:10699   */\n      add\n        /* \"#utility.yul\":10673:10699   */\n      swap1\n      pop\n        /* \"#utility.yul\":10709:10805   */\n      tag_603\n        /* \"#utility.yul\":10802:10803   */\n      0x00\n        /* \"#utility.yul\":10791:10800   */\n      dup4\n        /* \"#utility.yul\":10787:10804   */\n      add\n        /* \"#utility.yul\":10778:10784   */\n      dup5\n        /* \"#utility.yul\":10709:10805   */\n      tag_433\n      jump\t// in\n    tag_603:\n        /* \"#utility.yul\":10540:10812   */\n      swap3\n      swap2\n      pop\n      pop\n      jump\t// out\n        /* \"#utility.yul\":10818:10998   */\n    tag_147:\n        /* \"#utility.yul\":10866:10943   */\n      0x4e487b7100000000000000000000000000000000000000000000000000000000\n        /* \"#utility.yul\":10863:10864   */\n      0x00\n        /* \"#utility.yul\":10856:10944   */\n      mstore\n        /* \"#utility.yul\":10963:10967   */\n      0x32\n        /* \"#utility.yul\":10960:10961   */\n      0x04\n        /* \"#utility.yul\":10953:10968   */\n      mstore\n        /* \"#utility.yul\":10987:10991   */\n      0x24\n        /* \"#utility.yul\":10984:10985   */\n      0x00\n        /* \"#utility.yul\":10977:10992   */\n      revert\n        /* \"#utility.yul\":11004:11173   */\n    tag_448:\n        /* \"#utility.yul\":11088:11099   */\n      0x00\n        /* \"#utility.yul\":11122:11128   */\n      dup3\n        /* \"#utility.yul\":11117:11120   */\n      dup3\n        /* \"#utility.yul\":11110:11129   */\n      mstore\n        /* \"#utility.yul\":11162:11166   */\n      0x20\n        /* \"#utility.yul\":11157:11160   */\n      dup3\n        /* \"#utility.yul\":11153:11167   */\n      add\n        /* \"#utility.yul\":11138:11167   */\n      swap1\n      pop\n        /* \"#utility.yul\":11004:11173   */\n      swap3\n      swap2\n      pop\n      pop\n      jump\t// out\n        /* \"#utility.yul\":11179:11345   */\n    tag_449:\n        /* \"#utility.yul\":11319:11337   */\n      0x4e6f207374616b656420616d6f756e7400000000000000000000000000000000\n        /* \"#utility.yul\":11315:11316   */\n      0x00\n        /* \"#utility.yul\":11307:11313   */\n      dup3\n        /* \"#utility.yul\":11303:11317   */\n      add\n        /* \"#utility.yul\":11296:11338   */\n      mstore\n        /* \"#utility.yul\":11179:11345   */\n      pop\n      jump\t// out\n        /* \"#utility.yul\":11351:11717   */\n    tag_450:\n        /* \"#utility.yul\":11493:11496   */\n      0x00\n        /* \"#utility.yul\":11514:11581   */\n      tag_608\n        /* \"#utility.yul\":11578:11580   */\n      0x10\n        /* \"#utility.yul\":11573:11576   */\n      dup4\n        /* \"#utility.yul\":11514:11581   */\n      tag_448\n      jump\t// in\n    tag_608:\n        /* \"#utility.yul\":11507:11581   */\n      swap2\n      pop\n        /* \"#utility.yul\":11590:11683   */\n      tag_609\n        /* \"#utility.yul\":11679:11682   */\n      dup3\n        /* \"#utility.yul\":11590:11683   */\n      tag_449\n      jump\t// in\n    tag_609:\n        /* \"#utility.yul\":11708:11710   */\n      0x20\n        /* \"#utility.yul\":11703:11706   */\n      dup3\n        /* \"#utility.yul\":11699:11711   */\n      add\n        /* \"#utility.yul\":11692:11711   */\n      swap1\n      pop\n        /* \"#utility.yul\":11351:11717   */\n      swap2\n      swap1\n      pop\n      jump\t// out\n        /* \"#utility.yul\":11723:12142   */\n    tag_172:\n        /* \"#utility.yul\":11889:11893   */\n      0x00\n        /* \"#utility.yul\":11927:11929   */\n      0x20\n        /* \"#utility.yul\":11916:11925   */\n      dup3\n        /* \"#utility.yul\":11912:11930   */\n      add\n        /* \"#utility.yul\":11904:11930   */\n      swap1\n      pop\n        /* \"#utility.yul\":11976:11985   */\n      dup2\n        /* \"#utility.yul\":11970:11974   */\n      dup2\n        /* \"#utility.yul\":11966:11986   */\n      sub\n        /* \"#utility.yul\":11962:11963   */\n      0x00\n        /* \"#utility.yul\":11951:11960   */\n      dup4\n        /* \"#utility.yul\":11947:11964   */\n      add\n        /* \"#utility.yul\":11940:11987   */\n      mstore\n        /* \"#utility.yul\":12004:12135   */\n      tag_611\n        /* \"#utility.yul\":12130:12134   */\n      dup2\n        /* \"#utility.yul\":12004:12135   */\n      tag_450\n      jump\t// in\n    tag_611:\n        /* \"#utility.yul\":11996:12135   */\n      swap1\n      pop\n        /* \"#utility.yul\":11723:12142   */\n      swap2\n      swap1\n      pop\n      jump\t// out\n        /* \"#utility.yul\":12148:12328   */\n    tag_451:\n        /* \"#utility.yul\":12196:12273   */\n      0x4e487b7100000000000000000000000000000000000000000000000000000000\n        /* \"#utility.yul\":12193:12194   */\n      0x00\n        /* \"#utility.yul\":12186:12274   */\n      mstore\n        /* \"#utility.yul\":12293:12297   */\n      0x11\n        /* \"#utility.yul\":12290:12291   */\n      0x04\n        /* \"#utility.yul\":12283:12298   */\n      mstore\n        /* \"#utility.yul\":12317:12321   */\n      0x24\n        /* \"#utility.yul\":12314:12315   */\n      0x00\n        /* \"#utility.yul\":12307:12322   */\n      revert\n        /* \"#utility.yul\":12334:12528   */\n    tag_174:\n        /* \"#utility.yul\":12374:12378   */\n      0x00\n        /* \"#utility.yul\":12394:12414   */\n      tag_614\n        /* \"#utility.yul\":12412:12413   */\n      dup3\n        /* \"#utility.yul\":12394:12414   */\n      tag_421\n      jump\t// in\n    tag_614:\n        /* \"#utility.yul\":12389:12414   */\n      swap2\n      pop\n        /* \"#utility.yul\":12428:12448   */\n      tag_615\n        /* \"#utility.yul\":12446:12447   */\n      dup4\n        /* \"#utility.yul\":12428:12448   */\n      tag_421\n      jump\t// in\n    tag_615:\n        /* \"#utility.yul\":12423:12448   */\n      swap3\n      pop\n        /* \"#utility.yul\":12472:12473   */\n      dup3\n        /* \"#utility.yul\":12469:12470   */\n      dup3\n        /* \"#utility.yul\":12465:12474   */\n      sub\n        /* \"#utility.yul\":12457:12474   */\n      swap1\n      pop\n        /* \"#utility.yul\":12496:12497   */\n      dup2\n        /* \"#utility.yul\":12490:12494   */\n      dup2\n        /* \"#utility.yul\":12487:12498   */\n      gt\n        /* \"#utility.yul\":12484:12521   */\n      iszero\n      tag_616\n      jumpi\n        /* \"#utility.yul\":12501:12519   */\n      tag_617\n      tag_451\n      jump\t// in\n    tag_617:\n        /* \"#utility.yul\":12484:12521   */\n    tag_616:\n        /* \"#utility.yul\":12334:12528   */\n      swap3\n      swap2\n      pop\n      pop\n      jump\t// out\n        /* \"#utility.yul\":12534:12702   */\n    tag_452:\n        /* \"#utility.yul\":12674:12694   */\n      0x436f6e7472616374206973207061757365640000000000000000000000000000\n        /* \"#utility.yul\":12670:12671   */\n      0x00\n        /* \"#utility.yul\":12662:12668   */\n      dup3\n        /* \"#utility.yul\":12658:12672   */\n      add\n        /* \"#utility.yul\":12651:12695   */\n      mstore\n        /* \"#utility.yul\":12534:12702   */\n      pop\n      jump\t// out\n        /* \"#utility.yul\":12708:13074   */\n    tag_453:\n        /* \"#utility.yul\":12850:12853   */\n      0x00\n        /* \"#utility.yul\":12871:12938   */\n      tag_620\n        /* \"#utility.yul\":12935:12937   */\n      0x12\n        /* \"#utility.yul\":12930:12933   */\n      dup4\n        /* \"#utility.yul\":12871:12938   */\n      tag_448\n      jump\t// in\n    tag_620:\n        /* \"#utility.yul\":12864:12938   */\n      swap2\n      pop\n        /* \"#utility.yul\":12947:13040   */\n      tag_621\n        /* \"#utility.yul\":13036:13039   */\n      dup3\n        /* \"#utility.yul\":12947:13040   */\n      tag_452\n      jump\t// in\n    tag_621:\n        /* \"#utility.yul\":13065:13067   */\n      0x20\n        /* \"#utility.yul\":13060:13063   */\n      dup3\n        /* \"#utility.yul\":13056:13068   */\n      add\n        /* \"#utility.yul\":13049:13068   */\n      swap1\n      pop\n        /* \"#utility.yul\":12708:13074   */\n      swap2\n      swap1\n      pop\n      jump\t// out\n        /* \"#utility.yul\":13080:13499   */\n    tag_190:\n        /* \"#utility.yul\":13246:13250   */\n      0x00\n        /* \"#utility.yul\":13284:13286   */\n      0x20\n        /* \"#utility.yul\":13273:13282   */\n      dup3\n        /* \"#utility.yul\":13269:13287   */\n      add\n        /* \"#utility.yul\":13261:13287   */\n      swap1\n      pop\n        /* \"#utility.yul\":13333:13342   */\n      dup2\n        /* \"#utility.yul\":13327:13331   */\n      dup2\n        /* \"#utility.yul\":13323:13343   */\n      sub\n        /* \"#utility.yul\":13319:13320   */\n      0x00\n        /* \"#utility.yul\":13308:13317   */\n      dup4\n        /* \"#utility.yul\":13304:13321   */\n      add\n        /* \"#utility.yul\":13297:13344   */\n      mstore\n        /* \"#utility.yul\":13361:13492   */\n      tag_623\n        /* \"#utility.yul\":13487:13491   */\n      dup2\n        /* \"#utility.yul\":13361:13492   */\n      tag_453\n      jump\t// in\n    tag_623:\n        /* \"#utility.yul\":13353:13492   */\n      swap1\n      pop\n        /* \"#utility.yul\":13080:13499   */\n      swap2\n      swap1\n      pop\n      jump\t// out\n        /* \"#utility.yul\":13505:13669   */\n    tag_454:\n        /* \"#utility.yul\":13645:13661   */\n      0x43616e6e6f74207374616b652030000000000000000000000000000000000000\n        /* \"#utility.yul\":13641:13642   */\n      0x00\n        /* \"#utility.yul\":13633:13639   */\n      dup3\n        /* \"#utility.yul\":13629:13643   */\n      add\n        /* \"#utility.yul\":13622:13662   */\n      mstore\n        /* \"#utility.yul\":13505:13669   */\n      pop\n      jump\t// out\n        /* \"#utility.yul\":13675:14041   */\n    tag_455:\n        /* \"#utility.yul\":13817:13820   */\n      0x00\n        /* \"#utility.yul\":13838:13905   */\n      tag_626\n        /* \"#utility.yul\":13902:13904   */\n      0x0e\n        /* \"#utility.yul\":13897:13900   */\n      dup4\n        /* \"#utility.yul\":13838:13905   */\n      tag_448\n      jump\t// in\n    tag_626:\n        /* \"#utility.yul\":13831:13905   */\n      swap2\n      pop\n        /* \"#utility.yul\":13914:14007   */\n      tag_627\n        /* \"#utility.yul\":14003:14006   */\n      dup3\n        /* \"#utility.yul\":13914:14007   */\n      tag_454\n      jump\t// in\n    tag_627:\n        /* \"#utility.yul\":14032:14034   */\n      0x20\n        /* \"#utility.yul\":14027:14030   */\n      dup3\n        /* \"#utility.yul\":14023:14035   */\n      add\n        /* \"#utility.yul\":14016:14035   */\n      swap1\n      pop\n        /* \"#utility.yul\":13675:14041   */\n      swap2\n      swap1\n      pop\n      jump\t// out\n        /* \"#utility.yul\":14047:14466   */\n    tag_194:\n        /* \"#utility.yul\":14213:14217   */\n      0x00\n        /* \"#utility.yul\":14251:14253   */\n      0x20\n        /* \"#utility.yul\":14240:14249   */\n      dup3\n        /* \"#utility.yul\":14236:14254   */\n      add\n        /* \"#utility.yul\":14228:14254   */\n      swap1\n      pop\n        /* \"#utility.yul\":14300:14309   */\n      dup2\n        /* \"#utility.yul\":14294:14298   */\n      dup2\n        /* \"#utility.yul\":14290:14310   */\n      sub\n        /* \"#utility.yul\":14286:14287   */\n      0x00\n        /* \"#utility.yul\":14275:14284   */\n      dup4\n        /* \"#utility.yul\":14271:14288   */\n      add\n        /* \"#utility.yul\":14264:14311   */\n      mstore\n        /* \"#utility.yul\":14328:14459   */\n      tag_629\n        /* \"#utility.yul\":14454:14458   */\n      dup2\n        /* \"#utility.yul\":14328:14459   */\n      tag_455\n      jump\t// in\n    tag_629:\n        /* \"#utility.yul\":14320:14459   */\n      swap1\n      pop\n        /* \"#utility.yul\":14047:14466   */\n      swap2\n      swap1\n      pop\n      jump\t// out\n        /* \"#utility.yul\":14472:14663   */\n    tag_205:\n        /* \"#utility.yul\":14512:14515   */\n      0x00\n        /* \"#utility.yul\":14531:14551   */\n      tag_631\n        /* \"#utility.yul\":14549:14550   */\n      dup3\n        /* \"#utility.yul\":14531:14551   */\n      tag_421\n      jump\t// in\n    tag_631:\n        /* \"#utility.yul\":14526:14551   */\n      swap2\n      pop\n        /* \"#utility.yul\":14565:14585   */\n      tag_632\n        /* \"#utility.yul\":14583:14584   */\n      dup4\n        /* \"#utility.yul\":14565:14585   */\n      tag_421\n      jump\t// in\n    tag_632:\n        /* \"#utility.yul\":14560:14585   */\n      swap3\n      pop\n        /* \"#utility.yul\":14608:14609   */\n      dup3\n        /* \"#utility.yul\":14605:14606   */\n      dup3\n        /* \"#utility.yul\":14601:14610   */\n      add\n        /* \"#utility.yul\":14594:14610   */\n      swap1\n      pop\n        /* \"#utility.yul\":14629:14632   */\n      dup1\n        /* \"#utility.yul\":14626:14627   */\n      dup3\n        /* \"#utility.yul\":14623:14633   */\n      gt\n        /* \"#utility.yul\":14620:14656   */\n      iszero\n      tag_633\n      jumpi\n        /* \"#utility.yul\":14636:14654   */\n      tag_634\n      tag_451\n      jump\t// in\n    tag_634:\n        /* \"#utility.yul\":14620:14656   */\n    tag_633:\n        /* \"#utility.yul\":14472:14663   */\n      swap3\n      swap2\n      pop\n      pop\n      jump\t// out\n        /* \"#utility.yul\":14669:15001   */\n    tag_209:\n        /* \"#utility.yul\":14790:14794   */\n      0x00\n        /* \"#utility.yul\":14828:14830   */\n      0x40\n        /* \"#utility.yul\":14817:14826   */\n      dup3\n        /* \"#utility.yul\":14813:14831   */\n      add\n        /* \"#utility.yul\":14805:14831   */\n      swap1\n      pop\n        /* \"#utility.yul\":14841:14912   */\n      tag_636\n        /* \"#utility.yul\":14909:14910   */\n      0x00\n        /* \"#utility.yul\":14898:14907   */\n      dup4\n        /* \"#utility.yul\":14894:14911   */\n      add\n        /* \"#utility.yul\":14885:14891   */\n      dup6\n        /* \"#utility.yul\":14841:14912   */\n      tag_422\n      jump\t// in\n    tag_636:\n        /* \"#utility.yul\":14922:14994   */\n      tag_637\n        /* \"#utility.yul\":14990:14992   */\n      0x20\n        /* \"#utility.yul\":14979:14988   */\n      dup4\n        /* \"#utility.yul\":14975:14993   */\n      add\n        /* \"#utility.yul\":14966:14972   */\n      dup5\n        /* \"#utility.yul\":14922:14994   */\n      tag_422\n      jump\t// in\n    tag_637:\n        /* \"#utility.yul\":14669:15001   */\n      swap4\n      swap3\n      pop\n      pop\n      pop\n      jump\t// out\n        /* \"#utility.yul\":15007:15092   */\n    tag_456:\n        /* \"#utility.yul\":15052:15059   */\n      0x00\n        /* \"#utility.yul\":15081:15086   */\n      dup2\n        /* \"#utility.yul\":15070:15086   */\n      swap1\n      pop\n        /* \"#utility.yul\":15007:15092   */\n      swap2\n      swap1\n      pop\n      jump\t// out\n        /* \"#utility.yul\":15098:15199   */\n    tag_457:\n        /* \"#utility.yul\":15134:15141   */\n      0x00\n        /* \"#utility.yul\":15174:15192   */\n      0xffffffffffffffff\n        /* \"#utility.yul\":15167:15172   */\n      dup3\n        /* \"#utility.yul\":15163:15193   */\n      and\n        /* \"#utility.yul\":15152:15193   */\n      swap1\n      pop\n        /* \"#utility.yul\":15098:15199   */\n      swap2\n      swap1\n      pop\n      jump\t// out\n        /* \"#utility.yul\":15205:15361   */\n    tag_458:\n        /* \"#utility.yul\":15262:15271   */\n      0x00\n        /* \"#utility.yul\":15295:15355   */\n      tag_641\n        /* \"#utility.yul\":15312:15354   */\n      tag_642\n        /* \"#utility.yul\":15321:15353   */\n      tag_643\n        /* \"#utility.yul\":15347:15352   */\n      dup5\n        /* \"#utility.yul\":15321:15353   */\n      tag_456\n      jump\t// in\n    tag_643:\n        /* \"#utility.yul\":15312:15354   */\n      tag_429\n      jump\t// in\n    tag_642:\n        /* \"#utility.yul\":15295:15355   */\n      tag_457\n      jump\t// in\n    tag_641:\n        /* \"#utility.yul\":15282:15355   */\n      swap1\n      pop\n        /* \"#utility.yul\":15205:15361   */\n      swap2\n      swap1\n      pop\n      jump\t// out\n        /* \"#utility.yul\":15367:15512   */\n    tag_459:\n        /* \"#utility.yul\":15461:15505   */\n      tag_645\n        /* \"#utility.yul\":15499:15504   */\n      dup2\n        /* \"#utility.yul\":15461:15505   */\n      tag_458\n      jump\t// in\n    tag_645:\n        /* \"#utility.yul\":15456:15459   */\n      dup3\n        /* \"#utility.yul\":15449:15506   */\n      mstore\n        /* \"#utility.yul\":15367:15512   */\n      pop\n      pop\n      jump\t// out\n        /* \"#utility.yul\":15518:15754   */\n    tag_229:\n        /* \"#utility.yul\":15618:15622   */\n      0x00\n        /* \"#utility.yul\":15656:15658   */\n      0x20\n        /* \"#utility.yul\":15645:15654   */\n      dup3\n        /* \"#utility.yul\":15641:15659   */\n      add\n        /* \"#utility.yul\":15633:15659   */\n      swap1\n      pop\n        /* \"#utility.yul\":15669:15747   */\n      tag_647\n        /* \"#utility.yul\":15744:15745   */\n      0x00\n        /* \"#utility.yul\":15733:15742   */\n      dup4\n        /* \"#utility.yul\":15729:15746   */\n      add\n        /* \"#utility.yul\":15720:15726   */\n      dup5\n        /* \"#utility.yul\":15669:15747   */\n      tag_459\n      jump\t// in\n    tag_647:\n        /* \"#utility.yul\":15518:15754   */\n      swap3\n      swap2\n      pop\n      pop\n      jump\t// out\n        /* \"#utility.yul\":15760:15936   */\n    tag_460:\n        /* \"#utility.yul\":15900:15928   */\n      0x496e73756666696369656e74207374616b656420616d6f756e74000000000000\n        /* \"#utility.yul\":15896:15897   */\n      0x00\n        /* \"#utility.yul\":15888:15894   */\n      dup3\n        /* \"#utility.yul\":15884:15898   */\n      add\n        /* \"#utility.yul\":15877:15929   */\n      mstore\n        /* \"#utility.yul\":15760:15936   */\n      pop\n      jump\t// out\n        /* \"#utility.yul\":15942:16308   */\n    tag_461:\n        /* \"#utility.yul\":16084:16087   */\n      0x00\n        /* \"#utility.yul\":16105:16172   */\n      tag_650\n        /* \"#utility.yul\":16169:16171   */\n      0x1a\n        /* \"#utility.yul\":16164:16167   */\n      dup4\n        /* \"#utility.yul\":16105:16172   */\n      tag_448\n      jump\t// in\n    tag_650:\n        /* \"#utility.yul\":16098:16172   */\n      swap2\n      pop\n        /* \"#utility.yul\":16181:16274   */\n      tag_651\n        /* \"#utility.yul\":16270:16273   */\n      dup3\n        /* \"#utility.yul\":16181:16274   */\n      tag_460\n      jump\t// in\n    tag_651:\n        /* \"#utility.yul\":16299:16301   */\n      0x20\n        /* \"#utility.yul\":16294:16297   */\n      dup3\n        /* \"#utility.yul\":16290:16302   */\n      add\n        /* \"#utility.yul\":16283:16302   */\n      swap1\n      pop\n        /* \"#utility.yul\":15942:16308   */\n      swap2\n      swap1\n      pop\n      jump\t// out\n        /* \"#utility.yul\":16314:16733   */\n    tag_241:\n        /* \"#utility.yul\":16480:16484   */\n      0x00\n        /* \"#utility.yul\":16518:16520   */\n      0x20\n        /* \"#utility.yul\":16507:16516   */\n      dup3\n        /* \"#utility.yul\":16503:16521   */\n      add\n        /* \"#utility.yul\":16495:16521   */\n      swap1\n      pop\n        /* \"#utility.yul\":16567:16576   */\n      dup2\n        /* \"#utility.yul\":16561:16565   */\n      dup2\n        /* \"#utility.yul\":16557:16577   */\n      sub\n        /* \"#utility.yul\":16553:16554   */\n      0x00\n        /* \"#utility.yul\":16542:16551   */\n      dup4\n        /* \"#utility.yul\":16538:16555   */\n      add\n        /* \"#utility.yul\":16531:16578   */\n      mstore\n        /* \"#utility.yul\":16595:16726   */\n      tag_653\n        /* \"#utility.yul\":16721:16725   */\n      dup2\n        /* \"#utility.yul\":16595:16726   */\n      tag_461\n      jump\t// in\n    tag_653:\n        /* \"#utility.yul\":16587:16726   */\n      swap1\n      pop\n        /* \"#utility.yul\":16314:16733   */\n      swap2\n      swap1\n      pop\n      jump\t// out\n        /* \"#utility.yul\":16739:16910   */\n    tag_462:\n        /* \"#utility.yul\":16879:16902   */\n      0x5374616b65206973207374696c6c206c6f636b65640000000000000000000000\n        /* \"#utility.yul\":16875:16876   */\n      0x00\n        /* \"#utility.yul\":16867:16873   */\n      dup3\n        /* \"#utility.yul\":16863:16877   */\n      add\n        /* \"#utility.yul\":16856:16903   */\n      mstore\n        /* \"#utility.yul\":16739:16910   */\n      pop\n      jump\t// out\n        /* \"#utility.yul\":16916:17282   */\n    tag_463:\n        /* \"#utility.yul\":17058:17061   */\n      0x00\n        /* \"#utility.yul\":17079:17146   */\n      tag_656\n        /* \"#utility.yul\":17143:17145   */\n      0x15\n        /* \"#utility.yul\":17138:17141   */\n      dup4\n        /* \"#utility.yul\":17079:17146   */\n      tag_448\n      jump\t// in\n    tag_656:\n        /* \"#utility.yul\":17072:17146   */\n      swap2\n      pop\n        /* \"#utility.yul\":17155:17248   */\n      tag_657\n        /* \"#utility.yul\":17244:17247   */\n      dup3\n        /* \"#utility.yul\":17155:17248   */\n      tag_462\n      jump\t// in\n    tag_657:\n        /* \"#utility.yul\":17273:17275   */\n      0x20\n        /* \"#utility.yul\":17268:17271   */\n      dup3\n        /* \"#utility.yul\":17264:17276   */\n      add\n        /* \"#utility.yul\":17257:17276   */\n      swap1\n      pop\n        /* \"#utility.yul\":16916:17282   */\n      swap2\n      swap1\n      pop\n      jump\t// out\n        /* \"#utility.yul\":17288:17707   */\n    tag_244:\n        /* \"#utility.yul\":17454:17458   */\n      0x00\n        /* \"#utility.yul\":17492:17494   */\n      0x20\n        /* \"#utility.yul\":17481:17490   */\n      dup3\n        /* \"#utility.yul\":17477:17495   */\n      add\n        /* \"#utility.yul\":17469:17495   */\n      swap1\n      pop\n        /* \"#utility.yul\":17541:17550   */\n      dup2\n        /* \"#utility.yul\":17535:17539   */\n      dup2\n        /* \"#utility.yul\":17531:17551   */\n      sub\n        /* \"#utility.yul\":17527:17528   */\n      0x00\n        /* \"#utility.yul\":17516:17525   */\n      dup4\n        /* \"#utility.yul\":17512:17529   */\n      add\n        /* \"#utility.yul\":17505:17552   */\n      mstore\n        /* \"#utility.yul\":17569:17700   */\n      tag_659\n        /* \"#utility.yul\":17695:17699   */\n      dup2\n        /* \"#utility.yul\":17569:17700   */\n      tag_463\n      jump\t// in\n    tag_659:\n        /* \"#utility.yul\":17561:17700   */\n      swap1\n      pop\n        /* \"#utility.yul\":17288:17707   */\n      swap2\n      swap1\n      pop\n      jump\t// out\n        /* \"#utility.yul\":17713:17883   */\n    tag_464:\n        /* \"#utility.yul\":17853:17875   */\n      0x526566657272657220616c726561647920736574000000000000000000000000\n        /* \"#utility.yul\":17849:17850   */\n      0x00\n        /* \"#utility.yul\":17841:17847   */\n      dup3\n        /* \"#utility.yul\":17837:17851   */\n      add\n        /* \"#utility.yul\":17830:17876   */\n      mstore\n        /* \"#utility.yul\":17713:17883   */\n      pop\n      jump\t// out\n        /* \"#utility.yul\":17889:18255   */\n    tag_465:\n        /* \"#utility.yul\":18031:18034   */\n      0x00\n        /* \"#utility.yul\":18052:18119   */\n      tag_662\n        /* \"#utility.yul\":18116:18118   */\n      0x14\n        /* \"#utility.yul\":18111:18114   */\n      dup4\n        /* \"#utility.yul\":18052:18119   */\n      tag_448\n      jump\t// in\n    tag_662:\n        /* \"#utility.yul\":18045:18119   */\n      swap2\n      pop\n        /* \"#utility.yul\":18128:18221   */\n      tag_663\n        /* \"#utility.yul\":18217:18220   */\n      dup3\n        /* \"#utility.yul\":18128:18221   */\n      tag_464\n      jump\t// in\n    tag_663:\n        /* \"#utility.yul\":18246:18248   */\n      0x20\n        /* \"#utility.yul\":18241:18244   */\n      dup3\n        /* \"#utility.yul\":18237:18249   */\n      add\n        /* \"#utility.yul\":18230:18249   */\n      swap1\n      pop\n        /* \"#utility.yul\":17889:18255   */\n      swap2\n      swap1\n      pop\n      jump\t// out\n        /* \"#utility.yul\":18261:18680   */\n    tag_255:\n        /* \"#utility.yul\":18427:18431   */\n      0x00\n        /* \"#utility.yul\":18465:18467   */\n      0x20\n        /* \"#utility.yul\":18454:18463   */\n      dup3\n        /* \"#utility.yul\":18450:18468   */\n      add\n        /* \"#utility.yul\":18442:18468   */\n      swap1\n      pop\n        /* \"#utility.yul\":18514:18523   */\n      dup2\n        /* \"#utility.yul\":18508:18512   */\n      dup2\n        /* \"#utility.yul\":18504:18524   */\n      sub\n        /* \"#utility.yul\":18500:18501   */\n      0x00\n        /* \"#utility.yul\":18489:18498   */\n      dup4\n        /* \"#utility.yul\":18485:18502   */\n      add\n        /* \"#utility.yul\":18478:18525   */\n      mstore\n        /* \"#utility.yul\":18542:18673   */\n      tag_665\n        /* \"#utility.yul\":18668:18672   */\n      dup2\n        /* \"#utility.yul\":18542:18673   */\n      tag_465\n      jump\t// in\n    tag_665:\n        /* \"#utility.yul\":18534:18673   */\n      swap1\n      pop\n        /* \"#utility.yul\":18261:18680   */\n      swap2\n      swap1\n      pop\n      jump\t// out\n        /* \"#utility.yul\":18686:18857   */\n    tag_466:\n        /* \"#utility.yul\":18826:18849   */\n      0x43616e6e6f7420726566657220796f757273656c660000000000000000000000\n        /* \"#utility.yul\":18822:18823   */\n      0x00\n        /* \"#utility.yul\":18814:18820   */\n      dup3\n        /* \"#utility.yul\":18810:18824   */\n      add\n        /* \"#utility.yul\":18803:18850   */\n      mstore\n        /* \"#utility.yul\":18686:18857   */\n      pop\n      jump\t// out\n        /* \"#utility.yul\":18863:19229   */\n    tag_467:\n        /* \"#utility.yul\":19005:19008   */\n      0x00\n        /* \"#utility.yul\":19026:19093   */\n      tag_668\n        /* \"#utility.yul\":19090:19092   */\n      0x15\n        /* \"#utility.yul\":19085:19088   */\n      dup4\n        /* \"#utility.yul\":19026:19093   */\n      tag_448\n      jump\t// in\n    tag_668:\n        /* \"#utility.yul\":19019:19093   */\n      swap2\n      pop\n        /* \"#utility.yul\":19102:19195   */\n      tag_669\n        /* \"#utility.yul\":19191:19194   */\n      dup3\n        /* \"#utility.yul\":19102:19195   */\n      tag_466\n      jump\t// in\n    tag_669:\n        /* \"#utility.yul\":19220:19222   */\n      0x20\n        /* \"#utility.yul\":19215:19218   */\n      dup3\n        /* \"#utility.yul\":19211:19223   */\n      add\n        /* \"#utility.yul\":19204:19223   */\n      swap1\n      pop\n        /* \"#utility.yul\":18863:19229   */\n      swap2\n      swap1\n      pop\n      jump\t// out\n        /* \"#utility.yul\":19235:19654   */\n    tag_258:\n        /* \"#utility.yul\":19401:19405   */\n      0x00\n        /* \"#utility.yul\":19439:19441   */\n      0x20\n        /* \"#utility.yul\":19428:19437   */\n      dup3\n        /* \"#utility.yul\":19424:19442   */\n      add\n        /* \"#utility.yul\":19416:19442   */\n      swap1\n      pop\n        /* \"#utility.yul\":19488:19497   */\n      dup2\n        /* \"#utility.yul\":19482:19486   */\n      dup2\n        /* \"#utility.yul\":19478:19498   */\n      sub\n        /* \"#utility.yul\":19474:19475   */\n      0x00\n        /* \"#utility.yul\":19463:19472   */\n      dup4\n        /* \"#utility.yul\":19459:19476   */\n      add\n        /* \"#utility.yul\":19452:19499   */\n      mstore\n        /* \"#utility.yul\":19516:19647   */\n      tag_671\n        /* \"#utility.yul\":19642:19646   */\n      dup2\n        /* \"#utility.yul\":19516:19647   */\n      tag_467\n      jump\t// in\n    tag_671:\n        /* \"#utility.yul\":19508:19647   */\n      swap1\n      pop\n        /* \"#utility.yul\":19235:19654   */\n      swap2\n      swap1\n      pop\n      jump\t// out\n        /* \"#utility.yul\":19660:20213   */\n    tag_278:\n        /* \"#utility.yul\":19837:19841   */\n      0x00\n        /* \"#utility.yul\":19875:19878   */\n      0x80\n        /* \"#utility.yul\":19864:19873   */\n      dup3\n        /* \"#utility.yul\":19860:19879   */\n      add\n        /* \"#utility.yul\":19852:19879   */\n      swap1\n      pop\n        /* \"#utility.yul\":19889:19960   */\n      tag_673\n        /* \"#utility.yul\":19957:19958   */\n      0x00\n        /* \"#utility.yul\":19946:19955   */\n      dup4\n        /* \"#utility.yul\":19942:19959   */\n      add\n        /* \"#utility.yul\":19933:19939   */\n      dup8\n        /* \"#utility.yul\":19889:19960   */\n      tag_437\n      jump\t// in\n    tag_673:\n        /* \"#utility.yul\":19970:20042   */\n      tag_674\n        /* \"#utility.yul\":20038:20040   */\n      0x20\n        /* \"#utility.yul\":20027:20036   */\n      dup4\n        /* \"#utility.yul\":20023:20041   */\n      add\n        /* \"#utility.yul\":20014:20020   */\n      dup7\n        /* \"#utility.yul\":19970:20042   */\n      tag_437\n      jump\t// in\n    tag_674:\n        /* \"#utility.yul\":20052:20124   */\n      tag_675\n        /* \"#utility.yul\":20120:20122   */\n      0x40\n        /* \"#utility.yul\":20109:20118   */\n      dup4\n        /* \"#utility.yul\":20105:20123   */\n      add\n        /* \"#utility.yul\":20096:20102   */\n      dup6\n        /* \"#utility.yul\":20052:20124   */\n      tag_422\n      jump\t// in\n    tag_675:\n        /* \"#utility.yul\":20134:20206   */\n      tag_676\n        /* \"#utility.yul\":20202:20204   */\n      0x60\n        /* \"#utility.yul\":20191:20200   */\n      dup4\n        /* \"#utility.yul\":20187:20205   */\n      add\n        /* \"#utility.yul\":20178:20184   */\n      dup5\n        /* \"#utility.yul\":20134:20206   */\n      tag_422\n      jump\t// in\n    tag_676:\n        /* \"#utility.yul\":19660:20213   */\n      swap6\n      swap5\n      pop\n      pop\n      pop\n      pop\n      pop\n      jump\t// out\n        /* \"#utility.yul\":20219:20400   */\n    tag_468:\n        /* \"#utility.yul\":20359:20392   */\n      0x5265656e7472616e637947756172643a207265656e7472616e742063616c6c00\n        /* \"#utility.yul\":20355:20356   */\n      0x00\n        /* \"#utility.yul\":20347:20353   */\n      dup3\n        /* \"#utility.yul\":20343:20357   */\n      add\n        /* \"#utility.yul\":20336:20393   */\n      mstore\n        /* \"#utility.yul\":20219:20400   */\n      pop\n      jump\t// out\n        /* \"#utility.yul\":20406:20772   */\n    tag_469:\n        /* \"#utility.yul\":20548:20551   */\n      0x00\n        /* \"#utility.yul\":20569:20636   */\n      tag_679\n        /* \"#utility.yul\":20633:20635   */\n      0x1f\n        /* \"#utility.yul\":20628:20631   */\n      dup4\n        /* \"#utility.yul\":20569:20636   */\n      tag_448\n      jump\t// in\n    tag_679:\n        /* \"#utility.yul\":20562:20636   */\n      swap2\n      pop\n        /* \"#utility.yul\":20645:20738   */\n      tag_680\n        /* \"#utility.yul\":20734:20737   */\n      dup3\n        /* \"#utility.yul\":20645:20738   */\n      tag_468\n      jump\t// in\n    tag_680:\n        /* \"#utility.yul\":20763:20765   */\n      0x20\n        /* \"#utility.yul\":20758:20761   */\n      dup3\n        /* \"#utility.yul\":20754:20766   */\n      add\n        /* \"#utility.yul\":20747:20766   */\n      swap1\n      pop\n        /* \"#utility.yul\":20406:20772   */\n      swap2\n      swap1\n      pop\n      jump\t// out\n        /* \"#utility.yul\":20778:21197   */\n    tag_299:\n        /* \"#utility.yul\":20944:20948   */\n      0x00\n        /* \"#utility.yul\":20982:20984   */\n      0x20\n        /* \"#utility.yul\":20971:20980   */\n      dup3\n        /* \"#utility.yul\":20967:20985   */\n      add\n        /* \"#utility.yul\":20959:20985   */\n      swap1\n      pop\n        /* \"#utility.yul\":21031:21040   */\n      dup2\n        /* \"#utility.yul\":21025:21029   */\n      dup2\n        /* \"#utility.yul\":21021:21041   */\n      sub\n        /* \"#utility.yul\":21017:21018   */\n      0x00\n        /* \"#utility.yul\":21006:21015   */\n      dup4\n        /* \"#utility.yul\":21002:21019   */\n      add\n        /* \"#utility.yul\":20995:21042   */\n      mstore\n        /* \"#utility.yul\":21059:21190   */\n      tag_682\n        /* \"#utility.yul\":21185:21189   */\n      dup2\n        /* \"#utility.yul\":21059:21190   */\n      tag_469\n      jump\t// in\n    tag_682:\n        /* \"#utility.yul\":21051:21190   */\n      swap1\n      pop\n        /* \"#utility.yul\":20778:21197   */\n      swap2\n      swap1\n      pop\n      jump\t// out\n        /* \"#utility.yul\":21203:21535   */\n    tag_303:\n        /* \"#utility.yul\":21324:21328   */\n      0x00\n        /* \"#utility.yul\":21362:21364   */\n      0x40\n        /* \"#utility.yul\":21351:21360   */\n      dup3\n        /* \"#utility.yul\":21347:21365   */\n      add\n        /* \"#utility.yul\":21339:21365   */\n      swap1\n      pop\n        /* \"#utility.yul\":21375:21446   */\n      tag_684\n        /* \"#utility.yul\":21443:21444   */\n      0x00\n        /* \"#utility.yul\":21432:21441   */\n      dup4\n        /* \"#utility.yul\":21428:21445   */\n      add\n        /* \"#utility.yul\":21419:21425   */\n      dup6\n        /* \"#utility.yul\":21375:21446   */\n      tag_437\n      jump\t// in\n    tag_684:\n        /* \"#utility.yul\":21456:21528   */\n      tag_685\n        /* \"#utility.yul\":21524:21526   */\n      0x20\n        /* \"#utility.yul\":21513:21522   */\n      dup4\n        /* \"#utility.yul\":21509:21527   */\n      add\n        /* \"#utility.yul\":21500:21506   */\n      dup5\n        /* \"#utility.yul\":21456:21528   */\n      tag_422\n      jump\t// in\n    tag_685:\n        /* \"#utility.yul\":21203:21535   */\n      swap4\n      swap3\n      pop\n      pop\n      pop\n      jump\t// out\n        /* \"#utility.yul\":21541:21951   */\n    tag_315:\n        /* \"#utility.yul\":21581:21588   */\n      0x00\n        /* \"#utility.yul\":21604:21624   */\n      tag_687\n        /* \"#utility.yul\":21622:21623   */\n      dup3\n        /* \"#utility.yul\":21604:21624   */\n      tag_421\n      jump\t// in\n    tag_687:\n        /* \"#utility.yul\":21599:21624   */\n      swap2\n      pop\n        /* \"#utility.yul\":21638:21658   */\n      tag_688\n        /* \"#utility.yul\":21656:21657   */\n      dup4\n        /* \"#utility.yul\":21638:21658   */\n      tag_421\n      jump\t// in\n    tag_688:\n        /* \"#utility.yul\":21633:21658   */\n      swap3\n      pop\n        /* \"#utility.yul\":21693:21694   */\n      dup3\n        /* \"#utility.yul\":21690:21691   */\n      dup3\n        /* \"#utility.yul\":21686:21695   */\n      mul\n        /* \"#utility.yul\":21715:21745   */\n      tag_689\n        /* \"#utility.yul\":21733:21744   */\n      dup2\n        /* \"#utility.yul\":21715:21745   */\n      tag_421\n      jump\t// in\n    tag_689:\n        /* \"#utility.yul\":21704:21745   */\n      swap2\n      pop\n        /* \"#utility.yul\":21894:21895   */\n      dup3\n        /* \"#utility.yul\":21885:21892   */\n      dup3\n        /* \"#utility.yul\":21881:21896   */\n      div\n        /* \"#utility.yul\":21878:21879   */\n      dup5\n        /* \"#utility.yul\":21875:21897   */\n      eq\n        /* \"#utility.yul\":21855:21856   */\n      dup4\n        /* \"#utility.yul\":21848:21857   */\n      iszero\n        /* \"#utility.yul\":21828:21911   */\n      or\n        /* \"#utility.yul\":21805:21944   */\n      tag_690\n      jumpi\n        /* \"#utility.yul\":21924:21942   */\n      tag_691\n      tag_451\n      jump\t// in\n    tag_691:\n        /* \"#utility.yul\":21805:21944   */\n    tag_690:\n        /* \"#utility.yul\":21589:21951   */\n      pop\n        /* \"#utility.yul\":21541:21951   */\n      swap3\n      swap2\n      pop\n      pop\n      jump\t// out\n        /* \"#utility.yul\":21957:22137   */\n    tag_470:\n        /* \"#utility.yul\":22005:22082   */\n      0x4e487b7100000000000000000000000000000000000000000000000000000000\n        /* \"#utility.yul\":22002:22003   */\n      0x00\n        /* \"#utility.yul\":21995:22083   */\n      mstore\n        /* \"#utility.yul\":22102:22106   */\n      0x12\n        /* \"#utility.yul\":22099:22100   */\n      0x04\n        /* \"#utility.yul\":22092:22107   */\n      mstore\n        /* \"#utility.yul\":22126:22130   */\n      0x24\n        /* \"#utility.yul\":22123:22124   */\n      0x00\n        /* \"#utility.yul\":22116:22131   */\n      revert\n        /* \"#utility.yul\":22143:22328   */\n    tag_318:\n        /* \"#utility.yul\":22183:22184   */\n      0x00\n        /* \"#utility.yul\":22200:22220   */\n      tag_694\n        /* \"#utility.yul\":22218:22219   */\n      dup3\n        /* \"#utility.yul\":22200:22220   */\n      tag_421\n      jump\t// in\n    tag_694:\n        /* \"#utility.yul\":22195:22220   */\n      swap2\n      pop\n        /* \"#utility.yul\":22234:22254   */\n      tag_695\n        /* \"#utility.yul\":22252:22253   */\n      dup4\n        /* \"#utility.yul\":22234:22254   */\n      tag_421\n      jump\t// in\n    tag_695:\n        /* \"#utility.yul\":22229:22254   */\n      swap3\n      pop\n        /* \"#utility.yul\":22273:22274   */\n      dup3\n        /* \"#utility.yul\":22263:22298   */\n      tag_696\n      jumpi\n        /* \"#utility.yul\":22278:22296   */\n      tag_697\n      tag_470\n      jump\t// in\n    tag_697:\n        /* \"#utility.yul\":22263:22298   */\n    tag_696:\n        /* \"#utility.yul\":22320:22321   */\n      dup3\n        /* \"#utility.yul\":22317:22318   */\n      dup3\n        /* \"#utility.yul\":22313:22322   */\n      div\n        /* \"#utility.yul\":22308:22322   */\n      swap1\n      pop\n        /* \"#utility.yul\":22143:22328   */\n      swap3\n      swap2\n      pop\n      pop\n      jump\t// out\n        /* \"#utility.yul\":22334:22477   */\n    tag_471:\n        /* \"#utility.yul\":22391:22396   */\n      0x00\n        /* \"#utility.yul\":22422:22428   */\n      dup2\n        /* \"#utility.yul\":22416:22429   */\n      mload\n        /* \"#utility.yul\":22407:22429   */\n      swap1\n      pop\n        /* \"#utility.yul\":22438:22471   */\n      tag_699\n        /* \"#utility.yul\":22465:22470   */\n      dup2\n        /* \"#utility.yul\":22438:22471   */\n      tag_426\n      jump\t// in\n    tag_699:\n        /* \"#utility.yul\":22334:22477   */\n      swap3\n      swap2\n      pop\n      pop\n      jump\t// out\n        /* \"#utility.yul\":22483:22834   */\n    tag_339:\n        /* \"#utility.yul\":22553:22559   */\n      0x00\n        /* \"#utility.yul\":22602:22604   */\n      0x20\n        /* \"#utility.yul\":22590:22599   */\n      dup3\n        /* \"#utility.yul\":22581:22588   */\n      dup5\n        /* \"#utility.yul\":22577:22600   */\n      sub\n        /* \"#utility.yul\":22573:22605   */\n      slt\n        /* \"#utility.yul\":22570:22689   */\n      iszero\n      tag_701\n      jumpi\n        /* \"#utility.yul\":22608:22687   */\n      tag_702\n      tag_424\n      jump\t// in\n    tag_702:\n        /* \"#utility.yul\":22570:22689   */\n    tag_701:\n        /* \"#utility.yul\":22728:22729   */\n      0x00\n        /* \"#utility.yul\":22753:22817   */\n      tag_703\n        /* \"#utility.yul\":22809:22816   */\n      dup5\n        /* \"#utility.yul\":22800:22806   */\n      dup3\n        /* \"#utility.yul\":22789:22798   */\n      dup6\n        /* \"#utility.yul\":22785:22807   */\n      add\n        /* \"#utility.yul\":22753:22817   */\n      tag_471\n      jump\t// in\n    tag_703:\n        /* \"#utility.yul\":22743:22817   */\n      swap2\n      pop\n        /* \"#utility.yul\":22699:22827   */\n      pop\n        /* \"#utility.yul\":22483:22834   */\n      swap3\n      swap2\n      pop\n      pop\n      jump\t// out\n        /* \"#utility.yul\":22840:23282   */\n    tag_347:\n        /* \"#utility.yul\":22989:22993   */\n      0x00\n        /* \"#utility.yul\":23027:23029   */\n      0x60\n        /* \"#utility.yul\":23016:23025   */\n      dup3\n        /* \"#utility.yul\":23012:23030   */\n      add\n        /* \"#utility.yul\":23004:23030   */\n      swap1\n      pop\n        /* \"#utility.yul\":23040:23111   */\n      tag_705\n        /* \"#utility.yul\":23108:23109   */\n      0x00\n        /* \"#utility.yul\":23097:23106   */\n      dup4\n        /* \"#utility.yul\":23093:23110   */\n      add\n        /* \"#utility.yul\":23084:23090   */\n      dup7\n        /* \"#utility.yul\":23040:23111   */\n      tag_437\n      jump\t// in\n    tag_705:\n        /* \"#utility.yul\":23121:23193   */\n      tag_706\n        /* \"#utility.yul\":23189:23191   */\n      0x20\n        /* \"#utility.yul\":23178:23187   */\n      dup4\n        /* \"#utility.yul\":23174:23192   */\n      add\n        /* \"#utility.yul\":23165:23171   */\n      dup6\n        /* \"#utility.yul\":23121:23193   */\n      tag_437\n      jump\t// in\n    tag_706:\n        /* \"#utility.yul\":23203:23275   */\n      tag_707\n        /* \"#utility.yul\":23271:23273   */\n      0x40\n        /* \"#utility.yul\":23260:23269   */\n      dup4\n        /* \"#utility.yul\":23256:23274   */\n      add\n        /* \"#utility.yul\":23247:23253   */\n      dup5\n        /* \"#utility.yul\":23203:23275   */\n      tag_422\n      jump\t// in\n    tag_707:\n        /* \"#utility.yul\":22840:23282   */\n      swap5\n      swap4\n      pop\n      pop\n      pop\n      pop\n      jump\t// out\n        /* \"#utility.yul\":23288:23404   */\n    tag_472:\n        /* \"#utility.yul\":23358:23379   */\n      tag_709\n        /* \"#utility.yul\":23373:23378   */\n      dup2\n        /* \"#utility.yul\":23358:23379   */\n      tag_438\n      jump\t// in\n    tag_709:\n        /* \"#utility.yul\":23351:23356   */\n      dup2\n        /* \"#utility.yul\":23348:23380   */\n      eq\n        /* \"#utility.yul\":23338:23398   */\n      tag_710\n      jumpi\n        /* \"#utility.yul\":23394:23395   */\n      0x00\n        /* \"#utility.yul\":23391:23392   */\n      dup1\n        /* \"#utility.yul\":23384:23396   */\n      revert\n        /* \"#utility.yul\":23338:23398   */\n    tag_710:\n        /* \"#utility.yul\":23288:23404   */\n      pop\n      jump\t// out\n        /* \"#utility.yul\":23410:23547   */\n    tag_473:\n        /* \"#utility.yul\":23464:23469   */\n      0x00\n        /* \"#utility.yul\":23495:23501   */\n      dup2\n        /* \"#utility.yul\":23489:23502   */\n      mload\n        /* \"#utility.yul\":23480:23502   */\n      swap1\n      pop\n        /* \"#utility.yul\":23511:23541   */\n      tag_712\n        /* \"#utility.yul\":23535:23540   */\n      dup2\n        /* \"#utility.yul\":23511:23541   */\n      tag_472\n      jump\t// in\n    tag_712:\n        /* \"#utility.yul\":23410:23547   */\n      swap3\n      swap2\n      pop\n      pop\n      jump\t// out\n        /* \"#utility.yul\":23553:23898   */\n    tag_367:\n        /* \"#utility.yul\":23620:23626   */\n      0x00\n        /* \"#utility.yul\":23669:23671   */\n      0x20\n        /* \"#utility.yul\":23657:23666   */\n      dup3\n        /* \"#utility.yul\":23648:23655   */\n      dup5\n        /* \"#utility.yul\":23644:23667   */\n      sub\n        /* \"#utility.yul\":23640:23672   */\n      slt\n        /* \"#utility.yul\":23637:23756   */\n      iszero\n      tag_714\n      jumpi\n        /* \"#utility.yul\":23675:23754   */\n      tag_715\n      tag_424\n      jump\t// in\n    tag_715:\n        /* \"#utility.yul\":23637:23756   */\n    tag_714:\n        /* \"#utility.yul\":23795:23796   */\n      0x00\n        /* \"#utility.yul\":23820:23881   */\n      tag_716\n        /* \"#utility.yul\":23873:23880   */\n      dup5\n        /* \"#utility.yul\":23864:23870   */\n      dup3\n        /* \"#utility.yul\":23853:23862   */\n      dup6\n        /* \"#utility.yul\":23849:23871   */\n      add\n        /* \"#utility.yul\":23820:23881   */\n      tag_473\n      jump\t// in\n    tag_716:\n        /* \"#utility.yul\":23810:23881   */\n      swap2\n      pop\n        /* \"#utility.yul\":23766:23891   */\n      pop\n        /* \"#utility.yul\":23553:23898   */\n      swap3\n      swap2\n      pop\n      pop\n      jump\t// out\n        /* \"#utility.yul\":23904:24133   */\n    tag_474:\n        /* \"#utility.yul\":24044:24078   */\n      0x5361666545524332303a204552433230206f7065726174696f6e20646964206e\n        /* \"#utility.yul\":24040:24041   */\n      0x00\n        /* \"#utility.yul\":24032:24038   */\n      dup3\n        /* \"#utility.yul\":24028:24042   */\n      add\n        /* \"#utility.yul\":24021:24079   */\n      mstore\n        /* \"#utility.yul\":24113:24125   */\n      0x6f74207375636365656400000000000000000000000000000000000000000000\n        /* \"#utility.yul\":24108:24110   */\n      0x20\n        /* \"#utility.yul\":24100:24106   */\n      dup3\n        /* \"#utility.yul\":24096:24111   */\n      add\n        /* \"#utility.yul\":24089:24126   */\n      mstore\n        /* \"#utility.yul\":23904:24133   */\n      pop\n      jump\t// out\n        /* \"#utility.yul\":24139:24505   */\n    tag_475:\n        /* \"#utility.yul\":24281:24284   */\n      0x00\n        /* \"#utility.yul\":24302:24369   */\n      tag_719\n        /* \"#utility.yul\":24366:24368   */\n      0x2a\n        /* \"#utility.yul\":24361:24364   */\n      dup4\n        /* \"#utility.yul\":24302:24369   */\n      tag_448\n      jump\t// in\n    tag_719:\n        /* \"#utility.yul\":24295:24369   */\n      swap2\n      pop\n        /* \"#utility.yul\":24378:24471   */\n      tag_720\n        /* \"#utility.yul\":24467:24470   */\n      dup3\n        /* \"#utility.yul\":24378:24471   */\n      tag_474\n      jump\t// in\n    tag_720:\n        /* \"#utility.yul\":24496:24498   */\n      0x40\n        /* \"#utility.yul\":24491:24494   */\n      dup3\n        /* \"#utility.yul\":24487:24499   */\n      add\n        /* \"#utility.yul\":24480:24499   */\n      swap1\n      pop\n        /* \"#utility.yul\":24139:24505   */\n      swap2\n      swap1\n      pop\n      jump\t// out\n        /* \"#utility.yul\":24511:24930   */\n    tag_370:\n        /* \"#utility.yul\":24677:24681   */\n      0x00\n        /* \"#utility.yul\":24715:24717   */\n      0x20\n        /* \"#utility.yul\":24704:24713   */\n      dup3\n        /* \"#utility.yul\":24700:24718   */\n      add\n        /* \"#utility.yul\":24692:24718   */\n      swap1\n      pop\n        /* \"#utility.yul\":24764:24773   */\n      dup2\n        /* \"#utility.yul\":24758:24762   */\n      dup2\n        /* \"#utility.yul\":24754:24774   */\n      sub\n        /* \"#utility.yul\":24750:24751   */\n      0x00\n        /* \"#utility.yul\":24739:24748   */\n      dup4\n        /* \"#utility.yul\":24735:24752   */\n      add\n        /* \"#utility.yul\":24728:24775   */\n      mstore\n        /* \"#utility.yul\":24792:24923   */\n      tag_722\n        /* \"#utility.yul\":24918:24922   */\n      dup2\n        /* \"#utility.yul\":24792:24923   */\n      tag_475\n      jump\t// in\n    tag_722:\n        /* \"#utility.yul\":24784:24923   */\n      swap1\n      pop\n        /* \"#utility.yul\":24511:24930   */\n      swap2\n      swap1\n      pop\n      jump\t// out\n        /* \"#utility.yul\":24936:25161   */\n    tag_476:\n        /* \"#utility.yul\":25076:25110   */\n      0x416464726573733a20696e73756666696369656e742062616c616e636520666f\n        /* \"#utility.yul\":25072:25073   */\n      0x00\n        /* \"#utility.yul\":25064:25070   */\n      dup3\n        /* \"#utility.yul\":25060:25074   */\n      add\n        /* \"#utility.yul\":25053:25111   */\n      mstore\n        /* \"#utility.yul\":25145:25153   */\n      0x722063616c6c0000000000000000000000000000000000000000000000000000\n        /* \"#utility.yul\":25140:25142   */\n      0x20\n        /* \"#utility.yul\":25132:25138   */\n      dup3\n        /* \"#utility.yul\":25128:25143   */\n      add\n        /* \"#utility.yul\":25121:25154   */\n      mstore\n        /* \"#utility.yul\":24936:25161   */\n      pop\n      jump\t// out\n        /* \"#utility.yul\":25167:25533   */\n    tag_477:\n        /* \"#utility.yul\":25309:25312   */\n      0x00\n        /* \"#utility.yul\":25330:25397   */\n      tag_725\n        /* \"#utility.yul\":25394:25396   */\n      0x26\n        /* \"#utility.yul\":25389:25392   */\n      dup4\n        /* \"#utility.yul\":25330:25397   */\n      tag_448\n      jump\t// in\n    tag_725:\n        /* \"#utility.yul\":25323:25397   */\n      swap2\n      pop\n        /* \"#utility.yul\":25406:25499   */\n      tag_726\n        /* \"#utility.yul\":25495:25498   */\n      dup3\n        /* \"#utility.yul\":25406:25499   */\n      tag_476\n      jump\t// in\n    tag_726:\n        /* \"#utility.yul\":25524:25526   */\n      0x40\n        /* \"#utility.yul\":25519:25522   */\n      dup3\n        /* \"#utility.yul\":25515:25527   */\n      add\n        /* \"#utility.yul\":25508:25527   */\n      swap1\n      pop\n        /* \"#utility.yul\":25167:25533   */\n      swap2\n      swap1\n      pop\n      jump\t// out\n        /* \"#utility.yul\":25539:25958   */\n    tag_396:\n        /* \"#utility.yul\":25705:25709   */\n      0x00\n        /* \"#utility.yul\":25743:25745   */\n      0x20\n        /* \"#utility.yul\":25732:25741   */\n      dup3\n        /* \"#utility.yul\":25728:25746   */\n      add\n        /* \"#utility.yul\":25720:25746   */\n      swap1\n      pop\n        /* \"#utility.yul\":25792:25801   */\n      dup2\n        /* \"#utility.yul\":25786:25790   */\n      dup2\n        /* \"#utility.yul\":25782:25802   */\n      sub\n        /* \"#utility.yul\":25778:25779   */\n      0x00\n        /* \"#utility.yul\":25767:25776   */\n      dup4\n        /* \"#utility.yul\":25763:25780   */\n      add\n        /* \"#utility.yul\":25756:25803   */\n      mstore\n        /* \"#utility.yul\":25820:25951   */\n      tag_728\n        /* \"#utility.yul\":25946:25950   */\n      dup2\n        /* \"#utility.yul\":25820:25951   */\n      tag_477\n      jump\t// in\n    tag_728:\n        /* \"#utility.yul\":25812:25951   */\n      swap1\n      pop\n        /* \"#utility.yul\":25539:25958   */\n      swap2\n      swap1\n      pop\n      jump\t// out\n        /* \"#utility.yul\":25964:26062   */\n    tag_478:\n        /* \"#utility.yul\":26015:26021   */\n      0x00\n        /* \"#utility.yul\":26049:26054   */\n      dup2\n        /* \"#utility.yul\":26043:26055   */\n      mload\n        /* \"#utility.yul\":26033:26055   */\n      swap1\n      pop\n        /* \"#utility.yul\":25964:26062   */\n      swap2\n      swap1\n      pop\n      jump\t// out\n        /* \"#utility.yul\":26068:26215   */\n    tag_479:\n        /* \"#utility.yul\":26169:26180   */\n      0x00\n        /* \"#utility.yul\":26206:26209   */\n      dup2\n        /* \"#utility.yul\":26191:26209   */\n      swap1\n      pop\n        /* \"#utility.yul\":26068:26215   */\n      swap3\n      swap2\n      pop\n      pop\n      jump\t// out\n        /* \"#utility.yul\":26221:26360   */\n    tag_480:\n        /* \"#utility.yul\":26310:26316   */\n      dup3\n        /* \"#utility.yul\":26305:26308   */\n      dup2\n        /* \"#utility.yul\":26300:26303   */\n      dup4\n        /* \"#utility.yul\":26294:26317   */\n      mcopy\n        /* \"#utility.yul\":26351:26352   */\n      0x00\n        /* \"#utility.yul\":26342:26348   */\n      dup4\n        /* \"#utility.yul\":26337:26340   */\n      dup4\n        /* \"#utility.yul\":26333:26349   */\n      add\n        /* \"#utility.yul\":26326:26353   */\n      mstore\n        /* \"#utility.yul\":26221:26360   */\n      pop\n      pop\n      pop\n      jump\t// out\n        /* \"#utility.yul\":26366:26752   */\n    tag_481:\n        /* \"#utility.yul\":26470:26473   */\n      0x00\n        /* \"#utility.yul\":26498:26536   */\n      tag_733\n        /* \"#utility.yul\":26530:26535   */\n      dup3\n        /* \"#utility.yul\":26498:26536   */\n      tag_478\n      jump\t// in\n    tag_733:\n        /* \"#utility.yul\":26552:26640   */\n      tag_734\n        /* \"#utility.yul\":26633:26639   */\n      dup2\n        /* \"#utility.yul\":26628:26631   */\n      dup6\n        /* \"#utility.yul\":26552:26640   */\n      tag_479\n      jump\t// in\n    tag_734:\n        /* \"#utility.yul\":26545:26640   */\n      swap4\n      pop\n        /* \"#utility.yul\":26649:26714   */\n      tag_735\n        /* \"#utility.yul\":26707:26713   */\n      dup2\n        /* \"#utility.yul\":26702:26705   */\n      dup6\n        /* \"#utility.yul\":26695:26699   */\n      0x20\n        /* \"#utility.yul\":26688:26693   */\n      dup7\n        /* \"#utility.yul\":26684:26700   */\n      add\n        /* \"#utility.yul\":26649:26714   */\n      tag_480\n      jump\t// in\n    tag_735:\n        /* \"#utility.yul\":26739:26745   */\n      dup1\n        /* \"#utility.yul\":26734:26737   */\n      dup5\n        /* \"#utility.yul\":26730:26746   */\n      add\n        /* \"#utility.yul\":26723:26746   */\n      swap2\n      pop\n        /* \"#utility.yul\":26474:26752   */\n      pop\n        /* \"#utility.yul\":26366:26752   */\n      swap3\n      swap2\n      pop\n      pop\n      jump\t// out\n        /* \"#utility.yul\":26758:27029   */\n    tag_398:\n        /* \"#utility.yul\":26888:26891   */\n      0x00\n        /* \"#utility.yul\":26910:27003   */\n      tag_737\n        /* \"#utility.yul\":26999:27002   */\n      dup3\n        /* \"#utility.yul\":26990:26996   */\n      dup5\n        /* \"#utility.yul\":26910:27003   */\n      tag_481\n      jump\t// in\n    tag_737:\n        /* \"#utility.yul\":26903:27003   */\n      swap2\n      pop\n        /* \"#utility.yul\":27020:27023   */\n      dup2\n        /* \"#utility.yul\":27013:27023   */\n      swap1\n      pop\n        /* \"#utility.yul\":26758:27029   */\n      swap3\n      swap2\n      pop\n      pop\n      jump\t// out\n        /* \"#utility.yul\":27035:27214   */\n    tag_482:\n        /* \"#utility.yul\":27175:27206   */\n      0x416464726573733a2063616c6c20746f206e6f6e2d636f6e7472616374000000\n        /* \"#utility.yul\":27171:27172   */\n      0x00\n        /* \"#utility.yul\":27163:27169   */\n      dup3\n        /* \"#utility.yul\":27159:27173   */\n      add\n        /* \"#utility.yul\":27152:27207   */\n      mstore\n        /* \"#utility.yul\":27035:27214   */\n      pop\n      jump\t// out\n        /* \"#utility.yul\":27220:27586   */\n    tag_483:\n        /* \"#utility.yul\":27362:27365   */\n      0x00\n        /* \"#utility.yul\":27383:27450   */\n      tag_740\n        /* \"#utility.yul\":27447:27449   */\n      0x1d\n        /* \"#utility.yul\":27442:27445   */\n      dup4\n        /* \"#utility.yul\":27383:27450   */\n      tag_448\n      jump\t// in\n    tag_740:\n        /* \"#utility.yul\":27376:27450   */\n      swap2\n      pop\n        /* \"#utility.yul\":27459:27552   */\n      tag_741\n        /* \"#utility.yul\":27548:27551   */\n      dup3\n        /* \"#utility.yul\":27459:27552   */\n      tag_482\n      jump\t// in\n    tag_741:\n        /* \"#utility.yul\":27577:27579   */\n      0x20\n        /* \"#utility.yul\":27572:27575   */\n      dup3\n        /* \"#utility.yul\":27568:27580   */\n      add\n        /* \"#utility.yul\":27561:27580   */\n      swap1\n      pop\n        /* \"#utility.yul\":27220:27586   */\n      swap2\n      swap1\n      pop\n      jump\t// out\n        /* \"#utility.yul\":27592:28011   */\n    tag_411:\n        /* \"#utility.yul\":27758:27762   */\n      0x00\n        /* \"#utility.yul\":27796:27798   */\n      0x20\n        /* \"#utility.yul\":27785:27794   */\n      dup3\n        /* \"#utility.yul\":27781:27799   */\n      add\n        /* \"#utility.yul\":27773:27799   */\n      swap1\n      pop\n        /* \"#utility.yul\":27845:27854   */\n      dup2\n        /* \"#utility.yul\":27839:27843   */\n      dup2\n        /* \"#utility.yul\":27835:27855   */\n      sub\n        /* \"#utility.yul\":27831:27832   */\n      0x00\n        /* \"#utility.yul\":27820:27829   */\n      dup4\n        /* \"#utility.yul\":27816:27833   */\n      add\n        /* \"#utility.yul\":27809:27856   */\n      mstore\n        /* \"#utility.yul\":27873:28004   */\n      tag_743\n        /* \"#utility.yul\":27999:28003   */\n      dup2\n        /* \"#utility.yul\":27873:28004   */\n      tag_483\n      jump\t// in\n    tag_743:\n        /* \"#utility.yul\":27865:28004   */\n      swap1\n      pop\n        /* \"#utility.yul\":27592:28011   */\n      swap2\n      swap1\n      pop\n      jump\t// out\n        /* \"#utility.yul\":28017:28116   */\n    tag_484:\n        /* \"#utility.yul\":28069:28075   */\n      0x00\n        /* \"#utility.yul\":28103:28108   */\n      dup2\n        /* \"#utility.yul\":28097:28109   */\n      mload\n        /* \"#utility.yul\":28087:28109   */\n      swap1\n      pop\n        /* \"#utility.yul\":28017:28116   */\n      swap2\n      swap1\n      pop\n      jump\t// out\n        /* \"#utility.yul\":28122:28224   */\n    tag_485:\n        /* \"#utility.yul\":28163:28169   */\n      0x00\n        /* \"#utility.yul\":28214:28216   */\n      0x1f\n        /* \"#utility.yul\":28210:28217   */\n      not\n        /* \"#utility.yul\":28205:28207   */\n      0x1f\n        /* \"#utility.yul\":28198:28203   */\n      dup4\n        /* \"#utility.yul\":28194:28208   */\n      add\n        /* \"#utility.yul\":28190:28218   */\n      and\n        /* \"#utility.yul\":28180:28218   */\n      swap1\n      pop\n        /* \"#utility.yul\":28122:28224   */\n      swap2\n      swap1\n      pop\n      jump\t// out\n        /* \"#utility.yul\":28230:28607   */\n    tag_486:\n        /* \"#utility.yul\":28318:28321   */\n      0x00\n        /* \"#utility.yul\":28346:28385   */\n      tag_747\n        /* \"#utility.yul\":28379:28384   */\n      dup3\n        /* \"#utility.yul\":28346:28385   */\n      tag_484\n      jump\t// in\n    tag_747:\n        /* \"#utility.yul\":28401:28472   */\n      tag_748\n        /* \"#utility.yul\":28465:28471   */\n      dup2\n        /* \"#utility.yul\":28460:28463   */\n      dup6\n        /* \"#utility.yul\":28401:28472   */\n      tag_448\n      jump\t// in\n    tag_748:\n        /* \"#utility.yul\":28394:28472   */\n      swap4\n      pop\n        /* \"#utility.yul\":28481:28546   */\n      tag_749\n        /* \"#utility.yul\":28539:28545   */\n      dup2\n        /* \"#utility.yul\":28534:28537   */\n      dup6\n        /* \"#utility.yul\":28527:28531   */\n      0x20\n        /* \"#utility.yul\":28520:28525   */\n      dup7\n        /* \"#utility.yul\":28516:28532   */\n      add\n        /* \"#utility.yul\":28481:28546   */\n      tag_480\n      jump\t// in\n    tag_749:\n        /* \"#utility.yul\":28571:28600   */\n      tag_750\n        /* \"#utility.yul\":28593:28599   */\n      dup2\n        /* \"#utility.yul\":28571:28600   */\n      tag_485\n      jump\t// in\n    tag_750:\n        /* \"#utility.yul\":28566:28569   */\n      dup5\n        /* \"#utility.yul\":28562:28601   */\n      add\n        /* \"#utility.yul\":28555:28601   */\n      swap2\n      pop\n        /* \"#utility.yul\":28322:28607   */\n      pop\n        /* \"#utility.yul\":28230:28607   */\n      swap3\n      swap2\n      pop\n      pop\n      jump\t// out\n        /* \"#utility.yul\":28613:28926   */\n    tag_420:\n        /* \"#utility.yul\":28726:28730   */\n      0x00\n        /* \"#utility.yul\":28764:28766   */\n      0x20\n        /* \"#utility.yul\":28753:28762   */\n      dup3\n        /* \"#utility.yul\":28749:28767   */\n      add\n        /* \"#utility.yul\":28741:28767   */\n      swap1\n      pop\n        /* \"#utility.yul\":28813:28822   */\n      dup2\n        /* \"#utility.yul\":28807:28811   */\n      dup2\n        /* \"#utility.yul\":28803:28823   */\n      sub\n        /* \"#utility.yul\":28799:28800   */\n      0x00\n        /* \"#utility.yul\":28788:28797   */\n      dup4\n        /* \"#utility.yul\":28784:28801   */\n      add\n        /* \"#utility.yul\":28777:28824   */\n      mstore\n        /* \"#utility.yul\":28841:28919   */\n      tag_752\n        /* \"#utility.yul\":28914:28918   */\n      dup2\n        /* \"#utility.yul\":28905:28911   */\n      dup5\n        /* \"#utility.yul\":28841:28919   */\n      tag_486\n      jump\t// in\n    tag_752:\n        /* \"#utility.yul\":28833:28919   */\n      swap1\n      pop\n        /* \"#utility.yul\":28613:28926   */\n      swap3\n      swap2\n      pop\n      pop\n      jump\t// out\n\n    auxdata: 0xa2646970667358221220f649a6dc36ebb7caee4da0b9e104c5c8b81a60080b765f6c4136a532bd3f7caf64736f6c634300081a0033\n}\n",
				"bytecode": {
					"linkReferences": {},
					"object": "6080604052348015600e575f80fd5b50612dd88061001c5f395ff3fe608060405234801561000f575f80fd5b50600436106101cd575f3560e01c80638456cb5911610102578063c20632ba116100a0578063dfaae4121161006f578063dfaae412146104bf578063e0283faf146104db578063f2fde38b146104f9578063f96dae0a14610515576101cd565b8063c20632ba14610449578063ce7842f514610465578063ce98f04914610483578063d06fcba8146104a1576101cd565b80639e2c8a5b116100dc5780639e2c8a5b146103d7578063a18a7bfc146103f3578063ae169a501461040f578063afbf34401461042b576101cd565b80638456cb59146103935780638ba796af1461039d5780638da5cb5b146103b9576101cd565b80633f4ba83a1161016f57806353aaa63b1161014957806353aaa63b1461031f5780635c975abb1461034f578063715018a61461036d5780637b0472f014610377576101cd565b80633f4ba83a146102c95780634a3b68cc146102d35780635312ea8e14610303576101cd565b80631526fe27116101ab5780631526fe27146102295780633462e0a81461025f578063381e75eb1461027b5780633b1e3eb8146102ad576101cd565b80630187aea0146101d1578063085cde2d146101ef578063126796dd1461020d575b5f80fd5b6101d9610533565b6040516101e69190611ff1565b60405180910390f35b6101f7610539565b6040516102049190611ff1565b60405180910390f35b61022760048036038101906102229190612038565b61053f565b005b610243600480360381019061023e9190612076565b610573565b604051610256979695949392919061211b565b60405180910390f35b61027960048036038101906102749190612038565b6105fe565b005b610295600480360381019061029091906121c3565b610632565b6040516102a493929190612201565b60405180910390f35b6102c760048036038101906102c29190612076565b610663565b005b6102d1610675565b005b6102ed60048036038101906102e89190612236565b610698565b6040516102fa9190612270565b60405180910390f35b61031d60048036038101906103189190612076565b6106c8565b005b61033960048036038101906103349190612236565b610863565b6040516103469190611ff1565b60405180910390f35b610357610878565b60405161036491906122a3565b60405180910390f35b61037561088a565b005b610391600480360381019061038c9190612038565b61089d565b005b61039b610ab8565b005b6103b760048036038101906103b29190612332565b610adc565b005b6103c1610d17565b6040516103ce9190612270565b60405180910390f35b6103f160048036038101906103ec9190612038565b610d4c565b005b61040d60048036038101906104089190612236565b610f43565b005b61042960048036038101906104249190612076565b6111fd565b005b610433611387565b6040516104409190611ff1565b60405180910390f35b610463600480360381019061045e91906123e3565b61138d565b005b61046d61152f565b60405161047a9190611ff1565b60405180910390f35b61048b611535565b6040516104989190611ff1565b60405180910390f35b6104a961153b565b6040516104b69190612467565b60405180910390f35b6104d960048036038101906104d49190612480565b611561565b005b6104e36115b9565b6040516104f09190611ff1565b60405180910390f35b610513600480360381019061050e9190612236565b6115bf565b005b61051d611643565b60405161052a91906124be565b60405180910390f35b60375481565b60385481565b610547611668565b806032838154811061055c5761055b6124d7565b5b905f5260205f209060070201600301819055505050565b60328181548110610582575f80fd5b905f5260205f2090600702015f91509050805f015f9054906101000a900473ffffffffffffffffffffffffffffffffffffffff1690806001015f9054906101000a900473ffffffffffffffffffffffffffffffffffffffff16908060020154908060030154908060040154908060050154908060060154905087565b610606611668565b806032838154811061061b5761061a6124d7565b5b905f5260205f209060070201600201819055505050565b6033602052815f5260405f20602052805f5260405f205f9150915050805f0154908060010154908060020154905083565b61066b611668565b8060398190555050565b61067d611668565b5f603c5f6101000a81548160ff021916908315150217905550565b6034602052805f5260405f205f915054906101000a900473ffffffffffffffffffffffffffffffffffffffff1681565b6106d06116ef565b5f603282815481106106e5576106e46124d7565b5b905f5260205f20906007020190505f60335f8481526020019081526020015f205f3373ffffffffffffffffffffffffffffffffffffffff1673ffffffffffffffffffffffffffffffffffffffff1681526020019081526020015f2090505f815f015411610787576040517f08c379a000000000000000000000000000000000000000000000000000000000815260040161077e9061255e565b60405180910390fd5b5f815f015490505f825f01819055505f826001018190555080836004015f8282546107b291906125a9565b925050819055506108063382855f015f9054906101000a900473ffffffffffffffffffffffffffffffffffffffff1673ffffffffffffffffffffffffffffffffffffffff1661173c9092919063ffffffff16565b833373ffffffffffffffffffffffffffffffffffffffff167fbb757047c2b5f3974fe26b7c10f732e7bce710b0952a71082702781e62ae05958360405161084d9190611ff1565b60405180910390a35050506108606117c2565b50565b6035602052805f5260405f205f915090505481565b603c5f9054906101000a900460ff1681565b610892611668565b61089b5f6117cb565b565b6108a56116ef565b603c5f9054906101000a900460ff16156108f4576040517f08c379a00000000000000000000000000000000000000000000000000000000081526004016108eb90612626565b60405180910390fd5b5f8111610936576040517f08c379a000000000000000000000000000000000000000000000000000000000815260040161092d9061268e565b60405180910390fd5b5f6032838154811061094b5761094a6124d7565b5b905f5260205f20906007020190505f60335f8581526020019081526020015f205f3373ffffffffffffffffffffffffffffffffffffffff1673ffffffffffffffffffffffffffffffffffffffff1681526020019081526020015f2090506109b18461189c565b6109bb843361193a565b610a0a333085855f015f9054906101000a900473ffffffffffffffffffffffffffffffffffffffff1673ffffffffffffffffffffffffffffffffffffffff16611b2a909392919063ffffffff16565b82815f015f828254610a1c91906126ac565b92505081905550816003015442610a3391906126ac565b816002018190555082826004015f828254610a4e91906126ac565b92505081905550833373ffffffffffffffffffffffffffffffffffffffff167fb4caaf29adda3eefee3ad552a8e85058589bf834c7466cae4ee58787f70589ed858460020154604051610aa29291906126df565b60405180910390a35050610ab46117c2565b5050565b610ac0611668565b6001603c5f6101000a81548160ff021916908315150217905550565b5f610ae5611bb3565b90505f815f0160089054906101000a900460ff161590505f825f015f9054906101000a900467ffffffffffffffff1690505f808267ffffffffffffffff16148015610b2d5750825b90505f60018367ffffffffffffffff16148015610b6057505f3073ffffffffffffffffffffffffffffffffffffffff163b145b905081158015610b6e575080155b15610ba5576040517ff92ee8a900000000000000000000000000000000000000000000000000000000815260040160405180910390fd5b6001855f015f6101000a81548167ffffffffffffffff021916908367ffffffffffffffff1602179055508315610bf2576001855f0160086101000a81548160ff0219169083151502179055505b610bfb33611bda565b610c03611bee565b8c603d5f6101000a81548173ffffffffffffffffffffffffffffffffffffffff021916908373ffffffffffffffffffffffffffffffffffffffff1602179055508b603c60016101000a81548173ffffffffffffffffffffffffffffffffffffffff021916908373ffffffffffffffffffffffffffffffffffffffff1602179055508a60368190555089603781905550886038819055508760398190555086603a8190555085603b819055508315610d08575f855f0160086101000a81548160ff0219169083151502179055507fc7f505b2f371ae2175ee4913f4499e1f2633a7b5936321eed1cdaeb6115181d26001604051610cff9190612752565b60405180910390a15b50505050505050505050505050565b5f80610d21611c00565b9050805f015f9054906101000a900473ffffffffffffffffffffffffffffffffffffffff1691505090565b610d546116ef565b5f60328381548110610d6957610d686124d7565b5b905f5260205f20906007020190505f60335f8581526020019081526020015f205f3373ffffffffffffffffffffffffffffffffffffffff1673ffffffffffffffffffffffffffffffffffffffff1681526020019081526020015f20905082815f01541015610e0c576040517f08c379a0000000000000000000000000000000000000000000000000000000008152600401610e03906127b5565b60405180910390fd5b8060020154421015610e53576040517f08c379a0000000000000000000000000000000000000000000000000000000008152600401610e4a9061281d565b60405180910390fd5b610e5c8461189c565b610e66843361193a565b82815f015f828254610e7891906125a9565b9250508190555082826004015f828254610e9291906125a9565b92505081905550610ee63384845f015f9054906101000a900473ffffffffffffffffffffffffffffffffffffffff1673ffffffffffffffffffffffffffffffffffffffff1661173c9092919063ffffffff16565b833373ffffffffffffffffffffffffffffffffffffffff167f7fc4727e062e336010f2c282598ef5f14facb3de68cf8195c2f23e1454b2b74e85604051610f2d9190611ff1565b60405180910390a35050610f3f6117c2565b5050565b5f73ffffffffffffffffffffffffffffffffffffffff1660345f3373ffffffffffffffffffffffffffffffffffffffff1673ffffffffffffffffffffffffffffffffffffffff1681526020019081526020015f205f9054906101000a900473ffffffffffffffffffffffffffffffffffffffff1673ffffffffffffffffffffffffffffffffffffffff161461100d576040517f08c379a000000000000000000000000000000000000000000000000000000000815260040161100490612885565b60405180910390fd5b3373ffffffffffffffffffffffffffffffffffffffff168173ffffffffffffffffffffffffffffffffffffffff160361107b576040517f08c379a0000000000000000000000000000000000000000000000000000000008152600401611072906128ed565b60405180910390fd5b8060345f3373ffffffffffffffffffffffffffffffffffffffff1673ffffffffffffffffffffffffffffffffffffffff1681526020019081526020015f205f6101000a81548173ffffffffffffffffffffffffffffffffffffffff021916908373ffffffffffffffffffffffffffffffffffffffff160217905550603a5460355f8373ffffffffffffffffffffffffffffffffffffffff1673ffffffffffffffffffffffffffffffffffffffff1681526020019081526020015f205f82825461114491906126ac565b92505081905550603b5460355f3373ffffffffffffffffffffffffffffffffffffffff1673ffffffffffffffffffffffffffffffffffffffff1681526020019081526020015f205f82825461119991906126ac565b925050819055508073ffffffffffffffffffffffffffffffffffffffff163373ffffffffffffffffffffffffffffffffffffffff167f5f7165288eef601591cf549e15ff19ef9060b7f71b9c115be946fa1fe7ebf68a60405160405180910390a350565b6112056116ef565b61120e8161189c565b611218813361193a565b5f60335f8381526020019081526020015f205f3373ffffffffffffffffffffffffffffffffffffffff1673ffffffffffffffffffffffffffffffffffffffff1681526020019081526020015f206001015490505f60335f8481526020019081526020015f205f3373ffffffffffffffffffffffffffffffffffffffff1673ffffffffffffffffffffffffffffffffffffffff1681526020019081526020015f206001018190555061132c3382603285815481106112d8576112d76124d7565b5b905f5260205f2090600702016001015f9054906101000a900473ffffffffffffffffffffffffffffffffffffffff1673ffffffffffffffffffffffffffffffffffffffff1661173c9092919063ffffffff16565b813373ffffffffffffffffffffffffffffffffffffffff167fd6f2c8500df5b44f11e9e48b91ff9f1b9d81bc496d55570c2b1b75bf65243f51836040516113739190611ff1565b60405180910390a3506113846117c2565b50565b60365481565b611395611668565b60326040518060e001604052808673ffffffffffffffffffffffffffffffffffffffff1681526020018573ffffffffffffffffffffffffffffffffffffffff1681526020018481526020018381526020015f81526020015f815260200142815250908060018154018082558091505060019003905f5260205f2090600702015f909190919091505f820151815f015f6101000a81548173ffffffffffffffffffffffffffffffffffffffff021916908373ffffffffffffffffffffffffffffffffffffffff1602179055506020820151816001015f6101000a81548173ffffffffffffffffffffffffffffffffffffffff021916908373ffffffffffffffffffffffffffffffffffffffff16021790555060408201518160020155606082015181600301556080820151816004015560a0820151816005015560c08201518160060155505060016032805490506114ec91906125a9565b7fe1111ad6e2ccaf57d3d9aa458493b64bcf6a66c2028304b95772fe72e1fc361285858585604051611521949392919061290b565b60405180910390a250505050565b603a5481565b603b5481565b603c60019054906101000a900473ffffffffffffffffffffffffffffffffffffffff1681565b611569611668565b6115b58282603d5f9054906101000a900473ffffffffffffffffffffffffffffffffffffffff1673ffffffffffffffffffffffffffffffffffffffff1661173c9092919063ffffffff16565b5050565b60395481565b6115c7611668565b5f73ffffffffffffffffffffffffffffffffffffffff168173ffffffffffffffffffffffffffffffffffffffff1603611637575f6040517f1e4fbdf700000000000000000000000000000000000000000000000000000000815260040161162e9190612270565b60405180910390fd5b611640816117cb565b50565b603d5f9054906101000a900473ffffffffffffffffffffffffffffffffffffffff1681565b611670611c27565b73ffffffffffffffffffffffffffffffffffffffff1661168e610d17565b73ffffffffffffffffffffffffffffffffffffffff16146116ed576116b1611c27565b6040517f118cdaa70000000000000000000000000000000000000000000000000000000081526004016116e49190612270565b60405180910390fd5b565b60025f5403611733576040517f08c379a000000000000000000000000000000000000000000000000000000000815260040161172a90612998565b60405180910390fd5b60025f81905550565b6117bd8363a9059cbb60e01b848460405160240161175b9291906129b6565b604051602081830303815290604052907bffffffffffffffffffffffffffffffffffffffffffffffffffffffff19166020820180517bffffffffffffffffffffffffffffffffffffffffffffffffffffffff8381831617835250505050611c2e565b505050565b60015f81905550565b5f6117d4611c00565b90505f815f015f9054906101000a900473ffffffffffffffffffffffffffffffffffffffff16905082825f015f6101000a81548173ffffffffffffffffffffffffffffffffffffffff021916908373ffffffffffffffffffffffffffffffffffffffff1602179055508273ffffffffffffffffffffffffffffffffffffffff168173ffffffffffffffffffffffffffffffffffffffff167f8be0079c531659141344cd1fd0a4f28419497f9722a3daafe3b4186f6b6457e060405160405180910390a3505050565b5f603282815481106118b1576118b06124d7565b5b905f5260205f20906007020190505f8160040154111561192d575f8160060154426118dc91906125a9565b90505f8260020154826118ef91906129dd565b9050826004015464e8d4a510008261190791906129dd565b6119119190612a4b565b836005015f82825461192391906126ac565b9250508190555050505b4281600601819055505050565b5f6032838154811061194f5761194e6124d7565b5b905f5260205f20906007020190505f60335f8581526020019081526020015f205f8473ffffffffffffffffffffffffffffffffffffffff1673ffffffffffffffffffffffffffffffffffffffff1681526020019081526020015f2090505f815f01541115611b24575f816001015464e8d4a510008460050154845f01546119d691906129dd565b6119e09190612a4b565b6119ea91906125a9565b90505f83600301548360020154611a0191906125a9565b42611a0c91906125a9565b90505f611a1882611cf4565b905060365481603654611a2b91906126ac565b84611a3691906129dd565b611a409190612a4b565b92508284600101819055505f603c60019054906101000a900473ffffffffffffffffffffffffffffffffffffffff1673ffffffffffffffffffffffffffffffffffffffff166370a08231886040518263ffffffff1660e01b8152600401611aa79190612270565b602060405180830381865afa158015611ac2573d5f803e3d5ffd5b505050506040513d601f19601f82011682018060405250810190611ae69190612a8f565b1115611b2057606460395484611afc91906129dd565b611b069190612a4b565b846001015f828254611b1891906126ac565b925050819055505b5050505b50505050565b611bad846323b872dd60e01b858585604051602401611b4b93929190612aba565b604051602081830303815290604052907bffffffffffffffffffffffffffffffffffffffffffffffffffffffff19166020820180517bffffffffffffffffffffffffffffffffffffffffffffffffffffffff8381831617835250505050611c2e565b50505050565b5f7ff0c57e16840df040f15088dc2f81fe391c3923bec73e23a9662efc9c229c6a00905090565b611be2611d21565b611beb81611d61565b50565b611bf6611d21565b611bfe611de5565b565b5f7f9016d09d72d40fdae2fd8ceac6b6234c7706214fd39c1cd1e609a0528c199300905090565b5f33905090565b5f611c8f826040518060400160405280602081526020017f5361666545524332303a206c6f772d6c6576656c2063616c6c206661696c65648152508573ffffffffffffffffffffffffffffffffffffffff16611df69092919063ffffffff16565b90505f81511480611cb0575080806020019051810190611caf9190612b19565b5b611cef576040517f08c379a0000000000000000000000000000000000000000000000000000000008152600401611ce690612bb4565b60405180910390fd5b505050565b5f8060385483611d049190612a4b565b90506037548111611d155780611d19565b6037545b915050919050565b611d29611e0d565b611d5f576040517fd7e6bcf800000000000000000000000000000000000000000000000000000000815260040160405180910390fd5b565b611d69611d21565b5f73ffffffffffffffffffffffffffffffffffffffff168173ffffffffffffffffffffffffffffffffffffffff1603611dd9575f6040517f1e4fbdf7000000000000000000000000000000000000000000000000000000008152600401611dd09190612270565b60405180910390fd5b611de2816117cb565b50565b611ded611d21565b60015f81905550565b6060611e0484845f85611e2b565b90509392505050565b5f611e16611bb3565b5f0160089054906101000a900460ff16905090565b606082471015611e70576040517f08c379a0000000000000000000000000000000000000000000000000000000008152600401611e6790612c42565b60405180910390fd5b5f808673ffffffffffffffffffffffffffffffffffffffff168587604051611e989190612cb2565b5f6040518083038185875af1925050503d805f8114611ed2576040519150601f19603f3d011682016040523d82523d5f602084013e611ed7565b606091505b5091509150611ee887838387611ef4565b92505050949350505050565b60608315611f55575f835103611f4d57611f0d85611f68565b611f4c576040517f08c379a0000000000000000000000000000000000000000000000000000000008152600401611f4390612d12565b60405180910390fd5b5b829050611f60565b611f5f8383611f8a565b5b949350505050565b5f808273ffffffffffffffffffffffffffffffffffffffff163b119050919050565b5f82511115611f9c5781518083602001fd5b806040517f08c379a0000000000000000000000000000000000000000000000000000000008152600401611fd09190612d82565b60405180910390fd5b5f819050919050565b611feb81611fd9565b82525050565b5f6020820190506120045f830184611fe2565b92915050565b5f80fd5b61201781611fd9565b8114612021575f80fd5b50565b5f813590506120328161200e565b92915050565b5f806040838503121561204e5761204d61200a565b5b5f61205b85828601612024565b925050602061206c85828601612024565b9150509250929050565b5f6020828403121561208b5761208a61200a565b5b5f61209884828501612024565b91505092915050565b5f73ffffffffffffffffffffffffffffffffffffffff82169050919050565b5f819050919050565b5f6120e36120de6120d9846120a1565b6120c0565b6120a1565b9050919050565b5f6120f4826120c9565b9050919050565b5f612105826120ea565b9050919050565b612115816120fb565b82525050565b5f60e08201905061212e5f83018a61210c565b61213b602083018961210c565b6121486040830188611fe2565b6121556060830187611fe2565b6121626080830186611fe2565b61216f60a0830185611fe2565b61217c60c0830184611fe2565b98975050505050505050565b5f612192826120a1565b9050919050565b6121a281612188565b81146121ac575f80fd5b50565b5f813590506121bd81612199565b92915050565b5f80604083850312156121d9576121d861200a565b5b5f6121e685828601612024565b92505060206121f7858286016121af565b9150509250929050565b5f6060820190506122145f830186611fe2565b6122216020830185611fe2565b61222e6040830184611fe2565b949350505050565b5f6020828403121561224b5761224a61200a565b5b5f612258848285016121af565b91505092915050565b61226a81612188565b82525050565b5f6020820190506122835f830184612261565b92915050565b5f8115159050919050565b61229d81612289565b82525050565b5f6020820190506122b65f830184612294565b92915050565b5f6122c682612188565b9050919050565b6122d6816122bc565b81146122e0575f80fd5b50565b5f813590506122f1816122cd565b92915050565b5f61230182612188565b9050919050565b612311816122f7565b811461231b575f80fd5b50565b5f8135905061232c81612308565b92915050565b5f805f805f805f80610100898b03121561234f5761234e61200a565b5b5f61235c8b828c016122e3565b985050602061236d8b828c0161231e565b975050604061237e8b828c01612024565b965050606061238f8b828c01612024565b95505060806123a08b828c01612024565b94505060a06123b18b828c01612024565b93505060c06123c28b828c01612024565b92505060e06123d38b828c01612024565b9150509295985092959890939650565b5f805f80608085870312156123fb576123fa61200a565b5b5f612408878288016122e3565b9450506020612419878288016122e3565b935050604061242a87828801612024565b925050606061243b87828801612024565b91505092959194509250565b5f612451826120ea565b9050919050565b61246181612447565b82525050565b5f60208201905061247a5f830184612458565b92915050565b5f80604083850312156124965761249561200a565b5b5f6124a3858286016121af565b92505060206124b485828601612024565b9150509250929050565b5f6020820190506124d15f83018461210c565b92915050565b7f4e487b71000000000000000000000000000000000000000000000000000000005f52603260045260245ffd5b5f82825260208201905092915050565b7f4e6f207374616b656420616d6f756e74000000000000000000000000000000005f82015250565b5f612548601083612504565b915061255382612514565b602082019050919050565b5f6020820190508181035f8301526125758161253c565b9050919050565b7f4e487b71000000000000000000000000000000000000000000000000000000005f52601160045260245ffd5b5f6125b382611fd9565b91506125be83611fd9565b92508282039050818111156125d6576125d561257c565b5b92915050565b7f436f6e74726163742069732070617573656400000000000000000000000000005f82015250565b5f612610601283612504565b915061261b826125dc565b602082019050919050565b5f6020820190508181035f83015261263d81612604565b9050919050565b7f43616e6e6f74207374616b6520300000000000000000000000000000000000005f82015250565b5f612678600e83612504565b915061268382612644565b602082019050919050565b5f6020820190508181035f8301526126a58161266c565b9050919050565b5f6126b682611fd9565b91506126c183611fd9565b92508282019050808211156126d9576126d861257c565b5b92915050565b5f6040820190506126f25f830185611fe2565b6126ff6020830184611fe2565b9392505050565b5f819050919050565b5f67ffffffffffffffff82169050919050565b5f61273c61273761273284612706565b6120c0565b61270f565b9050919050565b61274c81612722565b82525050565b5f6020820190506127655f830184612743565b92915050565b7f496e73756666696369656e74207374616b656420616d6f756e740000000000005f82015250565b5f61279f601a83612504565b91506127aa8261276b565b602082019050919050565b5f6020820190508181035f8301526127cc81612793565b9050919050565b7f5374616b65206973207374696c6c206c6f636b656400000000000000000000005f82015250565b5f612807601583612504565b9150612812826127d3565b602082019050919050565b5f6020820190508181035f830152612834816127fb565b9050919050565b7f526566657272657220616c7265616479207365740000000000000000000000005f82015250565b5f61286f601483612504565b915061287a8261283b565b602082019050919050565b5f6020820190508181035f83015261289c81612863565b9050919050565b7f43616e6e6f7420726566657220796f757273656c6600000000000000000000005f82015250565b5f6128d7601583612504565b91506128e2826128a3565b602082019050919050565b5f6020820190508181035f830152612904816128cb565b9050919050565b5f60808201905061291e5f830187612261565b61292b6020830186612261565b6129386040830185611fe2565b6129456060830184611fe2565b95945050505050565b7f5265656e7472616e637947756172643a207265656e7472616e742063616c6c005f82015250565b5f612982601f83612504565b915061298d8261294e565b602082019050919050565b5f6020820190508181035f8301526129af81612976565b9050919050565b5f6040820190506129c95f830185612261565b6129d66020830184611fe2565b9392505050565b5f6129e782611fd9565b91506129f283611fd9565b9250828202612a0081611fd9565b91508282048414831517612a1757612a1661257c565b5b5092915050565b7f4e487b71000000000000000000000000000000000000000000000000000000005f52601260045260245ffd5b5f612a5582611fd9565b9150612a6083611fd9565b925082612a7057612a6f612a1e565b5b828204905092915050565b5f81519050612a898161200e565b92915050565b5f60208284031215612aa457612aa361200a565b5b5f612ab184828501612a7b565b91505092915050565b5f606082019050612acd5f830186612261565b612ada6020830185612261565b612ae76040830184611fe2565b949350505050565b612af881612289565b8114612b02575f80fd5b50565b5f81519050612b1381612aef565b92915050565b5f60208284031215612b2e57612b2d61200a565b5b5f612b3b84828501612b05565b91505092915050565b7f5361666545524332303a204552433230206f7065726174696f6e20646964206e5f8201527f6f74207375636365656400000000000000000000000000000000000000000000602082015250565b5f612b9e602a83612504565b9150612ba982612b44565b604082019050919050565b5f6020820190508181035f830152612bcb81612b92565b9050919050565b7f416464726573733a20696e73756666696369656e742062616c616e636520666f5f8201527f722063616c6c0000000000000000000000000000000000000000000000000000602082015250565b5f612c2c602683612504565b9150612c3782612bd2565b604082019050919050565b5f6020820190508181035f830152612c5981612c20565b9050919050565b5f81519050919050565b5f81905092915050565b8281835e5f83830152505050565b5f612c8c82612c60565b612c968185612c6a565b9350612ca6818560208601612c74565b80840191505092915050565b5f612cbd8284612c82565b915081905092915050565b7f416464726573733a2063616c6c20746f206e6f6e2d636f6e74726163740000005f82015250565b5f612cfc601d83612504565b9150612d0782612cc8565b602082019050919050565b5f6020820190508181035f830152612d2981612cf0565b9050919050565b5f81519050919050565b5f601f19601f8301169050919050565b5f612d5482612d30565b612d5e8185612504565b9350612d6e818560208601612c74565b612d7781612d3a565b840191505092915050565b5f6020820190508181035f830152612d9a8184612d4a565b90509291505056fea2646970667358221220f649a6dc36ebb7caee4da0b9e104c5c8b81a60080b765f6c4136a532bd3f7caf64736f6c634300081a0033",
					"opcodes": "PUSH1 0x80 PUSH1 0x40 MSTORE CALLVALUE DUP1 ISZERO PUSH1 0xE JUMPI PUSH0 DUP1 REVERT JUMPDEST POP PUSH2 0x2DD8 DUP1 PUSH2 0x1C PUSH0 CODECOPY PUSH0 RETURN INVALID PUSH1 0x80 PUSH1 0x40 MSTORE CALLVALUE DUP1 ISZERO PUSH2 0xF JUMPI PUSH0 DUP1 REVERT JUMPDEST POP PUSH1 0x4 CALLDATASIZE LT PUSH2 0x1CD JUMPI PUSH0 CALLDATALOAD PUSH1 0xE0 SHR DUP1 PUSH4 0x8456CB59 GT PUSH2 0x102 JUMPI DUP1 PUSH4 0xC20632BA GT PUSH2 0xA0 JUMPI DUP1 PUSH4 0xDFAAE412 GT PUSH2 0x6F JUMPI DUP1 PUSH4 0xDFAAE412 EQ PUSH2 0x4BF JUMPI DUP1 PUSH4 0xE0283FAF EQ PUSH2 0x4DB JUMPI DUP1 PUSH4 0xF2FDE38B EQ PUSH2 0x4F9 JUMPI DUP1 PUSH4 0xF96DAE0A EQ PUSH2 0x515 JUMPI PUSH2 0x1CD JUMP JUMPDEST DUP1 PUSH4 0xC20632BA EQ PUSH2 0x449 JUMPI DUP1 PUSH4 0xCE7842F5 EQ PUSH2 0x465 JUMPI DUP1 PUSH4 0xCE98F049 EQ PUSH2 0x483 JUMPI DUP1 PUSH4 0xD06FCBA8 EQ PUSH2 0x4A1 JUMPI PUSH2 0x1CD JUMP JUMPDEST DUP1 PUSH4 0x9E2C8A5B GT PUSH2 0xDC JUMPI DUP1 PUSH4 0x9E2C8A5B EQ PUSH2 0x3D7 JUMPI DUP1 PUSH4 0xA18A7BFC EQ PUSH2 0x3F3 JUMPI DUP1 PUSH4 0xAE169A50 EQ PUSH2 0x40F JUMPI DUP1 PUSH4 0xAFBF3440 EQ PUSH2 0x42B JUMPI PUSH2 0x1CD JUMP JUMPDEST DUP1 PUSH4 0x8456CB59 EQ PUSH2 0x393 JUMPI DUP1 PUSH4 0x8BA796AF EQ PUSH2 0x39D JUMPI DUP1 PUSH4 0x8DA5CB5B EQ PUSH2 0x3B9 JUMPI PUSH2 0x1CD JUMP JUMPDEST DUP1 PUSH4 0x3F4BA83A GT PUSH2 0x16F JUMPI DUP1 PUSH4 0x53AAA63B GT PUSH2 0x149 JUMPI DUP1 PUSH4 0x53AAA63B EQ PUSH2 0x31F JUMPI DUP1 PUSH4 0x5C975ABB EQ PUSH2 0x34F JUMPI DUP1 PUSH4 0x715018A6 EQ PUSH2 0x36D JUMPI DUP1 PUSH4 0x7B0472F0 EQ PUSH2 0x377 JUMPI PUSH2 0x1CD JUMP JUMPDEST DUP1 PUSH4 0x3F4BA83A EQ PUSH2 0x2C9 JUMPI DUP1 PUSH4 0x4A3B68CC EQ PUSH2 0x2D3 JUMPI DUP1 PUSH4 0x5312EA8E EQ PUSH2 0x303 JUMPI PUSH2 0x1CD JUMP JUMPDEST DUP1 PUSH4 0x1526FE27 GT PUSH2 0x1AB JUMPI DUP1 PUSH4 0x1526FE27 EQ PUSH2 0x229 JUMPI DUP1 PUSH4 0x3462E0A8 EQ PUSH2 0x25F JUMPI DUP1 PUSH4 0x381E75EB EQ PUSH2 0x27B JUMPI DUP1 PUSH4 0x3B1E3EB8 EQ PUSH2 0x2AD JUMPI PUSH2 0x1CD JUMP JUMPDEST DUP1 PUSH4 0x187AEA0 EQ PUSH2 0x1D1 JUMPI DUP1 PUSH4 0x85CDE2D EQ PUSH2 0x1EF JUMPI DUP1 PUSH4 0x126796DD EQ PUSH2 0x20D JUMPI JUMPDEST PUSH0 DUP1 REVERT JUMPDEST PUSH2 0x1D9 PUSH2 0x533 JUMP JUMPDEST PUSH1 0x40 MLOAD PUSH2 0x1E6 SWAP2 SWAP1 PUSH2 0x1FF1 JUMP JUMPDEST PUSH1 0x40 MLOAD DUP1 SWAP2 SUB SWAP1 RETURN JUMPDEST PUSH2 0x1F7 PUSH2 0x539 JUMP JUMPDEST PUSH1 0x40 MLOAD PUSH2 0x204 SWAP2 SWAP1 PUSH2 0x1FF1 JUMP JUMPDEST PUSH1 0x40 MLOAD DUP1 SWAP2 SUB SWAP1 RETURN JUMPDEST PUSH2 0x227 PUSH1 0x4 DUP1 CALLDATASIZE SUB DUP2 ADD SWAP1 PUSH2 0x222 SWAP2 SWAP1 PUSH2 0x2038 JUMP JUMPDEST PUSH2 0x53F JUMP JUMPDEST STOP JUMPDEST PUSH2 0x243 PUSH1 0x4 DUP1 CALLDATASIZE SUB DUP2 ADD SWAP1 PUSH2 0x23E SWAP2 SWAP1 PUSH2 0x2076 JUMP JUMPDEST PUSH2 0x573 JUMP JUMPDEST PUSH1 0x40 MLOAD PUSH2 0x256 SWAP8 SWAP7 SWAP6 SWAP5 SWAP4 SWAP3 SWAP2 SWAP1 PUSH2 0x211B JUMP JUMPDEST PUSH1 0x40 MLOAD DUP1 SWAP2 SUB SWAP1 RETURN JUMPDEST PUSH2 0x279 PUSH1 0x4 DUP1 CALLDATASIZE SUB DUP2 ADD SWAP1 PUSH2 0x274 SWAP2 SWAP1 PUSH2 0x2038 JUMP JUMPDEST PUSH2 0x5FE JUMP JUMPDEST STOP JUMPDEST PUSH2 0x295 PUSH1 0x4 DUP1 CALLDATASIZE SUB DUP2 ADD SWAP1 PUSH2 0x290 SWAP2 SWAP1 PUSH2 0x21C3 JUMP JUMPDEST PUSH2 0x632 JUMP JUMPDEST PUSH1 0x40 MLOAD PUSH2 0x2A4 SWAP4 SWAP3 SWAP2 SWAP1 PUSH2 0x2201 JUMP JUMPDEST PUSH1 0x40 MLOAD DUP1 SWAP2 SUB SWAP1 RETURN JUMPDEST PUSH2 0x2C7 PUSH1 0x4 DUP1 CALLDATASIZE SUB DUP2 ADD SWAP1 PUSH2 0x2C2 SWAP2 SWAP1 PUSH2 0x2076 JUMP JUMPDEST PUSH2 0x663 JUMP JUMPDEST STOP JUMPDEST PUSH2 0x2D1 PUSH2 0x675 JUMP JUMPDEST STOP JUMPDEST PUSH2 0x2ED PUSH1 0x4 DUP1 CALLDATASIZE SUB DUP2 ADD SWAP1 PUSH2 0x2E8 SWAP2 SWAP1 PUSH2 0x2236 JUMP JUMPDEST PUSH2 0x698 JUMP JUMPDEST PUSH1 0x40 MLOAD PUSH2 0x2FA SWAP2 SWAP1 PUSH2 0x2270 JUMP JUMPDEST PUSH1 0x40 MLOAD DUP1 SWAP2 SUB SWAP1 RETURN JUMPDEST PUSH2 0x31D PUSH1 0x4 DUP1 CALLDATASIZE SUB DUP2 ADD SWAP1 PUSH2 0x318 SWAP2 SWAP1 PUSH2 0x2076 JUMP JUMPDEST PUSH2 0x6C8 JUMP JUMPDEST STOP JUMPDEST PUSH2 0x339 PUSH1 0x4 DUP1 CALLDATASIZE SUB DUP2 ADD SWAP1 PUSH2 0x334 SWAP2 SWAP1 PUSH2 0x2236 JUMP JUMPDEST PUSH2 0x863 JUMP JUMPDEST PUSH1 0x40 MLOAD PUSH2 0x346 SWAP2 SWAP1 PUSH2 0x1FF1 JUMP JUMPDEST PUSH1 0x40 MLOAD DUP1 SWAP2 SUB SWAP1 RETURN JUMPDEST PUSH2 0x357 PUSH2 0x878 JUMP JUMPDEST PUSH1 0x40 MLOAD PUSH2 0x364 SWAP2 SWAP1 PUSH2 0x22A3 JUMP JUMPDEST PUSH1 0x40 MLOAD DUP1 SWAP2 SUB SWAP1 RETURN JUMPDEST PUSH2 0x375 PUSH2 0x88A JUMP JUMPDEST STOP JUMPDEST PUSH2 0x391 PUSH1 0x4 DUP1 CALLDATASIZE SUB DUP2 ADD SWAP1 PUSH2 0x38C SWAP2 SWAP1 PUSH2 0x2038 JUMP JUMPDEST PUSH2 0x89D JUMP JUMPDEST STOP JUMPDEST PUSH2 0x39B PUSH2 0xAB8 JUMP JUMPDEST STOP JUMPDEST PUSH2 0x3B7 PUSH1 0x4 DUP1 CALLDATASIZE SUB DUP2 ADD SWAP1 PUSH2 0x3B2 SWAP2 SWAP1 PUSH2 0x2332 JUMP JUMPDEST PUSH2 0xADC JUMP JUMPDEST STOP JUMPDEST PUSH2 0x3C1 PUSH2 0xD17 JUMP JUMPDEST PUSH1 0x40 MLOAD PUSH2 0x3CE SWAP2 SWAP1 PUSH2 0x2270 JUMP JUMPDEST PUSH1 0x40 MLOAD DUP1 SWAP2 SUB SWAP1 RETURN JUMPDEST PUSH2 0x3F1 PUSH1 0x4 DUP1 CALLDATASIZE SUB DUP2 ADD SWAP1 PUSH2 0x3EC SWAP2 SWAP1 PUSH2 0x2038 JUMP JUMPDEST PUSH2 0xD4C JUMP JUMPDEST STOP JUMPDEST PUSH2 0x40D PUSH1 0x4 DUP1 CALLDATASIZE SUB DUP2 ADD SWAP1 PUSH2 0x408 SWAP2 SWAP1 PUSH2 0x2236 JUMP JUMPDEST PUSH2 0xF43 JUMP JUMPDEST STOP JUMPDEST PUSH2 0x429 PUSH1 0x4 DUP1 CALLDATASIZE SUB DUP2 ADD SWAP1 PUSH2 0x424 SWAP2 SWAP1 PUSH2 0x2076 JUMP JUMPDEST PUSH2 0x11FD JUMP JUMPDEST STOP JUMPDEST PUSH2 0x433 PUSH2 0x1387 JUMP JUMPDEST PUSH1 0x40 MLOAD PUSH2 0x440 SWAP2 SWAP1 PUSH2 0x1FF1 JUMP JUMPDEST PUSH1 0x40 MLOAD DUP1 SWAP2 SUB SWAP1 RETURN JUMPDEST PUSH2 0x463 PUSH1 0x4 DUP1 CALLDATASIZE SUB DUP2 ADD SWAP1 PUSH2 0x45E SWAP2 SWAP1 PUSH2 0x23E3 JUMP JUMPDEST PUSH2 0x138D JUMP JUMPDEST STOP JUMPDEST PUSH2 0x46D PUSH2 0x152F JUMP JUMPDEST PUSH1 0x40 MLOAD PUSH2 0x47A SWAP2 SWAP1 PUSH2 0x1FF1 JUMP JUMPDEST PUSH1 0x40 MLOAD DUP1 SWAP2 SUB SWAP1 RETURN JUMPDEST PUSH2 0x48B PUSH2 0x1535 JUMP JUMPDEST PUSH1 0x40 MLOAD PUSH2 0x498 SWAP2 SWAP1 PUSH2 0x1FF1 JUMP JUMPDEST PUSH1 0x40 MLOAD DUP1 SWAP2 SUB SWAP1 RETURN JUMPDEST PUSH2 0x4A9 PUSH2 0x153B JUMP JUMPDEST PUSH1 0x40 MLOAD PUSH2 0x4B6 SWAP2 SWAP1 PUSH2 0x2467 JUMP JUMPDEST PUSH1 0x40 MLOAD DUP1 SWAP2 SUB SWAP1 RETURN JUMPDEST PUSH2 0x4D9 PUSH1 0x4 DUP1 CALLDATASIZE SUB DUP2 ADD SWAP1 PUSH2 0x4D4 SWAP2 SWAP1 PUSH2 0x2480 JUMP JUMPDEST PUSH2 0x1561 JUMP JUMPDEST STOP JUMPDEST PUSH2 0x4E3 PUSH2 0x15B9 JUMP JUMPDEST PUSH1 0x40 MLOAD PUSH2 0x4F0 SWAP2 SWAP1 PUSH2 0x1FF1 JUMP JUMPDEST PUSH1 0x40 MLOAD DUP1 SWAP2 SUB SWAP1 RETURN JUMPDEST PUSH2 0x513 PUSH1 0x4 DUP1 CALLDATASIZE SUB DUP2 ADD SWAP1 PUSH2 0x50E SWAP2 SWAP1 PUSH2 0x2236 JUMP JUMPDEST PUSH2 0x15BF JUMP JUMPDEST STOP JUMPDEST PUSH2 0x51D PUSH2 0x1643 JUMP JUMPDEST PUSH1 0x40 MLOAD PUSH2 0x52A SWAP2 SWAP1 PUSH2 0x24BE JUMP JUMPDEST PUSH1 0x40 MLOAD DUP1 SWAP2 SUB SWAP1 RETURN JUMPDEST PUSH1 0x37 SLOAD DUP2 JUMP JUMPDEST PUSH1 0x38 SLOAD DUP2 JUMP JUMPDEST PUSH2 0x547 PUSH2 0x1668 JUMP JUMPDEST DUP1 PUSH1 0x32 DUP4 DUP2 SLOAD DUP2 LT PUSH2 0x55C JUMPI PUSH2 0x55B PUSH2 0x24D7 JUMP JUMPDEST JUMPDEST SWAP1 PUSH0 MSTORE PUSH1 0x20 PUSH0 KECCAK256 SWAP1 PUSH1 0x7 MUL ADD PUSH1 0x3 ADD DUP2 SWAP1 SSTORE POP POP POP JUMP JUMPDEST PUSH1 0x32 DUP2 DUP2 SLOAD DUP2 LT PUSH2 0x582 JUMPI PUSH0 DUP1 REVERT JUMPDEST SWAP1 PUSH0 MSTORE PUSH1 0x20 PUSH0 KECCAK256 SWAP1 PUSH1 0x7 MUL ADD PUSH0 SWAP2 POP SWAP1 POP DUP1 PUSH0 ADD PUSH0 SWAP1 SLOAD SWAP1 PUSH2 0x100 EXP SWAP1 DIV PUSH20 0xFFFFFFFFFFFFFFFFFFFFFFFFFFFFFFFFFFFFFFFF AND SWAP1 DUP1 PUSH1 0x1 ADD PUSH0 SWAP1 SLOAD SWAP1 PUSH2 0x100 EXP SWAP1 DIV PUSH20 0xFFFFFFFFFFFFFFFFFFFFFFFFFFFFFFFFFFFFFFFF AND SWAP1 DUP1 PUSH1 0x2 ADD SLOAD SWAP1 DUP1 PUSH1 0x3 ADD SLOAD SWAP1 DUP1 PUSH1 0x4 ADD SLOAD SWAP1 DUP1 PUSH1 0x5 ADD SLOAD SWAP1 DUP1 PUSH1 0x6 ADD SLOAD SWAP1 POP DUP8 JUMP JUMPDEST PUSH2 0x606 PUSH2 0x1668 JUMP JUMPDEST DUP1 PUSH1 0x32 DUP4 DUP2 SLOAD DUP2 LT PUSH2 0x61B JUMPI PUSH2 0x61A PUSH2 0x24D7 JUMP JUMPDEST JUMPDEST SWAP1 PUSH0 MSTORE PUSH1 0x20 PUSH0 KECCAK256 SWAP1 PUSH1 0x7 MUL ADD PUSH1 0x2 ADD DUP2 SWAP1 SSTORE POP POP POP JUMP JUMPDEST PUSH1 0x33 PUSH1 0x20 MSTORE DUP2 PUSH0 MSTORE PUSH1 0x40 PUSH0 KECCAK256 PUSH1 0x20 MSTORE DUP1 PUSH0 MSTORE PUSH1 0x40 PUSH0 KECCAK256 PUSH0 SWAP2 POP SWAP2 POP POP DUP1 PUSH0 ADD SLOAD SWAP1 DUP1 PUSH1 0x1 ADD SLOAD SWAP1 DUP1 PUSH1 0x2 ADD SLOAD SWAP1 POP DUP4 JUMP JUMPDEST PUSH2 0x66B PUSH2 0x1668 JUMP JUMPDEST DUP1 PUSH1 0x39 DUP2 SWAP1 SSTORE POP POP JUMP JUMPDEST PUSH2 0x67D PUSH2 0x1668 JUMP JUMPDEST PUSH0 PUSH1 0x3C PUSH0 PUSH2 0x100 EXP DUP2 SLOAD DUP2 PUSH1 0xFF MUL NOT AND SWAP1 DUP4 ISZERO ISZERO MUL OR SWAP1 SSTORE POP JUMP JUMPDEST PUSH1 0x34 PUSH1 0x20 MSTORE DUP1 PUSH0 MSTORE PUSH1 0x40 PUSH0 KECCAK256 PUSH0 SWAP2 POP SLOAD SWAP1 PUSH2 0x100 EXP SWAP1 DIV PUSH20 0xFFFFFFFFFFFFFFFFFFFFFFFFFFFFFFFFFFFFFFFF AND DUP2 JUMP JUMPDEST PUSH2 0x6D0 PUSH2 0x16EF JUMP JUMPDEST PUSH0 PUSH1 0x32 DUP3 DUP2 SLOAD DUP2 LT PUSH2 0x6E5 JUMPI PUSH2 0x6E4 PUSH2 0x24D7 JUMP JUMPDEST JUMPDEST SWAP1 PUSH0 MSTORE PUSH1 0x20 PUSH0 KECCAK256 SWAP1 PUSH1 0x7 MUL ADD SWAP1 POP PUSH0 PUSH1 0x33 PUSH0 DUP5 DUP2 MSTORE PUSH1 0x20 ADD SWAP1 DUP2 MSTORE PUSH1 0x20 ADD PUSH0 KECCAK256 PUSH0 CALLER PUSH20 0xFFFFFFFFFFFFFFFFFFFFFFFFFFFFFFFFFFFFFFFF AND PUSH20 0xFFFFFFFFFFFFFFFFFFFFFFFFFFFFFFFFFFFFFFFF AND DUP2 MSTORE PUSH1 0x20 ADD SWAP1 DUP2 MSTORE PUSH1 0x20 ADD PUSH0 KECCAK256 SWAP1 POP PUSH0 DUP2 PUSH0 ADD SLOAD GT PUSH2 0x787 JUMPI PUSH1 0x40 MLOAD PUSH32 0x8C379A000000000000000000000000000000000000000000000000000000000 DUP2 MSTORE PUSH1 0x4 ADD PUSH2 0x77E SWAP1 PUSH2 0x255E JUMP JUMPDEST PUSH1 0x40 MLOAD DUP1 SWAP2 SUB SWAP1 REVERT JUMPDEST PUSH0 DUP2 PUSH0 ADD SLOAD SWAP1 POP PUSH0 DUP3 PUSH0 ADD DUP2 SWAP1 SSTORE POP PUSH0 DUP3 PUSH1 0x1 ADD DUP2 SWAP1 SSTORE POP DUP1 DUP4 PUSH1 0x4 ADD PUSH0 DUP3 DUP3 SLOAD PUSH2 0x7B2 SWAP2 SWAP1 PUSH2 0x25A9 JUMP JUMPDEST SWAP3 POP POP DUP2 SWAP1 SSTORE POP PUSH2 0x806 CALLER DUP3 DUP6 PUSH0 ADD PUSH0 SWAP1 SLOAD SWAP1 PUSH2 0x100 EXP SWAP1 DIV PUSH20 0xFFFFFFFFFFFFFFFFFFFFFFFFFFFFFFFFFFFFFFFF AND PUSH20 0xFFFFFFFFFFFFFFFFFFFFFFFFFFFFFFFFFFFFFFFF AND PUSH2 0x173C SWAP1 SWAP3 SWAP2 SWAP1 PUSH4 0xFFFFFFFF AND JUMP JUMPDEST DUP4 CALLER PUSH20 0xFFFFFFFFFFFFFFFFFFFFFFFFFFFFFFFFFFFFFFFF AND PUSH32 0xBB757047C2B5F3974FE26B7C10F732E7BCE710B0952A71082702781E62AE0595 DUP4 PUSH1 0x40 MLOAD PUSH2 0x84D SWAP2 SWAP1 PUSH2 0x1FF1 JUMP JUMPDEST PUSH1 0x40 MLOAD DUP1 SWAP2 SUB SWAP1 LOG3 POP POP POP PUSH2 0x860 PUSH2 0x17C2 JUMP JUMPDEST POP JUMP JUMPDEST PUSH1 0x35 PUSH1 0x20 MSTORE DUP1 PUSH0 MSTORE PUSH1 0x40 PUSH0 KECCAK256 PUSH0 SWAP2 POP SWAP1 POP SLOAD DUP2 JUMP JUMPDEST PUSH1 0x3C PUSH0 SWAP1 SLOAD SWAP1 PUSH2 0x100 EXP SWAP1 DIV PUSH1 0xFF AND DUP2 JUMP JUMPDEST PUSH2 0x892 PUSH2 0x1668 JUMP JUMPDEST PUSH2 0x89B PUSH0 PUSH2 0x17CB JUMP JUMPDEST JUMP JUMPDEST PUSH2 0x8A5 PUSH2 0x16EF JUMP JUMPDEST PUSH1 0x3C PUSH0 SWAP1 SLOAD SWAP1 PUSH2 0x100 EXP SWAP1 DIV PUSH1 0xFF AND ISZERO PUSH2 0x8F4 JUMPI PUSH1 0x40 MLOAD PUSH32 0x8C379A000000000000000000000000000000000000000000000000000000000 DUP2 MSTORE PUSH1 0x4 ADD PUSH2 0x8EB SWAP1 PUSH2 0x2626 JUMP JUMPDEST PUSH1 0x40 MLOAD DUP1 SWAP2 SUB SWAP1 REVERT JUMPDEST PUSH0 DUP2 GT PUSH2 0x936 JUMPI PUSH1 0x40 MLOAD PUSH32 0x8C379A000000000000000000000000000000000000000000000000000000000 DUP2 MSTORE PUSH1 0x4 ADD PUSH2 0x92D SWAP1 PUSH2 0x268E JUMP JUMPDEST PUSH1 0x40 MLOAD DUP1 SWAP2 SUB SWAP1 REVERT JUMPDEST PUSH0 PUSH1 0x32 DUP4 DUP2 SLOAD DUP2 LT PUSH2 0x94B JUMPI PUSH2 0x94A PUSH2 0x24D7 JUMP JUMPDEST JUMPDEST SWAP1 PUSH0 MSTORE PUSH1 0x20 PUSH0 KECCAK256 SWAP1 PUSH1 0x7 MUL ADD SWAP1 POP PUSH0 PUSH1 0x33 PUSH0 DUP6 DUP2 MSTORE PUSH1 0x20 ADD SWAP1 DUP2 MSTORE PUSH1 0x20 ADD PUSH0 KECCAK256 PUSH0 CALLER PUSH20 0xFFFFFFFFFFFFFFFFFFFFFFFFFFFFFFFFFFFFFFFF AND PUSH20 0xFFFFFFFFFFFFFFFFFFFFFFFFFFFFFFFFFFFFFFFF AND DUP2 MSTORE PUSH1 0x20 ADD SWAP1 DUP2 MSTORE PUSH1 0x20 ADD PUSH0 KECCAK256 SWAP1 POP PUSH2 0x9B1 DUP5 PUSH2 0x189C JUMP JUMPDEST PUSH2 0x9BB DUP5 CALLER PUSH2 0x193A JUMP JUMPDEST PUSH2 0xA0A CALLER ADDRESS DUP6 DUP6 PUSH0 ADD PUSH0 SWAP1 SLOAD SWAP1 PUSH2 0x100 EXP SWAP1 DIV PUSH20 0xFFFFFFFFFFFFFFFFFFFFFFFFFFFFFFFFFFFFFFFF AND PUSH20 0xFFFFFFFFFFFFFFFFFFFFFFFFFFFFFFFFFFFFFFFF AND PUSH2 0x1B2A SWAP1 SWAP4 SWAP3 SWAP2 SWAP1 PUSH4 0xFFFFFFFF AND JUMP JUMPDEST DUP3 DUP2 PUSH0 ADD PUSH0 DUP3 DUP3 SLOAD PUSH2 0xA1C SWAP2 SWAP1 PUSH2 0x26AC JUMP JUMPDEST SWAP3 POP POP DUP2 SWAP1 SSTORE POP DUP2 PUSH1 0x3 ADD SLOAD TIMESTAMP PUSH2 0xA33 SWAP2 SWAP1 PUSH2 0x26AC JUMP JUMPDEST DUP2 PUSH1 0x2 ADD DUP2 SWAP1 SSTORE POP DUP3 DUP3 PUSH1 0x4 ADD PUSH0 DUP3 DUP3 SLOAD PUSH2 0xA4E SWAP2 SWAP1 PUSH2 0x26AC JUMP JUMPDEST SWAP3 POP POP DUP2 SWAP1 SSTORE POP DUP4 CALLER PUSH20 0xFFFFFFFFFFFFFFFFFFFFFFFFFFFFFFFFFFFFFFFF AND PUSH32 0xB4CAAF29ADDA3EEFEE3AD552A8E85058589BF834C7466CAE4EE58787F70589ED DUP6 DUP5 PUSH1 0x2 ADD SLOAD PUSH1 0x40 MLOAD PUSH2 0xAA2 SWAP3 SWAP2 SWAP1 PUSH2 0x26DF JUMP JUMPDEST PUSH1 0x40 MLOAD DUP1 SWAP2 SUB SWAP1 LOG3 POP POP PUSH2 0xAB4 PUSH2 0x17C2 JUMP JUMPDEST POP POP JUMP JUMPDEST PUSH2 0xAC0 PUSH2 0x1668 JUMP JUMPDEST PUSH1 0x1 PUSH1 0x3C PUSH0 PUSH2 0x100 EXP DUP2 SLOAD DUP2 PUSH1 0xFF MUL NOT AND SWAP1 DUP4 ISZERO ISZERO MUL OR SWAP1 SSTORE POP JUMP JUMPDEST PUSH0 PUSH2 0xAE5 PUSH2 0x1BB3 JUMP JUMPDEST SWAP1 POP PUSH0 DUP2 PUSH0 ADD PUSH1 0x8 SWAP1 SLOAD SWAP1 PUSH2 0x100 EXP SWAP1 DIV PUSH1 0xFF AND ISZERO SWAP1 POP PUSH0 DUP3 PUSH0 ADD PUSH0 SWAP1 SLOAD SWAP1 PUSH2 0x100 EXP SWAP1 DIV PUSH8 0xFFFFFFFFFFFFFFFF AND SWAP1 POP PUSH0 DUP1 DUP3 PUSH8 0xFFFFFFFFFFFFFFFF AND EQ DUP1 ISZERO PUSH2 0xB2D JUMPI POP DUP3 JUMPDEST SWAP1 POP PUSH0 PUSH1 0x1 DUP4 PUSH8 0xFFFFFFFFFFFFFFFF AND EQ DUP1 ISZERO PUSH2 0xB60 JUMPI POP PUSH0 ADDRESS PUSH20 0xFFFFFFFFFFFFFFFFFFFFFFFFFFFFFFFFFFFFFFFF AND EXTCODESIZE EQ JUMPDEST SWAP1 POP DUP2 ISZERO DUP1 ISZERO PUSH2 0xB6E JUMPI POP DUP1 ISZERO JUMPDEST ISZERO PUSH2 0xBA5 JUMPI PUSH1 0x40 MLOAD PUSH32 0xF92EE8A900000000000000000000000000000000000000000000000000000000 DUP2 MSTORE PUSH1 0x4 ADD PUSH1 0x40 MLOAD DUP1 SWAP2 SUB SWAP1 REVERT JUMPDEST PUSH1 0x1 DUP6 PUSH0 ADD PUSH0 PUSH2 0x100 EXP DUP2 SLOAD DUP2 PUSH8 0xFFFFFFFFFFFFFFFF MUL NOT AND SWAP1 DUP4 PUSH8 0xFFFFFFFFFFFFFFFF AND MUL OR SWAP1 SSTORE POP DUP4 ISZERO PUSH2 0xBF2 JUMPI PUSH1 0x1 DUP6 PUSH0 ADD PUSH1 0x8 PUSH2 0x100 EXP DUP2 SLOAD DUP2 PUSH1 0xFF MUL NOT AND SWAP1 DUP4 ISZERO ISZERO MUL OR SWAP1 SSTORE POP JUMPDEST PUSH2 0xBFB CALLER PUSH2 0x1BDA JUMP JUMPDEST PUSH2 0xC03 PUSH2 0x1BEE JUMP JUMPDEST DUP13 PUSH1 0x3D PUSH0 PUSH2 0x100 EXP DUP2 SLOAD DUP2 PUSH20 0xFFFFFFFFFFFFFFFFFFFFFFFFFFFFFFFFFFFFFFFF MUL NOT AND SWAP1 DUP4 PUSH20 0xFFFFFFFFFFFFFFFFFFFFFFFFFFFFFFFFFFFFFFFF AND MUL OR SWAP1 SSTORE POP DUP12 PUSH1 0x3C PUSH1 0x1 PUSH2 0x100 EXP DUP2 SLOAD DUP2 PUSH20 0xFFFFFFFFFFFFFFFFFFFFFFFFFFFFFFFFFFFFFFFF MUL NOT AND SWAP1 DUP4 PUSH20 0xFFFFFFFFFFFFFFFFFFFFFFFFFFFFFFFFFFFFFFFF AND MUL OR SWAP1 SSTORE POP DUP11 PUSH1 0x36 DUP2 SWAP1 SSTORE POP DUP10 PUSH1 0x37 DUP2 SWAP1 SSTORE POP DUP9 PUSH1 0x38 DUP2 SWAP1 SSTORE POP DUP8 PUSH1 0x39 DUP2 SWAP1 SSTORE POP DUP7 PUSH1 0x3A DUP2 SWAP1 SSTORE POP DUP6 PUSH1 0x3B DUP2 SWAP1 SSTORE POP DUP4 ISZERO PUSH2 0xD08 JUMPI PUSH0 DUP6 PUSH0 ADD PUSH1 0x8 PUSH2 0x100 EXP DUP2 SLOAD DUP2 PUSH1 0xFF MUL NOT AND SWAP1 DUP4 ISZERO ISZERO MUL OR SWAP1 SSTORE POP PUSH32 0xC7F505B2F371AE2175EE4913F4499E1F2633A7B5936321EED1CDAEB6115181D2 PUSH1 0x1 PUSH1 0x40 MLOAD PUSH2 0xCFF SWAP2 SWAP1 PUSH2 0x2752 JUMP JUMPDEST PUSH1 0x40 MLOAD DUP1 SWAP2 SUB SWAP1 LOG1 JUMPDEST POP POP POP POP POP POP POP POP POP POP POP POP POP JUMP JUMPDEST PUSH0 DUP1 PUSH2 0xD21 PUSH2 0x1C00 JUMP JUMPDEST SWAP1 POP DUP1 PUSH0 ADD PUSH0 SWAP1 SLOAD SWAP1 PUSH2 0x100 EXP SWAP1 DIV PUSH20 0xFFFFFFFFFFFFFFFFFFFFFFFFFFFFFFFFFFFFFFFF AND SWAP2 POP POP SWAP1 JUMP JUMPDEST PUSH2 0xD54 PUSH2 0x16EF JUMP JUMPDEST PUSH0 PUSH1 0x32 DUP4 DUP2 SLOAD DUP2 LT PUSH2 0xD69 JUMPI PUSH2 0xD68 PUSH2 0x24D7 JUMP JUMPDEST JUMPDEST SWAP1 PUSH0 MSTORE PUSH1 0x20 PUSH0 KECCAK256 SWAP1 PUSH1 0x7 MUL ADD SWAP1 POP PUSH0 PUSH1 0x33 PUSH0 DUP6 DUP2 MSTORE PUSH1 0x20 ADD SWAP1 DUP2 MSTORE PUSH1 0x20 ADD PUSH0 KECCAK256 PUSH0 CALLER PUSH20 0xFFFFFFFFFFFFFFFFFFFFFFFFFFFFFFFFFFFFFFFF AND PUSH20 0xFFFFFFFFFFFFFFFFFFFFFFFFFFFFFFFFFFFFFFFF AND DUP2 MSTORE PUSH1 0x20 ADD SWAP1 DUP2 MSTORE PUSH1 0x20 ADD PUSH0 KECCAK256 SWAP1 POP DUP3 DUP2 PUSH0 ADD SLOAD LT ISZERO PUSH2 0xE0C JUMPI PUSH1 0x40 MLOAD PUSH32 0x8C379A000000000000000000000000000000000000000000000000000000000 DUP2 MSTORE PUSH1 0x4 ADD PUSH2 0xE03 SWAP1 PUSH2 0x27B5 JUMP JUMPDEST PUSH1 0x40 MLOAD DUP1 SWAP2 SUB SWAP1 REVERT JUMPDEST DUP1 PUSH1 0x2 ADD SLOAD TIMESTAMP LT ISZERO PUSH2 0xE53 JUMPI PUSH1 0x40 MLOAD PUSH32 0x8C379A000000000000000000000000000000000000000000000000000000000 DUP2 MSTORE PUSH1 0x4 ADD PUSH2 0xE4A SWAP1 PUSH2 0x281D JUMP JUMPDEST PUSH1 0x40 MLOAD DUP1 SWAP2 SUB SWAP1 REVERT JUMPDEST PUSH2 0xE5C DUP5 PUSH2 0x189C JUMP JUMPDEST PUSH2 0xE66 DUP5 CALLER PUSH2 0x193A JUMP JUMPDEST DUP3 DUP2 PUSH0 ADD PUSH0 DUP3 DUP3 SLOAD PUSH2 0xE78 SWAP2 SWAP1 PUSH2 0x25A9 JUMP JUMPDEST SWAP3 POP POP DUP2 SWAP1 SSTORE POP DUP3 DUP3 PUSH1 0x4 ADD PUSH0 DUP3 DUP3 SLOAD PUSH2 0xE92 SWAP2 SWAP1 PUSH2 0x25A9 JUMP JUMPDEST SWAP3 POP POP DUP2 SWAP1 SSTORE POP PUSH2 0xEE6 CALLER DUP5 DUP5 PUSH0 ADD PUSH0 SWAP1 SLOAD SWAP1 PUSH2 0x100 EXP SWAP1 DIV PUSH20 0xFFFFFFFFFFFFFFFFFFFFFFFFFFFFFFFFFFFFFFFF AND PUSH20 0xFFFFFFFFFFFFFFFFFFFFFFFFFFFFFFFFFFFFFFFF AND PUSH2 0x173C SWAP1 SWAP3 SWAP2 SWAP1 PUSH4 0xFFFFFFFF AND JUMP JUMPDEST DUP4 CALLER PUSH20 0xFFFFFFFFFFFFFFFFFFFFFFFFFFFFFFFFFFFFFFFF AND PUSH32 0x7FC4727E062E336010F2C282598EF5F14FACB3DE68CF8195C2F23E1454B2B74E DUP6 PUSH1 0x40 MLOAD PUSH2 0xF2D SWAP2 SWAP1 PUSH2 0x1FF1 JUMP JUMPDEST PUSH1 0x40 MLOAD DUP1 SWAP2 SUB SWAP1 LOG3 POP POP PUSH2 0xF3F PUSH2 0x17C2 JUMP JUMPDEST POP POP JUMP JUMPDEST PUSH0 PUSH20 0xFFFFFFFFFFFFFFFFFFFFFFFFFFFFFFFFFFFFFFFF AND PUSH1 0x34 PUSH0 CALLER PUSH20 0xFFFFFFFFFFFFFFFFFFFFFFFFFFFFFFFFFFFFFFFF AND PUSH20 0xFFFFFFFFFFFFFFFFFFFFFFFFFFFFFFFFFFFFFFFF AND DUP2 MSTORE PUSH1 0x20 ADD SWAP1 DUP2 MSTORE PUSH1 0x20 ADD PUSH0 KECCAK256 PUSH0 SWAP1 SLOAD SWAP1 PUSH2 0x100 EXP SWAP1 DIV PUSH20 0xFFFFFFFFFFFFFFFFFFFFFFFFFFFFFFFFFFFFFFFF AND PUSH20 0xFFFFFFFFFFFFFFFFFFFFFFFFFFFFFFFFFFFFFFFF AND EQ PUSH2 0x100D JUMPI PUSH1 0x40 MLOAD PUSH32 0x8C379A000000000000000000000000000000000000000000000000000000000 DUP2 MSTORE PUSH1 0x4 ADD PUSH2 0x1004 SWAP1 PUSH2 0x2885 JUMP JUMPDEST PUSH1 0x40 MLOAD DUP1 SWAP2 SUB SWAP1 REVERT JUMPDEST CALLER PUSH20 0xFFFFFFFFFFFFFFFFFFFFFFFFFFFFFFFFFFFFFFFF AND DUP2 PUSH20 0xFFFFFFFFFFFFFFFFFFFFFFFFFFFFFFFFFFFFFFFF AND SUB PUSH2 0x107B JUMPI PUSH1 0x40 MLOAD PUSH32 0x8C379A000000000000000000000000000000000000000000000000000000000 DUP2 MSTORE PUSH1 0x4 ADD PUSH2 0x1072 SWAP1 PUSH2 0x28ED JUMP JUMPDEST PUSH1 0x40 MLOAD DUP1 SWAP2 SUB SWAP1 REVERT JUMPDEST DUP1 PUSH1 0x34 PUSH0 CALLER PUSH20 0xFFFFFFFFFFFFFFFFFFFFFFFFFFFFFFFFFFFFFFFF AND PUSH20 0xFFFFFFFFFFFFFFFFFFFFFFFFFFFFFFFFFFFFFFFF AND DUP2 MSTORE PUSH1 0x20 ADD SWAP1 DUP2 MSTORE PUSH1 0x20 ADD PUSH0 KECCAK256 PUSH0 PUSH2 0x100 EXP DUP2 SLOAD DUP2 PUSH20 0xFFFFFFFFFFFFFFFFFFFFFFFFFFFFFFFFFFFFFFFF MUL NOT AND SWAP1 DUP4 PUSH20 0xFFFFFFFFFFFFFFFFFFFFFFFFFFFFFFFFFFFFFFFF AND MUL OR SWAP1 SSTORE POP PUSH1 0x3A SLOAD PUSH1 0x35 PUSH0 DUP4 PUSH20 0xFFFFFFFFFFFFFFFFFFFFFFFFFFFFFFFFFFFFFFFF AND PUSH20 0xFFFFFFFFFFFFFFFFFFFFFFFFFFFFFFFFFFFFFFFF AND DUP2 MSTORE PUSH1 0x20 ADD SWAP1 DUP2 MSTORE PUSH1 0x20 ADD PUSH0 KECCAK256 PUSH0 DUP3 DUP3 SLOAD PUSH2 0x1144 SWAP2 SWAP1 PUSH2 0x26AC JUMP JUMPDEST SWAP3 POP POP DUP2 SWAP1 SSTORE POP PUSH1 0x3B SLOAD PUSH1 0x35 PUSH0 CALLER PUSH20 0xFFFFFFFFFFFFFFFFFFFFFFFFFFFFFFFFFFFFFFFF AND PUSH20 0xFFFFFFFFFFFFFFFFFFFFFFFFFFFFFFFFFFFFFFFF AND DUP2 MSTORE PUSH1 0x20 ADD SWAP1 DUP2 MSTORE PUSH1 0x20 ADD PUSH0 KECCAK256 PUSH0 DUP3 DUP3 SLOAD PUSH2 0x1199 SWAP2 SWAP1 PUSH2 0x26AC JUMP JUMPDEST SWAP3 POP POP DUP2 SWAP1 SSTORE POP DUP1 PUSH20 0xFFFFFFFFFFFFFFFFFFFFFFFFFFFFFFFFFFFFFFFF AND CALLER PUSH20 0xFFFFFFFFFFFFFFFFFFFFFFFFFFFFFFFFFFFFFFFF AND PUSH32 0x5F7165288EEF601591CF549E15FF19EF9060B7F71B9C115BE946FA1FE7EBF68A PUSH1 0x40 MLOAD PUSH1 0x40 MLOAD DUP1 SWAP2 SUB SWAP1 LOG3 POP JUMP JUMPDEST PUSH2 0x1205 PUSH2 0x16EF JUMP JUMPDEST PUSH2 0x120E DUP2 PUSH2 0x189C JUMP JUMPDEST PUSH2 0x1218 DUP2 CALLER PUSH2 0x193A JUMP JUMPDEST PUSH0 PUSH1 0x33 PUSH0 DUP4 DUP2 MSTORE PUSH1 0x20 ADD SWAP1 DUP2 MSTORE PUSH1 0x20 ADD PUSH0 KECCAK256 PUSH0 CALLER PUSH20 0xFFFFFFFFFFFFFFFFFFFFFFFFFFFFFFFFFFFFFFFF AND PUSH20 0xFFFFFFFFFFFFFFFFFFFFFFFFFFFFFFFFFFFFFFFF AND DUP2 MSTORE PUSH1 0x20 ADD SWAP1 DUP2 MSTORE PUSH1 0x20 ADD PUSH0 KECCAK256 PUSH1 0x1 ADD SLOAD SWAP1 POP PUSH0 PUSH1 0x33 PUSH0 DUP5 DUP2 MSTORE PUSH1 0x20 ADD SWAP1 DUP2 MSTORE PUSH1 0x20 ADD PUSH0 KECCAK256 PUSH0 CALLER PUSH20 0xFFFFFFFFFFFFFFFFFFFFFFFFFFFFFFFFFFFFFFFF AND PUSH20 0xFFFFFFFFFFFFFFFFFFFFFFFFFFFFFFFFFFFFFFFF AND DUP2 MSTORE PUSH1 0x20 ADD SWAP1 DUP2 MSTORE PUSH1 0x20 ADD PUSH0 KECCAK256 PUSH1 0x1 ADD DUP2 SWAP1 SSTORE POP PUSH2 0x132C CALLER DUP3 PUSH1 0x32 DUP6 DUP2 SLOAD DUP2 LT PUSH2 0x12D8 JUMPI PUSH2 0x12D7 PUSH2 0x24D7 JUMP JUMPDEST JUMPDEST SWAP1 PUSH0 MSTORE PUSH1 0x20 PUSH0 KECCAK256 SWAP1 PUSH1 0x7 MUL ADD PUSH1 0x1 ADD PUSH0 SWAP1 SLOAD SWAP1 PUSH2 0x100 EXP SWAP1 DIV PUSH20 0xFFFFFFFFFFFFFFFFFFFFFFFFFFFFFFFFFFFFFFFF AND PUSH20 0xFFFFFFFFFFFFFFFFFFFFFFFFFFFFFFFFFFFFFFFF AND PUSH2 0x173C SWAP1 SWAP3 SWAP2 SWAP1 PUSH4 0xFFFFFFFF AND JUMP JUMPDEST DUP2 CALLER PUSH20 0xFFFFFFFFFFFFFFFFFFFFFFFFFFFFFFFFFFFFFFFF AND PUSH32 0xD6F2C8500DF5B44F11E9E48B91FF9F1B9D81BC496D55570C2B1B75BF65243F51 DUP4 PUSH1 0x40 MLOAD PUSH2 0x1373 SWAP2 SWAP1 PUSH2 0x1FF1 JUMP JUMPDEST PUSH1 0x40 MLOAD DUP1 SWAP2 SUB SWAP1 LOG3 POP PUSH2 0x1384 PUSH2 0x17C2 JUMP JUMPDEST POP JUMP JUMPDEST PUSH1 0x36 SLOAD DUP2 JUMP JUMPDEST PUSH2 0x1395 PUSH2 0x1668 JUMP JUMPDEST PUSH1 0x32 PUSH1 0x40 MLOAD DUP1 PUSH1 0xE0 ADD PUSH1 0x40 MSTORE DUP1 DUP7 PUSH20 0xFFFFFFFFFFFFFFFFFFFFFFFFFFFFFFFFFFFFFFFF AND DUP2 MSTORE PUSH1 0x20 ADD DUP6 PUSH20 0xFFFFFFFFFFFFFFFFFFFFFFFFFFFFFFFFFFFFFFFF AND DUP2 MSTORE PUSH1 0x20 ADD DUP5 DUP2 MSTORE PUSH1 0x20 ADD DUP4 DUP2 MSTORE PUSH1 0x20 ADD PUSH0 DUP2 MSTORE PUSH1 0x20 ADD PUSH0 DUP2 MSTORE PUSH1 0x20 ADD TIMESTAMP DUP2 MSTORE POP SWAP1 DUP1 PUSH1 0x1 DUP2 SLOAD ADD DUP1 DUP3 SSTORE DUP1 SWAP2 POP POP PUSH1 0x1 SWAP1 SUB SWAP1 PUSH0 MSTORE PUSH1 0x20 PUSH0 KECCAK256 SWAP1 PUSH1 0x7 MUL ADD PUSH0 SWAP1 SWAP2 SWAP1 SWAP2 SWAP1 SWAP2 POP PUSH0 DUP3 ADD MLOAD DUP2 PUSH0 ADD PUSH0 PUSH2 0x100 EXP DUP2 SLOAD DUP2 PUSH20 0xFFFFFFFFFFFFFFFFFFFFFFFFFFFFFFFFFFFFFFFF MUL NOT AND SWAP1 DUP4 PUSH20 0xFFFFFFFFFFFFFFFFFFFFFFFFFFFFFFFFFFFFFFFF AND MUL OR SWAP1 SSTORE POP PUSH1 0x20 DUP3 ADD MLOAD DUP2 PUSH1 0x1 ADD PUSH0 PUSH2 0x100 EXP DUP2 SLOAD DUP2 PUSH20 0xFFFFFFFFFFFFFFFFFFFFFFFFFFFFFFFFFFFFFFFF MUL NOT AND SWAP1 DUP4 PUSH20 0xFFFFFFFFFFFFFFFFFFFFFFFFFFFFFFFFFFFFFFFF AND MUL OR SWAP1 SSTORE POP PUSH1 0x40 DUP3 ADD MLOAD DUP2 PUSH1 0x2 ADD SSTORE PUSH1 0x60 DUP3 ADD MLOAD DUP2 PUSH1 0x3 ADD SSTORE PUSH1 0x80 DUP3 ADD MLOAD DUP2 PUSH1 0x4 ADD SSTORE PUSH1 0xA0 DUP3 ADD MLOAD DUP2 PUSH1 0x5 ADD SSTORE PUSH1 0xC0 DUP3 ADD MLOAD DUP2 PUSH1 0x6 ADD SSTORE POP POP PUSH1 0x1 PUSH1 0x32 DUP1 SLOAD SWAP1 POP PUSH2 0x14EC SWAP2 SWAP1 PUSH2 0x25A9 JUMP JUMPDEST PUSH32 0xE1111AD6E2CCAF57D3D9AA458493B64BCF6A66C2028304B95772FE72E1FC3612 DUP6 DUP6 DUP6 DUP6 PUSH1 0x40 MLOAD PUSH2 0x1521 SWAP5 SWAP4 SWAP3 SWAP2 SWAP1 PUSH2 0x290B JUMP JUMPDEST PUSH1 0x40 MLOAD DUP1 SWAP2 SUB SWAP1 LOG2 POP POP POP POP JUMP JUMPDEST PUSH1 0x3A SLOAD DUP2 JUMP JUMPDEST PUSH1 0x3B SLOAD DUP2 JUMP JUMPDEST PUSH1 0x3C PUSH1 0x1 SWAP1 SLOAD SWAP1 PUSH2 0x100 EXP SWAP1 DIV PUSH20 0xFFFFFFFFFFFFFFFFFFFFFFFFFFFFFFFFFFFFFFFF AND DUP2 JUMP JUMPDEST PUSH2 0x1569 PUSH2 0x1668 JUMP JUMPDEST PUSH2 0x15B5 DUP3 DUP3 PUSH1 0x3D PUSH0 SWAP1 SLOAD SWAP1 PUSH2 0x100 EXP SWAP1 DIV PUSH20 0xFFFFFFFFFFFFFFFFFFFFFFFFFFFFFFFFFFFFFFFF AND PUSH20 0xFFFFFFFFFFFFFFFFFFFFFFFFFFFFFFFFFFFFFFFF AND PUSH2 0x173C SWAP1 SWAP3 SWAP2 SWAP1 PUSH4 0xFFFFFFFF AND JUMP JUMPDEST POP POP JUMP JUMPDEST PUSH1 0x39 SLOAD DUP2 JUMP JUMPDEST PUSH2 0x15C7 PUSH2 0x1668 JUMP JUMPDEST PUSH0 PUSH20 0xFFFFFFFFFFFFFFFFFFFFFFFFFFFFFFFFFFFFFFFF AND DUP2 PUSH20 0xFFFFFFFFFFFFFFFFFFFFFFFFFFFFFFFFFFFFFFFF AND SUB PUSH2 0x1637 JUMPI PUSH0 PUSH1 0x40 MLOAD PUSH32 0x1E4FBDF700000000000000000000000000000000000000000000000000000000 DUP2 MSTORE PUSH1 0x4 ADD PUSH2 0x162E SWAP2 SWAP1 PUSH2 0x2270 JUMP JUMPDEST PUSH1 0x40 MLOAD DUP1 SWAP2 SUB SWAP1 REVERT JUMPDEST PUSH2 0x1640 DUP2 PUSH2 0x17CB JUMP JUMPDEST POP JUMP JUMPDEST PUSH1 0x3D PUSH0 SWAP1 SLOAD SWAP1 PUSH2 0x100 EXP SWAP1 DIV PUSH20 0xFFFFFFFFFFFFFFFFFFFFFFFFFFFFFFFFFFFFFFFF AND DUP2 JUMP JUMPDEST PUSH2 0x1670 PUSH2 0x1C27 JUMP JUMPDEST PUSH20 0xFFFFFFFFFFFFFFFFFFFFFFFFFFFFFFFFFFFFFFFF AND PUSH2 0x168E PUSH2 0xD17 JUMP JUMPDEST PUSH20 0xFFFFFFFFFFFFFFFFFFFFFFFFFFFFFFFFFFFFFFFF AND EQ PUSH2 0x16ED JUMPI PUSH2 0x16B1 PUSH2 0x1C27 JUMP JUMPDEST PUSH1 0x40 MLOAD PUSH32 0x118CDAA700000000000000000000000000000000000000000000000000000000 DUP2 MSTORE PUSH1 0x4 ADD PUSH2 0x16E4 SWAP2 SWAP1 PUSH2 0x2270 JUMP JUMPDEST PUSH1 0x40 MLOAD DUP1 SWAP2 SUB SWAP1 REVERT JUMPDEST JUMP JUMPDEST PUSH1 0x2 PUSH0 SLOAD SUB PUSH2 0x1733 JUMPI PUSH1 0x40 MLOAD PUSH32 0x8C379A000000000000000000000000000000000000000000000000000000000 DUP2 MSTORE PUSH1 0x4 ADD PUSH2 0x172A SWAP1 PUSH2 0x2998 JUMP JUMPDEST PUSH1 0x40 MLOAD DUP1 SWAP2 SUB SWAP1 REVERT JUMPDEST PUSH1 0x2 PUSH0 DUP2 SWAP1 SSTORE POP JUMP JUMPDEST PUSH2 0x17BD DUP4 PUSH4 0xA9059CBB PUSH1 0xE0 SHL DUP5 DUP5 PUSH1 0x40 MLOAD PUSH1 0x24 ADD PUSH2 0x175B SWAP3 SWAP2 SWAP1 PUSH2 0x29B6 JUMP JUMPDEST PUSH1 0x40 MLOAD PUSH1 0x20 DUP2 DUP4 SUB SUB DUP2 MSTORE SWAP1 PUSH1 0x40 MSTORE SWAP1 PUSH28 0xFFFFFFFFFFFFFFFFFFFFFFFFFFFFFFFFFFFFFFFFFFFFFFFFFFFFFFFF NOT AND PUSH1 0x20 DUP3 ADD DUP1 MLOAD PUSH28 0xFFFFFFFFFFFFFFFFFFFFFFFFFFFFFFFFFFFFFFFFFFFFFFFFFFFFFFFF DUP4 DUP2 DUP4 AND OR DUP4 MSTORE POP POP POP POP PUSH2 0x1C2E JUMP JUMPDEST POP POP POP JUMP JUMPDEST PUSH1 0x1 PUSH0 DUP2 SWAP1 SSTORE POP JUMP JUMPDEST PUSH0 PUSH2 0x17D4 PUSH2 0x1C00 JUMP JUMPDEST SWAP1 POP PUSH0 DUP2 PUSH0 ADD PUSH0 SWAP1 SLOAD SWAP1 PUSH2 0x100 EXP SWAP1 DIV PUSH20 0xFFFFFFFFFFFFFFFFFFFFFFFFFFFFFFFFFFFFFFFF AND SWAP1 POP DUP3 DUP3 PUSH0 ADD PUSH0 PUSH2 0x100 EXP DUP2 SLOAD DUP2 PUSH20 0xFFFFFFFFFFFFFFFFFFFFFFFFFFFFFFFFFFFFFFFF MUL NOT AND SWAP1 DUP4 PUSH20 0xFFFFFFFFFFFFFFFFFFFFFFFFFFFFFFFFFFFFFFFF AND MUL OR SWAP1 SSTORE POP DUP3 PUSH20 0xFFFFFFFFFFFFFFFFFFFFFFFFFFFFFFFFFFFFFFFF AND DUP2 PUSH20 0xFFFFFFFFFFFFFFFFFFFFFFFFFFFFFFFFFFFFFFFF AND PUSH32 0x8BE0079C531659141344CD1FD0A4F28419497F9722A3DAAFE3B4186F6B6457E0 PUSH1 0x40 MLOAD PUSH1 0x40 MLOAD DUP1 SWAP2 SUB SWAP1 LOG3 POP POP POP JUMP JUMPDEST PUSH0 PUSH1 0x32 DUP3 DUP2 SLOAD DUP2 LT PUSH2 0x18B1 JUMPI PUSH2 0x18B0 PUSH2 0x24D7 JUMP JUMPDEST JUMPDEST SWAP1 PUSH0 MSTORE PUSH1 0x20 PUSH0 KECCAK256 SWAP1 PUSH1 0x7 MUL ADD SWAP1 POP PUSH0 DUP2 PUSH1 0x4 ADD SLOAD GT ISZERO PUSH2 0x192D JUMPI PUSH0 DUP2 PUSH1 0x6 ADD SLOAD TIMESTAMP PUSH2 0x18DC SWAP2 SWAP1 PUSH2 0x25A9 JUMP JUMPDEST SWAP1 POP PUSH0 DUP3 PUSH1 0x2 ADD SLOAD DUP3 PUSH2 0x18EF SWAP2 SWAP1 PUSH2 0x29DD JUMP JUMPDEST SWAP1 POP DUP3 PUSH1 0x4 ADD SLOAD PUSH5 0xE8D4A51000 DUP3 PUSH2 0x1907 SWAP2 SWAP1 PUSH2 0x29DD JUMP JUMPDEST PUSH2 0x1911 SWAP2 SWAP1 PUSH2 0x2A4B JUMP JUMPDEST DUP4 PUSH1 0x5 ADD PUSH0 DUP3 DUP3 SLOAD PUSH2 0x1923 SWAP2 SWAP1 PUSH2 0x26AC JUMP JUMPDEST SWAP3 POP POP DUP2 SWAP1 SSTORE POP POP POP JUMPDEST TIMESTAMP DUP2 PUSH1 0x6 ADD DUP2 SWAP1 SSTORE POP POP POP JUMP JUMPDEST PUSH0 PUSH1 0x32 DUP4 DUP2 SLOAD DUP2 LT PUSH2 0x194F JUMPI PUSH2 0x194E PUSH2 0x24D7 JUMP JUMPDEST JUMPDEST SWAP1 PUSH0 MSTORE PUSH1 0x20 PUSH0 KECCAK256 SWAP1 PUSH1 0x7 MUL ADD SWAP1 POP PUSH0 PUSH1 0x33 PUSH0 DUP6 DUP2 MSTORE PUSH1 0x20 ADD SWAP1 DUP2 MSTORE PUSH1 0x20 ADD PUSH0 KECCAK256 PUSH0 DUP5 PUSH20 0xFFFFFFFFFFFFFFFFFFFFFFFFFFFFFFFFFFFFFFFF AND PUSH20 0xFFFFFFFFFFFFFFFFFFFFFFFFFFFFFFFFFFFFFFFF AND DUP2 MSTORE PUSH1 0x20 ADD SWAP1 DUP2 MSTORE PUSH1 0x20 ADD PUSH0 KECCAK256 SWAP1 POP PUSH0 DUP2 PUSH0 ADD SLOAD GT ISZERO PUSH2 0x1B24 JUMPI PUSH0 DUP2 PUSH1 0x1 ADD SLOAD PUSH5 0xE8D4A51000 DUP5 PUSH1 0x5 ADD SLOAD DUP5 PUSH0 ADD SLOAD PUSH2 0x19D6 SWAP2 SWAP1 PUSH2 0x29DD JUMP JUMPDEST PUSH2 0x19E0 SWAP2 SWAP1 PUSH2 0x2A4B JUMP JUMPDEST PUSH2 0x19EA SWAP2 SWAP1 PUSH2 0x25A9 JUMP JUMPDEST SWAP1 POP PUSH0 DUP4 PUSH1 0x3 ADD SLOAD DUP4 PUSH1 0x2 ADD SLOAD PUSH2 0x1A01 SWAP2 SWAP1 PUSH2 0x25A9 JUMP JUMPDEST TIMESTAMP PUSH2 0x1A0C SWAP2 SWAP1 PUSH2 0x25A9 JUMP JUMPDEST SWAP1 POP PUSH0 PUSH2 0x1A18 DUP3 PUSH2 0x1CF4 JUMP JUMPDEST SWAP1 POP PUSH1 0x36 SLOAD DUP2 PUSH1 0x36 SLOAD PUSH2 0x1A2B SWAP2 SWAP1 PUSH2 0x26AC JUMP JUMPDEST DUP5 PUSH2 0x1A36 SWAP2 SWAP1 PUSH2 0x29DD JUMP JUMPDEST PUSH2 0x1A40 SWAP2 SWAP1 PUSH2 0x2A4B JUMP JUMPDEST SWAP3 POP DUP3 DUP5 PUSH1 0x1 ADD DUP2 SWAP1 SSTORE POP PUSH0 PUSH1 0x3C PUSH1 0x1 SWAP1 SLOAD SWAP1 PUSH2 0x100 EXP SWAP1 DIV PUSH20 0xFFFFFFFFFFFFFFFFFFFFFFFFFFFFFFFFFFFFFFFF AND PUSH20 0xFFFFFFFFFFFFFFFFFFFFFFFFFFFFFFFFFFFFFFFF AND PUSH4 0x70A08231 DUP9 PUSH1 0x40 MLOAD DUP3 PUSH4 0xFFFFFFFF AND PUSH1 0xE0 SHL DUP2 MSTORE PUSH1 0x4 ADD PUSH2 0x1AA7 SWAP2 SWAP1 PUSH2 0x2270 JUMP JUMPDEST PUSH1 0x20 PUSH1 0x40 MLOAD DUP1 DUP4 SUB DUP2 DUP7 GAS STATICCALL ISZERO DUP1 ISZERO PUSH2 0x1AC2 JUMPI RETURNDATASIZE PUSH0 DUP1 RETURNDATACOPY RETURNDATASIZE PUSH0 REVERT JUMPDEST POP POP POP POP PUSH1 0x40 MLOAD RETURNDATASIZE PUSH1 0x1F NOT PUSH1 0x1F DUP3 ADD AND DUP3 ADD DUP1 PUSH1 0x40 MSTORE POP DUP2 ADD SWAP1 PUSH2 0x1AE6 SWAP2 SWAP1 PUSH2 0x2A8F JUMP JUMPDEST GT ISZERO PUSH2 0x1B20 JUMPI PUSH1 0x64 PUSH1 0x39 SLOAD DUP5 PUSH2 0x1AFC SWAP2 SWAP1 PUSH2 0x29DD JUMP JUMPDEST PUSH2 0x1B06 SWAP2 SWAP1 PUSH2 0x2A4B JUMP JUMPDEST DUP5 PUSH1 0x1 ADD PUSH0 DUP3 DUP3 SLOAD PUSH2 0x1B18 SWAP2 SWAP1 PUSH2 0x26AC JUMP JUMPDEST SWAP3 POP POP DUP2 SWAP1 SSTORE POP JUMPDEST POP POP POP JUMPDEST POP POP POP POP JUMP JUMPDEST PUSH2 0x1BAD DUP5 PUSH4 0x23B872DD PUSH1 0xE0 SHL DUP6 DUP6 DUP6 PUSH1 0x40 MLOAD PUSH1 0x24 ADD PUSH2 0x1B4B SWAP4 SWAP3 SWAP2 SWAP1 PUSH2 0x2ABA JUMP JUMPDEST PUSH1 0x40 MLOAD PUSH1 0x20 DUP2 DUP4 SUB SUB DUP2 MSTORE SWAP1 PUSH1 0x40 MSTORE SWAP1 PUSH28 0xFFFFFFFFFFFFFFFFFFFFFFFFFFFFFFFFFFFFFFFFFFFFFFFFFFFFFFFF NOT AND PUSH1 0x20 DUP3 ADD DUP1 MLOAD PUSH28 0xFFFFFFFFFFFFFFFFFFFFFFFFFFFFFFFFFFFFFFFFFFFFFFFFFFFFFFFF DUP4 DUP2 DUP4 AND OR DUP4 MSTORE POP POP POP POP PUSH2 0x1C2E JUMP JUMPDEST POP POP POP POP JUMP JUMPDEST PUSH0 PUSH32 0xF0C57E16840DF040F15088DC2F81FE391C3923BEC73E23A9662EFC9C229C6A00 SWAP1 POP SWAP1 JUMP JUMPDEST PUSH2 0x1BE2 PUSH2 0x1D21 JUMP JUMPDEST PUSH2 0x1BEB DUP2 PUSH2 0x1D61 JUMP JUMPDEST POP JUMP JUMPDEST PUSH2 0x1BF6 PUSH2 0x1D21 JUMP JUMPDEST PUSH2 0x1BFE PUSH2 0x1DE5 JUMP JUMPDEST JUMP JUMPDEST PUSH0 PUSH32 0x9016D09D72D40FDAE2FD8CEAC6B6234C7706214FD39C1CD1E609A0528C199300 SWAP1 POP SWAP1 JUMP JUMPDEST PUSH0 CALLER SWAP1 POP SWAP1 JUMP JUMPDEST PUSH0 PUSH2 0x1C8F DUP3 PUSH1 0x40 MLOAD DUP1 PUSH1 0x40 ADD PUSH1 0x40 MSTORE DUP1 PUSH1 0x20 DUP2 MSTORE PUSH1 0x20 ADD PUSH32 0x5361666545524332303A206C6F772D6C6576656C2063616C6C206661696C6564 DUP2 MSTORE POP DUP6 PUSH20 0xFFFFFFFFFFFFFFFFFFFFFFFFFFFFFFFFFFFFFFFF AND PUSH2 0x1DF6 SWAP1 SWAP3 SWAP2 SWAP1 PUSH4 0xFFFFFFFF AND JUMP JUMPDEST SWAP1 POP PUSH0 DUP2 MLOAD EQ DUP1 PUSH2 0x1CB0 JUMPI POP DUP1 DUP1 PUSH1 0x20 ADD SWAP1 MLOAD DUP2 ADD SWAP1 PUSH2 0x1CAF SWAP2 SWAP1 PUSH2 0x2B19 JUMP JUMPDEST JUMPDEST PUSH2 0x1CEF JUMPI PUSH1 0x40 MLOAD PUSH32 0x8C379A000000000000000000000000000000000000000000000000000000000 DUP2 MSTORE PUSH1 0x4 ADD PUSH2 0x1CE6 SWAP1 PUSH2 0x2BB4 JUMP JUMPDEST PUSH1 0x40 MLOAD DUP1 SWAP2 SUB SWAP1 REVERT JUMPDEST POP POP POP JUMP JUMPDEST PUSH0 DUP1 PUSH1 0x38 SLOAD DUP4 PUSH2 0x1D04 SWAP2 SWAP1 PUSH2 0x2A4B JUMP JUMPDEST SWAP1 POP PUSH1 0x37 SLOAD DUP2 GT PUSH2 0x1D15 JUMPI DUP1 PUSH2 0x1D19 JUMP JUMPDEST PUSH1 0x37 SLOAD JUMPDEST SWAP2 POP POP SWAP2 SWAP1 POP JUMP JUMPDEST PUSH2 0x1D29 PUSH2 0x1E0D JUMP JUMPDEST PUSH2 0x1D5F JUMPI PUSH1 0x40 MLOAD PUSH32 0xD7E6BCF800000000000000000000000000000000000000000000000000000000 DUP2 MSTORE PUSH1 0x4 ADD PUSH1 0x40 MLOAD DUP1 SWAP2 SUB SWAP1 REVERT JUMPDEST JUMP JUMPDEST PUSH2 0x1D69 PUSH2 0x1D21 JUMP JUMPDEST PUSH0 PUSH20 0xFFFFFFFFFFFFFFFFFFFFFFFFFFFFFFFFFFFFFFFF AND DUP2 PUSH20 0xFFFFFFFFFFFFFFFFFFFFFFFFFFFFFFFFFFFFFFFF AND SUB PUSH2 0x1DD9 JUMPI PUSH0 PUSH1 0x40 MLOAD PUSH32 0x1E4FBDF700000000000000000000000000000000000000000000000000000000 DUP2 MSTORE PUSH1 0x4 ADD PUSH2 0x1DD0 SWAP2 SWAP1 PUSH2 0x2270 JUMP JUMPDEST PUSH1 0x40 MLOAD DUP1 SWAP2 SUB SWAP1 REVERT JUMPDEST PUSH2 0x1DE2 DUP2 PUSH2 0x17CB JUMP JUMPDEST POP JUMP JUMPDEST PUSH2 0x1DED PUSH2 0x1D21 JUMP JUMPDEST PUSH1 0x1 PUSH0 DUP2 SWAP1 SSTORE POP JUMP JUMPDEST PUSH1 0x60 PUSH2 0x1E04 DUP5 DUP5 PUSH0 DUP6 PUSH2 0x1E2B JUMP JUMPDEST SWAP1 POP SWAP4 SWAP3 POP POP POP JUMP JUMPDEST PUSH0 PUSH2 0x1E16 PUSH2 0x1BB3 JUMP JUMPDEST PUSH0 ADD PUSH1 0x8 SWAP1 SLOAD SWAP1 PUSH2 0x100 EXP SWAP1 DIV PUSH1 0xFF AND SWAP1 POP SWAP1 JUMP JUMPDEST PUSH1 0x60 DUP3 SELFBALANCE LT ISZERO PUSH2 0x1E70 JUMPI PUSH1 0x40 MLOAD PUSH32 0x8C379A000000000000000000000000000000000000000000000000000000000 DUP2 MSTORE PUSH1 0x4 ADD PUSH2 0x1E67 SWAP1 PUSH2 0x2C42 JUMP JUMPDEST PUSH1 0x40 MLOAD DUP1 SWAP2 SUB SWAP1 REVERT JUMPDEST PUSH0 DUP1 DUP7 PUSH20 0xFFFFFFFFFFFFFFFFFFFFFFFFFFFFFFFFFFFFFFFF AND DUP6 DUP8 PUSH1 0x40 MLOAD PUSH2 0x1E98 SWAP2 SWAP1 PUSH2 0x2CB2 JUMP JUMPDEST PUSH0 PUSH1 0x40 MLOAD DUP1 DUP4 SUB DUP2 DUP6 DUP8 GAS CALL SWAP3 POP POP POP RETURNDATASIZE DUP1 PUSH0 DUP2 EQ PUSH2 0x1ED2 JUMPI PUSH1 0x40 MLOAD SWAP2 POP PUSH1 0x1F NOT PUSH1 0x3F RETURNDATASIZE ADD AND DUP3 ADD PUSH1 0x40 MSTORE RETURNDATASIZE DUP3 MSTORE RETURNDATASIZE PUSH0 PUSH1 0x20 DUP5 ADD RETURNDATACOPY PUSH2 0x1ED7 JUMP JUMPDEST PUSH1 0x60 SWAP2 POP JUMPDEST POP SWAP2 POP SWAP2 POP PUSH2 0x1EE8 DUP8 DUP4 DUP4 DUP8 PUSH2 0x1EF4 JUMP JUMPDEST SWAP3 POP POP POP SWAP5 SWAP4 POP POP POP POP JUMP JUMPDEST PUSH1 0x60 DUP4 ISZERO PUSH2 0x1F55 JUMPI PUSH0 DUP4 MLOAD SUB PUSH2 0x1F4D JUMPI PUSH2 0x1F0D DUP6 PUSH2 0x1F68 JUMP JUMPDEST PUSH2 0x1F4C JUMPI PUSH1 0x40 MLOAD PUSH32 0x8C379A000000000000000000000000000000000000000000000000000000000 DUP2 MSTORE PUSH1 0x4 ADD PUSH2 0x1F43 SWAP1 PUSH2 0x2D12 JUMP JUMPDEST PUSH1 0x40 MLOAD DUP1 SWAP2 SUB SWAP1 REVERT JUMPDEST JUMPDEST DUP3 SWAP1 POP PUSH2 0x1F60 JUMP JUMPDEST PUSH2 0x1F5F DUP4 DUP4 PUSH2 0x1F8A JUMP JUMPDEST JUMPDEST SWAP5 SWAP4 POP POP POP POP JUMP JUMPDEST PUSH0 DUP1 DUP3 PUSH20 0xFFFFFFFFFFFFFFFFFFFFFFFFFFFFFFFFFFFFFFFF AND EXTCODESIZE GT SWAP1 POP SWAP2 SWAP1 POP JUMP JUMPDEST PUSH0 DUP3 MLOAD GT ISZERO PUSH2 0x1F9C JUMPI DUP2 MLOAD DUP1 DUP4 PUSH1 0x20 ADD REVERT JUMPDEST DUP1 PUSH1 0x40 MLOAD PUSH32 0x8C379A000000000000000000000000000000000000000000000000000000000 DUP2 MSTORE PUSH1 0x4 ADD PUSH2 0x1FD0 SWAP2 SWAP1 PUSH2 0x2D82 JUMP JUMPDEST PUSH1 0x40 MLOAD DUP1 SWAP2 SUB SWAP1 REVERT JUMPDEST PUSH0 DUP2 SWAP1 POP SWAP2 SWAP1 POP JUMP JUMPDEST PUSH2 0x1FEB DUP2 PUSH2 0x1FD9 JUMP JUMPDEST DUP3 MSTORE POP POP JUMP JUMPDEST PUSH0 PUSH1 0x20 DUP3 ADD SWAP1 POP PUSH2 0x2004 PUSH0 DUP4 ADD DUP5 PUSH2 0x1FE2 JUMP JUMPDEST SWAP3 SWAP2 POP POP JUMP JUMPDEST PUSH0 DUP1 REVERT JUMPDEST PUSH2 0x2017 DUP2 PUSH2 0x1FD9 JUMP JUMPDEST DUP2 EQ PUSH2 0x2021 JUMPI PUSH0 DUP1 REVERT JUMPDEST POP JUMP JUMPDEST PUSH0 DUP2 CALLDATALOAD SWAP1 POP PUSH2 0x2032 DUP2 PUSH2 0x200E JUMP JUMPDEST SWAP3 SWAP2 POP POP JUMP JUMPDEST PUSH0 DUP1 PUSH1 0x40 DUP4 DUP6 SUB SLT ISZERO PUSH2 0x204E JUMPI PUSH2 0x204D PUSH2 0x200A JUMP JUMPDEST JUMPDEST PUSH0 PUSH2 0x205B DUP6 DUP3 DUP7 ADD PUSH2 0x2024 JUMP JUMPDEST SWAP3 POP POP PUSH1 0x20 PUSH2 0x206C DUP6 DUP3 DUP7 ADD PUSH2 0x2024 JUMP JUMPDEST SWAP2 POP POP SWAP3 POP SWAP3 SWAP1 POP JUMP JUMPDEST PUSH0 PUSH1 0x20 DUP3 DUP5 SUB SLT ISZERO PUSH2 0x208B JUMPI PUSH2 0x208A PUSH2 0x200A JUMP JUMPDEST JUMPDEST PUSH0 PUSH2 0x2098 DUP5 DUP3 DUP6 ADD PUSH2 0x2024 JUMP JUMPDEST SWAP2 POP POP SWAP3 SWAP2 POP POP JUMP JUMPDEST PUSH0 PUSH20 0xFFFFFFFFFFFFFFFFFFFFFFFFFFFFFFFFFFFFFFFF DUP3 AND SWAP1 POP SWAP2 SWAP1 POP JUMP JUMPDEST PUSH0 DUP2 SWAP1 POP SWAP2 SWAP1 POP JUMP JUMPDEST PUSH0 PUSH2 0x20E3 PUSH2 0x20DE PUSH2 0x20D9 DUP5 PUSH2 0x20A1 JUMP JUMPDEST PUSH2 0x20C0 JUMP JUMPDEST PUSH2 0x20A1 JUMP JUMPDEST SWAP1 POP SWAP2 SWAP1 POP JUMP JUMPDEST PUSH0 PUSH2 0x20F4 DUP3 PUSH2 0x20C9 JUMP JUMPDEST SWAP1 POP SWAP2 SWAP1 POP JUMP JUMPDEST PUSH0 PUSH2 0x2105 DUP3 PUSH2 0x20EA JUMP JUMPDEST SWAP1 POP SWAP2 SWAP1 POP JUMP JUMPDEST PUSH2 0x2115 DUP2 PUSH2 0x20FB JUMP JUMPDEST DUP3 MSTORE POP POP JUMP JUMPDEST PUSH0 PUSH1 0xE0 DUP3 ADD SWAP1 POP PUSH2 0x212E PUSH0 DUP4 ADD DUP11 PUSH2 0x210C JUMP JUMPDEST PUSH2 0x213B PUSH1 0x20 DUP4 ADD DUP10 PUSH2 0x210C JUMP JUMPDEST PUSH2 0x2148 PUSH1 0x40 DUP4 ADD DUP9 PUSH2 0x1FE2 JUMP JUMPDEST PUSH2 0x2155 PUSH1 0x60 DUP4 ADD DUP8 PUSH2 0x1FE2 JUMP JUMPDEST PUSH2 0x2162 PUSH1 0x80 DUP4 ADD DUP7 PUSH2 0x1FE2 JUMP JUMPDEST PUSH2 0x216F PUSH1 0xA0 DUP4 ADD DUP6 PUSH2 0x1FE2 JUMP JUMPDEST PUSH2 0x217C PUSH1 0xC0 DUP4 ADD DUP5 PUSH2 0x1FE2 JUMP JUMPDEST SWAP9 SWAP8 POP POP POP POP POP POP POP POP JUMP JUMPDEST PUSH0 PUSH2 0x2192 DUP3 PUSH2 0x20A1 JUMP JUMPDEST SWAP1 POP SWAP2 SWAP1 POP JUMP JUMPDEST PUSH2 0x21A2 DUP2 PUSH2 0x2188 JUMP JUMPDEST DUP2 EQ PUSH2 0x21AC JUMPI PUSH0 DUP1 REVERT JUMPDEST POP JUMP JUMPDEST PUSH0 DUP2 CALLDATALOAD SWAP1 POP PUSH2 0x21BD DUP2 PUSH2 0x2199 JUMP JUMPDEST SWAP3 SWAP2 POP POP JUMP JUMPDEST PUSH0 DUP1 PUSH1 0x40 DUP4 DUP6 SUB SLT ISZERO PUSH2 0x21D9 JUMPI PUSH2 0x21D8 PUSH2 0x200A JUMP JUMPDEST JUMPDEST PUSH0 PUSH2 0x21E6 DUP6 DUP3 DUP7 ADD PUSH2 0x2024 JUMP JUMPDEST SWAP3 POP POP PUSH1 0x20 PUSH2 0x21F7 DUP6 DUP3 DUP7 ADD PUSH2 0x21AF JUMP JUMPDEST SWAP2 POP POP SWAP3 POP SWAP3 SWAP1 POP JUMP JUMPDEST PUSH0 PUSH1 0x60 DUP3 ADD SWAP1 POP PUSH2 0x2214 PUSH0 DUP4 ADD DUP7 PUSH2 0x1FE2 JUMP JUMPDEST PUSH2 0x2221 PUSH1 0x20 DUP4 ADD DUP6 PUSH2 0x1FE2 JUMP JUMPDEST PUSH2 0x222E PUSH1 0x40 DUP4 ADD DUP5 PUSH2 0x1FE2 JUMP JUMPDEST SWAP5 SWAP4 POP POP POP POP JUMP JUMPDEST PUSH0 PUSH1 0x20 DUP3 DUP5 SUB SLT ISZERO PUSH2 0x224B JUMPI PUSH2 0x224A PUSH2 0x200A JUMP JUMPDEST JUMPDEST PUSH0 PUSH2 0x2258 DUP5 DUP3 DUP6 ADD PUSH2 0x21AF JUMP JUMPDEST SWAP2 POP POP SWAP3 SWAP2 POP POP JUMP JUMPDEST PUSH2 0x226A DUP2 PUSH2 0x2188 JUMP JUMPDEST DUP3 MSTORE POP POP JUMP JUMPDEST PUSH0 PUSH1 0x20 DUP3 ADD SWAP1 POP PUSH2 0x2283 PUSH0 DUP4 ADD DUP5 PUSH2 0x2261 JUMP JUMPDEST SWAP3 SWAP2 POP POP JUMP JUMPDEST PUSH0 DUP2 ISZERO ISZERO SWAP1 POP SWAP2 SWAP1 POP JUMP JUMPDEST PUSH2 0x229D DUP2 PUSH2 0x2289 JUMP JUMPDEST DUP3 MSTORE POP POP JUMP JUMPDEST PUSH0 PUSH1 0x20 DUP3 ADD SWAP1 POP PUSH2 0x22B6 PUSH0 DUP4 ADD DUP5 PUSH2 0x2294 JUMP JUMPDEST SWAP3 SWAP2 POP POP JUMP JUMPDEST PUSH0 PUSH2 0x22C6 DUP3 PUSH2 0x2188 JUMP JUMPDEST SWAP1 POP SWAP2 SWAP1 POP JUMP JUMPDEST PUSH2 0x22D6 DUP2 PUSH2 0x22BC JUMP JUMPDEST DUP2 EQ PUSH2 0x22E0 JUMPI PUSH0 DUP1 REVERT JUMPDEST POP JUMP JUMPDEST PUSH0 DUP2 CALLDATALOAD SWAP1 POP PUSH2 0x22F1 DUP2 PUSH2 0x22CD JUMP JUMPDEST SWAP3 SWAP2 POP POP JUMP JUMPDEST PUSH0 PUSH2 0x2301 DUP3 PUSH2 0x2188 JUMP JUMPDEST SWAP1 POP SWAP2 SWAP1 POP JUMP JUMPDEST PUSH2 0x2311 DUP2 PUSH2 0x22F7 JUMP JUMPDEST DUP2 EQ PUSH2 0x231B JUMPI PUSH0 DUP1 REVERT JUMPDEST POP JUMP JUMPDEST PUSH0 DUP2 CALLDATALOAD SWAP1 POP PUSH2 0x232C DUP2 PUSH2 0x2308 JUMP JUMPDEST SWAP3 SWAP2 POP POP JUMP JUMPDEST PUSH0 DUP1 PUSH0 DUP1 PUSH0 DUP1 PUSH0 DUP1 PUSH2 0x100 DUP10 DUP12 SUB SLT ISZERO PUSH2 0x234F JUMPI PUSH2 0x234E PUSH2 0x200A JUMP JUMPDEST JUMPDEST PUSH0 PUSH2 0x235C DUP12 DUP3 DUP13 ADD PUSH2 0x22E3 JUMP JUMPDEST SWAP9 POP POP PUSH1 0x20 PUSH2 0x236D DUP12 DUP3 DUP13 ADD PUSH2 0x231E JUMP JUMPDEST SWAP8 POP POP PUSH1 0x40 PUSH2 0x237E DUP12 DUP3 DUP13 ADD PUSH2 0x2024 JUMP JUMPDEST SWAP7 POP POP PUSH1 0x60 PUSH2 0x238F DUP12 DUP3 DUP13 ADD PUSH2 0x2024 JUMP JUMPDEST SWAP6 POP POP PUSH1 0x80 PUSH2 0x23A0 DUP12 DUP3 DUP13 ADD PUSH2 0x2024 JUMP JUMPDEST SWAP5 POP POP PUSH1 0xA0 PUSH2 0x23B1 DUP12 DUP3 DUP13 ADD PUSH2 0x2024 JUMP JUMPDEST SWAP4 POP POP PUSH1 0xC0 PUSH2 0x23C2 DUP12 DUP3 DUP13 ADD PUSH2 0x2024 JUMP JUMPDEST SWAP3 POP POP PUSH1 0xE0 PUSH2 0x23D3 DUP12 DUP3 DUP13 ADD PUSH2 0x2024 JUMP JUMPDEST SWAP2 POP POP SWAP3 SWAP6 SWAP9 POP SWAP3 SWAP6 SWAP9 SWAP1 SWAP4 SWAP7 POP JUMP JUMPDEST PUSH0 DUP1 PUSH0 DUP1 PUSH1 0x80 DUP6 DUP8 SUB SLT ISZERO PUSH2 0x23FB JUMPI PUSH2 0x23FA PUSH2 0x200A JUMP JUMPDEST JUMPDEST PUSH0 PUSH2 0x2408 DUP8 DUP3 DUP9 ADD PUSH2 0x22E3 JUMP JUMPDEST SWAP5 POP POP PUSH1 0x20 PUSH2 0x2419 DUP8 DUP3 DUP9 ADD PUSH2 0x22E3 JUMP JUMPDEST SWAP4 POP POP PUSH1 0x40 PUSH2 0x242A DUP8 DUP3 DUP9 ADD PUSH2 0x2024 JUMP JUMPDEST SWAP3 POP POP PUSH1 0x60 PUSH2 0x243B DUP8 DUP3 DUP9 ADD PUSH2 0x2024 JUMP JUMPDEST SWAP2 POP POP SWAP3 SWAP6 SWAP2 SWAP5 POP SWAP3 POP JUMP JUMPDEST PUSH0 PUSH2 0x2451 DUP3 PUSH2 0x20EA JUMP JUMPDEST SWAP1 POP SWAP2 SWAP1 POP JUMP JUMPDEST PUSH2 0x2461 DUP2 PUSH2 0x2447 JUMP JUMPDEST DUP3 MSTORE POP POP JUMP JUMPDEST PUSH0 PUSH1 0x20 DUP3 ADD SWAP1 POP PUSH2 0x247A PUSH0 DUP4 ADD DUP5 PUSH2 0x2458 JUMP JUMPDEST SWAP3 SWAP2 POP POP JUMP JUMPDEST PUSH0 DUP1 PUSH1 0x40 DUP4 DUP6 SUB SLT ISZERO PUSH2 0x2496 JUMPI PUSH2 0x2495 PUSH2 0x200A JUMP JUMPDEST JUMPDEST PUSH0 PUSH2 0x24A3 DUP6 DUP3 DUP7 ADD PUSH2 0x21AF JUMP JUMPDEST SWAP3 POP POP PUSH1 0x20 PUSH2 0x24B4 DUP6 DUP3 DUP7 ADD PUSH2 0x2024 JUMP JUMPDEST SWAP2 POP POP SWAP3 POP SWAP3 SWAP1 POP JUMP JUMPDEST PUSH0 PUSH1 0x20 DUP3 ADD SWAP1 POP PUSH2 0x24D1 PUSH0 DUP4 ADD DUP5 PUSH2 0x210C JUMP JUMPDEST SWAP3 SWAP2 POP POP JUMP JUMPDEST PUSH32 0x4E487B7100000000000000000000000000000000000000000000000000000000 PUSH0 MSTORE PUSH1 0x32 PUSH1 0x4 MSTORE PUSH1 0x24 PUSH0 REVERT JUMPDEST PUSH0 DUP3 DUP3 MSTORE PUSH1 0x20 DUP3 ADD SWAP1 POP SWAP3 SWAP2 POP POP JUMP JUMPDEST PUSH32 0x4E6F207374616B656420616D6F756E7400000000000000000000000000000000 PUSH0 DUP3 ADD MSTORE POP JUMP JUMPDEST PUSH0 PUSH2 0x2548 PUSH1 0x10 DUP4 PUSH2 0x2504 JUMP JUMPDEST SWAP2 POP PUSH2 0x2553 DUP3 PUSH2 0x2514 JUMP JUMPDEST PUSH1 0x20 DUP3 ADD SWAP1 POP SWAP2 SWAP1 POP JUMP JUMPDEST PUSH0 PUSH1 0x20 DUP3 ADD SWAP1 POP DUP2 DUP2 SUB PUSH0 DUP4 ADD MSTORE PUSH2 0x2575 DUP2 PUSH2 0x253C JUMP JUMPDEST SWAP1 POP SWAP2 SWAP1 POP JUMP JUMPDEST PUSH32 0x4E487B7100000000000000000000000000000000000000000000000000000000 PUSH0 MSTORE PUSH1 0x11 PUSH1 0x4 MSTORE PUSH1 0x24 PUSH0 REVERT JUMPDEST PUSH0 PUSH2 0x25B3 DUP3 PUSH2 0x1FD9 JUMP JUMPDEST SWAP2 POP PUSH2 0x25BE DUP4 PUSH2 0x1FD9 JUMP JUMPDEST SWAP3 POP DUP3 DUP3 SUB SWAP1 POP DUP2 DUP2 GT ISZERO PUSH2 0x25D6 JUMPI PUSH2 0x25D5 PUSH2 0x257C JUMP JUMPDEST JUMPDEST SWAP3 SWAP2 POP POP JUMP JUMPDEST PUSH32 0x436F6E7472616374206973207061757365640000000000000000000000000000 PUSH0 DUP3 ADD MSTORE POP JUMP JUMPDEST PUSH0 PUSH2 0x2610 PUSH1 0x12 DUP4 PUSH2 0x2504 JUMP JUMPDEST SWAP2 POP PUSH2 0x261B DUP3 PUSH2 0x25DC JUMP JUMPDEST PUSH1 0x20 DUP3 ADD SWAP1 POP SWAP2 SWAP1 POP JUMP JUMPDEST PUSH0 PUSH1 0x20 DUP3 ADD SWAP1 POP DUP2 DUP2 SUB PUSH0 DUP4 ADD MSTORE PUSH2 0x263D DUP2 PUSH2 0x2604 JUMP JUMPDEST SWAP1 POP SWAP2 SWAP1 POP JUMP JUMPDEST PUSH32 0x43616E6E6F74207374616B652030000000000000000000000000000000000000 PUSH0 DUP3 ADD MSTORE POP JUMP JUMPDEST PUSH0 PUSH2 0x2678 PUSH1 0xE DUP4 PUSH2 0x2504 JUMP JUMPDEST SWAP2 POP PUSH2 0x2683 DUP3 PUSH2 0x2644 JUMP JUMPDEST PUSH1 0x20 DUP3 ADD SWAP1 POP SWAP2 SWAP1 POP JUMP JUMPDEST PUSH0 PUSH1 0x20 DUP3 ADD SWAP1 POP DUP2 DUP2 SUB PUSH0 DUP4 ADD MSTORE PUSH2 0x26A5 DUP2 PUSH2 0x266C JUMP JUMPDEST SWAP1 POP SWAP2 SWAP1 POP JUMP JUMPDEST PUSH0 PUSH2 0x26B6 DUP3 PUSH2 0x1FD9 JUMP JUMPDEST SWAP2 POP PUSH2 0x26C1 DUP4 PUSH2 0x1FD9 JUMP JUMPDEST SWAP3 POP DUP3 DUP3 ADD SWAP1 POP DUP1 DUP3 GT ISZERO PUSH2 0x26D9 JUMPI PUSH2 0x26D8 PUSH2 0x257C JUMP JUMPDEST JUMPDEST SWAP3 SWAP2 POP POP JUMP JUMPDEST PUSH0 PUSH1 0x40 DUP3 ADD SWAP1 POP PUSH2 0x26F2 PUSH0 DUP4 ADD DUP6 PUSH2 0x1FE2 JUMP JUMPDEST PUSH2 0x26FF PUSH1 0x20 DUP4 ADD DUP5 PUSH2 0x1FE2 JUMP JUMPDEST SWAP4 SWAP3 POP POP POP JUMP JUMPDEST PUSH0 DUP2 SWAP1 POP SWAP2 SWAP1 POP JUMP JUMPDEST PUSH0 PUSH8 0xFFFFFFFFFFFFFFFF DUP3 AND SWAP1 POP SWAP2 SWAP1 POP JUMP JUMPDEST PUSH0 PUSH2 0x273C PUSH2 0x2737 PUSH2 0x2732 DUP5 PUSH2 0x2706 JUMP JUMPDEST PUSH2 0x20C0 JUMP JUMPDEST PUSH2 0x270F JUMP JUMPDEST SWAP1 POP SWAP2 SWAP1 POP JUMP JUMPDEST PUSH2 0x274C DUP2 PUSH2 0x2722 JUMP JUMPDEST DUP3 MSTORE POP POP JUMP JUMPDEST PUSH0 PUSH1 0x20 DUP3 ADD SWAP1 POP PUSH2 0x2765 PUSH0 DUP4 ADD DUP5 PUSH2 0x2743 JUMP JUMPDEST SWAP3 SWAP2 POP POP JUMP JUMPDEST PUSH32 0x496E73756666696369656E74207374616B656420616D6F756E74000000000000 PUSH0 DUP3 ADD MSTORE POP JUMP JUMPDEST PUSH0 PUSH2 0x279F PUSH1 0x1A DUP4 PUSH2 0x2504 JUMP JUMPDEST SWAP2 POP PUSH2 0x27AA DUP3 PUSH2 0x276B JUMP JUMPDEST PUSH1 0x20 DUP3 ADD SWAP1 POP SWAP2 SWAP1 POP JUMP JUMPDEST PUSH0 PUSH1 0x20 DUP3 ADD SWAP1 POP DUP2 DUP2 SUB PUSH0 DUP4 ADD MSTORE PUSH2 0x27CC DUP2 PUSH2 0x2793 JUMP JUMPDEST SWAP1 POP SWAP2 SWAP1 POP JUMP JUMPDEST PUSH32 0x5374616B65206973207374696C6C206C6F636B65640000000000000000000000 PUSH0 DUP3 ADD MSTORE POP JUMP JUMPDEST PUSH0 PUSH2 0x2807 PUSH1 0x15 DUP4 PUSH2 0x2504 JUMP JUMPDEST SWAP2 POP PUSH2 0x2812 DUP3 PUSH2 0x27D3 JUMP JUMPDEST PUSH1 0x20 DUP3 ADD SWAP1 POP SWAP2 SWAP1 POP JUMP JUMPDEST PUSH0 PUSH1 0x20 DUP3 ADD SWAP1 POP DUP2 DUP2 SUB PUSH0 DUP4 ADD MSTORE PUSH2 0x2834 DUP2 PUSH2 0x27FB JUMP JUMPDEST SWAP1 POP SWAP2 SWAP1 POP JUMP JUMPDEST PUSH32 0x526566657272657220616C726561647920736574000000000000000000000000 PUSH0 DUP3 ADD MSTORE POP JUMP JUMPDEST PUSH0 PUSH2 0x286F PUSH1 0x14 DUP4 PUSH2 0x2504 JUMP JUMPDEST SWAP2 POP PUSH2 0x287A DUP3 PUSH2 0x283B JUMP JUMPDEST PUSH1 0x20 DUP3 ADD SWAP1 POP SWAP2 SWAP1 POP JUMP JUMPDEST PUSH0 PUSH1 0x20 DUP3 ADD SWAP1 POP DUP2 DUP2 SUB PUSH0 DUP4 ADD MSTORE PUSH2 0x289C DUP2 PUSH2 0x2863 JUMP JUMPDEST SWAP1 POP SWAP2 SWAP1 POP JUMP JUMPDEST PUSH32 0x43616E6E6F7420726566657220796F757273656C660000000000000000000000 PUSH0 DUP3 ADD MSTORE POP JUMP JUMPDEST PUSH0 PUSH2 0x28D7 PUSH1 0x15 DUP4 PUSH2 0x2504 JUMP JUMPDEST SWAP2 POP PUSH2 0x28E2 DUP3 PUSH2 0x28A3 JUMP JUMPDEST PUSH1 0x20 DUP3 ADD SWAP1 POP SWAP2 SWAP1 POP JUMP JUMPDEST PUSH0 PUSH1 0x20 DUP3 ADD SWAP1 POP DUP2 DUP2 SUB PUSH0 DUP4 ADD MSTORE PUSH2 0x2904 DUP2 PUSH2 0x28CB JUMP JUMPDEST SWAP1 POP SWAP2 SWAP1 POP JUMP JUMPDEST PUSH0 PUSH1 0x80 DUP3 ADD SWAP1 POP PUSH2 0x291E PUSH0 DUP4 ADD DUP8 PUSH2 0x2261 JUMP JUMPDEST PUSH2 0x292B PUSH1 0x20 DUP4 ADD DUP7 PUSH2 0x2261 JUMP JUMPDEST PUSH2 0x2938 PUSH1 0x40 DUP4 ADD DUP6 PUSH2 0x1FE2 JUMP JUMPDEST PUSH2 0x2945 PUSH1 0x60 DUP4 ADD DUP5 PUSH2 0x1FE2 JUMP JUMPDEST SWAP6 SWAP5 POP POP POP POP POP JUMP JUMPDEST PUSH32 0x5265656E7472616E637947756172643A207265656E7472616E742063616C6C00 PUSH0 DUP3 ADD MSTORE POP JUMP JUMPDEST PUSH0 PUSH2 0x2982 PUSH1 0x1F DUP4 PUSH2 0x2504 JUMP JUMPDEST SWAP2 POP PUSH2 0x298D DUP3 PUSH2 0x294E JUMP JUMPDEST PUSH1 0x20 DUP3 ADD SWAP1 POP SWAP2 SWAP1 POP JUMP JUMPDEST PUSH0 PUSH1 0x20 DUP3 ADD SWAP1 POP DUP2 DUP2 SUB PUSH0 DUP4 ADD MSTORE PUSH2 0x29AF DUP2 PUSH2 0x2976 JUMP JUMPDEST SWAP1 POP SWAP2 SWAP1 POP JUMP JUMPDEST PUSH0 PUSH1 0x40 DUP3 ADD SWAP1 POP PUSH2 0x29C9 PUSH0 DUP4 ADD DUP6 PUSH2 0x2261 JUMP JUMPDEST PUSH2 0x29D6 PUSH1 0x20 DUP4 ADD DUP5 PUSH2 0x1FE2 JUMP JUMPDEST SWAP4 SWAP3 POP POP POP JUMP JUMPDEST PUSH0 PUSH2 0x29E7 DUP3 PUSH2 0x1FD9 JUMP JUMPDEST SWAP2 POP PUSH2 0x29F2 DUP4 PUSH2 0x1FD9 JUMP JUMPDEST SWAP3 POP DUP3 DUP3 MUL PUSH2 0x2A00 DUP2 PUSH2 0x1FD9 JUMP JUMPDEST SWAP2 POP DUP3 DUP3 DIV DUP5 EQ DUP4 ISZERO OR PUSH2 0x2A17 JUMPI PUSH2 0x2A16 PUSH2 0x257C JUMP JUMPDEST JUMPDEST POP SWAP3 SWAP2 POP POP JUMP JUMPDEST PUSH32 0x4E487B7100000000000000000000000000000000000000000000000000000000 PUSH0 MSTORE PUSH1 0x12 PUSH1 0x4 MSTORE PUSH1 0x24 PUSH0 REVERT JUMPDEST PUSH0 PUSH2 0x2A55 DUP3 PUSH2 0x1FD9 JUMP JUMPDEST SWAP2 POP PUSH2 0x2A60 DUP4 PUSH2 0x1FD9 JUMP JUMPDEST SWAP3 POP DUP3 PUSH2 0x2A70 JUMPI PUSH2 0x2A6F PUSH2 0x2A1E JUMP JUMPDEST JUMPDEST DUP3 DUP3 DIV SWAP1 POP SWAP3 SWAP2 POP POP JUMP JUMPDEST PUSH0 DUP2 MLOAD SWAP1 POP PUSH2 0x2A89 DUP2 PUSH2 0x200E JUMP JUMPDEST SWAP3 SWAP2 POP POP JUMP JUMPDEST PUSH0 PUSH1 0x20 DUP3 DUP5 SUB SLT ISZERO PUSH2 0x2AA4 JUMPI PUSH2 0x2AA3 PUSH2 0x200A JUMP JUMPDEST JUMPDEST PUSH0 PUSH2 0x2AB1 DUP5 DUP3 DUP6 ADD PUSH2 0x2A7B JUMP JUMPDEST SWAP2 POP POP SWAP3 SWAP2 POP POP JUMP JUMPDEST PUSH0 PUSH1 0x60 DUP3 ADD SWAP1 POP PUSH2 0x2ACD PUSH0 DUP4 ADD DUP7 PUSH2 0x2261 JUMP JUMPDEST PUSH2 0x2ADA PUSH1 0x20 DUP4 ADD DUP6 PUSH2 0x2261 JUMP JUMPDEST PUSH2 0x2AE7 PUSH1 0x40 DUP4 ADD DUP5 PUSH2 0x1FE2 JUMP JUMPDEST SWAP5 SWAP4 POP POP POP POP JUMP JUMPDEST PUSH2 0x2AF8 DUP2 PUSH2 0x2289 JUMP JUMPDEST DUP2 EQ PUSH2 0x2B02 JUMPI PUSH0 DUP1 REVERT JUMPDEST POP JUMP JUMPDEST PUSH0 DUP2 MLOAD SWAP1 POP PUSH2 0x2B13 DUP2 PUSH2 0x2AEF JUMP JUMPDEST SWAP3 SWAP2 POP POP JUMP JUMPDEST PUSH0 PUSH1 0x20 DUP3 DUP5 SUB SLT ISZERO PUSH2 0x2B2E JUMPI PUSH2 0x2B2D PUSH2 0x200A JUMP JUMPDEST JUMPDEST PUSH0 PUSH2 0x2B3B DUP5 DUP3 DUP6 ADD PUSH2 0x2B05 JUMP JUMPDEST SWAP2 POP POP SWAP3 SWAP2 POP POP JUMP JUMPDEST PUSH32 0x5361666545524332303A204552433230206F7065726174696F6E20646964206E PUSH0 DUP3 ADD MSTORE PUSH32 0x6F74207375636365656400000000000000000000000000000000000000000000 PUSH1 0x20 DUP3 ADD MSTORE POP JUMP JUMPDEST PUSH0 PUSH2 0x2B9E PUSH1 0x2A DUP4 PUSH2 0x2504 JUMP JUMPDEST SWAP2 POP PUSH2 0x2BA9 DUP3 PUSH2 0x2B44 JUMP JUMPDEST PUSH1 0x40 DUP3 ADD SWAP1 POP SWAP2 SWAP1 POP JUMP JUMPDEST PUSH0 PUSH1 0x20 DUP3 ADD SWAP1 POP DUP2 DUP2 SUB PUSH0 DUP4 ADD MSTORE PUSH2 0x2BCB DUP2 PUSH2 0x2B92 JUMP JUMPDEST SWAP1 POP SWAP2 SWAP1 POP JUMP JUMPDEST PUSH32 0x416464726573733A20696E73756666696369656E742062616C616E636520666F PUSH0 DUP3 ADD MSTORE PUSH32 0x722063616C6C0000000000000000000000000000000000000000000000000000 PUSH1 0x20 DUP3 ADD MSTORE POP JUMP JUMPDEST PUSH0 PUSH2 0x2C2C PUSH1 0x26 DUP4 PUSH2 0x2504 JUMP JUMPDEST SWAP2 POP PUSH2 0x2C37 DUP3 PUSH2 0x2BD2 JUMP JUMPDEST PUSH1 0x40 DUP3 ADD SWAP1 POP SWAP2 SWAP1 POP JUMP JUMPDEST PUSH0 PUSH1 0x20 DUP3 ADD SWAP1 POP DUP2 DUP2 SUB PUSH0 DUP4 ADD MSTORE PUSH2 0x2C59 DUP2 PUSH2 0x2C20 JUMP JUMPDEST SWAP1 POP SWAP2 SWAP1 POP JUMP JUMPDEST PUSH0 DUP2 MLOAD SWAP1 POP SWAP2 SWAP1 POP JUMP JUMPDEST PUSH0 DUP2 SWAP1 POP SWAP3 SWAP2 POP POP JUMP JUMPDEST DUP3 DUP2 DUP4 MCOPY PUSH0 DUP4 DUP4 ADD MSTORE POP POP POP JUMP JUMPDEST PUSH0 PUSH2 0x2C8C DUP3 PUSH2 0x2C60 JUMP JUMPDEST PUSH2 0x2C96 DUP2 DUP6 PUSH2 0x2C6A JUMP JUMPDEST SWAP4 POP PUSH2 0x2CA6 DUP2 DUP6 PUSH1 0x20 DUP7 ADD PUSH2 0x2C74 JUMP JUMPDEST DUP1 DUP5 ADD SWAP2 POP POP SWAP3 SWAP2 POP POP JUMP JUMPDEST PUSH0 PUSH2 0x2CBD DUP3 DUP5 PUSH2 0x2C82 JUMP JUMPDEST SWAP2 POP DUP2 SWAP1 POP SWAP3 SWAP2 POP POP JUMP JUMPDEST PUSH32 0x416464726573733A2063616C6C20746F206E6F6E2D636F6E7472616374000000 PUSH0 DUP3 ADD MSTORE POP JUMP JUMPDEST PUSH0 PUSH2 0x2CFC PUSH1 0x1D DUP4 PUSH2 0x2504 JUMP JUMPDEST SWAP2 POP PUSH2 0x2D07 DUP3 PUSH2 0x2CC8 JUMP JUMPDEST PUSH1 0x20 DUP3 ADD SWAP1 POP SWAP2 SWAP1 POP JUMP JUMPDEST PUSH0 PUSH1 0x20 DUP3 ADD SWAP1 POP DUP2 DUP2 SUB PUSH0 DUP4 ADD MSTORE PUSH2 0x2D29 DUP2 PUSH2 0x2CF0 JUMP JUMPDEST SWAP1 POP SWAP2 SWAP1 POP JUMP JUMPDEST PUSH0 DUP2 MLOAD SWAP1 POP SWAP2 SWAP1 POP JUMP JUMPDEST PUSH0 PUSH1 0x1F NOT PUSH1 0x1F DUP4 ADD AND SWAP1 POP SWAP2 SWAP1 POP JUMP JUMPDEST PUSH0 PUSH2 0x2D54 DUP3 PUSH2 0x2D30 JUMP JUMPDEST PUSH2 0x2D5E DUP2 DUP6 PUSH2 0x2504 JUMP JUMPDEST SWAP4 POP PUSH2 0x2D6E DUP2 DUP6 PUSH1 0x20 DUP7 ADD PUSH2 0x2C74 JUMP JUMPDEST PUSH2 0x2D77 DUP2 PUSH2 0x2D3A JUMP JUMPDEST DUP5 ADD SWAP2 POP POP SWAP3 SWAP2 POP POP JUMP JUMPDEST PUSH0 PUSH1 0x20 DUP3 ADD SWAP1 POP DUP2 DUP2 SUB PUSH0 DUP4 ADD MSTORE PUSH2 0x2D9A DUP2 DUP5 PUSH2 0x2D4A JUMP JUMPDEST SWAP1 POP SWAP3 SWAP2 POP POP JUMP INVALID LOG2 PUSH5 0x6970667358 0x22 SLT KECCAK256 0xF6 BLOBHASH 0xA6 0xDC CALLDATASIZE 0xEB 0xB7 0xCA 0xEE 0x4D LOG0 0xB9 0xE1 DIV 0xC5 0xC8 0xB8 BYTE PUSH1 0x8 SIGNEXTEND PUSH23 0x5F6C4136A532BD3F7CAF64736F6C634300081A00330000 "
				},
				"gasEstimates": {
					"creation": {
						"codeDepositCost": "2347200",
						"executionCost": "2514",
						"totalCost": "2349714"
					},
					"external": {
						"addPool(address,address,uint256,uint256)": "infinite",
						"baseRewardRate()": "2536",
						"claimReward(uint256)": "infinite",
						"distributeGovernanceTokens(address,uint256)": "infinite",
						"emergencyWithdraw(uint256)": "infinite",
						"governanceToken()": "infinite",
						"initialize(address,address,uint256,uint256,uint256,uint256,uint256,uint256)": "infinite",
						"maxMultiplier()": "2472",
						"multiplierDuration()": "2494",
						"nftBoostRate()": "2491",
						"nftToken()": "infinite",
						"owner()": "2657",
						"pause()": "infinite",
						"paused()": "2533",
						"poolInfo(uint256)": "infinite",
						"poolStakes(uint256,address)": "infinite",
						"refereeBonus()": "2514",
						"referralBonus()": "2492",
						"referralRewards(address)": "2847",
						"referrers(address)": "infinite",
						"renounceOwnership()": "infinite",
						"setLockDuration(uint256,uint256)": "infinite",
						"setNftBoostRate(uint256)": "infinite",
						"setReferrer(address)": "infinite",
						"setRewardRate(uint256,uint256)": "infinite",
						"stake(uint256,uint256)": "infinite",
						"transferOwnership(address)": "infinite",
						"unpause()": "infinite",
						"unstake(uint256,uint256)": "infinite"
					},
					"internal": {
						"_calculateRewardMultiplier(uint256)": "infinite",
						"_updatePool(uint256)": "infinite",
						"_updateRewards(uint256,address)": "infinite"
					}
				},
				"methodIdentifiers": {
					"addPool(address,address,uint256,uint256)": "c20632ba",
					"baseRewardRate()": "afbf3440",
					"claimReward(uint256)": "ae169a50",
					"distributeGovernanceTokens(address,uint256)": "dfaae412",
					"emergencyWithdraw(uint256)": "5312ea8e",
					"governanceToken()": "f96dae0a",
					"initialize(address,address,uint256,uint256,uint256,uint256,uint256,uint256)": "8ba796af",
					"maxMultiplier()": "0187aea0",
					"multiplierDuration()": "085cde2d",
					"nftBoostRate()": "e0283faf",
					"nftToken()": "d06fcba8",
					"owner()": "8da5cb5b",
					"pause()": "8456cb59",
					"paused()": "5c975abb",
					"poolInfo(uint256)": "1526fe27",
					"poolStakes(uint256,address)": "381e75eb",
					"refereeBonus()": "ce98f049",
					"referralBonus()": "ce7842f5",
					"referralRewards(address)": "53aaa63b",
					"referrers(address)": "4a3b68cc",
					"renounceOwnership()": "715018a6",
					"setLockDuration(uint256,uint256)": "126796dd",
					"setNftBoostRate(uint256)": "3b1e3eb8",
					"setReferrer(address)": "a18a7bfc",
					"setRewardRate(uint256,uint256)": "3462e0a8",
					"stake(uint256,uint256)": "7b0472f0",
					"transferOwnership(address)": "f2fde38b",
					"unpause()": "3f4ba83a",
					"unstake(uint256,uint256)": "9e2c8a5b"
				}
			},
			"storageLayout": {
				"storage": [
					{
						"astId": 463,
						"contract": "contracts/YieldFarm.sol:YieldFarm",
						"label": "_status",
						"offset": 0,
						"slot": "0",
						"type": "t_uint256"
					},
					{
						"astId": 532,
						"contract": "contracts/YieldFarm.sol:YieldFarm",
						"label": "__gap",
						"offset": 0,
						"slot": "1",
						"type": "t_array(t_uint256)49_storage"
					},
					{
						"astId": 1574,
						"contract": "contracts/YieldFarm.sol:YieldFarm",
						"label": "poolInfo",
						"offset": 0,
						"slot": "50",
						"type": "t_array(t_struct(PoolInfo)1570_storage)dyn_storage"
					},
					{
						"astId": 1581,
						"contract": "contracts/YieldFarm.sol:YieldFarm",
						"label": "poolStakes",
						"offset": 0,
						"slot": "51",
						"type": "t_mapping(t_uint256,t_mapping(t_address,t_struct(StakeInfo)1553_storage))"
					},
					{
						"astId": 1585,
						"contract": "contracts/YieldFarm.sol:YieldFarm",
						"label": "referrers",
						"offset": 0,
						"slot": "52",
						"type": "t_mapping(t_address,t_address)"
					},
					{
						"astId": 1589,
						"contract": "contracts/YieldFarm.sol:YieldFarm",
						"label": "referralRewards",
						"offset": 0,
						"slot": "53",
						"type": "t_mapping(t_address,t_uint256)"
					},
					{
						"astId": 1591,
						"contract": "contracts/YieldFarm.sol:YieldFarm",
						"label": "baseRewardRate",
						"offset": 0,
						"slot": "54",
						"type": "t_uint256"
					},
					{
						"astId": 1593,
						"contract": "contracts/YieldFarm.sol:YieldFarm",
						"label": "maxMultiplier",
						"offset": 0,
						"slot": "55",
						"type": "t_uint256"
					},
					{
						"astId": 1595,
						"contract": "contracts/YieldFarm.sol:YieldFarm",
						"label": "multiplierDuration",
						"offset": 0,
						"slot": "56",
						"type": "t_uint256"
					},
					{
						"astId": 1597,
						"contract": "contracts/YieldFarm.sol:YieldFarm",
						"label": "nftBoostRate",
						"offset": 0,
						"slot": "57",
						"type": "t_uint256"
					},
					{
						"astId": 1599,
						"contract": "contracts/YieldFarm.sol:YieldFarm",
						"label": "referralBonus",
						"offset": 0,
						"slot": "58",
						"type": "t_uint256"
					},
					{
						"astId": 1601,
						"contract": "contracts/YieldFarm.sol:YieldFarm",
						"label": "refereeBonus",
						"offset": 0,
						"slot": "59",
						"type": "t_uint256"
					},
					{
						"astId": 1603,
						"contract": "contracts/YieldFarm.sol:YieldFarm",
						"label": "paused",
						"offset": 0,
						"slot": "60",
						"type": "t_bool"
					},
					{
						"astId": 1606,
						"contract": "contracts/YieldFarm.sol:YieldFarm",
						"label": "nftToken",
						"offset": 1,
						"slot": "60",
						"type": "t_contract(IERC721Upgradeable)1139"
					},
					{
						"astId": 1609,
						"contract": "contracts/YieldFarm.sol:YieldFarm",
						"label": "governanceToken",
						"offset": 0,
						"slot": "61",
						"type": "t_contract(IERC20Upgradeable)611"
					}
				],
				"types": {
					"t_address": {
						"encoding": "inplace",
						"label": "address",
						"numberOfBytes": "20"
					},
					"t_array(t_struct(PoolInfo)1570_storage)dyn_storage": {
						"base": "t_struct(PoolInfo)1570_storage",
						"encoding": "dynamic_array",
						"label": "struct YieldFarm.PoolInfo[]",
						"numberOfBytes": "32"
					},
					"t_array(t_uint256)49_storage": {
						"base": "t_uint256",
						"encoding": "inplace",
						"label": "uint256[49]",
						"numberOfBytes": "1568"
					},
					"t_bool": {
						"encoding": "inplace",
						"label": "bool",
						"numberOfBytes": "1"
					},
					"t_contract(IERC20Upgradeable)611": {
						"encoding": "inplace",
						"label": "contract IERC20Upgradeable",
						"numberOfBytes": "20"
					},
					"t_contract(IERC721Upgradeable)1139": {
						"encoding": "inplace",
						"label": "contract IERC721Upgradeable",
						"numberOfBytes": "20"
					},
					"t_mapping(t_address,t_address)": {
						"encoding": "mapping",
						"key": "t_address",
						"label": "mapping(address => address)",
						"numberOfBytes": "32",
						"value": "t_address"
					},
					"t_mapping(t_address,t_struct(StakeInfo)1553_storage)": {
						"encoding": "mapping",
						"key": "t_address",
						"label": "mapping(address => struct YieldFarm.StakeInfo)",
						"numberOfBytes": "32",
						"value": "t_struct(StakeInfo)1553_storage"
					},
					"t_mapping(t_address,t_uint256)": {
						"encoding": "mapping",
						"key": "t_address",
						"label": "mapping(address => uint256)",
						"numberOfBytes": "32",
						"value": "t_uint256"
					},
					"t_mapping(t_uint256,t_mapping(t_address,t_struct(StakeInfo)1553_storage))": {
						"encoding": "mapping",
						"key": "t_uint256",
						"label": "mapping(uint256 => mapping(address => struct YieldFarm.StakeInfo))",
						"numberOfBytes": "32",
						"value": "t_mapping(t_address,t_struct(StakeInfo)1553_storage)"
					},
					"t_struct(PoolInfo)1570_storage": {
						"encoding": "inplace",
						"label": "struct YieldFarm.PoolInfo",
						"members": [
							{
								"astId": 1556,
								"contract": "contracts/YieldFarm.sol:YieldFarm",
								"label": "stakingToken",
								"offset": 0,
								"slot": "0",
								"type": "t_contract(IERC20Upgradeable)611"
							},
							{
								"astId": 1559,
								"contract": "contracts/YieldFarm.sol:YieldFarm",
								"label": "rewardToken",
								"offset": 0,
								"slot": "1",
								"type": "t_contract(IERC20Upgradeable)611"
							},
							{
								"astId": 1561,
								"contract": "contracts/YieldFarm.sol:YieldFarm",
								"label": "rewardRate",
								"offset": 0,
								"slot": "2",
								"type": "t_uint256"
							},
							{
								"astId": 1563,
								"contract": "contracts/YieldFarm.sol:YieldFarm",
								"label": "lockDuration",
								"offset": 0,
								"slot": "3",
								"type": "t_uint256"
							},
							{
								"astId": 1565,
								"contract": "contracts/YieldFarm.sol:YieldFarm",
								"label": "totalStaked",
								"offset": 0,
								"slot": "4",
								"type": "t_uint256"
							},
							{
								"astId": 1567,
								"contract": "contracts/YieldFarm.sol:YieldFarm",
								"label": "accRewardPerShare",
								"offset": 0,
								"slot": "5",
								"type": "t_uint256"
							},
							{
								"astId": 1569,
								"contract": "contracts/YieldFarm.sol:YieldFarm",
								"label": "lastRewardTime",
								"offset": 0,
								"slot": "6",
								"type": "t_uint256"
							}
						],
						"numberOfBytes": "224"
					},
					"t_struct(StakeInfo)1553_storage": {
						"encoding": "inplace",
						"label": "struct YieldFarm.StakeInfo",
						"members": [
							{
								"astId": 1548,
								"contract": "contracts/YieldFarm.sol:YieldFarm",
								"label": "amount",
								"offset": 0,
								"slot": "0",
								"type": "t_uint256"
							},
							{
								"astId": 1550,
								"contract": "contracts/YieldFarm.sol:YieldFarm",
								"label": "rewardDebt",
								"offset": 0,
								"slot": "1",
								"type": "t_uint256"
							},
							{
								"astId": 1552,
								"contract": "contracts/YieldFarm.sol:YieldFarm",
								"label": "lockUntil",
								"offset": 0,
								"slot": "2",
								"type": "t_uint256"
							}
						],
						"numberOfBytes": "96"
					},
					"t_uint256": {
						"encoding": "inplace",
						"label": "uint256",
						"numberOfBytes": "32"
					}
				}
			},
			"userdoc": {
				"kind": "user",
				"methods": {},
				"version": 1
			}
		}
	}
}